{
	"data": {
		"bytecode": {
			"linkReferences": {},
			"object": "6080604052662386f26fc100006002556000600355611b586004553480156200002757600080fd5b5060405162002de138038062002de183398181016040528101906200004d919062000327565b6200006d62000061620000c660201b60201c565b620000ce60201b60201c565b6200007e816200019260201b60201c565b33600660006101000a81548173ffffffffffffffffffffffffffffffffffffffff021916908373ffffffffffffffffffffffffffffffffffffffff1602179055505062000422565b600033905090565b60008060009054906101000a900473ffffffffffffffffffffffffffffffffffffffff169050816000806101000a81548173ffffffffffffffffffffffffffffffffffffffff021916908373ffffffffffffffffffffffffffffffffffffffff1602179055508173ffffffffffffffffffffffffffffffffffffffff168173ffffffffffffffffffffffffffffffffffffffff167f8be0079c531659141344cd1fd0a4f28419497f9722a3daafe3b4186f6b6457e060405160405180910390a35050565b60008190508073ffffffffffffffffffffffffffffffffffffffff166301ffc9a76380ac58cd60e01b6040518263ffffffff1660e01b8152600401620001d9919062000396565b60206040518083038186803b158015620001f257600080fd5b505afa15801562000207573d6000803e3d6000fd5b505050506040513d601f19601f820116820180604052508101906200022d9190620003f0565b6200023757600080fd5b81600560006101000a81548173ffffffffffffffffffffffffffffffffffffffff021916908373ffffffffffffffffffffffffffffffffffffffff16021790555080600160006101000a81548173ffffffffffffffffffffffffffffffffffffffff021916908373ffffffffffffffffffffffffffffffffffffffff1602179055505050565b600080fd5b600073ffffffffffffffffffffffffffffffffffffffff82169050919050565b6000620002ef82620002c2565b9050919050565b6200030181620002e2565b81146200030d57600080fd5b50565b6000815190506200032181620002f6565b92915050565b60006020828403121562000340576200033f620002bd565b5b6000620003508482850162000310565b91505092915050565b60007fffffffff0000000000000000000000000000000000000000000000000000000082169050919050565b620003908162000359565b82525050565b6000602082019050620003ad600083018462000385565b92915050565b60008115159050919050565b620003ca81620003b3565b8114620003d657600080fd5b50565b600081519050620003ea81620003bf565b92915050565b600060208284031215620004095762000408620002bd565b5b60006200041984828501620003d9565b91505092915050565b6129af80620004326000396000f3fe6080604052600436106100dd5760003560e01c806391bff3221161007f578063d56892d811610059578063d56892d814610255578063df09f6e21461027e578063ebc9bd3b146102a7578063f2fde38b146102d2576100dd565b806391bff322146101d657806398d5fdca146101ff578063d2c725cd1461022a576100dd565b8063715018a6116100bb578063715018a6146101545780637b5e4e031461016b5780638da5cb5b1461018257806391b7f5ed146101ad576100dd565b80633e1118eb146100e257806351ed82881461010d57806370f63ec414610129575b600080fd5b3480156100ee57600080fd5b506100f76102fb565b6040516101049190611f0d565b60405180910390f35b61012760048036038101906101229190611f59565b610305565b005b34801561013557600080fd5b5061013e61040b565b60405161014b9190612005565b60405180910390f35b34801561016057600080fd5b50610169610431565b005b34801561017757600080fd5b506101806104b9565b005b34801561018e57600080fd5b5061019761064a565b6040516101a49190612041565b60405180910390f35b3480156101b957600080fd5b506101d460048036038101906101cf9190611f59565b610673565b005b3480156101e257600080fd5b506101fd60048036038101906101f89190612088565b61070c565b005b34801561020b57600080fd5b50610214610794565b6040516102219190611f0d565b60405180910390f35b34801561023657600080fd5b5061023f61079e565b60405161024c9190612041565b60405180910390f35b34801561026157600080fd5b5061027c60048036038101906102779190612088565b6107c8565b005b34801561028a57600080fd5b506102a560048036038101906102a09190611f59565b610888565b005b3480156102b357600080fd5b506102bc61090e565b6040516102c99190611f0d565b60405180910390f35b3480156102de57600080fd5b506102f960048036038101906102f49190612088565b610918565b005b6000600454905090565b600254813461031491906120e4565b1015610355576040517f08c379a000000000000000000000000000000000000000000000000000000000815260040161034c9061219b565b60405180910390fd5b6004548160035461036691906121bb565b11156103a7576040517f08c379a000000000000000000000000000000000000000000000000000000000815260040161039e9061225d565b60405180910390fd5b60005b818110156103ce576103bb33610a10565b80806103c69061227d565b9150506103aa565b507f079fc0f01dc38ba287c48d683564d13539db09719cb3532fee3c1b1b61bbcf9581336040516104009291906122c6565b60405180910390a150565b600160009054906101000a900473ffffffffffffffffffffffffffffffffffffffff1681565b6104396119f4565b73ffffffffffffffffffffffffffffffffffffffff1661045761064a565b73ffffffffffffffffffffffffffffffffffffffff16146104ad576040517f08c379a00000000000000000000000000000000000000000000000000000000081526004016104a49061233b565b60405180910390fd5b6104b760006119fc565b565b6104c16119f4565b73ffffffffffffffffffffffffffffffffffffffff166104df61064a565b73ffffffffffffffffffffffffffffffffffffffff1614610535576040517f08c379a000000000000000000000000000000000000000000000000000000000815260040161052c9061233b565b60405180910390fd5b60003073ffffffffffffffffffffffffffffffffffffffff16311161058f576040517f08c379a0000000000000000000000000000000000000000000000000000000008152600401610586906123a7565b60405180910390fd5b60003073ffffffffffffffffffffffffffffffffffffffff163190506000600660009054906101000a900473ffffffffffffffffffffffffffffffffffffffff1690508073ffffffffffffffffffffffffffffffffffffffff166108fc839081150290604051600060405180830381858888f19350505050158015610618573d6000803e3d6000fd5b50817f199afc31594fc36d3d82876761025c2e001a11fc76606b65269842d6d4b8ed2960405160405180910390a25050565b60008060009054906101000a900473ffffffffffffffffffffffffffffffffffffffff16905090565b61067b6119f4565b73ffffffffffffffffffffffffffffffffffffffff1661069961064a565b73ffffffffffffffffffffffffffffffffffffffff16146106ef576040517f08c379a00000000000000000000000000000000000000000000000000000000081526004016106e69061233b565b60405180910390fd5b670de0b6b3a76400008161070391906120e4565b60028190555050565b6107146119f4565b73ffffffffffffffffffffffffffffffffffffffff1661073261064a565b73ffffffffffffffffffffffffffffffffffffffff1614610788576040517f08c379a000000000000000000000000000000000000000000000000000000000815260040161077f9061233b565b60405180910390fd5b61079181611ac0565b50565b6000600254905090565b6000600560009054906101000a900473ffffffffffffffffffffffffffffffffffffffff16905090565b6107d06119f4565b73ffffffffffffffffffffffffffffffffffffffff166107ee61064a565b73ffffffffffffffffffffffffffffffffffffffff1614610844576040517f08c379a000000000000000000000000000000000000000000000000000000000815260040161083b9061233b565b60405180910390fd5b80600660006101000a81548173ffffffffffffffffffffffffffffffffffffffff021916908373ffffffffffffffffffffffffffffffffffffffff16021790555050565b6108906119f4565b73ffffffffffffffffffffffffffffffffffffffff166108ae61064a565b73ffffffffffffffffffffffffffffffffffffffff1614610904576040517f08c379a00000000000000000000000000000000000000000000000000000000081526004016108fb9061233b565b60405180910390fd5b8060048190555050565b6000600354905090565b6109206119f4565b73ffffffffffffffffffffffffffffffffffffffff1661093e61064a565b73ffffffffffffffffffffffffffffffffffffffff1614610994576040517f08c379a000000000000000000000000000000000000000000000000000000000815260040161098b9061233b565b60405180910390fd5b600073ffffffffffffffffffffffffffffffffffffffff168173ffffffffffffffffffffffffffffffffffffffff161415610a04576040517f08c379a00000000000000000000000000000000000000000000000000000000081526004016109fb90612439565b60405180910390fd5b610a0d816119fc565b50565b600067ffffffffffffffff811115610a2b57610a2a612459565b5b604051908082528060200260200182016040528015610a5e57816020015b6060815260200190600190039081610a495790505b5060079080519060200190610a74929190611d8d565b50600780600181540180825580915050600190039060005260206000200160006040518060400160405280600781526020017f706172656e74310000000000000000000000000000000000000000000000000081525090919091509080519060200190610ae2929190611ded565b50600780600181540180825580915050600190039060005260206000200160006040518060400160405280600181526020017f300000000000000000000000000000000000000000000000000000000000000081525090919091509080519060200190610b50929190611ded565b50600780600181540180825580915050600190039060005260206000200160006040518060400160405280600781526020017f706172656e74320000000000000000000000000000000000000000000000000081525090919091509080519060200190610bbe929190611ded565b50600780600181540180825580915050600190039060005260206000200160006040518060400160405280600181526020017f300000000000000000000000000000000000000000000000000000000000000081525090919091509080519060200190610c2c929190611ded565b506000610c3d600462015b38611be4565b6001610c4991906121bb565b90506000610c5682611c2c565b610c76610c6560076001611be4565b6001610c7191906121bb565b611c2c565b604051602001610c87929190612502565b60405160208183030381529060405290506000610ca383611c2c565b610cc3610cb260076002611be4565b6001610cbe91906121bb565b611c2c565b604051602001610cd4929190612502565b60405160208183030381529060405290506000610cf084611c2c565b610d10610cff60076003611be4565b6001610d0b91906121bb565b611c2c565b604051602001610d21929190612502565b60405160208183030381529060405290506000610d3d85611c2c565b610d5d610d4c60076004611be4565b6001610d5891906121bb565b611c2c565b604051602001610d6e929190612502565b60405160208183030381529060405290506000610d8a86611c2c565b610daa610d9960076005611be4565b6001610da591906121bb565b611c2c565b604051602001610dbb929190612502565b60405160208183030381529060405290506000610dd787611c2c565b610df7610de660076006611be4565b6001610df291906121bb565b611c2c565b604051602001610e08929190612502565b6040516020818303038152906040529050600780600181540180825580915050600190039060005260206000200160006040518060400160405280600981526020017f6b697474656e5f6964000000000000000000000000000000000000000000000081525090919091509080519060200190610e86929190611ded565b50600780600181540180825580915050600190039060005260206000200160006040518060400160405280600181526020017f300000000000000000000000000000000000000000000000000000000000000081525090919091509080519060200190610ef4929190611ded565b50600780600181540180825580915050600190039060005260206000200160006040518060400160405280600d81526020017f6d756c7469706c79436f756e740000000000000000000000000000000000000081525090919091509080519060200190610f62929190611ded565b50600780600181540180825580915050600190039060005260206000200160006040518060400160405280600181526020017f300000000000000000000000000000000000000000000000000000000000000081525090919091509080519060200190610fd0929190611ded565b50600780600181540180825580915050600190039060005260206000200160006040518060400160405280600481526020017f626f6479000000000000000000000000000000000000000000000000000000008152509091909150908051906020019061103e929190611ded565b5060078690806001815401808255809150506001900390600052602060002001600090919091909150908051906020019061107a929190611ded565b50600780600181540180825580915050600190039060005260206000200160006040518060400160405280600481526020017f6661636500000000000000000000000000000000000000000000000000000000815250909190915090805190602001906110e8929190611ded565b50600785908060018154018082558091505060019003906000526020600020016000909190919091509080519060200190611124929190611ded565b50600780600181540180825580915050600190039060005260206000200160006040518060400160405280600481526020017f73686f650000000000000000000000000000000000000000000000000000000081525090919091509080519060200190611192929190611ded565b506007849080600181540180825580915050600190039060005260206000200160009091909190915090805190602001906111ce929190611ded565b50600780600181540180825580915050600190039060005260206000200160006040518060400160405280600881526020017f636c6f7468696e670000000000000000000000000000000000000000000000008152509091909150908051906020019061123c929190611ded565b50600783908060018154018082558091505060019003906000526020600020016000909190919091509080519060200190611278929190611ded565b50600780600181540180825580915050600190039060005260206000200160006040518060400160405280600981526020017f61646f726e6d656e740000000000000000000000000000000000000000000000815250909190915090805190602001906112e6929190611ded565b50600782908060018154018082558091505060019003906000526020600020016000909190919091509080519060200190611322929190611ded565b50600780600181540180825580915050600190039060005260206000200160006040518060400160405280600481526020017f6974656d0000000000000000000000000000000000000000000000000000000081525090919091509080519060200190611390929190611ded565b506007819080600181540180825580915050600190039060005260206000200160009091909190915090805190602001906113cc929190611ded565b50600780600181540180825580915050600190039060005260206000200160006040518060400160405280600881526020017f737472656e6774680000000000000000000000000000000000000000000000008152509091909150908051906020019061143a929190611ded565b50600761145c61144b606480611be4565b600161145791906121bb565b611c2c565b908060018154018082558091505060019003906000526020600020016000909190919091509080519060200190611494929190611ded565b50600780600181540180825580915050600190039060005260206000200160006040518060400160405280600781526020017f6167696c6974790000000000000000000000000000000000000000000000000081525090919091509080519060200190611502929190611ded565b50600761152661151560646103e8611be4565b600161152191906121bb565b611c2c565b90806001815401808255809150506001900390600052602060002001600090919091909150908051906020019061155e929190611ded565b50600780600181540180825580915050600190039060005260206000200160006040518060400160405280600781526020017f7374616d696e6100000000000000000000000000000000000000000000000000815250909190915090805190602001906115cc929190611ded565b5060076115f06115df6064612710611be4565b60016115eb91906121bb565b611c2c565b908060018154018082558091505060019003906000526020600020016000909190919091509080519060200190611628929190611ded565b50600780600181540180825580915050600190039060005260206000200160006040518060400160405280600981526020017f656e647572616e6365000000000000000000000000000000000000000000000081525090919091509080519060200190611696929190611ded565b5060076116bb6116aa6064620186a0611be4565b60016116b691906121bb565b611c2c565b9080600181540180825580915050600190039060005260206000200160009091909190915090805190602001906116f3929190611ded565b50600780600181540180825580915050600190039060005260206000200160006040518060400160405280600481526020017f6c75636b0000000000000000000000000000000000000000000000000000000081525090919091509080519060200190611761929190611ded565b5060076117866117756064620f4240611be4565b600161178191906121bb565b611c2c565b9080600181540180825580915050600190039060005260206000200160009091909190915090805190602001906117be929190611ded565b50600780600181540180825580915050600190039060005260206000200160006040518060400160405280600481526020017f77696c6c000000000000000000000000000000000000000000000000000000008152509091909150908051906020019061182c929190611ded565b506007611851611840606462989680611be4565b600161184c91906121bb565b611c2c565b908060018154018082558091505060019003906000526020600020016000909190919091509080519060200190611889929190611ded565b50600780600181540180825580915050600190039060005260206000200160006040518060400160405280600681526020017f7370697269740000000000000000000000000000000000000000000000000000815250909190915090805190602001906118f7929190611ded565b50600761191d61190c60646305f5e100611be4565b600161191891906121bb565b611c2c565b908060018154018082558091505060019003906000526020600020016000909190919091509080519060200190611955929190611ded565b50600160009054906101000a900473ffffffffffffffffffffffffffffffffffffffff1673ffffffffffffffffffffffffffffffffffffffff1663d5043c7d8961271060076040518463ffffffff1660e01b81526004016119b89392919061272e565b600060405180830381600087803b1580156119d257600080fd5b505af11580156119e6573d6000803e3d6000fd5b505050505050505050505050565b600033905090565b60008060009054906101000a900473ffffffffffffffffffffffffffffffffffffffff169050816000806101000a81548173ffffffffffffffffffffffffffffffffffffffff021916908373ffffffffffffffffffffffffffffffffffffffff1602179055508173ffffffffffffffffffffffffffffffffffffffff168173ffffffffffffffffffffffffffffffffffffffff167f8be0079c531659141344cd1fd0a4f28419497f9722a3daafe3b4186f6b6457e060405160405180910390a35050565b60008190508073ffffffffffffffffffffffffffffffffffffffff166301ffc9a76380ac58cd60e01b6040518263ffffffff1660e01b8152600401611b0591906127a7565b60206040518083038186803b158015611b1d57600080fd5b505afa158015611b31573d6000803e3d6000fd5b505050506040513d601f19601f82011682018060405250810190611b5591906127fa565b611b5e57600080fd5b81600560006101000a81548173ffffffffffffffffffffffffffffffffffffffff021916908373ffffffffffffffffffffffffffffffffffffffff16021790555080600160006101000a81548173ffffffffffffffffffffffffffffffffffffffff021916908373ffffffffffffffffffffffffffffffffffffffff1602179055505050565b600080444284604051602001611bfc93929190612848565b6040516020818303038152906040528051906020012060001c90508381611c2391906128b4565b91505092915050565b60606000821415611c74576040518060400160405280600181526020017f30000000000000000000000000000000000000000000000000000000000000008152509050611d88565b600082905060005b60008214611ca6578080611c8f9061227d565b915050600a82611c9f91906128e5565b9150611c7c565b60008167ffffffffffffffff811115611cc257611cc1612459565b5b6040519080825280601f01601f191660200182016040528015611cf45781602001600182028036833780820191505090505b5090505b60008514611d8157600182611d0d9190612916565b9150600a85611d1c91906128b4565b6030611d2891906121bb565b60f81b818381518110611d3e57611d3d61294a565b5b60200101907effffffffffffffffffffffffffffffffffffffffffffffffffffffffffffff1916908160001a905350600a85611d7a91906128e5565b9450611cf8565b8093505050505b919050565b828054828255906000526020600020908101928215611ddc579160200282015b82811115611ddb578251829080519060200190611dcb929190611ded565b5091602001919060010190611dad565b5b509050611de99190611e73565b5090565b828054611df9906125c1565b90600052602060002090601f016020900481019282611e1b5760008555611e62565b82601f10611e3457805160ff1916838001178555611e62565b82800160010185558215611e62579182015b82811115611e61578251825591602001919060010190611e46565b5b509050611e6f9190611e97565b5090565b5b80821115611e935760008181611e8a9190611eb4565b50600101611e74565b5090565b5b80821115611eb0576000816000905550600101611e98565b5090565b508054611ec0906125c1565b6000825580601f10611ed25750611ef1565b601f016020900490600052602060002090810190611ef09190611e97565b5b50565b6000819050919050565b611f0781611ef4565b82525050565b6000602082019050611f226000830184611efe565b92915050565b600080fd5b611f3681611ef4565b8114611f4157600080fd5b50565b600081359050611f5381611f2d565b92915050565b600060208284031215611f6f57611f6e611f28565b5b6000611f7d84828501611f44565b91505092915050565b600073ffffffffffffffffffffffffffffffffffffffff82169050919050565b6000819050919050565b6000611fcb611fc6611fc184611f86565b611fa6565b611f86565b9050919050565b6000611fdd82611fb0565b9050919050565b6000611fef82611fd2565b9050919050565b611fff81611fe4565b82525050565b600060208201905061201a6000830184611ff6565b92915050565b600061202b82611f86565b9050919050565b61203b81612020565b82525050565b60006020820190506120566000830184612032565b92915050565b61206581612020565b811461207057600080fd5b50565b6000813590506120828161205c565b92915050565b60006020828403121561209e5761209d611f28565b5b60006120ac84828501612073565b91505092915050565b7f4e487b7100000000000000000000000000000000000000000000000000000000600052601160045260246000fd5b60006120ef82611ef4565b91506120fa83611ef4565b9250817fffffffffffffffffffffffffffffffffffffffffffffffffffffffffffffffff0483118215151615612133576121326120b5565b5b828202905092915050565b600082825260208201905092915050565b7f424e42206e6f7420656e6f756768000000000000000000000000000000000000600082015250565b6000612185600e8361213e565b91506121908261214f565b602082019050919050565b600060208201905081810360008301526121b481612178565b9050919050565b60006121c682611ef4565b91506121d183611ef4565b9250827fffffffffffffffffffffffffffffffffffffffffffffffffffffffffffffffff03821115612206576122056120b5565b5b828201905092915050565b7f536f6c64206f7574000000000000000000000000000000000000000000000000600082015250565b600061224760088361213e565b915061225282612211565b602082019050919050565b600060208201905081810360008301526122768161223a565b9050919050565b600061228882611ef4565b91507fffffffffffffffffffffffffffffffffffffffffffffffffffffffffffffffff8214156122bb576122ba6120b5565b5b600182019050919050565b60006040820190506122db6000830185611efe565b6122e86020830184612032565b9392505050565b7f4f776e61626c653a2063616c6c6572206973206e6f7420746865206f776e6572600082015250565b600061232560208361213e565b9150612330826122ef565b602082019050919050565b6000602082019050818103600083015261235481612318565b9050919050565b7f62616c616e6365206973207a65726f0000000000000000000000000000000000600082015250565b6000612391600f8361213e565b915061239c8261235b565b602082019050919050565b600060208201905081810360008301526123c081612384565b9050919050565b7f4f776e61626c653a206e6577206f776e657220697320746865207a65726f206160008201527f6464726573730000000000000000000000000000000000000000000000000000602082015250565b600061242360268361213e565b915061242e826123c7565b604082019050919050565b6000602082019050818103600083015261245281612416565b9050919050565b7f4e487b7100000000000000000000000000000000000000000000000000000000600052604160045260246000fd5b600081519050919050565b600081905092915050565b60005b838110156124bc5780820151818401526020810190506124a1565b838111156124cb576000848401525b50505050565b60006124dc82612488565b6124e68185612493565b93506124f681856020860161249e565b80840191505092915050565b600061250e82856124d1565b915061251a82846124d1565b91508190509392505050565b6000819050919050565b600061254b61254661254184612526565b611fa6565b611ef4565b9050919050565b61255b81612530565b82525050565b600081549050919050565b600082825260208201905092915050565b60008190508160005260206000209050919050565b7f4e487b7100000000000000000000000000000000000000000000000000000000600052602260045260246000fd5b600060028204905060018216806125d957607f821691505b602082108114156125ed576125ec612592565b5b50919050565b600082825260208201905092915050565b60008190508160005260206000209050919050565b60008154612626816125c1565b61263081866125f3565b9450600182166000811461264b576001811461265d57612690565b60ff1983168652602086019350612690565b61266685612604565b60005b8381101561268857815481890152600182019150602081019050612669565b808801955050505b50505092915050565b60006126a58383612619565b905092915050565b6000600182019050919050565b60006126c582612561565b6126cf818561256c565b9350836020820285016126e18561257d565b8060005b8581101561271c578484038952816126fd8582612699565b9450612708836126ad565b925060208a019950506001810190506126e5565b50829750879550505050505092915050565b60006060820190506127436000830186612032565b6127506020830185612552565b818103604083015261276281846126ba565b9050949350505050565b60007fffffffff0000000000000000000000000000000000000000000000000000000082169050919050565b6127a18161276c565b82525050565b60006020820190506127bc6000830184612798565b92915050565b60008115159050919050565b6127d7816127c2565b81146127e257600080fd5b50565b6000815190506127f4816127ce565b92915050565b6000602082840312156128105761280f611f28565b5b600061281e848285016127e5565b91505092915050565b6000819050919050565b61284261283d82611ef4565b612827565b82525050565b60006128548286612831565b6020820191506128648285612831565b6020820191506128748284612831565b602082019150819050949350505050565b7f4e487b7100000000000000000000000000000000000000000000000000000000600052601260045260246000fd5b60006128bf82611ef4565b91506128ca83611ef4565b9250826128da576128d9612885565b5b828206905092915050565b60006128f082611ef4565b91506128fb83611ef4565b92508261290b5761290a612885565b5b828204905092915050565b600061292182611ef4565b915061292c83611ef4565b92508282101561293f5761293e6120b5565b5b828203905092915050565b7f4e487b7100000000000000000000000000000000000000000000000000000000600052603260045260246000fdfea26469706673582212200f5923a8de0f4374372da92ab38c6524e4653539f3404c458c0318bc991eb64e64736f6c63430008090033",
			"opcodes": "PUSH1 0x80 PUSH1 0x40 MSTORE PUSH7 0x2386F26FC10000 PUSH1 0x2 SSTORE PUSH1 0x0 PUSH1 0x3 SSTORE PUSH2 0x1B58 PUSH1 0x4 SSTORE CALLVALUE DUP1 ISZERO PUSH3 0x27 JUMPI PUSH1 0x0 DUP1 REVERT JUMPDEST POP PUSH1 0x40 MLOAD PUSH3 0x2DE1 CODESIZE SUB DUP1 PUSH3 0x2DE1 DUP4 CODECOPY DUP2 DUP2 ADD PUSH1 0x40 MSTORE DUP2 ADD SWAP1 PUSH3 0x4D SWAP2 SWAP1 PUSH3 0x327 JUMP JUMPDEST PUSH3 0x6D PUSH3 0x61 PUSH3 0xC6 PUSH1 0x20 SHL PUSH1 0x20 SHR JUMP JUMPDEST PUSH3 0xCE PUSH1 0x20 SHL PUSH1 0x20 SHR JUMP JUMPDEST PUSH3 0x7E DUP2 PUSH3 0x192 PUSH1 0x20 SHL PUSH1 0x20 SHR JUMP JUMPDEST CALLER PUSH1 0x6 PUSH1 0x0 PUSH2 0x100 EXP DUP2 SLOAD DUP2 PUSH20 0xFFFFFFFFFFFFFFFFFFFFFFFFFFFFFFFFFFFFFFFF MUL NOT AND SWAP1 DUP4 PUSH20 0xFFFFFFFFFFFFFFFFFFFFFFFFFFFFFFFFFFFFFFFF AND MUL OR SWAP1 SSTORE POP POP PUSH3 0x422 JUMP JUMPDEST PUSH1 0x0 CALLER SWAP1 POP SWAP1 JUMP JUMPDEST PUSH1 0x0 DUP1 PUSH1 0x0 SWAP1 SLOAD SWAP1 PUSH2 0x100 EXP SWAP1 DIV PUSH20 0xFFFFFFFFFFFFFFFFFFFFFFFFFFFFFFFFFFFFFFFF AND SWAP1 POP DUP2 PUSH1 0x0 DUP1 PUSH2 0x100 EXP DUP2 SLOAD DUP2 PUSH20 0xFFFFFFFFFFFFFFFFFFFFFFFFFFFFFFFFFFFFFFFF MUL NOT AND SWAP1 DUP4 PUSH20 0xFFFFFFFFFFFFFFFFFFFFFFFFFFFFFFFFFFFFFFFF AND MUL OR SWAP1 SSTORE POP DUP2 PUSH20 0xFFFFFFFFFFFFFFFFFFFFFFFFFFFFFFFFFFFFFFFF AND DUP2 PUSH20 0xFFFFFFFFFFFFFFFFFFFFFFFFFFFFFFFFFFFFFFFF AND PUSH32 0x8BE0079C531659141344CD1FD0A4F28419497F9722A3DAAFE3B4186F6B6457E0 PUSH1 0x40 MLOAD PUSH1 0x40 MLOAD DUP1 SWAP2 SUB SWAP1 LOG3 POP POP JUMP JUMPDEST PUSH1 0x0 DUP2 SWAP1 POP DUP1 PUSH20 0xFFFFFFFFFFFFFFFFFFFFFFFFFFFFFFFFFFFFFFFF AND PUSH4 0x1FFC9A7 PUSH4 0x80AC58CD PUSH1 0xE0 SHL PUSH1 0x40 MLOAD DUP3 PUSH4 0xFFFFFFFF AND PUSH1 0xE0 SHL DUP2 MSTORE PUSH1 0x4 ADD PUSH3 0x1D9 SWAP2 SWAP1 PUSH3 0x396 JUMP JUMPDEST PUSH1 0x20 PUSH1 0x40 MLOAD DUP1 DUP4 SUB DUP2 DUP7 DUP1 EXTCODESIZE ISZERO DUP1 ISZERO PUSH3 0x1F2 JUMPI PUSH1 0x0 DUP1 REVERT JUMPDEST POP GAS STATICCALL ISZERO DUP1 ISZERO PUSH3 0x207 JUMPI RETURNDATASIZE PUSH1 0x0 DUP1 RETURNDATACOPY RETURNDATASIZE PUSH1 0x0 REVERT JUMPDEST POP POP POP POP PUSH1 0x40 MLOAD RETURNDATASIZE PUSH1 0x1F NOT PUSH1 0x1F DUP3 ADD AND DUP3 ADD DUP1 PUSH1 0x40 MSTORE POP DUP2 ADD SWAP1 PUSH3 0x22D SWAP2 SWAP1 PUSH3 0x3F0 JUMP JUMPDEST PUSH3 0x237 JUMPI PUSH1 0x0 DUP1 REVERT JUMPDEST DUP2 PUSH1 0x5 PUSH1 0x0 PUSH2 0x100 EXP DUP2 SLOAD DUP2 PUSH20 0xFFFFFFFFFFFFFFFFFFFFFFFFFFFFFFFFFFFFFFFF MUL NOT AND SWAP1 DUP4 PUSH20 0xFFFFFFFFFFFFFFFFFFFFFFFFFFFFFFFFFFFFFFFF AND MUL OR SWAP1 SSTORE POP DUP1 PUSH1 0x1 PUSH1 0x0 PUSH2 0x100 EXP DUP2 SLOAD DUP2 PUSH20 0xFFFFFFFFFFFFFFFFFFFFFFFFFFFFFFFFFFFFFFFF MUL NOT AND SWAP1 DUP4 PUSH20 0xFFFFFFFFFFFFFFFFFFFFFFFFFFFFFFFFFFFFFFFF AND MUL OR SWAP1 SSTORE POP POP POP JUMP JUMPDEST PUSH1 0x0 DUP1 REVERT JUMPDEST PUSH1 0x0 PUSH20 0xFFFFFFFFFFFFFFFFFFFFFFFFFFFFFFFFFFFFFFFF DUP3 AND SWAP1 POP SWAP2 SWAP1 POP JUMP JUMPDEST PUSH1 0x0 PUSH3 0x2EF DUP3 PUSH3 0x2C2 JUMP JUMPDEST SWAP1 POP SWAP2 SWAP1 POP JUMP JUMPDEST PUSH3 0x301 DUP2 PUSH3 0x2E2 JUMP JUMPDEST DUP2 EQ PUSH3 0x30D JUMPI PUSH1 0x0 DUP1 REVERT JUMPDEST POP JUMP JUMPDEST PUSH1 0x0 DUP2 MLOAD SWAP1 POP PUSH3 0x321 DUP2 PUSH3 0x2F6 JUMP JUMPDEST SWAP3 SWAP2 POP POP JUMP JUMPDEST PUSH1 0x0 PUSH1 0x20 DUP3 DUP5 SUB SLT ISZERO PUSH3 0x340 JUMPI PUSH3 0x33F PUSH3 0x2BD JUMP JUMPDEST JUMPDEST PUSH1 0x0 PUSH3 0x350 DUP5 DUP3 DUP6 ADD PUSH3 0x310 JUMP JUMPDEST SWAP2 POP POP SWAP3 SWAP2 POP POP JUMP JUMPDEST PUSH1 0x0 PUSH32 0xFFFFFFFF00000000000000000000000000000000000000000000000000000000 DUP3 AND SWAP1 POP SWAP2 SWAP1 POP JUMP JUMPDEST PUSH3 0x390 DUP2 PUSH3 0x359 JUMP JUMPDEST DUP3 MSTORE POP POP JUMP JUMPDEST PUSH1 0x0 PUSH1 0x20 DUP3 ADD SWAP1 POP PUSH3 0x3AD PUSH1 0x0 DUP4 ADD DUP5 PUSH3 0x385 JUMP JUMPDEST SWAP3 SWAP2 POP POP JUMP JUMPDEST PUSH1 0x0 DUP2 ISZERO ISZERO SWAP1 POP SWAP2 SWAP1 POP JUMP JUMPDEST PUSH3 0x3CA DUP2 PUSH3 0x3B3 JUMP JUMPDEST DUP2 EQ PUSH3 0x3D6 JUMPI PUSH1 0x0 DUP1 REVERT JUMPDEST POP JUMP JUMPDEST PUSH1 0x0 DUP2 MLOAD SWAP1 POP PUSH3 0x3EA DUP2 PUSH3 0x3BF JUMP JUMPDEST SWAP3 SWAP2 POP POP JUMP JUMPDEST PUSH1 0x0 PUSH1 0x20 DUP3 DUP5 SUB SLT ISZERO PUSH3 0x409 JUMPI PUSH3 0x408 PUSH3 0x2BD JUMP JUMPDEST JUMPDEST PUSH1 0x0 PUSH3 0x419 DUP5 DUP3 DUP6 ADD PUSH3 0x3D9 JUMP JUMPDEST SWAP2 POP POP SWAP3 SWAP2 POP POP JUMP JUMPDEST PUSH2 0x29AF DUP1 PUSH3 0x432 PUSH1 0x0 CODECOPY PUSH1 0x0 RETURN INVALID PUSH1 0x80 PUSH1 0x40 MSTORE PUSH1 0x4 CALLDATASIZE LT PUSH2 0xDD JUMPI PUSH1 0x0 CALLDATALOAD PUSH1 0xE0 SHR DUP1 PUSH4 0x91BFF322 GT PUSH2 0x7F JUMPI DUP1 PUSH4 0xD56892D8 GT PUSH2 0x59 JUMPI DUP1 PUSH4 0xD56892D8 EQ PUSH2 0x255 JUMPI DUP1 PUSH4 0xDF09F6E2 EQ PUSH2 0x27E JUMPI DUP1 PUSH4 0xEBC9BD3B EQ PUSH2 0x2A7 JUMPI DUP1 PUSH4 0xF2FDE38B EQ PUSH2 0x2D2 JUMPI PUSH2 0xDD JUMP JUMPDEST DUP1 PUSH4 0x91BFF322 EQ PUSH2 0x1D6 JUMPI DUP1 PUSH4 0x98D5FDCA EQ PUSH2 0x1FF JUMPI DUP1 PUSH4 0xD2C725CD EQ PUSH2 0x22A JUMPI PUSH2 0xDD JUMP JUMPDEST DUP1 PUSH4 0x715018A6 GT PUSH2 0xBB JUMPI DUP1 PUSH4 0x715018A6 EQ PUSH2 0x154 JUMPI DUP1 PUSH4 0x7B5E4E03 EQ PUSH2 0x16B JUMPI DUP1 PUSH4 0x8DA5CB5B EQ PUSH2 0x182 JUMPI DUP1 PUSH4 0x91B7F5ED EQ PUSH2 0x1AD JUMPI PUSH2 0xDD JUMP JUMPDEST DUP1 PUSH4 0x3E1118EB EQ PUSH2 0xE2 JUMPI DUP1 PUSH4 0x51ED8288 EQ PUSH2 0x10D JUMPI DUP1 PUSH4 0x70F63EC4 EQ PUSH2 0x129 JUMPI JUMPDEST PUSH1 0x0 DUP1 REVERT JUMPDEST CALLVALUE DUP1 ISZERO PUSH2 0xEE JUMPI PUSH1 0x0 DUP1 REVERT JUMPDEST POP PUSH2 0xF7 PUSH2 0x2FB JUMP JUMPDEST PUSH1 0x40 MLOAD PUSH2 0x104 SWAP2 SWAP1 PUSH2 0x1F0D JUMP JUMPDEST PUSH1 0x40 MLOAD DUP1 SWAP2 SUB SWAP1 RETURN JUMPDEST PUSH2 0x127 PUSH1 0x4 DUP1 CALLDATASIZE SUB DUP2 ADD SWAP1 PUSH2 0x122 SWAP2 SWAP1 PUSH2 0x1F59 JUMP JUMPDEST PUSH2 0x305 JUMP JUMPDEST STOP JUMPDEST CALLVALUE DUP1 ISZERO PUSH2 0x135 JUMPI PUSH1 0x0 DUP1 REVERT JUMPDEST POP PUSH2 0x13E PUSH2 0x40B JUMP JUMPDEST PUSH1 0x40 MLOAD PUSH2 0x14B SWAP2 SWAP1 PUSH2 0x2005 JUMP JUMPDEST PUSH1 0x40 MLOAD DUP1 SWAP2 SUB SWAP1 RETURN JUMPDEST CALLVALUE DUP1 ISZERO PUSH2 0x160 JUMPI PUSH1 0x0 DUP1 REVERT JUMPDEST POP PUSH2 0x169 PUSH2 0x431 JUMP JUMPDEST STOP JUMPDEST CALLVALUE DUP1 ISZERO PUSH2 0x177 JUMPI PUSH1 0x0 DUP1 REVERT JUMPDEST POP PUSH2 0x180 PUSH2 0x4B9 JUMP JUMPDEST STOP JUMPDEST CALLVALUE DUP1 ISZERO PUSH2 0x18E JUMPI PUSH1 0x0 DUP1 REVERT JUMPDEST POP PUSH2 0x197 PUSH2 0x64A JUMP JUMPDEST PUSH1 0x40 MLOAD PUSH2 0x1A4 SWAP2 SWAP1 PUSH2 0x2041 JUMP JUMPDEST PUSH1 0x40 MLOAD DUP1 SWAP2 SUB SWAP1 RETURN JUMPDEST CALLVALUE DUP1 ISZERO PUSH2 0x1B9 JUMPI PUSH1 0x0 DUP1 REVERT JUMPDEST POP PUSH2 0x1D4 PUSH1 0x4 DUP1 CALLDATASIZE SUB DUP2 ADD SWAP1 PUSH2 0x1CF SWAP2 SWAP1 PUSH2 0x1F59 JUMP JUMPDEST PUSH2 0x673 JUMP JUMPDEST STOP JUMPDEST CALLVALUE DUP1 ISZERO PUSH2 0x1E2 JUMPI PUSH1 0x0 DUP1 REVERT JUMPDEST POP PUSH2 0x1FD PUSH1 0x4 DUP1 CALLDATASIZE SUB DUP2 ADD SWAP1 PUSH2 0x1F8 SWAP2 SWAP1 PUSH2 0x2088 JUMP JUMPDEST PUSH2 0x70C JUMP JUMPDEST STOP JUMPDEST CALLVALUE DUP1 ISZERO PUSH2 0x20B JUMPI PUSH1 0x0 DUP1 REVERT JUMPDEST POP PUSH2 0x214 PUSH2 0x794 JUMP JUMPDEST PUSH1 0x40 MLOAD PUSH2 0x221 SWAP2 SWAP1 PUSH2 0x1F0D JUMP JUMPDEST PUSH1 0x40 MLOAD DUP1 SWAP2 SUB SWAP1 RETURN JUMPDEST CALLVALUE DUP1 ISZERO PUSH2 0x236 JUMPI PUSH1 0x0 DUP1 REVERT JUMPDEST POP PUSH2 0x23F PUSH2 0x79E JUMP JUMPDEST PUSH1 0x40 MLOAD PUSH2 0x24C SWAP2 SWAP1 PUSH2 0x2041 JUMP JUMPDEST PUSH1 0x40 MLOAD DUP1 SWAP2 SUB SWAP1 RETURN JUMPDEST CALLVALUE DUP1 ISZERO PUSH2 0x261 JUMPI PUSH1 0x0 DUP1 REVERT JUMPDEST POP PUSH2 0x27C PUSH1 0x4 DUP1 CALLDATASIZE SUB DUP2 ADD SWAP1 PUSH2 0x277 SWAP2 SWAP1 PUSH2 0x2088 JUMP JUMPDEST PUSH2 0x7C8 JUMP JUMPDEST STOP JUMPDEST CALLVALUE DUP1 ISZERO PUSH2 0x28A JUMPI PUSH1 0x0 DUP1 REVERT JUMPDEST POP PUSH2 0x2A5 PUSH1 0x4 DUP1 CALLDATASIZE SUB DUP2 ADD SWAP1 PUSH2 0x2A0 SWAP2 SWAP1 PUSH2 0x1F59 JUMP JUMPDEST PUSH2 0x888 JUMP JUMPDEST STOP JUMPDEST CALLVALUE DUP1 ISZERO PUSH2 0x2B3 JUMPI PUSH1 0x0 DUP1 REVERT JUMPDEST POP PUSH2 0x2BC PUSH2 0x90E JUMP JUMPDEST PUSH1 0x40 MLOAD PUSH2 0x2C9 SWAP2 SWAP1 PUSH2 0x1F0D JUMP JUMPDEST PUSH1 0x40 MLOAD DUP1 SWAP2 SUB SWAP1 RETURN JUMPDEST CALLVALUE DUP1 ISZERO PUSH2 0x2DE JUMPI PUSH1 0x0 DUP1 REVERT JUMPDEST POP PUSH2 0x2F9 PUSH1 0x4 DUP1 CALLDATASIZE SUB DUP2 ADD SWAP1 PUSH2 0x2F4 SWAP2 SWAP1 PUSH2 0x2088 JUMP JUMPDEST PUSH2 0x918 JUMP JUMPDEST STOP JUMPDEST PUSH1 0x0 PUSH1 0x4 SLOAD SWAP1 POP SWAP1 JUMP JUMPDEST PUSH1 0x2 SLOAD DUP2 CALLVALUE PUSH2 0x314 SWAP2 SWAP1 PUSH2 0x20E4 JUMP JUMPDEST LT ISZERO PUSH2 0x355 JUMPI PUSH1 0x40 MLOAD PUSH32 0x8C379A000000000000000000000000000000000000000000000000000000000 DUP2 MSTORE PUSH1 0x4 ADD PUSH2 0x34C SWAP1 PUSH2 0x219B JUMP JUMPDEST PUSH1 0x40 MLOAD DUP1 SWAP2 SUB SWAP1 REVERT JUMPDEST PUSH1 0x4 SLOAD DUP2 PUSH1 0x3 SLOAD PUSH2 0x366 SWAP2 SWAP1 PUSH2 0x21BB JUMP JUMPDEST GT ISZERO PUSH2 0x3A7 JUMPI PUSH1 0x40 MLOAD PUSH32 0x8C379A000000000000000000000000000000000000000000000000000000000 DUP2 MSTORE PUSH1 0x4 ADD PUSH2 0x39E SWAP1 PUSH2 0x225D JUMP JUMPDEST PUSH1 0x40 MLOAD DUP1 SWAP2 SUB SWAP1 REVERT JUMPDEST PUSH1 0x0 JUMPDEST DUP2 DUP2 LT ISZERO PUSH2 0x3CE JUMPI PUSH2 0x3BB CALLER PUSH2 0xA10 JUMP JUMPDEST DUP1 DUP1 PUSH2 0x3C6 SWAP1 PUSH2 0x227D JUMP JUMPDEST SWAP2 POP POP PUSH2 0x3AA JUMP JUMPDEST POP PUSH32 0x79FC0F01DC38BA287C48D683564D13539DB09719CB3532FEE3C1B1B61BBCF95 DUP2 CALLER PUSH1 0x40 MLOAD PUSH2 0x400 SWAP3 SWAP2 SWAP1 PUSH2 0x22C6 JUMP JUMPDEST PUSH1 0x40 MLOAD DUP1 SWAP2 SUB SWAP1 LOG1 POP JUMP JUMPDEST PUSH1 0x1 PUSH1 0x0 SWAP1 SLOAD SWAP1 PUSH2 0x100 EXP SWAP1 DIV PUSH20 0xFFFFFFFFFFFFFFFFFFFFFFFFFFFFFFFFFFFFFFFF AND DUP2 JUMP JUMPDEST PUSH2 0x439 PUSH2 0x19F4 JUMP JUMPDEST PUSH20 0xFFFFFFFFFFFFFFFFFFFFFFFFFFFFFFFFFFFFFFFF AND PUSH2 0x457 PUSH2 0x64A JUMP JUMPDEST PUSH20 0xFFFFFFFFFFFFFFFFFFFFFFFFFFFFFFFFFFFFFFFF AND EQ PUSH2 0x4AD JUMPI PUSH1 0x40 MLOAD PUSH32 0x8C379A000000000000000000000000000000000000000000000000000000000 DUP2 MSTORE PUSH1 0x4 ADD PUSH2 0x4A4 SWAP1 PUSH2 0x233B JUMP JUMPDEST PUSH1 0x40 MLOAD DUP1 SWAP2 SUB SWAP1 REVERT JUMPDEST PUSH2 0x4B7 PUSH1 0x0 PUSH2 0x19FC JUMP JUMPDEST JUMP JUMPDEST PUSH2 0x4C1 PUSH2 0x19F4 JUMP JUMPDEST PUSH20 0xFFFFFFFFFFFFFFFFFFFFFFFFFFFFFFFFFFFFFFFF AND PUSH2 0x4DF PUSH2 0x64A JUMP JUMPDEST PUSH20 0xFFFFFFFFFFFFFFFFFFFFFFFFFFFFFFFFFFFFFFFF AND EQ PUSH2 0x535 JUMPI PUSH1 0x40 MLOAD PUSH32 0x8C379A000000000000000000000000000000000000000000000000000000000 DUP2 MSTORE PUSH1 0x4 ADD PUSH2 0x52C SWAP1 PUSH2 0x233B JUMP JUMPDEST PUSH1 0x40 MLOAD DUP1 SWAP2 SUB SWAP1 REVERT JUMPDEST PUSH1 0x0 ADDRESS PUSH20 0xFFFFFFFFFFFFFFFFFFFFFFFFFFFFFFFFFFFFFFFF AND BALANCE GT PUSH2 0x58F JUMPI PUSH1 0x40 MLOAD PUSH32 0x8C379A000000000000000000000000000000000000000000000000000000000 DUP2 MSTORE PUSH1 0x4 ADD PUSH2 0x586 SWAP1 PUSH2 0x23A7 JUMP JUMPDEST PUSH1 0x40 MLOAD DUP1 SWAP2 SUB SWAP1 REVERT JUMPDEST PUSH1 0x0 ADDRESS PUSH20 0xFFFFFFFFFFFFFFFFFFFFFFFFFFFFFFFFFFFFFFFF AND BALANCE SWAP1 POP PUSH1 0x0 PUSH1 0x6 PUSH1 0x0 SWAP1 SLOAD SWAP1 PUSH2 0x100 EXP SWAP1 DIV PUSH20 0xFFFFFFFFFFFFFFFFFFFFFFFFFFFFFFFFFFFFFFFF AND SWAP1 POP DUP1 PUSH20 0xFFFFFFFFFFFFFFFFFFFFFFFFFFFFFFFFFFFFFFFF AND PUSH2 0x8FC DUP4 SWAP1 DUP2 ISZERO MUL SWAP1 PUSH1 0x40 MLOAD PUSH1 0x0 PUSH1 0x40 MLOAD DUP1 DUP4 SUB DUP2 DUP6 DUP9 DUP9 CALL SWAP4 POP POP POP POP ISZERO DUP1 ISZERO PUSH2 0x618 JUMPI RETURNDATASIZE PUSH1 0x0 DUP1 RETURNDATACOPY RETURNDATASIZE PUSH1 0x0 REVERT JUMPDEST POP DUP2 PUSH32 0x199AFC31594FC36D3D82876761025C2E001A11FC76606B65269842D6D4B8ED29 PUSH1 0x40 MLOAD PUSH1 0x40 MLOAD DUP1 SWAP2 SUB SWAP1 LOG2 POP POP JUMP JUMPDEST PUSH1 0x0 DUP1 PUSH1 0x0 SWAP1 SLOAD SWAP1 PUSH2 0x100 EXP SWAP1 DIV PUSH20 0xFFFFFFFFFFFFFFFFFFFFFFFFFFFFFFFFFFFFFFFF AND SWAP1 POP SWAP1 JUMP JUMPDEST PUSH2 0x67B PUSH2 0x19F4 JUMP JUMPDEST PUSH20 0xFFFFFFFFFFFFFFFFFFFFFFFFFFFFFFFFFFFFFFFF AND PUSH2 0x699 PUSH2 0x64A JUMP JUMPDEST PUSH20 0xFFFFFFFFFFFFFFFFFFFFFFFFFFFFFFFFFFFFFFFF AND EQ PUSH2 0x6EF JUMPI PUSH1 0x40 MLOAD PUSH32 0x8C379A000000000000000000000000000000000000000000000000000000000 DUP2 MSTORE PUSH1 0x4 ADD PUSH2 0x6E6 SWAP1 PUSH2 0x233B JUMP JUMPDEST PUSH1 0x40 MLOAD DUP1 SWAP2 SUB SWAP1 REVERT JUMPDEST PUSH8 0xDE0B6B3A7640000 DUP2 PUSH2 0x703 SWAP2 SWAP1 PUSH2 0x20E4 JUMP JUMPDEST PUSH1 0x2 DUP2 SWAP1 SSTORE POP POP JUMP JUMPDEST PUSH2 0x714 PUSH2 0x19F4 JUMP JUMPDEST PUSH20 0xFFFFFFFFFFFFFFFFFFFFFFFFFFFFFFFFFFFFFFFF AND PUSH2 0x732 PUSH2 0x64A JUMP JUMPDEST PUSH20 0xFFFFFFFFFFFFFFFFFFFFFFFFFFFFFFFFFFFFFFFF AND EQ PUSH2 0x788 JUMPI PUSH1 0x40 MLOAD PUSH32 0x8C379A000000000000000000000000000000000000000000000000000000000 DUP2 MSTORE PUSH1 0x4 ADD PUSH2 0x77F SWAP1 PUSH2 0x233B JUMP JUMPDEST PUSH1 0x40 MLOAD DUP1 SWAP2 SUB SWAP1 REVERT JUMPDEST PUSH2 0x791 DUP2 PUSH2 0x1AC0 JUMP JUMPDEST POP JUMP JUMPDEST PUSH1 0x0 PUSH1 0x2 SLOAD SWAP1 POP SWAP1 JUMP JUMPDEST PUSH1 0x0 PUSH1 0x5 PUSH1 0x0 SWAP1 SLOAD SWAP1 PUSH2 0x100 EXP SWAP1 DIV PUSH20 0xFFFFFFFFFFFFFFFFFFFFFFFFFFFFFFFFFFFFFFFF AND SWAP1 POP SWAP1 JUMP JUMPDEST PUSH2 0x7D0 PUSH2 0x19F4 JUMP JUMPDEST PUSH20 0xFFFFFFFFFFFFFFFFFFFFFFFFFFFFFFFFFFFFFFFF AND PUSH2 0x7EE PUSH2 0x64A JUMP JUMPDEST PUSH20 0xFFFFFFFFFFFFFFFFFFFFFFFFFFFFFFFFFFFFFFFF AND EQ PUSH2 0x844 JUMPI PUSH1 0x40 MLOAD PUSH32 0x8C379A000000000000000000000000000000000000000000000000000000000 DUP2 MSTORE PUSH1 0x4 ADD PUSH2 0x83B SWAP1 PUSH2 0x233B JUMP JUMPDEST PUSH1 0x40 MLOAD DUP1 SWAP2 SUB SWAP1 REVERT JUMPDEST DUP1 PUSH1 0x6 PUSH1 0x0 PUSH2 0x100 EXP DUP2 SLOAD DUP2 PUSH20 0xFFFFFFFFFFFFFFFFFFFFFFFFFFFFFFFFFFFFFFFF MUL NOT AND SWAP1 DUP4 PUSH20 0xFFFFFFFFFFFFFFFFFFFFFFFFFFFFFFFFFFFFFFFF AND MUL OR SWAP1 SSTORE POP POP JUMP JUMPDEST PUSH2 0x890 PUSH2 0x19F4 JUMP JUMPDEST PUSH20 0xFFFFFFFFFFFFFFFFFFFFFFFFFFFFFFFFFFFFFFFF AND PUSH2 0x8AE PUSH2 0x64A JUMP JUMPDEST PUSH20 0xFFFFFFFFFFFFFFFFFFFFFFFFFFFFFFFFFFFFFFFF AND EQ PUSH2 0x904 JUMPI PUSH1 0x40 MLOAD PUSH32 0x8C379A000000000000000000000000000000000000000000000000000000000 DUP2 MSTORE PUSH1 0x4 ADD PUSH2 0x8FB SWAP1 PUSH2 0x233B JUMP JUMPDEST PUSH1 0x40 MLOAD DUP1 SWAP2 SUB SWAP1 REVERT JUMPDEST DUP1 PUSH1 0x4 DUP2 SWAP1 SSTORE POP POP JUMP JUMPDEST PUSH1 0x0 PUSH1 0x3 SLOAD SWAP1 POP SWAP1 JUMP JUMPDEST PUSH2 0x920 PUSH2 0x19F4 JUMP JUMPDEST PUSH20 0xFFFFFFFFFFFFFFFFFFFFFFFFFFFFFFFFFFFFFFFF AND PUSH2 0x93E PUSH2 0x64A JUMP JUMPDEST PUSH20 0xFFFFFFFFFFFFFFFFFFFFFFFFFFFFFFFFFFFFFFFF AND EQ PUSH2 0x994 JUMPI PUSH1 0x40 MLOAD PUSH32 0x8C379A000000000000000000000000000000000000000000000000000000000 DUP2 MSTORE PUSH1 0x4 ADD PUSH2 0x98B SWAP1 PUSH2 0x233B JUMP JUMPDEST PUSH1 0x40 MLOAD DUP1 SWAP2 SUB SWAP1 REVERT JUMPDEST PUSH1 0x0 PUSH20 0xFFFFFFFFFFFFFFFFFFFFFFFFFFFFFFFFFFFFFFFF AND DUP2 PUSH20 0xFFFFFFFFFFFFFFFFFFFFFFFFFFFFFFFFFFFFFFFF AND EQ ISZERO PUSH2 0xA04 JUMPI PUSH1 0x40 MLOAD PUSH32 0x8C379A000000000000000000000000000000000000000000000000000000000 DUP2 MSTORE PUSH1 0x4 ADD PUSH2 0x9FB SWAP1 PUSH2 0x2439 JUMP JUMPDEST PUSH1 0x40 MLOAD DUP1 SWAP2 SUB SWAP1 REVERT JUMPDEST PUSH2 0xA0D DUP2 PUSH2 0x19FC JUMP JUMPDEST POP JUMP JUMPDEST PUSH1 0x0 PUSH8 0xFFFFFFFFFFFFFFFF DUP2 GT ISZERO PUSH2 0xA2B JUMPI PUSH2 0xA2A PUSH2 0x2459 JUMP JUMPDEST JUMPDEST PUSH1 0x40 MLOAD SWAP1 DUP1 DUP3 MSTORE DUP1 PUSH1 0x20 MUL PUSH1 0x20 ADD DUP3 ADD PUSH1 0x40 MSTORE DUP1 ISZERO PUSH2 0xA5E JUMPI DUP2 PUSH1 0x20 ADD JUMPDEST PUSH1 0x60 DUP2 MSTORE PUSH1 0x20 ADD SWAP1 PUSH1 0x1 SWAP1 SUB SWAP1 DUP2 PUSH2 0xA49 JUMPI SWAP1 POP JUMPDEST POP PUSH1 0x7 SWAP1 DUP1 MLOAD SWAP1 PUSH1 0x20 ADD SWAP1 PUSH2 0xA74 SWAP3 SWAP2 SWAP1 PUSH2 0x1D8D JUMP JUMPDEST POP PUSH1 0x7 DUP1 PUSH1 0x1 DUP2 SLOAD ADD DUP1 DUP3 SSTORE DUP1 SWAP2 POP POP PUSH1 0x1 SWAP1 SUB SWAP1 PUSH1 0x0 MSTORE PUSH1 0x20 PUSH1 0x0 KECCAK256 ADD PUSH1 0x0 PUSH1 0x40 MLOAD DUP1 PUSH1 0x40 ADD PUSH1 0x40 MSTORE DUP1 PUSH1 0x7 DUP2 MSTORE PUSH1 0x20 ADD PUSH32 0x706172656E743100000000000000000000000000000000000000000000000000 DUP2 MSTORE POP SWAP1 SWAP2 SWAP1 SWAP2 POP SWAP1 DUP1 MLOAD SWAP1 PUSH1 0x20 ADD SWAP1 PUSH2 0xAE2 SWAP3 SWAP2 SWAP1 PUSH2 0x1DED JUMP JUMPDEST POP PUSH1 0x7 DUP1 PUSH1 0x1 DUP2 SLOAD ADD DUP1 DUP3 SSTORE DUP1 SWAP2 POP POP PUSH1 0x1 SWAP1 SUB SWAP1 PUSH1 0x0 MSTORE PUSH1 0x20 PUSH1 0x0 KECCAK256 ADD PUSH1 0x0 PUSH1 0x40 MLOAD DUP1 PUSH1 0x40 ADD PUSH1 0x40 MSTORE DUP1 PUSH1 0x1 DUP2 MSTORE PUSH1 0x20 ADD PUSH32 0x3000000000000000000000000000000000000000000000000000000000000000 DUP2 MSTORE POP SWAP1 SWAP2 SWAP1 SWAP2 POP SWAP1 DUP1 MLOAD SWAP1 PUSH1 0x20 ADD SWAP1 PUSH2 0xB50 SWAP3 SWAP2 SWAP1 PUSH2 0x1DED JUMP JUMPDEST POP PUSH1 0x7 DUP1 PUSH1 0x1 DUP2 SLOAD ADD DUP1 DUP3 SSTORE DUP1 SWAP2 POP POP PUSH1 0x1 SWAP1 SUB SWAP1 PUSH1 0x0 MSTORE PUSH1 0x20 PUSH1 0x0 KECCAK256 ADD PUSH1 0x0 PUSH1 0x40 MLOAD DUP1 PUSH1 0x40 ADD PUSH1 0x40 MSTORE DUP1 PUSH1 0x7 DUP2 MSTORE PUSH1 0x20 ADD PUSH32 0x706172656E743200000000000000000000000000000000000000000000000000 DUP2 MSTORE POP SWAP1 SWAP2 SWAP1 SWAP2 POP SWAP1 DUP1 MLOAD SWAP1 PUSH1 0x20 ADD SWAP1 PUSH2 0xBBE SWAP3 SWAP2 SWAP1 PUSH2 0x1DED JUMP JUMPDEST POP PUSH1 0x7 DUP1 PUSH1 0x1 DUP2 SLOAD ADD DUP1 DUP3 SSTORE DUP1 SWAP2 POP POP PUSH1 0x1 SWAP1 SUB SWAP1 PUSH1 0x0 MSTORE PUSH1 0x20 PUSH1 0x0 KECCAK256 ADD PUSH1 0x0 PUSH1 0x40 MLOAD DUP1 PUSH1 0x40 ADD PUSH1 0x40 MSTORE DUP1 PUSH1 0x1 DUP2 MSTORE PUSH1 0x20 ADD PUSH32 0x3000000000000000000000000000000000000000000000000000000000000000 DUP2 MSTORE POP SWAP1 SWAP2 SWAP1 SWAP2 POP SWAP1 DUP1 MLOAD SWAP1 PUSH1 0x20 ADD SWAP1 PUSH2 0xC2C SWAP3 SWAP2 SWAP1 PUSH2 0x1DED JUMP JUMPDEST POP PUSH1 0x0 PUSH2 0xC3D PUSH1 0x4 PUSH3 0x15B38 PUSH2 0x1BE4 JUMP JUMPDEST PUSH1 0x1 PUSH2 0xC49 SWAP2 SWAP1 PUSH2 0x21BB JUMP JUMPDEST SWAP1 POP PUSH1 0x0 PUSH2 0xC56 DUP3 PUSH2 0x1C2C JUMP JUMPDEST PUSH2 0xC76 PUSH2 0xC65 PUSH1 0x7 PUSH1 0x1 PUSH2 0x1BE4 JUMP JUMPDEST PUSH1 0x1 PUSH2 0xC71 SWAP2 SWAP1 PUSH2 0x21BB JUMP JUMPDEST PUSH2 0x1C2C JUMP JUMPDEST PUSH1 0x40 MLOAD PUSH1 0x20 ADD PUSH2 0xC87 SWAP3 SWAP2 SWAP1 PUSH2 0x2502 JUMP JUMPDEST PUSH1 0x40 MLOAD PUSH1 0x20 DUP2 DUP4 SUB SUB DUP2 MSTORE SWAP1 PUSH1 0x40 MSTORE SWAP1 POP PUSH1 0x0 PUSH2 0xCA3 DUP4 PUSH2 0x1C2C JUMP JUMPDEST PUSH2 0xCC3 PUSH2 0xCB2 PUSH1 0x7 PUSH1 0x2 PUSH2 0x1BE4 JUMP JUMPDEST PUSH1 0x1 PUSH2 0xCBE SWAP2 SWAP1 PUSH2 0x21BB JUMP JUMPDEST PUSH2 0x1C2C JUMP JUMPDEST PUSH1 0x40 MLOAD PUSH1 0x20 ADD PUSH2 0xCD4 SWAP3 SWAP2 SWAP1 PUSH2 0x2502 JUMP JUMPDEST PUSH1 0x40 MLOAD PUSH1 0x20 DUP2 DUP4 SUB SUB DUP2 MSTORE SWAP1 PUSH1 0x40 MSTORE SWAP1 POP PUSH1 0x0 PUSH2 0xCF0 DUP5 PUSH2 0x1C2C JUMP JUMPDEST PUSH2 0xD10 PUSH2 0xCFF PUSH1 0x7 PUSH1 0x3 PUSH2 0x1BE4 JUMP JUMPDEST PUSH1 0x1 PUSH2 0xD0B SWAP2 SWAP1 PUSH2 0x21BB JUMP JUMPDEST PUSH2 0x1C2C JUMP JUMPDEST PUSH1 0x40 MLOAD PUSH1 0x20 ADD PUSH2 0xD21 SWAP3 SWAP2 SWAP1 PUSH2 0x2502 JUMP JUMPDEST PUSH1 0x40 MLOAD PUSH1 0x20 DUP2 DUP4 SUB SUB DUP2 MSTORE SWAP1 PUSH1 0x40 MSTORE SWAP1 POP PUSH1 0x0 PUSH2 0xD3D DUP6 PUSH2 0x1C2C JUMP JUMPDEST PUSH2 0xD5D PUSH2 0xD4C PUSH1 0x7 PUSH1 0x4 PUSH2 0x1BE4 JUMP JUMPDEST PUSH1 0x1 PUSH2 0xD58 SWAP2 SWAP1 PUSH2 0x21BB JUMP JUMPDEST PUSH2 0x1C2C JUMP JUMPDEST PUSH1 0x40 MLOAD PUSH1 0x20 ADD PUSH2 0xD6E SWAP3 SWAP2 SWAP1 PUSH2 0x2502 JUMP JUMPDEST PUSH1 0x40 MLOAD PUSH1 0x20 DUP2 DUP4 SUB SUB DUP2 MSTORE SWAP1 PUSH1 0x40 MSTORE SWAP1 POP PUSH1 0x0 PUSH2 0xD8A DUP7 PUSH2 0x1C2C JUMP JUMPDEST PUSH2 0xDAA PUSH2 0xD99 PUSH1 0x7 PUSH1 0x5 PUSH2 0x1BE4 JUMP JUMPDEST PUSH1 0x1 PUSH2 0xDA5 SWAP2 SWAP1 PUSH2 0x21BB JUMP JUMPDEST PUSH2 0x1C2C JUMP JUMPDEST PUSH1 0x40 MLOAD PUSH1 0x20 ADD PUSH2 0xDBB SWAP3 SWAP2 SWAP1 PUSH2 0x2502 JUMP JUMPDEST PUSH1 0x40 MLOAD PUSH1 0x20 DUP2 DUP4 SUB SUB DUP2 MSTORE SWAP1 PUSH1 0x40 MSTORE SWAP1 POP PUSH1 0x0 PUSH2 0xDD7 DUP8 PUSH2 0x1C2C JUMP JUMPDEST PUSH2 0xDF7 PUSH2 0xDE6 PUSH1 0x7 PUSH1 0x6 PUSH2 0x1BE4 JUMP JUMPDEST PUSH1 0x1 PUSH2 0xDF2 SWAP2 SWAP1 PUSH2 0x21BB JUMP JUMPDEST PUSH2 0x1C2C JUMP JUMPDEST PUSH1 0x40 MLOAD PUSH1 0x20 ADD PUSH2 0xE08 SWAP3 SWAP2 SWAP1 PUSH2 0x2502 JUMP JUMPDEST PUSH1 0x40 MLOAD PUSH1 0x20 DUP2 DUP4 SUB SUB DUP2 MSTORE SWAP1 PUSH1 0x40 MSTORE SWAP1 POP PUSH1 0x7 DUP1 PUSH1 0x1 DUP2 SLOAD ADD DUP1 DUP3 SSTORE DUP1 SWAP2 POP POP PUSH1 0x1 SWAP1 SUB SWAP1 PUSH1 0x0 MSTORE PUSH1 0x20 PUSH1 0x0 KECCAK256 ADD PUSH1 0x0 PUSH1 0x40 MLOAD DUP1 PUSH1 0x40 ADD PUSH1 0x40 MSTORE DUP1 PUSH1 0x9 DUP2 MSTORE PUSH1 0x20 ADD PUSH32 0x6B697474656E5F69640000000000000000000000000000000000000000000000 DUP2 MSTORE POP SWAP1 SWAP2 SWAP1 SWAP2 POP SWAP1 DUP1 MLOAD SWAP1 PUSH1 0x20 ADD SWAP1 PUSH2 0xE86 SWAP3 SWAP2 SWAP1 PUSH2 0x1DED JUMP JUMPDEST POP PUSH1 0x7 DUP1 PUSH1 0x1 DUP2 SLOAD ADD DUP1 DUP3 SSTORE DUP1 SWAP2 POP POP PUSH1 0x1 SWAP1 SUB SWAP1 PUSH1 0x0 MSTORE PUSH1 0x20 PUSH1 0x0 KECCAK256 ADD PUSH1 0x0 PUSH1 0x40 MLOAD DUP1 PUSH1 0x40 ADD PUSH1 0x40 MSTORE DUP1 PUSH1 0x1 DUP2 MSTORE PUSH1 0x20 ADD PUSH32 0x3000000000000000000000000000000000000000000000000000000000000000 DUP2 MSTORE POP SWAP1 SWAP2 SWAP1 SWAP2 POP SWAP1 DUP1 MLOAD SWAP1 PUSH1 0x20 ADD SWAP1 PUSH2 0xEF4 SWAP3 SWAP2 SWAP1 PUSH2 0x1DED JUMP JUMPDEST POP PUSH1 0x7 DUP1 PUSH1 0x1 DUP2 SLOAD ADD DUP1 DUP3 SSTORE DUP1 SWAP2 POP POP PUSH1 0x1 SWAP1 SUB SWAP1 PUSH1 0x0 MSTORE PUSH1 0x20 PUSH1 0x0 KECCAK256 ADD PUSH1 0x0 PUSH1 0x40 MLOAD DUP1 PUSH1 0x40 ADD PUSH1 0x40 MSTORE DUP1 PUSH1 0xD DUP2 MSTORE PUSH1 0x20 ADD PUSH32 0x6D756C7469706C79436F756E7400000000000000000000000000000000000000 DUP2 MSTORE POP SWAP1 SWAP2 SWAP1 SWAP2 POP SWAP1 DUP1 MLOAD SWAP1 PUSH1 0x20 ADD SWAP1 PUSH2 0xF62 SWAP3 SWAP2 SWAP1 PUSH2 0x1DED JUMP JUMPDEST POP PUSH1 0x7 DUP1 PUSH1 0x1 DUP2 SLOAD ADD DUP1 DUP3 SSTORE DUP1 SWAP2 POP POP PUSH1 0x1 SWAP1 SUB SWAP1 PUSH1 0x0 MSTORE PUSH1 0x20 PUSH1 0x0 KECCAK256 ADD PUSH1 0x0 PUSH1 0x40 MLOAD DUP1 PUSH1 0x40 ADD PUSH1 0x40 MSTORE DUP1 PUSH1 0x1 DUP2 MSTORE PUSH1 0x20 ADD PUSH32 0x3000000000000000000000000000000000000000000000000000000000000000 DUP2 MSTORE POP SWAP1 SWAP2 SWAP1 SWAP2 POP SWAP1 DUP1 MLOAD SWAP1 PUSH1 0x20 ADD SWAP1 PUSH2 0xFD0 SWAP3 SWAP2 SWAP1 PUSH2 0x1DED JUMP JUMPDEST POP PUSH1 0x7 DUP1 PUSH1 0x1 DUP2 SLOAD ADD DUP1 DUP3 SSTORE DUP1 SWAP2 POP POP PUSH1 0x1 SWAP1 SUB SWAP1 PUSH1 0x0 MSTORE PUSH1 0x20 PUSH1 0x0 KECCAK256 ADD PUSH1 0x0 PUSH1 0x40 MLOAD DUP1 PUSH1 0x40 ADD PUSH1 0x40 MSTORE DUP1 PUSH1 0x4 DUP2 MSTORE PUSH1 0x20 ADD PUSH32 0x626F647900000000000000000000000000000000000000000000000000000000 DUP2 MSTORE POP SWAP1 SWAP2 SWAP1 SWAP2 POP SWAP1 DUP1 MLOAD SWAP1 PUSH1 0x20 ADD SWAP1 PUSH2 0x103E SWAP3 SWAP2 SWAP1 PUSH2 0x1DED JUMP JUMPDEST POP PUSH1 0x7 DUP7 SWAP1 DUP1 PUSH1 0x1 DUP2 SLOAD ADD DUP1 DUP3 SSTORE DUP1 SWAP2 POP POP PUSH1 0x1 SWAP1 SUB SWAP1 PUSH1 0x0 MSTORE PUSH1 0x20 PUSH1 0x0 KECCAK256 ADD PUSH1 0x0 SWAP1 SWAP2 SWAP1 SWAP2 SWAP1 SWAP2 POP SWAP1 DUP1 MLOAD SWAP1 PUSH1 0x20 ADD SWAP1 PUSH2 0x107A SWAP3 SWAP2 SWAP1 PUSH2 0x1DED JUMP JUMPDEST POP PUSH1 0x7 DUP1 PUSH1 0x1 DUP2 SLOAD ADD DUP1 DUP3 SSTORE DUP1 SWAP2 POP POP PUSH1 0x1 SWAP1 SUB SWAP1 PUSH1 0x0 MSTORE PUSH1 0x20 PUSH1 0x0 KECCAK256 ADD PUSH1 0x0 PUSH1 0x40 MLOAD DUP1 PUSH1 0x40 ADD PUSH1 0x40 MSTORE DUP1 PUSH1 0x4 DUP2 MSTORE PUSH1 0x20 ADD PUSH32 0x6661636500000000000000000000000000000000000000000000000000000000 DUP2 MSTORE POP SWAP1 SWAP2 SWAP1 SWAP2 POP SWAP1 DUP1 MLOAD SWAP1 PUSH1 0x20 ADD SWAP1 PUSH2 0x10E8 SWAP3 SWAP2 SWAP1 PUSH2 0x1DED JUMP JUMPDEST POP PUSH1 0x7 DUP6 SWAP1 DUP1 PUSH1 0x1 DUP2 SLOAD ADD DUP1 DUP3 SSTORE DUP1 SWAP2 POP POP PUSH1 0x1 SWAP1 SUB SWAP1 PUSH1 0x0 MSTORE PUSH1 0x20 PUSH1 0x0 KECCAK256 ADD PUSH1 0x0 SWAP1 SWAP2 SWAP1 SWAP2 SWAP1 SWAP2 POP SWAP1 DUP1 MLOAD SWAP1 PUSH1 0x20 ADD SWAP1 PUSH2 0x1124 SWAP3 SWAP2 SWAP1 PUSH2 0x1DED JUMP JUMPDEST POP PUSH1 0x7 DUP1 PUSH1 0x1 DUP2 SLOAD ADD DUP1 DUP3 SSTORE DUP1 SWAP2 POP POP PUSH1 0x1 SWAP1 SUB SWAP1 PUSH1 0x0 MSTORE PUSH1 0x20 PUSH1 0x0 KECCAK256 ADD PUSH1 0x0 PUSH1 0x40 MLOAD DUP1 PUSH1 0x40 ADD PUSH1 0x40 MSTORE DUP1 PUSH1 0x4 DUP2 MSTORE PUSH1 0x20 ADD PUSH32 0x73686F6500000000000000000000000000000000000000000000000000000000 DUP2 MSTORE POP SWAP1 SWAP2 SWAP1 SWAP2 POP SWAP1 DUP1 MLOAD SWAP1 PUSH1 0x20 ADD SWAP1 PUSH2 0x1192 SWAP3 SWAP2 SWAP1 PUSH2 0x1DED JUMP JUMPDEST POP PUSH1 0x7 DUP5 SWAP1 DUP1 PUSH1 0x1 DUP2 SLOAD ADD DUP1 DUP3 SSTORE DUP1 SWAP2 POP POP PUSH1 0x1 SWAP1 SUB SWAP1 PUSH1 0x0 MSTORE PUSH1 0x20 PUSH1 0x0 KECCAK256 ADD PUSH1 0x0 SWAP1 SWAP2 SWAP1 SWAP2 SWAP1 SWAP2 POP SWAP1 DUP1 MLOAD SWAP1 PUSH1 0x20 ADD SWAP1 PUSH2 0x11CE SWAP3 SWAP2 SWAP1 PUSH2 0x1DED JUMP JUMPDEST POP PUSH1 0x7 DUP1 PUSH1 0x1 DUP2 SLOAD ADD DUP1 DUP3 SSTORE DUP1 SWAP2 POP POP PUSH1 0x1 SWAP1 SUB SWAP1 PUSH1 0x0 MSTORE PUSH1 0x20 PUSH1 0x0 KECCAK256 ADD PUSH1 0x0 PUSH1 0x40 MLOAD DUP1 PUSH1 0x40 ADD PUSH1 0x40 MSTORE DUP1 PUSH1 0x8 DUP2 MSTORE PUSH1 0x20 ADD PUSH32 0x636C6F7468696E67000000000000000000000000000000000000000000000000 DUP2 MSTORE POP SWAP1 SWAP2 SWAP1 SWAP2 POP SWAP1 DUP1 MLOAD SWAP1 PUSH1 0x20 ADD SWAP1 PUSH2 0x123C SWAP3 SWAP2 SWAP1 PUSH2 0x1DED JUMP JUMPDEST POP PUSH1 0x7 DUP4 SWAP1 DUP1 PUSH1 0x1 DUP2 SLOAD ADD DUP1 DUP3 SSTORE DUP1 SWAP2 POP POP PUSH1 0x1 SWAP1 SUB SWAP1 PUSH1 0x0 MSTORE PUSH1 0x20 PUSH1 0x0 KECCAK256 ADD PUSH1 0x0 SWAP1 SWAP2 SWAP1 SWAP2 SWAP1 SWAP2 POP SWAP1 DUP1 MLOAD SWAP1 PUSH1 0x20 ADD SWAP1 PUSH2 0x1278 SWAP3 SWAP2 SWAP1 PUSH2 0x1DED JUMP JUMPDEST POP PUSH1 0x7 DUP1 PUSH1 0x1 DUP2 SLOAD ADD DUP1 DUP3 SSTORE DUP1 SWAP2 POP POP PUSH1 0x1 SWAP1 SUB SWAP1 PUSH1 0x0 MSTORE PUSH1 0x20 PUSH1 0x0 KECCAK256 ADD PUSH1 0x0 PUSH1 0x40 MLOAD DUP1 PUSH1 0x40 ADD PUSH1 0x40 MSTORE DUP1 PUSH1 0x9 DUP2 MSTORE PUSH1 0x20 ADD PUSH32 0x61646F726E6D656E740000000000000000000000000000000000000000000000 DUP2 MSTORE POP SWAP1 SWAP2 SWAP1 SWAP2 POP SWAP1 DUP1 MLOAD SWAP1 PUSH1 0x20 ADD SWAP1 PUSH2 0x12E6 SWAP3 SWAP2 SWAP1 PUSH2 0x1DED JUMP JUMPDEST POP PUSH1 0x7 DUP3 SWAP1 DUP1 PUSH1 0x1 DUP2 SLOAD ADD DUP1 DUP3 SSTORE DUP1 SWAP2 POP POP PUSH1 0x1 SWAP1 SUB SWAP1 PUSH1 0x0 MSTORE PUSH1 0x20 PUSH1 0x0 KECCAK256 ADD PUSH1 0x0 SWAP1 SWAP2 SWAP1 SWAP2 SWAP1 SWAP2 POP SWAP1 DUP1 MLOAD SWAP1 PUSH1 0x20 ADD SWAP1 PUSH2 0x1322 SWAP3 SWAP2 SWAP1 PUSH2 0x1DED JUMP JUMPDEST POP PUSH1 0x7 DUP1 PUSH1 0x1 DUP2 SLOAD ADD DUP1 DUP3 SSTORE DUP1 SWAP2 POP POP PUSH1 0x1 SWAP1 SUB SWAP1 PUSH1 0x0 MSTORE PUSH1 0x20 PUSH1 0x0 KECCAK256 ADD PUSH1 0x0 PUSH1 0x40 MLOAD DUP1 PUSH1 0x40 ADD PUSH1 0x40 MSTORE DUP1 PUSH1 0x4 DUP2 MSTORE PUSH1 0x20 ADD PUSH32 0x6974656D00000000000000000000000000000000000000000000000000000000 DUP2 MSTORE POP SWAP1 SWAP2 SWAP1 SWAP2 POP SWAP1 DUP1 MLOAD SWAP1 PUSH1 0x20 ADD SWAP1 PUSH2 0x1390 SWAP3 SWAP2 SWAP1 PUSH2 0x1DED JUMP JUMPDEST POP PUSH1 0x7 DUP2 SWAP1 DUP1 PUSH1 0x1 DUP2 SLOAD ADD DUP1 DUP3 SSTORE DUP1 SWAP2 POP POP PUSH1 0x1 SWAP1 SUB SWAP1 PUSH1 0x0 MSTORE PUSH1 0x20 PUSH1 0x0 KECCAK256 ADD PUSH1 0x0 SWAP1 SWAP2 SWAP1 SWAP2 SWAP1 SWAP2 POP SWAP1 DUP1 MLOAD SWAP1 PUSH1 0x20 ADD SWAP1 PUSH2 0x13CC SWAP3 SWAP2 SWAP1 PUSH2 0x1DED JUMP JUMPDEST POP PUSH1 0x7 DUP1 PUSH1 0x1 DUP2 SLOAD ADD DUP1 DUP3 SSTORE DUP1 SWAP2 POP POP PUSH1 0x1 SWAP1 SUB SWAP1 PUSH1 0x0 MSTORE PUSH1 0x20 PUSH1 0x0 KECCAK256 ADD PUSH1 0x0 PUSH1 0x40 MLOAD DUP1 PUSH1 0x40 ADD PUSH1 0x40 MSTORE DUP1 PUSH1 0x8 DUP2 MSTORE PUSH1 0x20 ADD PUSH32 0x737472656E677468000000000000000000000000000000000000000000000000 DUP2 MSTORE POP SWAP1 SWAP2 SWAP1 SWAP2 POP SWAP1 DUP1 MLOAD SWAP1 PUSH1 0x20 ADD SWAP1 PUSH2 0x143A SWAP3 SWAP2 SWAP1 PUSH2 0x1DED JUMP JUMPDEST POP PUSH1 0x7 PUSH2 0x145C PUSH2 0x144B PUSH1 0x64 DUP1 PUSH2 0x1BE4 JUMP JUMPDEST PUSH1 0x1 PUSH2 0x1457 SWAP2 SWAP1 PUSH2 0x21BB JUMP JUMPDEST PUSH2 0x1C2C JUMP JUMPDEST SWAP1 DUP1 PUSH1 0x1 DUP2 SLOAD ADD DUP1 DUP3 SSTORE DUP1 SWAP2 POP POP PUSH1 0x1 SWAP1 SUB SWAP1 PUSH1 0x0 MSTORE PUSH1 0x20 PUSH1 0x0 KECCAK256 ADD PUSH1 0x0 SWAP1 SWAP2 SWAP1 SWAP2 SWAP1 SWAP2 POP SWAP1 DUP1 MLOAD SWAP1 PUSH1 0x20 ADD SWAP1 PUSH2 0x1494 SWAP3 SWAP2 SWAP1 PUSH2 0x1DED JUMP JUMPDEST POP PUSH1 0x7 DUP1 PUSH1 0x1 DUP2 SLOAD ADD DUP1 DUP3 SSTORE DUP1 SWAP2 POP POP PUSH1 0x1 SWAP1 SUB SWAP1 PUSH1 0x0 MSTORE PUSH1 0x20 PUSH1 0x0 KECCAK256 ADD PUSH1 0x0 PUSH1 0x40 MLOAD DUP1 PUSH1 0x40 ADD PUSH1 0x40 MSTORE DUP1 PUSH1 0x7 DUP2 MSTORE PUSH1 0x20 ADD PUSH32 0x6167696C69747900000000000000000000000000000000000000000000000000 DUP2 MSTORE POP SWAP1 SWAP2 SWAP1 SWAP2 POP SWAP1 DUP1 MLOAD SWAP1 PUSH1 0x20 ADD SWAP1 PUSH2 0x1502 SWAP3 SWAP2 SWAP1 PUSH2 0x1DED JUMP JUMPDEST POP PUSH1 0x7 PUSH2 0x1526 PUSH2 0x1515 PUSH1 0x64 PUSH2 0x3E8 PUSH2 0x1BE4 JUMP JUMPDEST PUSH1 0x1 PUSH2 0x1521 SWAP2 SWAP1 PUSH2 0x21BB JUMP JUMPDEST PUSH2 0x1C2C JUMP JUMPDEST SWAP1 DUP1 PUSH1 0x1 DUP2 SLOAD ADD DUP1 DUP3 SSTORE DUP1 SWAP2 POP POP PUSH1 0x1 SWAP1 SUB SWAP1 PUSH1 0x0 MSTORE PUSH1 0x20 PUSH1 0x0 KECCAK256 ADD PUSH1 0x0 SWAP1 SWAP2 SWAP1 SWAP2 SWAP1 SWAP2 POP SWAP1 DUP1 MLOAD SWAP1 PUSH1 0x20 ADD SWAP1 PUSH2 0x155E SWAP3 SWAP2 SWAP1 PUSH2 0x1DED JUMP JUMPDEST POP PUSH1 0x7 DUP1 PUSH1 0x1 DUP2 SLOAD ADD DUP1 DUP3 SSTORE DUP1 SWAP2 POP POP PUSH1 0x1 SWAP1 SUB SWAP1 PUSH1 0x0 MSTORE PUSH1 0x20 PUSH1 0x0 KECCAK256 ADD PUSH1 0x0 PUSH1 0x40 MLOAD DUP1 PUSH1 0x40 ADD PUSH1 0x40 MSTORE DUP1 PUSH1 0x7 DUP2 MSTORE PUSH1 0x20 ADD PUSH32 0x7374616D696E6100000000000000000000000000000000000000000000000000 DUP2 MSTORE POP SWAP1 SWAP2 SWAP1 SWAP2 POP SWAP1 DUP1 MLOAD SWAP1 PUSH1 0x20 ADD SWAP1 PUSH2 0x15CC SWAP3 SWAP2 SWAP1 PUSH2 0x1DED JUMP JUMPDEST POP PUSH1 0x7 PUSH2 0x15F0 PUSH2 0x15DF PUSH1 0x64 PUSH2 0x2710 PUSH2 0x1BE4 JUMP JUMPDEST PUSH1 0x1 PUSH2 0x15EB SWAP2 SWAP1 PUSH2 0x21BB JUMP JUMPDEST PUSH2 0x1C2C JUMP JUMPDEST SWAP1 DUP1 PUSH1 0x1 DUP2 SLOAD ADD DUP1 DUP3 SSTORE DUP1 SWAP2 POP POP PUSH1 0x1 SWAP1 SUB SWAP1 PUSH1 0x0 MSTORE PUSH1 0x20 PUSH1 0x0 KECCAK256 ADD PUSH1 0x0 SWAP1 SWAP2 SWAP1 SWAP2 SWAP1 SWAP2 POP SWAP1 DUP1 MLOAD SWAP1 PUSH1 0x20 ADD SWAP1 PUSH2 0x1628 SWAP3 SWAP2 SWAP1 PUSH2 0x1DED JUMP JUMPDEST POP PUSH1 0x7 DUP1 PUSH1 0x1 DUP2 SLOAD ADD DUP1 DUP3 SSTORE DUP1 SWAP2 POP POP PUSH1 0x1 SWAP1 SUB SWAP1 PUSH1 0x0 MSTORE PUSH1 0x20 PUSH1 0x0 KECCAK256 ADD PUSH1 0x0 PUSH1 0x40 MLOAD DUP1 PUSH1 0x40 ADD PUSH1 0x40 MSTORE DUP1 PUSH1 0x9 DUP2 MSTORE PUSH1 0x20 ADD PUSH32 0x656E647572616E63650000000000000000000000000000000000000000000000 DUP2 MSTORE POP SWAP1 SWAP2 SWAP1 SWAP2 POP SWAP1 DUP1 MLOAD SWAP1 PUSH1 0x20 ADD SWAP1 PUSH2 0x1696 SWAP3 SWAP2 SWAP1 PUSH2 0x1DED JUMP JUMPDEST POP PUSH1 0x7 PUSH2 0x16BB PUSH2 0x16AA PUSH1 0x64 PUSH3 0x186A0 PUSH2 0x1BE4 JUMP JUMPDEST PUSH1 0x1 PUSH2 0x16B6 SWAP2 SWAP1 PUSH2 0x21BB JUMP JUMPDEST PUSH2 0x1C2C JUMP JUMPDEST SWAP1 DUP1 PUSH1 0x1 DUP2 SLOAD ADD DUP1 DUP3 SSTORE DUP1 SWAP2 POP POP PUSH1 0x1 SWAP1 SUB SWAP1 PUSH1 0x0 MSTORE PUSH1 0x20 PUSH1 0x0 KECCAK256 ADD PUSH1 0x0 SWAP1 SWAP2 SWAP1 SWAP2 SWAP1 SWAP2 POP SWAP1 DUP1 MLOAD SWAP1 PUSH1 0x20 ADD SWAP1 PUSH2 0x16F3 SWAP3 SWAP2 SWAP1 PUSH2 0x1DED JUMP JUMPDEST POP PUSH1 0x7 DUP1 PUSH1 0x1 DUP2 SLOAD ADD DUP1 DUP3 SSTORE DUP1 SWAP2 POP POP PUSH1 0x1 SWAP1 SUB SWAP1 PUSH1 0x0 MSTORE PUSH1 0x20 PUSH1 0x0 KECCAK256 ADD PUSH1 0x0 PUSH1 0x40 MLOAD DUP1 PUSH1 0x40 ADD PUSH1 0x40 MSTORE DUP1 PUSH1 0x4 DUP2 MSTORE PUSH1 0x20 ADD PUSH32 0x6C75636B00000000000000000000000000000000000000000000000000000000 DUP2 MSTORE POP SWAP1 SWAP2 SWAP1 SWAP2 POP SWAP1 DUP1 MLOAD SWAP1 PUSH1 0x20 ADD SWAP1 PUSH2 0x1761 SWAP3 SWAP2 SWAP1 PUSH2 0x1DED JUMP JUMPDEST POP PUSH1 0x7 PUSH2 0x1786 PUSH2 0x1775 PUSH1 0x64 PUSH3 0xF4240 PUSH2 0x1BE4 JUMP JUMPDEST PUSH1 0x1 PUSH2 0x1781 SWAP2 SWAP1 PUSH2 0x21BB JUMP JUMPDEST PUSH2 0x1C2C JUMP JUMPDEST SWAP1 DUP1 PUSH1 0x1 DUP2 SLOAD ADD DUP1 DUP3 SSTORE DUP1 SWAP2 POP POP PUSH1 0x1 SWAP1 SUB SWAP1 PUSH1 0x0 MSTORE PUSH1 0x20 PUSH1 0x0 KECCAK256 ADD PUSH1 0x0 SWAP1 SWAP2 SWAP1 SWAP2 SWAP1 SWAP2 POP SWAP1 DUP1 MLOAD SWAP1 PUSH1 0x20 ADD SWAP1 PUSH2 0x17BE SWAP3 SWAP2 SWAP1 PUSH2 0x1DED JUMP JUMPDEST POP PUSH1 0x7 DUP1 PUSH1 0x1 DUP2 SLOAD ADD DUP1 DUP3 SSTORE DUP1 SWAP2 POP POP PUSH1 0x1 SWAP1 SUB SWAP1 PUSH1 0x0 MSTORE PUSH1 0x20 PUSH1 0x0 KECCAK256 ADD PUSH1 0x0 PUSH1 0x40 MLOAD DUP1 PUSH1 0x40 ADD PUSH1 0x40 MSTORE DUP1 PUSH1 0x4 DUP2 MSTORE PUSH1 0x20 ADD PUSH32 0x77696C6C00000000000000000000000000000000000000000000000000000000 DUP2 MSTORE POP SWAP1 SWAP2 SWAP1 SWAP2 POP SWAP1 DUP1 MLOAD SWAP1 PUSH1 0x20 ADD SWAP1 PUSH2 0x182C SWAP3 SWAP2 SWAP1 PUSH2 0x1DED JUMP JUMPDEST POP PUSH1 0x7 PUSH2 0x1851 PUSH2 0x1840 PUSH1 0x64 PUSH3 0x989680 PUSH2 0x1BE4 JUMP JUMPDEST PUSH1 0x1 PUSH2 0x184C SWAP2 SWAP1 PUSH2 0x21BB JUMP JUMPDEST PUSH2 0x1C2C JUMP JUMPDEST SWAP1 DUP1 PUSH1 0x1 DUP2 SLOAD ADD DUP1 DUP3 SSTORE DUP1 SWAP2 POP POP PUSH1 0x1 SWAP1 SUB SWAP1 PUSH1 0x0 MSTORE PUSH1 0x20 PUSH1 0x0 KECCAK256 ADD PUSH1 0x0 SWAP1 SWAP2 SWAP1 SWAP2 SWAP1 SWAP2 POP SWAP1 DUP1 MLOAD SWAP1 PUSH1 0x20 ADD SWAP1 PUSH2 0x1889 SWAP3 SWAP2 SWAP1 PUSH2 0x1DED JUMP JUMPDEST POP PUSH1 0x7 DUP1 PUSH1 0x1 DUP2 SLOAD ADD DUP1 DUP3 SSTORE DUP1 SWAP2 POP POP PUSH1 0x1 SWAP1 SUB SWAP1 PUSH1 0x0 MSTORE PUSH1 0x20 PUSH1 0x0 KECCAK256 ADD PUSH1 0x0 PUSH1 0x40 MLOAD DUP1 PUSH1 0x40 ADD PUSH1 0x40 MSTORE DUP1 PUSH1 0x6 DUP2 MSTORE PUSH1 0x20 ADD PUSH32 0x7370697269740000000000000000000000000000000000000000000000000000 DUP2 MSTORE POP SWAP1 SWAP2 SWAP1 SWAP2 POP SWAP1 DUP1 MLOAD SWAP1 PUSH1 0x20 ADD SWAP1 PUSH2 0x18F7 SWAP3 SWAP2 SWAP1 PUSH2 0x1DED JUMP JUMPDEST POP PUSH1 0x7 PUSH2 0x191D PUSH2 0x190C PUSH1 0x64 PUSH4 0x5F5E100 PUSH2 0x1BE4 JUMP JUMPDEST PUSH1 0x1 PUSH2 0x1918 SWAP2 SWAP1 PUSH2 0x21BB JUMP JUMPDEST PUSH2 0x1C2C JUMP JUMPDEST SWAP1 DUP1 PUSH1 0x1 DUP2 SLOAD ADD DUP1 DUP3 SSTORE DUP1 SWAP2 POP POP PUSH1 0x1 SWAP1 SUB SWAP1 PUSH1 0x0 MSTORE PUSH1 0x20 PUSH1 0x0 KECCAK256 ADD PUSH1 0x0 SWAP1 SWAP2 SWAP1 SWAP2 SWAP1 SWAP2 POP SWAP1 DUP1 MLOAD SWAP1 PUSH1 0x20 ADD SWAP1 PUSH2 0x1955 SWAP3 SWAP2 SWAP1 PUSH2 0x1DED JUMP JUMPDEST POP PUSH1 0x1 PUSH1 0x0 SWAP1 SLOAD SWAP1 PUSH2 0x100 EXP SWAP1 DIV PUSH20 0xFFFFFFFFFFFFFFFFFFFFFFFFFFFFFFFFFFFFFFFF AND PUSH20 0xFFFFFFFFFFFFFFFFFFFFFFFFFFFFFFFFFFFFFFFF AND PUSH4 0xD5043C7D DUP10 PUSH2 0x2710 PUSH1 0x7 PUSH1 0x40 MLOAD DUP5 PUSH4 0xFFFFFFFF AND PUSH1 0xE0 SHL DUP2 MSTORE PUSH1 0x4 ADD PUSH2 0x19B8 SWAP4 SWAP3 SWAP2 SWAP1 PUSH2 0x272E JUMP JUMPDEST PUSH1 0x0 PUSH1 0x40 MLOAD DUP1 DUP4 SUB DUP2 PUSH1 0x0 DUP8 DUP1 EXTCODESIZE ISZERO DUP1 ISZERO PUSH2 0x19D2 JUMPI PUSH1 0x0 DUP1 REVERT JUMPDEST POP GAS CALL ISZERO DUP1 ISZERO PUSH2 0x19E6 JUMPI RETURNDATASIZE PUSH1 0x0 DUP1 RETURNDATACOPY RETURNDATASIZE PUSH1 0x0 REVERT JUMPDEST POP POP POP POP POP POP POP POP POP POP POP POP JUMP JUMPDEST PUSH1 0x0 CALLER SWAP1 POP SWAP1 JUMP JUMPDEST PUSH1 0x0 DUP1 PUSH1 0x0 SWAP1 SLOAD SWAP1 PUSH2 0x100 EXP SWAP1 DIV PUSH20 0xFFFFFFFFFFFFFFFFFFFFFFFFFFFFFFFFFFFFFFFF AND SWAP1 POP DUP2 PUSH1 0x0 DUP1 PUSH2 0x100 EXP DUP2 SLOAD DUP2 PUSH20 0xFFFFFFFFFFFFFFFFFFFFFFFFFFFFFFFFFFFFFFFF MUL NOT AND SWAP1 DUP4 PUSH20 0xFFFFFFFFFFFFFFFFFFFFFFFFFFFFFFFFFFFFFFFF AND MUL OR SWAP1 SSTORE POP DUP2 PUSH20 0xFFFFFFFFFFFFFFFFFFFFFFFFFFFFFFFFFFFFFFFF AND DUP2 PUSH20 0xFFFFFFFFFFFFFFFFFFFFFFFFFFFFFFFFFFFFFFFF AND PUSH32 0x8BE0079C531659141344CD1FD0A4F28419497F9722A3DAAFE3B4186F6B6457E0 PUSH1 0x40 MLOAD PUSH1 0x40 MLOAD DUP1 SWAP2 SUB SWAP1 LOG3 POP POP JUMP JUMPDEST PUSH1 0x0 DUP2 SWAP1 POP DUP1 PUSH20 0xFFFFFFFFFFFFFFFFFFFFFFFFFFFFFFFFFFFFFFFF AND PUSH4 0x1FFC9A7 PUSH4 0x80AC58CD PUSH1 0xE0 SHL PUSH1 0x40 MLOAD DUP3 PUSH4 0xFFFFFFFF AND PUSH1 0xE0 SHL DUP2 MSTORE PUSH1 0x4 ADD PUSH2 0x1B05 SWAP2 SWAP1 PUSH2 0x27A7 JUMP JUMPDEST PUSH1 0x20 PUSH1 0x40 MLOAD DUP1 DUP4 SUB DUP2 DUP7 DUP1 EXTCODESIZE ISZERO DUP1 ISZERO PUSH2 0x1B1D JUMPI PUSH1 0x0 DUP1 REVERT JUMPDEST POP GAS STATICCALL ISZERO DUP1 ISZERO PUSH2 0x1B31 JUMPI RETURNDATASIZE PUSH1 0x0 DUP1 RETURNDATACOPY RETURNDATASIZE PUSH1 0x0 REVERT JUMPDEST POP POP POP POP PUSH1 0x40 MLOAD RETURNDATASIZE PUSH1 0x1F NOT PUSH1 0x1F DUP3 ADD AND DUP3 ADD DUP1 PUSH1 0x40 MSTORE POP DUP2 ADD SWAP1 PUSH2 0x1B55 SWAP2 SWAP1 PUSH2 0x27FA JUMP JUMPDEST PUSH2 0x1B5E JUMPI PUSH1 0x0 DUP1 REVERT JUMPDEST DUP2 PUSH1 0x5 PUSH1 0x0 PUSH2 0x100 EXP DUP2 SLOAD DUP2 PUSH20 0xFFFFFFFFFFFFFFFFFFFFFFFFFFFFFFFFFFFFFFFF MUL NOT AND SWAP1 DUP4 PUSH20 0xFFFFFFFFFFFFFFFFFFFFFFFFFFFFFFFFFFFFFFFF AND MUL OR SWAP1 SSTORE POP DUP1 PUSH1 0x1 PUSH1 0x0 PUSH2 0x100 EXP DUP2 SLOAD DUP2 PUSH20 0xFFFFFFFFFFFFFFFFFFFFFFFFFFFFFFFFFFFFFFFF MUL NOT AND SWAP1 DUP4 PUSH20 0xFFFFFFFFFFFFFFFFFFFFFFFFFFFFFFFFFFFFFFFF AND MUL OR SWAP1 SSTORE POP POP POP JUMP JUMPDEST PUSH1 0x0 DUP1 DIFFICULTY TIMESTAMP DUP5 PUSH1 0x40 MLOAD PUSH1 0x20 ADD PUSH2 0x1BFC SWAP4 SWAP3 SWAP2 SWAP1 PUSH2 0x2848 JUMP JUMPDEST PUSH1 0x40 MLOAD PUSH1 0x20 DUP2 DUP4 SUB SUB DUP2 MSTORE SWAP1 PUSH1 0x40 MSTORE DUP1 MLOAD SWAP1 PUSH1 0x20 ADD KECCAK256 PUSH1 0x0 SHR SWAP1 POP DUP4 DUP2 PUSH2 0x1C23 SWAP2 SWAP1 PUSH2 0x28B4 JUMP JUMPDEST SWAP2 POP POP SWAP3 SWAP2 POP POP JUMP JUMPDEST PUSH1 0x60 PUSH1 0x0 DUP3 EQ ISZERO PUSH2 0x1C74 JUMPI PUSH1 0x40 MLOAD DUP1 PUSH1 0x40 ADD PUSH1 0x40 MSTORE DUP1 PUSH1 0x1 DUP2 MSTORE PUSH1 0x20 ADD PUSH32 0x3000000000000000000000000000000000000000000000000000000000000000 DUP2 MSTORE POP SWAP1 POP PUSH2 0x1D88 JUMP JUMPDEST PUSH1 0x0 DUP3 SWAP1 POP PUSH1 0x0 JUMPDEST PUSH1 0x0 DUP3 EQ PUSH2 0x1CA6 JUMPI DUP1 DUP1 PUSH2 0x1C8F SWAP1 PUSH2 0x227D JUMP JUMPDEST SWAP2 POP POP PUSH1 0xA DUP3 PUSH2 0x1C9F SWAP2 SWAP1 PUSH2 0x28E5 JUMP JUMPDEST SWAP2 POP PUSH2 0x1C7C JUMP JUMPDEST PUSH1 0x0 DUP2 PUSH8 0xFFFFFFFFFFFFFFFF DUP2 GT ISZERO PUSH2 0x1CC2 JUMPI PUSH2 0x1CC1 PUSH2 0x2459 JUMP JUMPDEST JUMPDEST PUSH1 0x40 MLOAD SWAP1 DUP1 DUP3 MSTORE DUP1 PUSH1 0x1F ADD PUSH1 0x1F NOT AND PUSH1 0x20 ADD DUP3 ADD PUSH1 0x40 MSTORE DUP1 ISZERO PUSH2 0x1CF4 JUMPI DUP2 PUSH1 0x20 ADD PUSH1 0x1 DUP3 MUL DUP1 CALLDATASIZE DUP4 CALLDATACOPY DUP1 DUP3 ADD SWAP2 POP POP SWAP1 POP JUMPDEST POP SWAP1 POP JUMPDEST PUSH1 0x0 DUP6 EQ PUSH2 0x1D81 JUMPI PUSH1 0x1 DUP3 PUSH2 0x1D0D SWAP2 SWAP1 PUSH2 0x2916 JUMP JUMPDEST SWAP2 POP PUSH1 0xA DUP6 PUSH2 0x1D1C SWAP2 SWAP1 PUSH2 0x28B4 JUMP JUMPDEST PUSH1 0x30 PUSH2 0x1D28 SWAP2 SWAP1 PUSH2 0x21BB JUMP JUMPDEST PUSH1 0xF8 SHL DUP2 DUP4 DUP2 MLOAD DUP2 LT PUSH2 0x1D3E JUMPI PUSH2 0x1D3D PUSH2 0x294A JUMP JUMPDEST JUMPDEST PUSH1 0x20 ADD ADD SWAP1 PUSH31 0xFFFFFFFFFFFFFFFFFFFFFFFFFFFFFFFFFFFFFFFFFFFFFFFFFFFFFFFFFFFFFF NOT AND SWAP1 DUP2 PUSH1 0x0 BYTE SWAP1 MSTORE8 POP PUSH1 0xA DUP6 PUSH2 0x1D7A SWAP2 SWAP1 PUSH2 0x28E5 JUMP JUMPDEST SWAP5 POP PUSH2 0x1CF8 JUMP JUMPDEST DUP1 SWAP4 POP POP POP POP JUMPDEST SWAP2 SWAP1 POP JUMP JUMPDEST DUP3 DUP1 SLOAD DUP3 DUP3 SSTORE SWAP1 PUSH1 0x0 MSTORE PUSH1 0x20 PUSH1 0x0 KECCAK256 SWAP1 DUP2 ADD SWAP3 DUP3 ISZERO PUSH2 0x1DDC JUMPI SWAP2 PUSH1 0x20 MUL DUP3 ADD JUMPDEST DUP3 DUP2 GT ISZERO PUSH2 0x1DDB JUMPI DUP3 MLOAD DUP3 SWAP1 DUP1 MLOAD SWAP1 PUSH1 0x20 ADD SWAP1 PUSH2 0x1DCB SWAP3 SWAP2 SWAP1 PUSH2 0x1DED JUMP JUMPDEST POP SWAP2 PUSH1 0x20 ADD SWAP2 SWAP1 PUSH1 0x1 ADD SWAP1 PUSH2 0x1DAD JUMP JUMPDEST JUMPDEST POP SWAP1 POP PUSH2 0x1DE9 SWAP2 SWAP1 PUSH2 0x1E73 JUMP JUMPDEST POP SWAP1 JUMP JUMPDEST DUP3 DUP1 SLOAD PUSH2 0x1DF9 SWAP1 PUSH2 0x25C1 JUMP JUMPDEST SWAP1 PUSH1 0x0 MSTORE PUSH1 0x20 PUSH1 0x0 KECCAK256 SWAP1 PUSH1 0x1F ADD PUSH1 0x20 SWAP1 DIV DUP2 ADD SWAP3 DUP3 PUSH2 0x1E1B JUMPI PUSH1 0x0 DUP6 SSTORE PUSH2 0x1E62 JUMP JUMPDEST DUP3 PUSH1 0x1F LT PUSH2 0x1E34 JUMPI DUP1 MLOAD PUSH1 0xFF NOT AND DUP4 DUP1 ADD OR DUP6 SSTORE PUSH2 0x1E62 JUMP JUMPDEST DUP3 DUP1 ADD PUSH1 0x1 ADD DUP6 SSTORE DUP3 ISZERO PUSH2 0x1E62 JUMPI SWAP2 DUP3 ADD JUMPDEST DUP3 DUP2 GT ISZERO PUSH2 0x1E61 JUMPI DUP3 MLOAD DUP3 SSTORE SWAP2 PUSH1 0x20 ADD SWAP2 SWAP1 PUSH1 0x1 ADD SWAP1 PUSH2 0x1E46 JUMP JUMPDEST JUMPDEST POP SWAP1 POP PUSH2 0x1E6F SWAP2 SWAP1 PUSH2 0x1E97 JUMP JUMPDEST POP SWAP1 JUMP JUMPDEST JUMPDEST DUP1 DUP3 GT ISZERO PUSH2 0x1E93 JUMPI PUSH1 0x0 DUP2 DUP2 PUSH2 0x1E8A SWAP2 SWAP1 PUSH2 0x1EB4 JUMP JUMPDEST POP PUSH1 0x1 ADD PUSH2 0x1E74 JUMP JUMPDEST POP SWAP1 JUMP JUMPDEST JUMPDEST DUP1 DUP3 GT ISZERO PUSH2 0x1EB0 JUMPI PUSH1 0x0 DUP2 PUSH1 0x0 SWAP1 SSTORE POP PUSH1 0x1 ADD PUSH2 0x1E98 JUMP JUMPDEST POP SWAP1 JUMP JUMPDEST POP DUP1 SLOAD PUSH2 0x1EC0 SWAP1 PUSH2 0x25C1 JUMP JUMPDEST PUSH1 0x0 DUP3 SSTORE DUP1 PUSH1 0x1F LT PUSH2 0x1ED2 JUMPI POP PUSH2 0x1EF1 JUMP JUMPDEST PUSH1 0x1F ADD PUSH1 0x20 SWAP1 DIV SWAP1 PUSH1 0x0 MSTORE PUSH1 0x20 PUSH1 0x0 KECCAK256 SWAP1 DUP2 ADD SWAP1 PUSH2 0x1EF0 SWAP2 SWAP1 PUSH2 0x1E97 JUMP JUMPDEST JUMPDEST POP JUMP JUMPDEST PUSH1 0x0 DUP2 SWAP1 POP SWAP2 SWAP1 POP JUMP JUMPDEST PUSH2 0x1F07 DUP2 PUSH2 0x1EF4 JUMP JUMPDEST DUP3 MSTORE POP POP JUMP JUMPDEST PUSH1 0x0 PUSH1 0x20 DUP3 ADD SWAP1 POP PUSH2 0x1F22 PUSH1 0x0 DUP4 ADD DUP5 PUSH2 0x1EFE JUMP JUMPDEST SWAP3 SWAP2 POP POP JUMP JUMPDEST PUSH1 0x0 DUP1 REVERT JUMPDEST PUSH2 0x1F36 DUP2 PUSH2 0x1EF4 JUMP JUMPDEST DUP2 EQ PUSH2 0x1F41 JUMPI PUSH1 0x0 DUP1 REVERT JUMPDEST POP JUMP JUMPDEST PUSH1 0x0 DUP2 CALLDATALOAD SWAP1 POP PUSH2 0x1F53 DUP2 PUSH2 0x1F2D JUMP JUMPDEST SWAP3 SWAP2 POP POP JUMP JUMPDEST PUSH1 0x0 PUSH1 0x20 DUP3 DUP5 SUB SLT ISZERO PUSH2 0x1F6F JUMPI PUSH2 0x1F6E PUSH2 0x1F28 JUMP JUMPDEST JUMPDEST PUSH1 0x0 PUSH2 0x1F7D DUP5 DUP3 DUP6 ADD PUSH2 0x1F44 JUMP JUMPDEST SWAP2 POP POP SWAP3 SWAP2 POP POP JUMP JUMPDEST PUSH1 0x0 PUSH20 0xFFFFFFFFFFFFFFFFFFFFFFFFFFFFFFFFFFFFFFFF DUP3 AND SWAP1 POP SWAP2 SWAP1 POP JUMP JUMPDEST PUSH1 0x0 DUP2 SWAP1 POP SWAP2 SWAP1 POP JUMP JUMPDEST PUSH1 0x0 PUSH2 0x1FCB PUSH2 0x1FC6 PUSH2 0x1FC1 DUP5 PUSH2 0x1F86 JUMP JUMPDEST PUSH2 0x1FA6 JUMP JUMPDEST PUSH2 0x1F86 JUMP JUMPDEST SWAP1 POP SWAP2 SWAP1 POP JUMP JUMPDEST PUSH1 0x0 PUSH2 0x1FDD DUP3 PUSH2 0x1FB0 JUMP JUMPDEST SWAP1 POP SWAP2 SWAP1 POP JUMP JUMPDEST PUSH1 0x0 PUSH2 0x1FEF DUP3 PUSH2 0x1FD2 JUMP JUMPDEST SWAP1 POP SWAP2 SWAP1 POP JUMP JUMPDEST PUSH2 0x1FFF DUP2 PUSH2 0x1FE4 JUMP JUMPDEST DUP3 MSTORE POP POP JUMP JUMPDEST PUSH1 0x0 PUSH1 0x20 DUP3 ADD SWAP1 POP PUSH2 0x201A PUSH1 0x0 DUP4 ADD DUP5 PUSH2 0x1FF6 JUMP JUMPDEST SWAP3 SWAP2 POP POP JUMP JUMPDEST PUSH1 0x0 PUSH2 0x202B DUP3 PUSH2 0x1F86 JUMP JUMPDEST SWAP1 POP SWAP2 SWAP1 POP JUMP JUMPDEST PUSH2 0x203B DUP2 PUSH2 0x2020 JUMP JUMPDEST DUP3 MSTORE POP POP JUMP JUMPDEST PUSH1 0x0 PUSH1 0x20 DUP3 ADD SWAP1 POP PUSH2 0x2056 PUSH1 0x0 DUP4 ADD DUP5 PUSH2 0x2032 JUMP JUMPDEST SWAP3 SWAP2 POP POP JUMP JUMPDEST PUSH2 0x2065 DUP2 PUSH2 0x2020 JUMP JUMPDEST DUP2 EQ PUSH2 0x2070 JUMPI PUSH1 0x0 DUP1 REVERT JUMPDEST POP JUMP JUMPDEST PUSH1 0x0 DUP2 CALLDATALOAD SWAP1 POP PUSH2 0x2082 DUP2 PUSH2 0x205C JUMP JUMPDEST SWAP3 SWAP2 POP POP JUMP JUMPDEST PUSH1 0x0 PUSH1 0x20 DUP3 DUP5 SUB SLT ISZERO PUSH2 0x209E JUMPI PUSH2 0x209D PUSH2 0x1F28 JUMP JUMPDEST JUMPDEST PUSH1 0x0 PUSH2 0x20AC DUP5 DUP3 DUP6 ADD PUSH2 0x2073 JUMP JUMPDEST SWAP2 POP POP SWAP3 SWAP2 POP POP JUMP JUMPDEST PUSH32 0x4E487B7100000000000000000000000000000000000000000000000000000000 PUSH1 0x0 MSTORE PUSH1 0x11 PUSH1 0x4 MSTORE PUSH1 0x24 PUSH1 0x0 REVERT JUMPDEST PUSH1 0x0 PUSH2 0x20EF DUP3 PUSH2 0x1EF4 JUMP JUMPDEST SWAP2 POP PUSH2 0x20FA DUP4 PUSH2 0x1EF4 JUMP JUMPDEST SWAP3 POP DUP2 PUSH32 0xFFFFFFFFFFFFFFFFFFFFFFFFFFFFFFFFFFFFFFFFFFFFFFFFFFFFFFFFFFFFFFFF DIV DUP4 GT DUP3 ISZERO ISZERO AND ISZERO PUSH2 0x2133 JUMPI PUSH2 0x2132 PUSH2 0x20B5 JUMP JUMPDEST JUMPDEST DUP3 DUP3 MUL SWAP1 POP SWAP3 SWAP2 POP POP JUMP JUMPDEST PUSH1 0x0 DUP3 DUP3 MSTORE PUSH1 0x20 DUP3 ADD SWAP1 POP SWAP3 SWAP2 POP POP JUMP JUMPDEST PUSH32 0x424E42206E6F7420656E6F756768000000000000000000000000000000000000 PUSH1 0x0 DUP3 ADD MSTORE POP JUMP JUMPDEST PUSH1 0x0 PUSH2 0x2185 PUSH1 0xE DUP4 PUSH2 0x213E JUMP JUMPDEST SWAP2 POP PUSH2 0x2190 DUP3 PUSH2 0x214F JUMP JUMPDEST PUSH1 0x20 DUP3 ADD SWAP1 POP SWAP2 SWAP1 POP JUMP JUMPDEST PUSH1 0x0 PUSH1 0x20 DUP3 ADD SWAP1 POP DUP2 DUP2 SUB PUSH1 0x0 DUP4 ADD MSTORE PUSH2 0x21B4 DUP2 PUSH2 0x2178 JUMP JUMPDEST SWAP1 POP SWAP2 SWAP1 POP JUMP JUMPDEST PUSH1 0x0 PUSH2 0x21C6 DUP3 PUSH2 0x1EF4 JUMP JUMPDEST SWAP2 POP PUSH2 0x21D1 DUP4 PUSH2 0x1EF4 JUMP JUMPDEST SWAP3 POP DUP3 PUSH32 0xFFFFFFFFFFFFFFFFFFFFFFFFFFFFFFFFFFFFFFFFFFFFFFFFFFFFFFFFFFFFFFFF SUB DUP3 GT ISZERO PUSH2 0x2206 JUMPI PUSH2 0x2205 PUSH2 0x20B5 JUMP JUMPDEST JUMPDEST DUP3 DUP3 ADD SWAP1 POP SWAP3 SWAP2 POP POP JUMP JUMPDEST PUSH32 0x536F6C64206F7574000000000000000000000000000000000000000000000000 PUSH1 0x0 DUP3 ADD MSTORE POP JUMP JUMPDEST PUSH1 0x0 PUSH2 0x2247 PUSH1 0x8 DUP4 PUSH2 0x213E JUMP JUMPDEST SWAP2 POP PUSH2 0x2252 DUP3 PUSH2 0x2211 JUMP JUMPDEST PUSH1 0x20 DUP3 ADD SWAP1 POP SWAP2 SWAP1 POP JUMP JUMPDEST PUSH1 0x0 PUSH1 0x20 DUP3 ADD SWAP1 POP DUP2 DUP2 SUB PUSH1 0x0 DUP4 ADD MSTORE PUSH2 0x2276 DUP2 PUSH2 0x223A JUMP JUMPDEST SWAP1 POP SWAP2 SWAP1 POP JUMP JUMPDEST PUSH1 0x0 PUSH2 0x2288 DUP3 PUSH2 0x1EF4 JUMP JUMPDEST SWAP2 POP PUSH32 0xFFFFFFFFFFFFFFFFFFFFFFFFFFFFFFFFFFFFFFFFFFFFFFFFFFFFFFFFFFFFFFFF DUP3 EQ ISZERO PUSH2 0x22BB JUMPI PUSH2 0x22BA PUSH2 0x20B5 JUMP JUMPDEST JUMPDEST PUSH1 0x1 DUP3 ADD SWAP1 POP SWAP2 SWAP1 POP JUMP JUMPDEST PUSH1 0x0 PUSH1 0x40 DUP3 ADD SWAP1 POP PUSH2 0x22DB PUSH1 0x0 DUP4 ADD DUP6 PUSH2 0x1EFE JUMP JUMPDEST PUSH2 0x22E8 PUSH1 0x20 DUP4 ADD DUP5 PUSH2 0x2032 JUMP JUMPDEST SWAP4 SWAP3 POP POP POP JUMP JUMPDEST PUSH32 0x4F776E61626C653A2063616C6C6572206973206E6F7420746865206F776E6572 PUSH1 0x0 DUP3 ADD MSTORE POP JUMP JUMPDEST PUSH1 0x0 PUSH2 0x2325 PUSH1 0x20 DUP4 PUSH2 0x213E JUMP JUMPDEST SWAP2 POP PUSH2 0x2330 DUP3 PUSH2 0x22EF JUMP JUMPDEST PUSH1 0x20 DUP3 ADD SWAP1 POP SWAP2 SWAP1 POP JUMP JUMPDEST PUSH1 0x0 PUSH1 0x20 DUP3 ADD SWAP1 POP DUP2 DUP2 SUB PUSH1 0x0 DUP4 ADD MSTORE PUSH2 0x2354 DUP2 PUSH2 0x2318 JUMP JUMPDEST SWAP1 POP SWAP2 SWAP1 POP JUMP JUMPDEST PUSH32 0x62616C616E6365206973207A65726F0000000000000000000000000000000000 PUSH1 0x0 DUP3 ADD MSTORE POP JUMP JUMPDEST PUSH1 0x0 PUSH2 0x2391 PUSH1 0xF DUP4 PUSH2 0x213E JUMP JUMPDEST SWAP2 POP PUSH2 0x239C DUP3 PUSH2 0x235B JUMP JUMPDEST PUSH1 0x20 DUP3 ADD SWAP1 POP SWAP2 SWAP1 POP JUMP JUMPDEST PUSH1 0x0 PUSH1 0x20 DUP3 ADD SWAP1 POP DUP2 DUP2 SUB PUSH1 0x0 DUP4 ADD MSTORE PUSH2 0x23C0 DUP2 PUSH2 0x2384 JUMP JUMPDEST SWAP1 POP SWAP2 SWAP1 POP JUMP JUMPDEST PUSH32 0x4F776E61626C653A206E6577206F776E657220697320746865207A65726F2061 PUSH1 0x0 DUP3 ADD MSTORE PUSH32 0x6464726573730000000000000000000000000000000000000000000000000000 PUSH1 0x20 DUP3 ADD MSTORE POP JUMP JUMPDEST PUSH1 0x0 PUSH2 0x2423 PUSH1 0x26 DUP4 PUSH2 0x213E JUMP JUMPDEST SWAP2 POP PUSH2 0x242E DUP3 PUSH2 0x23C7 JUMP JUMPDEST PUSH1 0x40 DUP3 ADD SWAP1 POP SWAP2 SWAP1 POP JUMP JUMPDEST PUSH1 0x0 PUSH1 0x20 DUP3 ADD SWAP1 POP DUP2 DUP2 SUB PUSH1 0x0 DUP4 ADD MSTORE PUSH2 0x2452 DUP2 PUSH2 0x2416 JUMP JUMPDEST SWAP1 POP SWAP2 SWAP1 POP JUMP JUMPDEST PUSH32 0x4E487B7100000000000000000000000000000000000000000000000000000000 PUSH1 0x0 MSTORE PUSH1 0x41 PUSH1 0x4 MSTORE PUSH1 0x24 PUSH1 0x0 REVERT JUMPDEST PUSH1 0x0 DUP2 MLOAD SWAP1 POP SWAP2 SWAP1 POP JUMP JUMPDEST PUSH1 0x0 DUP2 SWAP1 POP SWAP3 SWAP2 POP POP JUMP JUMPDEST PUSH1 0x0 JUMPDEST DUP4 DUP2 LT ISZERO PUSH2 0x24BC JUMPI DUP1 DUP3 ADD MLOAD DUP2 DUP5 ADD MSTORE PUSH1 0x20 DUP2 ADD SWAP1 POP PUSH2 0x24A1 JUMP JUMPDEST DUP4 DUP2 GT ISZERO PUSH2 0x24CB JUMPI PUSH1 0x0 DUP5 DUP5 ADD MSTORE JUMPDEST POP POP POP POP JUMP JUMPDEST PUSH1 0x0 PUSH2 0x24DC DUP3 PUSH2 0x2488 JUMP JUMPDEST PUSH2 0x24E6 DUP2 DUP6 PUSH2 0x2493 JUMP JUMPDEST SWAP4 POP PUSH2 0x24F6 DUP2 DUP6 PUSH1 0x20 DUP7 ADD PUSH2 0x249E JUMP JUMPDEST DUP1 DUP5 ADD SWAP2 POP POP SWAP3 SWAP2 POP POP JUMP JUMPDEST PUSH1 0x0 PUSH2 0x250E DUP3 DUP6 PUSH2 0x24D1 JUMP JUMPDEST SWAP2 POP PUSH2 0x251A DUP3 DUP5 PUSH2 0x24D1 JUMP JUMPDEST SWAP2 POP DUP2 SWAP1 POP SWAP4 SWAP3 POP POP POP JUMP JUMPDEST PUSH1 0x0 DUP2 SWAP1 POP SWAP2 SWAP1 POP JUMP JUMPDEST PUSH1 0x0 PUSH2 0x254B PUSH2 0x2546 PUSH2 0x2541 DUP5 PUSH2 0x2526 JUMP JUMPDEST PUSH2 0x1FA6 JUMP JUMPDEST PUSH2 0x1EF4 JUMP JUMPDEST SWAP1 POP SWAP2 SWAP1 POP JUMP JUMPDEST PUSH2 0x255B DUP2 PUSH2 0x2530 JUMP JUMPDEST DUP3 MSTORE POP POP JUMP JUMPDEST PUSH1 0x0 DUP2 SLOAD SWAP1 POP SWAP2 SWAP1 POP JUMP JUMPDEST PUSH1 0x0 DUP3 DUP3 MSTORE PUSH1 0x20 DUP3 ADD SWAP1 POP SWAP3 SWAP2 POP POP JUMP JUMPDEST PUSH1 0x0 DUP2 SWAP1 POP DUP2 PUSH1 0x0 MSTORE PUSH1 0x20 PUSH1 0x0 KECCAK256 SWAP1 POP SWAP2 SWAP1 POP JUMP JUMPDEST PUSH32 0x4E487B7100000000000000000000000000000000000000000000000000000000 PUSH1 0x0 MSTORE PUSH1 0x22 PUSH1 0x4 MSTORE PUSH1 0x24 PUSH1 0x0 REVERT JUMPDEST PUSH1 0x0 PUSH1 0x2 DUP3 DIV SWAP1 POP PUSH1 0x1 DUP3 AND DUP1 PUSH2 0x25D9 JUMPI PUSH1 0x7F DUP3 AND SWAP2 POP JUMPDEST PUSH1 0x20 DUP3 LT DUP2 EQ ISZERO PUSH2 0x25ED JUMPI PUSH2 0x25EC PUSH2 0x2592 JUMP JUMPDEST JUMPDEST POP SWAP2 SWAP1 POP JUMP JUMPDEST PUSH1 0x0 DUP3 DUP3 MSTORE PUSH1 0x20 DUP3 ADD SWAP1 POP SWAP3 SWAP2 POP POP JUMP JUMPDEST PUSH1 0x0 DUP2 SWAP1 POP DUP2 PUSH1 0x0 MSTORE PUSH1 0x20 PUSH1 0x0 KECCAK256 SWAP1 POP SWAP2 SWAP1 POP JUMP JUMPDEST PUSH1 0x0 DUP2 SLOAD PUSH2 0x2626 DUP2 PUSH2 0x25C1 JUMP JUMPDEST PUSH2 0x2630 DUP2 DUP7 PUSH2 0x25F3 JUMP JUMPDEST SWAP5 POP PUSH1 0x1 DUP3 AND PUSH1 0x0 DUP2 EQ PUSH2 0x264B JUMPI PUSH1 0x1 DUP2 EQ PUSH2 0x265D JUMPI PUSH2 0x2690 JUMP JUMPDEST PUSH1 0xFF NOT DUP4 AND DUP7 MSTORE PUSH1 0x20 DUP7 ADD SWAP4 POP PUSH2 0x2690 JUMP JUMPDEST PUSH2 0x2666 DUP6 PUSH2 0x2604 JUMP JUMPDEST PUSH1 0x0 JUMPDEST DUP4 DUP2 LT ISZERO PUSH2 0x2688 JUMPI DUP2 SLOAD DUP2 DUP10 ADD MSTORE PUSH1 0x1 DUP3 ADD SWAP2 POP PUSH1 0x20 DUP2 ADD SWAP1 POP PUSH2 0x2669 JUMP JUMPDEST DUP1 DUP9 ADD SWAP6 POP POP POP JUMPDEST POP POP POP SWAP3 SWAP2 POP POP JUMP JUMPDEST PUSH1 0x0 PUSH2 0x26A5 DUP4 DUP4 PUSH2 0x2619 JUMP JUMPDEST SWAP1 POP SWAP3 SWAP2 POP POP JUMP JUMPDEST PUSH1 0x0 PUSH1 0x1 DUP3 ADD SWAP1 POP SWAP2 SWAP1 POP JUMP JUMPDEST PUSH1 0x0 PUSH2 0x26C5 DUP3 PUSH2 0x2561 JUMP JUMPDEST PUSH2 0x26CF DUP2 DUP6 PUSH2 0x256C JUMP JUMPDEST SWAP4 POP DUP4 PUSH1 0x20 DUP3 MUL DUP6 ADD PUSH2 0x26E1 DUP6 PUSH2 0x257D JUMP JUMPDEST DUP1 PUSH1 0x0 JUMPDEST DUP6 DUP2 LT ISZERO PUSH2 0x271C JUMPI DUP5 DUP5 SUB DUP10 MSTORE DUP2 PUSH2 0x26FD DUP6 DUP3 PUSH2 0x2699 JUMP JUMPDEST SWAP5 POP PUSH2 0x2708 DUP4 PUSH2 0x26AD JUMP JUMPDEST SWAP3 POP PUSH1 0x20 DUP11 ADD SWAP10 POP POP PUSH1 0x1 DUP2 ADD SWAP1 POP PUSH2 0x26E5 JUMP JUMPDEST POP DUP3 SWAP8 POP DUP8 SWAP6 POP POP POP POP POP POP SWAP3 SWAP2 POP POP JUMP JUMPDEST PUSH1 0x0 PUSH1 0x60 DUP3 ADD SWAP1 POP PUSH2 0x2743 PUSH1 0x0 DUP4 ADD DUP7 PUSH2 0x2032 JUMP JUMPDEST PUSH2 0x2750 PUSH1 0x20 DUP4 ADD DUP6 PUSH2 0x2552 JUMP JUMPDEST DUP2 DUP2 SUB PUSH1 0x40 DUP4 ADD MSTORE PUSH2 0x2762 DUP2 DUP5 PUSH2 0x26BA JUMP JUMPDEST SWAP1 POP SWAP5 SWAP4 POP POP POP POP JUMP JUMPDEST PUSH1 0x0 PUSH32 0xFFFFFFFF00000000000000000000000000000000000000000000000000000000 DUP3 AND SWAP1 POP SWAP2 SWAP1 POP JUMP JUMPDEST PUSH2 0x27A1 DUP2 PUSH2 0x276C JUMP JUMPDEST DUP3 MSTORE POP POP JUMP JUMPDEST PUSH1 0x0 PUSH1 0x20 DUP3 ADD SWAP1 POP PUSH2 0x27BC PUSH1 0x0 DUP4 ADD DUP5 PUSH2 0x2798 JUMP JUMPDEST SWAP3 SWAP2 POP POP JUMP JUMPDEST PUSH1 0x0 DUP2 ISZERO ISZERO SWAP1 POP SWAP2 SWAP1 POP JUMP JUMPDEST PUSH2 0x27D7 DUP2 PUSH2 0x27C2 JUMP JUMPDEST DUP2 EQ PUSH2 0x27E2 JUMPI PUSH1 0x0 DUP1 REVERT JUMPDEST POP JUMP JUMPDEST PUSH1 0x0 DUP2 MLOAD SWAP1 POP PUSH2 0x27F4 DUP2 PUSH2 0x27CE JUMP JUMPDEST SWAP3 SWAP2 POP POP JUMP JUMPDEST PUSH1 0x0 PUSH1 0x20 DUP3 DUP5 SUB SLT ISZERO PUSH2 0x2810 JUMPI PUSH2 0x280F PUSH2 0x1F28 JUMP JUMPDEST JUMPDEST PUSH1 0x0 PUSH2 0x281E DUP5 DUP3 DUP6 ADD PUSH2 0x27E5 JUMP JUMPDEST SWAP2 POP POP SWAP3 SWAP2 POP POP JUMP JUMPDEST PUSH1 0x0 DUP2 SWAP1 POP SWAP2 SWAP1 POP JUMP JUMPDEST PUSH2 0x2842 PUSH2 0x283D DUP3 PUSH2 0x1EF4 JUMP JUMPDEST PUSH2 0x2827 JUMP JUMPDEST DUP3 MSTORE POP POP JUMP JUMPDEST PUSH1 0x0 PUSH2 0x2854 DUP3 DUP7 PUSH2 0x2831 JUMP JUMPDEST PUSH1 0x20 DUP3 ADD SWAP2 POP PUSH2 0x2864 DUP3 DUP6 PUSH2 0x2831 JUMP JUMPDEST PUSH1 0x20 DUP3 ADD SWAP2 POP PUSH2 0x2874 DUP3 DUP5 PUSH2 0x2831 JUMP JUMPDEST PUSH1 0x20 DUP3 ADD SWAP2 POP DUP2 SWAP1 POP SWAP5 SWAP4 POP POP POP POP JUMP JUMPDEST PUSH32 0x4E487B7100000000000000000000000000000000000000000000000000000000 PUSH1 0x0 MSTORE PUSH1 0x12 PUSH1 0x4 MSTORE PUSH1 0x24 PUSH1 0x0 REVERT JUMPDEST PUSH1 0x0 PUSH2 0x28BF DUP3 PUSH2 0x1EF4 JUMP JUMPDEST SWAP2 POP PUSH2 0x28CA DUP4 PUSH2 0x1EF4 JUMP JUMPDEST SWAP3 POP DUP3 PUSH2 0x28DA JUMPI PUSH2 0x28D9 PUSH2 0x2885 JUMP JUMPDEST JUMPDEST DUP3 DUP3 MOD SWAP1 POP SWAP3 SWAP2 POP POP JUMP JUMPDEST PUSH1 0x0 PUSH2 0x28F0 DUP3 PUSH2 0x1EF4 JUMP JUMPDEST SWAP2 POP PUSH2 0x28FB DUP4 PUSH2 0x1EF4 JUMP JUMPDEST SWAP3 POP DUP3 PUSH2 0x290B JUMPI PUSH2 0x290A PUSH2 0x2885 JUMP JUMPDEST JUMPDEST DUP3 DUP3 DIV SWAP1 POP SWAP3 SWAP2 POP POP JUMP JUMPDEST PUSH1 0x0 PUSH2 0x2921 DUP3 PUSH2 0x1EF4 JUMP JUMPDEST SWAP2 POP PUSH2 0x292C DUP4 PUSH2 0x1EF4 JUMP JUMPDEST SWAP3 POP DUP3 DUP3 LT ISZERO PUSH2 0x293F JUMPI PUSH2 0x293E PUSH2 0x20B5 JUMP JUMPDEST JUMPDEST DUP3 DUP3 SUB SWAP1 POP SWAP3 SWAP2 POP POP JUMP JUMPDEST PUSH32 0x4E487B7100000000000000000000000000000000000000000000000000000000 PUSH1 0x0 MSTORE PUSH1 0x32 PUSH1 0x4 MSTORE PUSH1 0x24 PUSH1 0x0 REVERT INVALID LOG2 PUSH5 0x6970667358 0x22 SLT KECCAK256 0xF MSIZE 0x23 0xA8 0xDE 0xF NUMBER PUSH21 0x372DA92AB38C6524E4653539F3404C458C0318BC99 0x1E 0xB6 0x4E PUSH5 0x736F6C6343 STOP ADDMOD MULMOD STOP CALLER "
		},
		"gasEstimates": {
			"creation": {
				"codeDepositCost": "2134200",
				"executionCost": "infinite",
				"totalCost": "infinite"
			},
			"external": {
				"buyNFT(uint256)": "infinite",
				"dpk()": "infinite",
				"extractCoin()": "infinite",
				"getDPKContractAddress()": "2589",
				"getMaxMintedCount()": "2461",
				"getMintedCount()": "2503",
				"getPrice()": "2482",
				"owner()": "2589",
				"renounceOwnership()": "30397",
				"setDPKContractAddress(address)": "infinite",
				"setExtractAddress(address)": "26984",
				"setMaxMintedCount(uint256)": "24804",
				"setPrice(uint256)": "infinite",
				"transferOwnership(address)": "30811"
			},
			"internal": {
				"_mint(address)": "infinite",
				"_random(uint256,uint256)": "infinite",
				"_setDPKContractAddress(address)": "infinite",
				"_string2Uint(string memory)": "infinite"
			}
		},
		"methodIdentifiers": {
			"buyNFT(uint256)": "51ed8288",
			"dpk()": "70f63ec4",
			"extractCoin()": "7b5e4e03",
			"getDPKContractAddress()": "d2c725cd",
			"getMaxMintedCount()": "3e1118eb",
			"getMintedCount()": "ebc9bd3b",
			"getPrice()": "98d5fdca",
			"owner()": "8da5cb5b",
			"renounceOwnership()": "715018a6",
			"setDPKContractAddress(address)": "91bff322",
			"setExtractAddress(address)": "d56892d8",
			"setMaxMintedCount(uint256)": "df09f6e2",
			"setPrice(uint256)": "91b7f5ed",
			"transferOwnership(address)": "f2fde38b"
		}
	},
	"abi": [
		{
			"inputs": [
				{
					"internalType": "address",
					"name": "dpkContractAddress",
					"type": "address"
				}
			],
			"stateMutability": "nonpayable",
			"type": "constructor"
		},
		{
			"anonymous": false,
			"inputs": [
				{
					"indexed": false,
					"internalType": "uint256",
					"name": "nft",
					"type": "uint256"
				},
				{
					"indexed": false,
					"internalType": "address",
					"name": "owner",
					"type": "address"
				}
			],
			"name": "BuyNFT",
			"type": "event"
		},
		{
			"anonymous": false,
			"inputs": [
				{
					"indexed": true,
					"internalType": "uint256",
					"name": "coins",
					"type": "uint256"
				}
			],
			"name": "ExtractCoinEvent",
			"type": "event"
		},
		{
			"anonymous": false,
			"inputs": [
				{
					"indexed": true,
					"internalType": "address",
					"name": "previousOwner",
					"type": "address"
				},
				{
					"indexed": true,
					"internalType": "address",
					"name": "newOwner",
					"type": "address"
				}
			],
			"name": "OwnershipTransferred",
			"type": "event"
		},
		{
			"inputs": [
				{
					"internalType": "uint256",
					"name": "count",
					"type": "uint256"
				}
			],
			"name": "buyNFT",
			"outputs": [],
			"stateMutability": "payable",
			"type": "function"
		},
		{
			"inputs": [],
			"name": "dpk",
			"outputs": [
				{
					"internalType": "contract DKPContract",
					"name": "",
					"type": "address"
				}
			],
			"stateMutability": "view",
			"type": "function"
		},
		{
			"inputs": [],
			"name": "extractCoin",
			"outputs": [],
			"stateMutability": "nonpayable",
			"type": "function"
		},
		{
			"inputs": [],
			"name": "getDPKContractAddress",
			"outputs": [
				{
					"internalType": "address",
					"name": "",
					"type": "address"
				}
			],
			"stateMutability": "view",
			"type": "function"
		},
		{
			"inputs": [],
			"name": "getMaxMintedCount",
			"outputs": [
				{
					"internalType": "uint256",
					"name": "",
					"type": "uint256"
				}
			],
			"stateMutability": "view",
			"type": "function"
		},
		{
			"inputs": [],
			"name": "getMintedCount",
			"outputs": [
				{
					"internalType": "uint256",
					"name": "",
					"type": "uint256"
				}
			],
			"stateMutability": "view",
			"type": "function"
		},
		{
			"inputs": [],
			"name": "getPrice",
			"outputs": [
				{
					"internalType": "uint256",
					"name": "",
					"type": "uint256"
				}
			],
			"stateMutability": "view",
			"type": "function"
		},
		{
			"inputs": [],
			"name": "owner",
			"outputs": [
				{
					"internalType": "address",
					"name": "",
					"type": "address"
				}
			],
			"stateMutability": "view",
			"type": "function"
		},
		{
			"inputs": [],
			"name": "renounceOwnership",
			"outputs": [],
			"stateMutability": "nonpayable",
			"type": "function"
		},
		{
			"inputs": [
				{
					"internalType": "address",
					"name": "dpkContractAddress",
					"type": "address"
				}
			],
			"name": "setDPKContractAddress",
			"outputs": [],
			"stateMutability": "nonpayable",
			"type": "function"
		},
		{
			"inputs": [
				{
					"internalType": "address",
					"name": "newExtractAddress",
					"type": "address"
				}
			],
			"name": "setExtractAddress",
			"outputs": [],
			"stateMutability": "nonpayable",
			"type": "function"
		},
		{
			"inputs": [
				{
					"internalType": "uint256",
					"name": "nVal",
					"type": "uint256"
				}
			],
			"name": "setMaxMintedCount",
			"outputs": [],
			"stateMutability": "nonpayable",
			"type": "function"
		},
		{
			"inputs": [
				{
					"internalType": "uint256",
					"name": "price",
					"type": "uint256"
				}
			],
			"name": "setPrice",
			"outputs": [],
			"stateMutability": "nonpayable",
			"type": "function"
		},
		{
			"inputs": [
				{
					"internalType": "address",
					"name": "newOwner",
					"type": "address"
				}
			],
			"name": "transferOwnership",
			"outputs": [],
			"stateMutability": "nonpayable",
			"type": "function"
		}
	]
}