{
	"data": {
		"bytecode": {
			"linkReferences": {},
			"object": "60806040523480156200001157600080fd5b5060405162005d0438038062005d04833981810160405281019062000037919062000796565b8282620000596200004d6200028860201b60201c565b6200029060201b60201c565b81600290805190602001906200007192919062000549565b5080600390805190602001906200008a92919062000549565b5050506000600c60006101000a81548160ff02191690831515021790555080600d9080519060200190620000c092919062000549565b50620000f37fa49807205ce4d355092ef5a8a18f56e8913cf4a201fbe287825b095693c21775806200035660201b60201c565b620001457f9f2df0fed2c77648de5860a4cc508cd0818c85b8b8a1ab4ceeef8d981c8956a67fa49807205ce4d355092ef5a8a18f56e8913cf4a201fbe287825b095693c217756200035660201b60201c565b620001977fe97b137254058bd94f28d2f3eb79e2d34074ffb488d042e3bc958e0a57d2fa227fa49807205ce4d355092ef5a8a18f56e8913cf4a201fbe287825b095693c217756200035660201b60201c565b620001e97f65d7a28e3265b37a6474929f336521b332c1681b933f6cb9f3376673440d862a7fa49807205ce4d355092ef5a8a18f56e8913cf4a201fbe287825b095693c217756200035660201b60201c565b6200021b7fa49807205ce4d355092ef5a8a18f56e8913cf4a201fbe287825b095693c2177533620003b960201b60201c565b6200024d7f9f2df0fed2c77648de5860a4cc508cd0818c85b8b8a1ab4ceeef8d981c8956a633620003b960201b60201c565b6200027f7fe97b137254058bd94f28d2f3eb79e2d34074ffb488d042e3bc958e0a57d2fa2233620003b960201b60201c565b505050620008b4565b600033905090565b6000600160009054906101000a900473ffffffffffffffffffffffffffffffffffffffff16905081600160006101000a81548173ffffffffffffffffffffffffffffffffffffffff021916908373ffffffffffffffffffffffffffffffffffffffff1602179055508173ffffffffffffffffffffffffffffffffffffffff168173ffffffffffffffffffffffffffffffffffffffff167f8be0079c531659141344cd1fd0a4f28419497f9722a3daafe3b4186f6b6457e060405160405180910390a35050565b60006200036983620003cf60201b60201c565b905081600080858152602001908152602001600020600101819055508181847fbd79b86ffe0ab8e8776151514217cd7cacd52c909f66475c3af44e129f0b00ff60405160405180910390a4505050565b620003cb8282620003ee60201b60201c565b5050565b6000806000838152602001908152602001600020600101549050919050565b620004008282620004df60201b60201c565b620004db57600160008084815260200190815260200160002060000160008373ffffffffffffffffffffffffffffffffffffffff1673ffffffffffffffffffffffffffffffffffffffff16815260200190815260200160002060006101000a81548160ff021916908315150217905550620004806200028860201b60201c565b73ffffffffffffffffffffffffffffffffffffffff168173ffffffffffffffffffffffffffffffffffffffff16837f2f8788117e7eff1d82e926ec794901d17c78024a50270940304540a733656f0d60405160405180910390a45b5050565b600080600084815260200190815260200160002060000160008373ffffffffffffffffffffffffffffffffffffffff1673ffffffffffffffffffffffffffffffffffffffff16815260200190815260200160002060009054906101000a900460ff16905092915050565b82805462000557906200087e565b90600052602060002090601f0160209004810192826200057b5760008555620005c7565b82601f106200059657805160ff1916838001178555620005c7565b82800160010185558215620005c7579182015b82811115620005c6578251825591602001919060010190620005a9565b5b509050620005d69190620005da565b5090565b5b80821115620005f5576000816000905550600101620005db565b5090565b6000604051905090565b600080fd5b600080fd5b600080fd5b600080fd5b6000601f19601f8301169050919050565b7f4e487b7100000000000000000000000000000000000000000000000000000000600052604160045260246000fd5b620006628262000617565b810181811067ffffffffffffffff8211171562000684576200068362000628565b5b80604052505050565b600062000699620005f9565b9050620006a7828262000657565b919050565b600067ffffffffffffffff821115620006ca57620006c962000628565b5b620006d58262000617565b9050602081019050919050565b60005b8381101562000702578082015181840152602081019050620006e5565b8381111562000712576000848401525b50505050565b60006200072f6200072984620006ac565b6200068d565b9050828152602081018484840111156200074e576200074d62000612565b5b6200075b848285620006e2565b509392505050565b600082601f8301126200077b576200077a6200060d565b5b81516200078d84826020860162000718565b91505092915050565b600080600060608486031215620007b257620007b162000603565b5b600084015167ffffffffffffffff811115620007d357620007d262000608565b5b620007e18682870162000763565b935050602084015167ffffffffffffffff81111562000805576200080462000608565b5b620008138682870162000763565b925050604084015167ffffffffffffffff81111562000837576200083662000608565b5b620008458682870162000763565b9150509250925092565b7f4e487b7100000000000000000000000000000000000000000000000000000000600052602260045260246000fd5b600060028204905060018216806200089757607f821691505b60208210811415620008ae57620008ad6200084f565b5b50919050565b61544080620008c46000396000f3fe608060405234801561001057600080fd5b50600436106102485760003560e01c8063715018a61161013b578063a82f2a15116100b8578063d53913931161007c578063d5391393146106ff578063d547741f1461071d578063e63ab1e914610739578063e985e9c514610757578063f2fde38b1461078757610248565b8063a82f2a1514610649578063b88d4fde14610679578063b930908f14610695578063c87b56dd146106b3578063d5043c7d146106e357610248565b806391d14854116100ff57806391d14854146105a557806394ffc3e5146105d557806395d89b41146105f1578063a217fddf1461060f578063a22cb4651461062d57610248565b8063715018a61461052557806375b238fc1461052f578063836387101461054d5780638456cb591461057d5780638da5cb5b1461058757610248565b806330176e13116101c95780634f6ccce71161018d5780634f6ccce71461044757806358273ccb146104775780635c975abb146104a75780636352211e146104c557806370a08231146104f557610248565b806330176e13146103cd57806336568abe146103e95780633f4ba83a1461040557806342842e0e1461040f57806342966c681461042b57610248565b806318160ddd1161021057806318160ddd1461031757806323b872dd14610335578063248a9ca3146103515780632f2ff15d146103815780632f745c591461039d57610248565b806301ffc9a71461024d57806306fdde031461027d578063081812fc1461029b578063095ea7b3146102cb57806313f667f4146102e7575b600080fd5b610267600480360381019061026291906135c0565b6107a3565b6040516102749190613608565b60405180910390f35b6102856107b5565b60405161029291906136bc565b60405180910390f35b6102b560048036038101906102b09190613714565b610847565b6040516102c29190613782565b60405180910390f35b6102e560048036038101906102e091906137c9565b6108cc565b005b61030160048036038101906102fc9190613714565b6109e4565b60405161030e9190613818565b60405180910390f35b61031f610a01565b60405161032c9190613818565b60405180910390f35b61034f600480360381019061034a9190613833565b610a0e565b005b61036b600480360381019061036691906138bc565b610a6e565b60405161037891906138f8565b60405180910390f35b61039b60048036038101906103969190613913565b610a8d565b005b6103b760048036038101906103b291906137c9565b610ab6565b6040516103c49190613818565b60405180910390f35b6103e760048036038101906103e29190613a88565b610b5b565b005b61040360048036038101906103fe9190613913565b610ba8565b005b61040d610c2b565b005b61042960048036038101906104249190613833565b610c68565b005b61044560048036038101906104409190613714565b610c88565b005b610461600480360381019061045c9190613714565b610cc7565b60405161046e9190613818565b60405180910390f35b610491600480360381019061048c9190613ad1565b610d38565b60405161049e91906136bc565b60405180910390f35b6104af610dfa565b6040516104bc9190613608565b60405180910390f35b6104df60048036038101906104da9190613714565b610e11565b6040516104ec9190613782565b60405180910390f35b61050f600480360381019061050a9190613b2d565b610ec3565b60405161051c9190613818565b60405180910390f35b61052d610f7b565b005b610537611003565b60405161054491906138f8565b60405180910390f35b61056760048036038101906105629190613714565b611027565b6040516105749190613782565b60405180910390f35b610585611039565b005b61058f611076565b60405161059c9190613782565b60405180910390f35b6105bf60048036038101906105ba9190613913565b6110a0565b6040516105cc9190613608565b60405180910390f35b6105ef60048036038101906105ea9190613b5a565b61110a565b005b6105f961114d565b60405161060691906136bc565b60405180910390f35b6106176111df565b60405161062491906138f8565b60405180910390f35b61064760048036038101906106429190613c11565b6111e6565b005b610663600480360381019061065e9190613714565b611367565b6040516106709190613d5d565b60405180910390f35b610693600480360381019061068e9190613e20565b611453565b005b61069d6114b5565b6040516106aa91906138f8565b60405180910390f35b6106cd60048036038101906106c89190613714565b6114d9565b6040516106da91906136bc565b60405180910390f35b6106fd60048036038101906106f89190613f89565b611580565b005b610707611766565b60405161071491906138f8565b60405180910390f35b61073760048036038101906107329190613913565b61178a565b005b6107416117b3565b60405161074e91906138f8565b60405180910390f35b610771600480360381019061076c9190613ff8565b6117d7565b60405161077e9190613608565b60405180910390f35b6107a1600480360381019061079c9190613b2d565b61186b565b005b60006107ae82611963565b9050919050565b6060600280546107c490614067565b80601f01602080910402602001604051908101604052809291908181526020018280546107f090614067565b801561083d5780601f106108125761010080835404028352916020019161083d565b820191906000526020600020905b81548152906001019060200180831161082057829003601f168201915b5050505050905090565b6000610852826119dd565b610891576040517f08c379a00000000000000000000000000000000000000000000000000000000081526004016108889061410b565b60405180910390fd5b6006600083815260200190815260200160002060009054906101000a900473ffffffffffffffffffffffffffffffffffffffff169050919050565b60006108d782610e11565b90508073ffffffffffffffffffffffffffffffffffffffff168373ffffffffffffffffffffffffffffffffffffffff161415610948576040517f08c379a000000000000000000000000000000000000000000000000000000000815260040161093f9061419d565b60405180910390fd5b8073ffffffffffffffffffffffffffffffffffffffff16610967611a49565b73ffffffffffffffffffffffffffffffffffffffff161480610996575061099581610990611a49565b6117d7565b5b6109d5576040517f08c379a00000000000000000000000000000000000000000000000000000000081526004016109cc9061422f565b60405180910390fd5b6109df8383611a51565b505050565b600060106000838152602001908152602001600020549050919050565b6000600a80549050905090565b610a1f610a19611a49565b82611b0a565b610a5e576040517f08c379a0000000000000000000000000000000000000000000000000000000008152600401610a55906142c1565b60405180910390fd5b610a69838383611be8565b505050565b6000806000838152602001908152602001600020600101549050919050565b610a9682610a6e565b610aa781610aa2611a49565b611e44565b610ab18383611ee1565b505050565b6000610ac183610ec3565b8210610b02576040517f08c379a0000000000000000000000000000000000000000000000000000000008152600401610af990614353565b60405180910390fd5b600860008473ffffffffffffffffffffffffffffffffffffffff1673ffffffffffffffffffffffffffffffffffffffff168152602001908152602001600020600083815260200190815260200160002054905092915050565b7fa49807205ce4d355092ef5a8a18f56e8913cf4a201fbe287825b095693c21775610b8d81610b88611a49565b611e44565b81600d9080519060200190610ba39291906133ed565b505050565b610bb0611a49565b73ffffffffffffffffffffffffffffffffffffffff168173ffffffffffffffffffffffffffffffffffffffff1614610c1d576040517f08c379a0000000000000000000000000000000000000000000000000000000008152600401610c14906143e5565b60405180910390fd5b610c278282611fc1565b5050565b7f65d7a28e3265b37a6474929f336521b332c1681b933f6cb9f3376673440d862a610c5d81610c58611a49565b611e44565b610c656120a2565b50565b610c8383838360405180602001604052806000815250611453565b505050565b7fe97b137254058bd94f28d2f3eb79e2d34074ffb488d042e3bc958e0a57d2fa22610cba81610cb5611a49565b611e44565b610cc382612144565b5050565b6000610cd1610a01565b8210610d12576040517f08c379a0000000000000000000000000000000000000000000000000000000008152600401610d0990614477565b60405180910390fd5b600a8281548110610d2657610d25614497565b5b90600052602060002001549050919050565b6060600e600084815260200190815260200160002082604051610d5b9190614502565b90815260200160405180910390208054610d7490614067565b80601f0160208091040260200160405190810160405280929190818152602001828054610da090614067565b8015610ded5780601f10610dc257610100808354040283529160200191610ded565b820191906000526020600020905b815481529060010190602001808311610dd057829003601f168201915b5050505050905092915050565b6000600c60009054906101000a900460ff16905090565b6000806004600084815260200190815260200160002060009054906101000a900473ffffffffffffffffffffffffffffffffffffffff169050600073ffffffffffffffffffffffffffffffffffffffff168173ffffffffffffffffffffffffffffffffffffffff161415610eba576040517f08c379a0000000000000000000000000000000000000000000000000000000008152600401610eb19061458b565b60405180910390fd5b80915050919050565b60008073ffffffffffffffffffffffffffffffffffffffff168273ffffffffffffffffffffffffffffffffffffffff161415610f34576040517f08c379a0000000000000000000000000000000000000000000000000000000008152600401610f2b9061461d565b60405180910390fd5b600560008373ffffffffffffffffffffffffffffffffffffffff1673ffffffffffffffffffffffffffffffffffffffff168152602001908152602001600020549050919050565b610f83611a49565b73ffffffffffffffffffffffffffffffffffffffff16610fa1611076565b73ffffffffffffffffffffffffffffffffffffffff1614610ff7576040517f08c379a0000000000000000000000000000000000000000000000000000000008152600401610fee90614689565b60405180910390fd5b6110016000612255565b565b7fa49807205ce4d355092ef5a8a18f56e8913cf4a201fbe287825b095693c2177581565b600061103282610e11565b9050919050565b7f65d7a28e3265b37a6474929f336521b332c1681b933f6cb9f3376673440d862a61106b81611066611a49565b611e44565b61107361231b565b50565b6000600160009054906101000a900473ffffffffffffffffffffffffffffffffffffffff16905090565b600080600084815260200190815260200160002060000160008373ffffffffffffffffffffffffffffffffffffffff1673ffffffffffffffffffffffffffffffffffffffff16815260200190815260200160002060009054906101000a900460ff16905092915050565b7f9f2df0fed2c77648de5860a4cc508cd0818c85b8b8a1ab4ceeef8d981c8956a661113c81611137611a49565b611e44565b6111478484846123be565b50505050565b60606003805461115c90614067565b80601f016020809104026020016040519081016040528092919081815260200182805461118890614067565b80156111d55780601f106111aa576101008083540402835291602001916111d5565b820191906000526020600020905b8154815290600101906020018083116111b857829003601f168201915b5050505050905090565b6000801b81565b6111ee611a49565b73ffffffffffffffffffffffffffffffffffffffff168273ffffffffffffffffffffffffffffffffffffffff16141561125c576040517f08c379a0000000000000000000000000000000000000000000000000000000008152600401611253906146f5565b60405180910390fd5b8060076000611269611a49565b73ffffffffffffffffffffffffffffffffffffffff1673ffffffffffffffffffffffffffffffffffffffff16815260200190815260200160002060008473ffffffffffffffffffffffffffffffffffffffff1673ffffffffffffffffffffffffffffffffffffffff16815260200190815260200160002060006101000a81548160ff0219169083151502179055508173ffffffffffffffffffffffffffffffffffffffff16611316611a49565b73ffffffffffffffffffffffffffffffffffffffff167f17307eab39ab6107e8899845ad3d59bd9653f200f220920489ca2b5937696c318360405161135b9190613608565b60405180910390a35050565b6060600f6000838152602001908152602001600020805480602002602001604051908101604052809291908181526020016000905b828210156114485783829060005260206000200180546113bb90614067565b80601f01602080910402602001604051908101604052809291908181526020018280546113e790614067565b80156114345780601f1061140957610100808354040283529160200191611434565b820191906000526020600020905b81548152906001019060200180831161141757829003601f168201915b50505050508152602001906001019061139c565b505050509050919050565b61146461145e611a49565b83611b0a565b6114a3576040517f08c379a000000000000000000000000000000000000000000000000000000000815260040161149a906142c1565b60405180910390fd5b6114af8484848461248a565b50505050565b7fe97b137254058bd94f28d2f3eb79e2d34074ffb488d042e3bc958e0a57d2fa2281565b60606114e4826119dd565b611523576040517f08c379a000000000000000000000000000000000000000000000000000000000815260040161151a90614787565b60405180910390fd5b600061152d6124e6565b9050600081511161154d5760405180602001604052806000815250611578565b8061155784612578565b6040516020016115689291906147a7565b6040516020818303038152906040525b915050919050565b7f9f2df0fed2c77648de5860a4cc508cd0818c85b8b8a1ab4ceeef8d981c8956a66115b2816115ad611a49565b611e44565b6000600283516115c291906147fa565b14611602576040517f08c379a00000000000000000000000000000000000000000000000000000000081526004016115f990614877565b60405180910390fd5b600160106000858152602001908152602001600020600082825461162691906148c6565b92505081905550600061163884612578565b6116546010600087815260200190815260200160002054612578565b6040516020016116659291906147a7565b60405160208183030381529060405290506000611681826126d9565b905061168d86826127ec565b83600f600083815260200190815260200160002090805190602001906116b4929190613473565b5060005b84518110156117205761170c828683815181106116d8576116d7614497565b5b6020026020010151876001856116ee91906148c6565b815181106116ff576116fe614497565b5b60200260200101516123be565b60028161171991906148c6565b90506116b8565b507f9e5c894249c05cae65c2b006e96f45233d71c407ceb719e92406ffbd9587d91d81878787604051611756949392919061491c565b60405180910390a1505050505050565b7f9f2df0fed2c77648de5860a4cc508cd0818c85b8b8a1ab4ceeef8d981c8956a681565b61179382610a6e565b6117a48161179f611a49565b611e44565b6117ae8383611fc1565b505050565b7f65d7a28e3265b37a6474929f336521b332c1681b933f6cb9f3376673440d862a81565b6000600760008473ffffffffffffffffffffffffffffffffffffffff1673ffffffffffffffffffffffffffffffffffffffff16815260200190815260200160002060008373ffffffffffffffffffffffffffffffffffffffff1673ffffffffffffffffffffffffffffffffffffffff16815260200190815260200160002060009054906101000a900460ff16905092915050565b611873611a49565b73ffffffffffffffffffffffffffffffffffffffff16611891611076565b73ffffffffffffffffffffffffffffffffffffffff16146118e7576040517f08c379a00000000000000000000000000000000000000000000000000000000081526004016118de90614689565b60405180910390fd5b600073ffffffffffffffffffffffffffffffffffffffff168173ffffffffffffffffffffffffffffffffffffffff161415611957576040517f08c379a000000000000000000000000000000000000000000000000000000000815260040161194e906149da565b60405180910390fd5b61196081612255565b50565b60007f780e9d63000000000000000000000000000000000000000000000000000000007bffffffffffffffffffffffffffffffffffffffffffffffffffffffff1916827bffffffffffffffffffffffffffffffffffffffffffffffffffffffff191614806119d657506119d5826129ba565b5b9050919050565b60008073ffffffffffffffffffffffffffffffffffffffff166004600084815260200190815260200160002060009054906101000a900473ffffffffffffffffffffffffffffffffffffffff1673ffffffffffffffffffffffffffffffffffffffff1614159050919050565b600033905090565b816006600083815260200190815260200160002060006101000a81548173ffffffffffffffffffffffffffffffffffffffff021916908373ffffffffffffffffffffffffffffffffffffffff160217905550808273ffffffffffffffffffffffffffffffffffffffff16611ac483610e11565b73ffffffffffffffffffffffffffffffffffffffff167f8c5be1e5ebec7d5bd14f71427d1e84f3dd0314c0f7b2291e5b200ac8c7c3b92560405160405180910390a45050565b6000611b15826119dd565b611b54576040517f08c379a0000000000000000000000000000000000000000000000000000000008152600401611b4b90614a6c565b60405180910390fd5b6000611b5f83610e11565b90508073ffffffffffffffffffffffffffffffffffffffff168473ffffffffffffffffffffffffffffffffffffffff161480611bce57508373ffffffffffffffffffffffffffffffffffffffff16611bb684610847565b73ffffffffffffffffffffffffffffffffffffffff16145b80611bdf5750611bde81856117d7565b5b91505092915050565b8273ffffffffffffffffffffffffffffffffffffffff16611c0882610e11565b73ffffffffffffffffffffffffffffffffffffffff1614611c5e576040517f08c379a0000000000000000000000000000000000000000000000000000000008152600401611c5590614afe565b60405180910390fd5b600073ffffffffffffffffffffffffffffffffffffffff168273ffffffffffffffffffffffffffffffffffffffff161415611cce576040517f08c379a0000000000000000000000000000000000000000000000000000000008152600401611cc590614b90565b60405180910390fd5b611cd9838383612a9c565b611ce4600082611a51565b6001600560008573ffffffffffffffffffffffffffffffffffffffff1673ffffffffffffffffffffffffffffffffffffffff1681526020019081526020016000206000828254611d349190614bb0565b925050819055506001600560008473ffffffffffffffffffffffffffffffffffffffff1673ffffffffffffffffffffffffffffffffffffffff1681526020019081526020016000206000828254611d8b91906148c6565b92505081905550816004600083815260200190815260200160002060006101000a81548173ffffffffffffffffffffffffffffffffffffffff021916908373ffffffffffffffffffffffffffffffffffffffff160217905550808273ffffffffffffffffffffffffffffffffffffffff168473ffffffffffffffffffffffffffffffffffffffff167fddf252ad1be2c89b69c2b068fc378daa952ba7f163c4a11628f55a4df523b3ef60405160405180910390a4505050565b611e4e82826110a0565b611edd57611e738173ffffffffffffffffffffffffffffffffffffffff166014612aac565b611e818360001c6020612aac565b604051602001611e92929190614c7c565b6040516020818303038152906040526040517f08c379a0000000000000000000000000000000000000000000000000000000008152600401611ed491906136bc565b60405180910390fd5b5050565b611eeb82826110a0565b611fbd57600160008084815260200190815260200160002060000160008373ffffffffffffffffffffffffffffffffffffffff1673ffffffffffffffffffffffffffffffffffffffff16815260200190815260200160002060006101000a81548160ff021916908315150217905550611f62611a49565b73ffffffffffffffffffffffffffffffffffffffff168173ffffffffffffffffffffffffffffffffffffffff16837f2f8788117e7eff1d82e926ec794901d17c78024a50270940304540a733656f0d60405160405180910390a45b5050565b611fcb82826110a0565b1561209e57600080600084815260200190815260200160002060000160008373ffffffffffffffffffffffffffffffffffffffff1673ffffffffffffffffffffffffffffffffffffffff16815260200190815260200160002060006101000a81548160ff021916908315150217905550612043611a49565b73ffffffffffffffffffffffffffffffffffffffff168173ffffffffffffffffffffffffffffffffffffffff16837ff6391f5c32d9c69d2a47ea670b442974b53935d1edc7fd64eb21e047a839171b60405160405180910390a45b5050565b6120aa610dfa565b6120e9576040517f08c379a00000000000000000000000000000000000000000000000000000000081526004016120e090614d02565b60405180910390fd5b6000600c60006101000a81548160ff0219169083151502179055507f5db9ee0a495bf2e6ff9c91a7834c1ba4fdd244a5e8aa4e537bd38aeae4b073aa61212d611a49565b60405161213a9190613782565b60405180910390a1565b600061214f82610e11565b905061215d81600084612a9c565b612168600083611a51565b6001600560008373ffffffffffffffffffffffffffffffffffffffff1673ffffffffffffffffffffffffffffffffffffffff16815260200190815260200160002060008282546121b89190614bb0565b925050819055506004600083815260200190815260200160002060006101000a81549073ffffffffffffffffffffffffffffffffffffffff021916905581600073ffffffffffffffffffffffffffffffffffffffff168273ffffffffffffffffffffffffffffffffffffffff167fddf252ad1be2c89b69c2b068fc378daa952ba7f163c4a11628f55a4df523b3ef60405160405180910390a45050565b6000600160009054906101000a900473ffffffffffffffffffffffffffffffffffffffff16905081600160006101000a81548173ffffffffffffffffffffffffffffffffffffffff021916908373ffffffffffffffffffffffffffffffffffffffff1602179055508173ffffffffffffffffffffffffffffffffffffffff168173ffffffffffffffffffffffffffffffffffffffff167f8be0079c531659141344cd1fd0a4f28419497f9722a3daafe3b4186f6b6457e060405160405180910390a35050565b612323610dfa565b15612363576040517f08c379a000000000000000000000000000000000000000000000000000000000815260040161235a90614d6e565b60405180910390fd5b6001600c60006101000a81548160ff0219169083151502179055507f62e78cea01bee320cd4e420270b5ea74000d11b0c9f74754ebdbfc544b05a2586123a7611a49565b6040516123b49190613782565b60405180910390a1565b6123c7836119dd565b612406576040517f08c379a00000000000000000000000000000000000000000000000000000000081526004016123fd90614787565b60405180910390fd5b80600e6000858152602001908152602001600020836040516124289190614502565b908152602001604051809103902090805190602001906124499291906133ed565b507ff33e6c2830a520247e18adb7a79e1ba0158d192ddb985fae65fb8c4a1a209bff83838360405161247d93929190614d8e565b60405180910390a1505050565b612495848484611be8565b6124a184848484612ce8565b6124e0576040517f08c379a00000000000000000000000000000000000000000000000000000000081526004016124d790614e45565b60405180910390fd5b50505050565b6060600d80546124f590614067565b80601f016020809104026020016040519081016040528092919081815260200182805461252190614067565b801561256e5780601f106125435761010080835404028352916020019161256e565b820191906000526020600020905b81548152906001019060200180831161255157829003601f168201915b5050505050905090565b606060008214156125c0576040518060400160405280600181526020017f300000000000000000000000000000000000000000000000000000000000000081525090506126d4565b600082905060005b600082146125f25780806125db90614e65565b915050600a826125eb9190614eae565b91506125c8565b60008167ffffffffffffffff81111561260e5761260d61395d565b5b6040519080825280601f01601f1916602001820160405280156126405781602001600182028036833780820191505090505b5090505b600085146126cd576001826126599190614bb0565b9150600a8561266891906147fa565b603061267491906148c6565b60f81b81838151811061268a57612689614497565b5b60200101907effffffffffffffffffffffffffffffffffffffffffffffffffffffffffffff1916908160001a905350600a856126c69190614eae565b9450612644565b8093505050505b919050565b600080600090505b82518110156127e5576000603084838151811061270157612700614497565b5b602001015160f81c60f81b60f81c6127199190614eec565b60ff16108061275757506009603084838151811061273a57612739614497565b5b602001015160f81c60f81b60f81c6127529190614eec565b60ff16115b156127665760009150506127e7565b60018184516127759190614bb0565b61277f9190614bb0565b600a61278b9190615053565b60308483815181106127a05761279f614497565b5b602001015160f81c60f81b60f81c6127b89190614eec565b60ff166127c5919061509e565b826127d091906148c6565b915080806127dd90614e65565b9150506126e1565b505b919050565b600073ffffffffffffffffffffffffffffffffffffffff168273ffffffffffffffffffffffffffffffffffffffff16141561285c576040517f08c379a000000000000000000000000000000000000000000000000000000000815260040161285390615144565b60405180910390fd5b612865816119dd565b156128a5576040517f08c379a000000000000000000000000000000000000000000000000000000000815260040161289c906151b0565b60405180910390fd5b6128b160008383612a9c565b6001600560008473ffffffffffffffffffffffffffffffffffffffff1673ffffffffffffffffffffffffffffffffffffffff168152602001908152602001600020600082825461290191906148c6565b92505081905550816004600083815260200190815260200160002060006101000a81548173ffffffffffffffffffffffffffffffffffffffff021916908373ffffffffffffffffffffffffffffffffffffffff160217905550808273ffffffffffffffffffffffffffffffffffffffff16600073ffffffffffffffffffffffffffffffffffffffff167fddf252ad1be2c89b69c2b068fc378daa952ba7f163c4a11628f55a4df523b3ef60405160405180910390a45050565b60007f80ac58cd000000000000000000000000000000000000000000000000000000007bffffffffffffffffffffffffffffffffffffffffffffffffffffffff1916827bffffffffffffffffffffffffffffffffffffffffffffffffffffffff19161480612a8557507f5b5e139f000000000000000000000000000000000000000000000000000000007bffffffffffffffffffffffffffffffffffffffffffffffffffffffff1916827bffffffffffffffffffffffffffffffffffffffffffffffffffffffff1916145b80612a955750612a9482612e7f565b5b9050919050565b612aa7838383612ef9565b505050565b606060006002836002612abf919061509e565b612ac991906148c6565b67ffffffffffffffff811115612ae257612ae161395d565b5b6040519080825280601f01601f191660200182016040528015612b145781602001600182028036833780820191505090505b5090507f300000000000000000000000000000000000000000000000000000000000000081600081518110612b4c57612b4b614497565b5b60200101907effffffffffffffffffffffffffffffffffffffffffffffffffffffffffffff1916908160001a9053507f780000000000000000000000000000000000000000000000000000000000000081600181518110612bb057612baf614497565b5b60200101907effffffffffffffffffffffffffffffffffffffffffffffffffffffffffffff1916908160001a90535060006001846002612bf0919061509e565b612bfa91906148c6565b90505b6001811115612c9a577f3031323334353637383961626364656600000000000000000000000000000000600f861660108110612c3c57612c3b614497565b5b1a60f81b828281518110612c5357612c52614497565b5b60200101907effffffffffffffffffffffffffffffffffffffffffffffffffffffffffffff1916908160001a905350600485901c945080612c93906151d0565b9050612bfd565b5060008414612cde576040517f08c379a0000000000000000000000000000000000000000000000000000000008152600401612cd590615246565b60405180910390fd5b8091505092915050565b6000612d098473ffffffffffffffffffffffffffffffffffffffff16612f51565b15612e72578373ffffffffffffffffffffffffffffffffffffffff1663150b7a02612d32611a49565b8786866040518563ffffffff1660e01b8152600401612d5494939291906152bb565b602060405180830381600087803b158015612d6e57600080fd5b505af1925050508015612d9f57506040513d601f19601f82011682018060405250810190612d9c919061531c565b60015b612e22573d8060008114612dcf576040519150601f19603f3d011682016040523d82523d6000602084013e612dd4565b606091505b50600081511415612e1a576040517f08c379a0000000000000000000000000000000000000000000000000000000008152600401612e1190614e45565b60405180910390fd5b805181602001fd5b63150b7a0260e01b7bffffffffffffffffffffffffffffffffffffffffffffffffffffffff1916817bffffffffffffffffffffffffffffffffffffffffffffffffffffffff191614915050612e77565b600190505b949350505050565b60007f7965db0b000000000000000000000000000000000000000000000000000000007bffffffffffffffffffffffffffffffffffffffffffffffffffffffff1916827bffffffffffffffffffffffffffffffffffffffffffffffffffffffff19161480612ef25750612ef182612f64565b5b9050919050565b612f04838383612fce565b612f0c610dfa565b15612f4c576040517f08c379a0000000000000000000000000000000000000000000000000000000008152600401612f43906153bb565b60405180910390fd5b505050565b600080823b905060008111915050919050565b60007f01ffc9a7000000000000000000000000000000000000000000000000000000007bffffffffffffffffffffffffffffffffffffffffffffffffffffffff1916827bffffffffffffffffffffffffffffffffffffffffffffffffffffffff1916149050919050565b612fd98383836130e2565b600073ffffffffffffffffffffffffffffffffffffffff168373ffffffffffffffffffffffffffffffffffffffff16141561301c57613017816130e7565b61305b565b8173ffffffffffffffffffffffffffffffffffffffff168373ffffffffffffffffffffffffffffffffffffffff161461305a576130598382613130565b5b5b600073ffffffffffffffffffffffffffffffffffffffff168273ffffffffffffffffffffffffffffffffffffffff16141561309e576130998161329d565b6130dd565b8273ffffffffffffffffffffffffffffffffffffffff168273ffffffffffffffffffffffffffffffffffffffff16146130dc576130db828261336e565b5b5b505050565b505050565b600a80549050600b600083815260200190815260200160002081905550600a81908060018154018082558091505060019003906000526020600020016000909190919091505550565b6000600161313d84610ec3565b6131479190614bb0565b905060006009600084815260200190815260200160002054905081811461322c576000600860008673ffffffffffffffffffffffffffffffffffffffff1673ffffffffffffffffffffffffffffffffffffffff168152602001908152602001600020600084815260200190815260200160002054905080600860008773ffffffffffffffffffffffffffffffffffffffff1673ffffffffffffffffffffffffffffffffffffffff168152602001908152602001600020600084815260200190815260200160002081905550816009600083815260200190815260200160002081905550505b6009600084815260200190815260200160002060009055600860008573ffffffffffffffffffffffffffffffffffffffff1673ffffffffffffffffffffffffffffffffffffffff16815260200190815260200160002060008381526020019081526020016000206000905550505050565b60006001600a805490506132b19190614bb0565b90506000600b60008481526020019081526020016000205490506000600a83815481106132e1576132e0614497565b5b9060005260206000200154905080600a838154811061330357613302614497565b5b906000526020600020018190555081600b600083815260200190815260200160002081905550600b600085815260200190815260200160002060009055600a805480613352576133516153db565b5b6001900381819060005260206000200160009055905550505050565b600061337983610ec3565b905081600860008573ffffffffffffffffffffffffffffffffffffffff1673ffffffffffffffffffffffffffffffffffffffff168152602001908152602001600020600083815260200190815260200160002081905550806009600084815260200190815260200160002081905550505050565b8280546133f990614067565b90600052602060002090601f01602090048101928261341b5760008555613462565b82601f1061343457805160ff1916838001178555613462565b82800160010185558215613462579182015b82811115613461578251825591602001919060010190613446565b5b50905061346f91906134d3565b5090565b8280548282559060005260206000209081019282156134c2579160200282015b828111156134c15782518290805190602001906134b19291906133ed565b5091602001919060010190613493565b5b5090506134cf91906134f0565b5090565b5b808211156134ec5760008160009055506001016134d4565b5090565b5b8082111561351057600081816135079190613514565b506001016134f1565b5090565b50805461352090614067565b6000825580601f106135325750613551565b601f01602090049060005260206000209081019061355091906134d3565b5b50565b6000604051905090565b600080fd5b600080fd5b60007fffffffff0000000000000000000000000000000000000000000000000000000082169050919050565b61359d81613568565b81146135a857600080fd5b50565b6000813590506135ba81613594565b92915050565b6000602082840312156135d6576135d561355e565b5b60006135e4848285016135ab565b91505092915050565b60008115159050919050565b613602816135ed565b82525050565b600060208201905061361d60008301846135f9565b92915050565b600081519050919050565b600082825260208201905092915050565b60005b8381101561365d578082015181840152602081019050613642565b8381111561366c576000848401525b50505050565b6000601f19601f8301169050919050565b600061368e82613623565b613698818561362e565b93506136a881856020860161363f565b6136b181613672565b840191505092915050565b600060208201905081810360008301526136d68184613683565b905092915050565b6000819050919050565b6136f1816136de565b81146136fc57600080fd5b50565b60008135905061370e816136e8565b92915050565b60006020828403121561372a5761372961355e565b5b6000613738848285016136ff565b91505092915050565b600073ffffffffffffffffffffffffffffffffffffffff82169050919050565b600061376c82613741565b9050919050565b61377c81613761565b82525050565b60006020820190506137976000830184613773565b92915050565b6137a681613761565b81146137b157600080fd5b50565b6000813590506137c38161379d565b92915050565b600080604083850312156137e0576137df61355e565b5b60006137ee858286016137b4565b92505060206137ff858286016136ff565b9150509250929050565b613812816136de565b82525050565b600060208201905061382d6000830184613809565b92915050565b60008060006060848603121561384c5761384b61355e565b5b600061385a868287016137b4565b935050602061386b868287016137b4565b925050604061387c868287016136ff565b9150509250925092565b6000819050919050565b61389981613886565b81146138a457600080fd5b50565b6000813590506138b681613890565b92915050565b6000602082840312156138d2576138d161355e565b5b60006138e0848285016138a7565b91505092915050565b6138f281613886565b82525050565b600060208201905061390d60008301846138e9565b92915050565b6000806040838503121561392a5761392961355e565b5b6000613938858286016138a7565b9250506020613949858286016137b4565b9150509250929050565b600080fd5b600080fd5b7f4e487b7100000000000000000000000000000000000000000000000000000000600052604160045260246000fd5b61399582613672565b810181811067ffffffffffffffff821117156139b4576139b361395d565b5b80604052505050565b60006139c7613554565b90506139d3828261398c565b919050565b600067ffffffffffffffff8211156139f3576139f261395d565b5b6139fc82613672565b9050602081019050919050565b82818337600083830152505050565b6000613a2b613a26846139d8565b6139bd565b905082815260208101848484011115613a4757613a46613958565b5b613a52848285613a09565b509392505050565b600082601f830112613a6f57613a6e613953565b5b8135613a7f848260208601613a18565b91505092915050565b600060208284031215613a9e57613a9d61355e565b5b600082013567ffffffffffffffff811115613abc57613abb613563565b5b613ac884828501613a5a565b91505092915050565b60008060408385031215613ae857613ae761355e565b5b6000613af6858286016136ff565b925050602083013567ffffffffffffffff811115613b1757613b16613563565b5b613b2385828601613a5a565b9150509250929050565b600060208284031215613b4357613b4261355e565b5b6000613b51848285016137b4565b91505092915050565b600080600060608486031215613b7357613b7261355e565b5b6000613b81868287016136ff565b935050602084013567ffffffffffffffff811115613ba257613ba1613563565b5b613bae86828701613a5a565b925050604084013567ffffffffffffffff811115613bcf57613bce613563565b5b613bdb86828701613a5a565b9150509250925092565b613bee816135ed565b8114613bf957600080fd5b50565b600081359050613c0b81613be5565b92915050565b60008060408385031215613c2857613c2761355e565b5b6000613c36858286016137b4565b9250506020613c4785828601613bfc565b9150509250929050565b600081519050919050565b600082825260208201905092915050565b6000819050602082019050919050565b600082825260208201905092915050565b6000613c9982613623565b613ca38185613c7d565b9350613cb381856020860161363f565b613cbc81613672565b840191505092915050565b6000613cd38383613c8e565b905092915050565b6000602082019050919050565b6000613cf382613c51565b613cfd8185613c5c565b935083602082028501613d0f85613c6d565b8060005b85811015613d4b5784840389528151613d2c8582613cc7565b9450613d3783613cdb565b925060208a01995050600181019050613d13565b50829750879550505050505092915050565b60006020820190508181036000830152613d778184613ce8565b905092915050565b600067ffffffffffffffff821115613d9a57613d9961395d565b5b613da382613672565b9050602081019050919050565b6000613dc3613dbe84613d7f565b6139bd565b905082815260208101848484011115613ddf57613dde613958565b5b613dea848285613a09565b509392505050565b600082601f830112613e0757613e06613953565b5b8135613e17848260208601613db0565b91505092915050565b60008060008060808587031215613e3a57613e3961355e565b5b6000613e48878288016137b4565b9450506020613e59878288016137b4565b9350506040613e6a878288016136ff565b925050606085013567ffffffffffffffff811115613e8b57613e8a613563565b5b613e9787828801613df2565b91505092959194509250565b600067ffffffffffffffff821115613ebe57613ebd61395d565b5b602082029050602081019050919050565b600080fd5b6000613ee7613ee284613ea3565b6139bd565b90508083825260208201905060208402830185811115613f0a57613f09613ecf565b5b835b81811015613f5157803567ffffffffffffffff811115613f2f57613f2e613953565b5b808601613f3c8982613a5a565b85526020850194505050602081019050613f0c565b5050509392505050565b600082601f830112613f7057613f6f613953565b5b8135613f80848260208601613ed4565b91505092915050565b600080600060608486031215613fa257613fa161355e565b5b6000613fb0868287016137b4565b9350506020613fc1868287016136ff565b925050604084013567ffffffffffffffff811115613fe257613fe1613563565b5b613fee86828701613f5b565b9150509250925092565b6000806040838503121561400f5761400e61355e565b5b600061401d858286016137b4565b925050602061402e858286016137b4565b9150509250929050565b7f4e487b7100000000000000000000000000000000000000000000000000000000600052602260045260246000fd5b6000600282049050600182168061407f57607f821691505b6020821081141561409357614092614038565b5b50919050565b7f4552433732313a20617070726f76656420717565727920666f72206e6f6e657860008201527f697374656e7420746f6b656e0000000000000000000000000000000000000000602082015250565b60006140f5602c8361362e565b915061410082614099565b604082019050919050565b60006020820190508181036000830152614124816140e8565b9050919050565b7f4552433732313a20617070726f76616c20746f2063757272656e74206f776e6560008201527f7200000000000000000000000000000000000000000000000000000000000000602082015250565b600061418760218361362e565b91506141928261412b565b604082019050919050565b600060208201905081810360008301526141b68161417a565b9050919050565b7f4552433732313a20617070726f76652063616c6c6572206973206e6f74206f7760008201527f6e6572206e6f7220617070726f76656420666f7220616c6c0000000000000000602082015250565b600061421960388361362e565b9150614224826141bd565b604082019050919050565b600060208201905081810360008301526142488161420c565b9050919050565b7f4552433732313a207472616e736665722063616c6c6572206973206e6f74206f60008201527f776e6572206e6f7220617070726f766564000000000000000000000000000000602082015250565b60006142ab60318361362e565b91506142b68261424f565b604082019050919050565b600060208201905081810360008301526142da8161429e565b9050919050565b7f455243373231456e756d657261626c653a206f776e657220696e646578206f7560008201527f74206f6620626f756e6473000000000000000000000000000000000000000000602082015250565b600061433d602b8361362e565b9150614348826142e1565b604082019050919050565b6000602082019050818103600083015261436c81614330565b9050919050565b7f416363657373436f6e74726f6c3a2063616e206f6e6c792072656e6f756e636560008201527f20726f6c657320666f722073656c660000000000000000000000000000000000602082015250565b60006143cf602f8361362e565b91506143da82614373565b604082019050919050565b600060208201905081810360008301526143fe816143c2565b9050919050565b7f455243373231456e756d657261626c653a20676c6f62616c20696e646578206f60008201527f7574206f6620626f756e64730000000000000000000000000000000000000000602082015250565b6000614461602c8361362e565b915061446c82614405565b604082019050919050565b6000602082019050818103600083015261449081614454565b9050919050565b7f4e487b7100000000000000000000000000000000000000000000000000000000600052603260045260246000fd5b600081905092915050565b60006144dc82613623565b6144e681856144c6565b93506144f681856020860161363f565b80840191505092915050565b600061450e82846144d1565b915081905092915050565b7f4552433732313a206f776e657220717565727920666f72206e6f6e657869737460008201527f656e7420746f6b656e0000000000000000000000000000000000000000000000602082015250565b600061457560298361362e565b915061458082614519565b604082019050919050565b600060208201905081810360008301526145a481614568565b9050919050565b7f4552433732313a2062616c616e636520717565727920666f7220746865207a6560008201527f726f206164647265737300000000000000000000000000000000000000000000602082015250565b6000614607602a8361362e565b9150614612826145ab565b604082019050919050565b60006020820190508181036000830152614636816145fa565b9050919050565b7f4f776e61626c653a2063616c6c6572206973206e6f7420746865206f776e6572600082015250565b600061467360208361362e565b915061467e8261463d565b602082019050919050565b600060208201905081810360008301526146a281614666565b9050919050565b7f4552433732313a20617070726f766520746f2063616c6c657200000000000000600082015250565b60006146df60198361362e565b91506146ea826146a9565b602082019050919050565b6000602082019050818103600083015261470e816146d2565b9050919050565b7f4552433732314d657461646174613a2055524920717565727920666f72206e6f60008201527f6e6578697374656e7420746f6b656e0000000000000000000000000000000000602082015250565b6000614771602f8361362e565b915061477c82614715565b604082019050919050565b600060208201905081810360008301526147a081614764565b9050919050565b60006147b382856144d1565b91506147bf82846144d1565b91508190509392505050565b7f4e487b7100000000000000000000000000000000000000000000000000000000600052601260045260246000fd5b6000614805826136de565b9150614810836136de565b9250826148205761481f6147cb565b5b828206905092915050565b7f706172616d73206973206b65797c76616c756520737472756374757265000000600082015250565b6000614861601d8361362e565b915061486c8261482b565b602082019050919050565b6000602082019050818103600083015261489081614854565b9050919050565b7f4e487b7100000000000000000000000000000000000000000000000000000000600052601160045260246000fd5b60006148d1826136de565b91506148dc836136de565b9250827fffffffffffffffffffffffffffffffffffffffffffffffffffffffffffffffff0382111561491157614910614897565b5b828201905092915050565b60006080820190506149316000830187613809565b61493e6020830186613773565b61494b6040830185613809565b818103606083015261495d8184613ce8565b905095945050505050565b7f4f776e61626c653a206e6577206f776e657220697320746865207a65726f206160008201527f6464726573730000000000000000000000000000000000000000000000000000602082015250565b60006149c460268361362e565b91506149cf82614968565b604082019050919050565b600060208201905081810360008301526149f3816149b7565b9050919050565b7f4552433732313a206f70657261746f7220717565727920666f72206e6f6e657860008201527f697374656e7420746f6b656e0000000000000000000000000000000000000000602082015250565b6000614a56602c8361362e565b9150614a61826149fa565b604082019050919050565b60006020820190508181036000830152614a8581614a49565b9050919050565b7f4552433732313a207472616e73666572206f6620746f6b656e2074686174206960008201527f73206e6f74206f776e0000000000000000000000000000000000000000000000602082015250565b6000614ae860298361362e565b9150614af382614a8c565b604082019050919050565b60006020820190508181036000830152614b1781614adb565b9050919050565b7f4552433732313a207472616e7366657220746f20746865207a65726f2061646460008201527f7265737300000000000000000000000000000000000000000000000000000000602082015250565b6000614b7a60248361362e565b9150614b8582614b1e565b604082019050919050565b60006020820190508181036000830152614ba981614b6d565b9050919050565b6000614bbb826136de565b9150614bc6836136de565b925082821015614bd957614bd8614897565b5b828203905092915050565b7f416363657373436f6e74726f6c3a206163636f756e7420000000000000000000600082015250565b6000614c1a6017836144c6565b9150614c2582614be4565b601782019050919050565b7f206973206d697373696e6720726f6c6520000000000000000000000000000000600082015250565b6000614c666011836144c6565b9150614c7182614c30565b601182019050919050565b6000614c8782614c0d565b9150614c9382856144d1565b9150614c9e82614c59565b9150614caa82846144d1565b91508190509392505050565b7f5061757361626c653a206e6f7420706175736564000000000000000000000000600082015250565b6000614cec60148361362e565b9150614cf782614cb6565b602082019050919050565b60006020820190508181036000830152614d1b81614cdf565b9050919050565b7f5061757361626c653a2070617573656400000000000000000000000000000000600082015250565b6000614d5860108361362e565b9150614d6382614d22565b602082019050919050565b60006020820190508181036000830152614d8781614d4b565b9050919050565b6000606082019050614da36000830186613809565b8181036020830152614db58185613683565b90508181036040830152614dc98184613683565b9050949350505050565b7f4552433732313a207472616e7366657220746f206e6f6e20455243373231526560008201527f63656976657220696d706c656d656e7465720000000000000000000000000000602082015250565b6000614e2f60328361362e565b9150614e3a82614dd3565b604082019050919050565b60006020820190508181036000830152614e5e81614e22565b9050919050565b6000614e70826136de565b91507fffffffffffffffffffffffffffffffffffffffffffffffffffffffffffffffff821415614ea357614ea2614897565b5b600182019050919050565b6000614eb9826136de565b9150614ec4836136de565b925082614ed457614ed36147cb565b5b828204905092915050565b600060ff82169050919050565b6000614ef782614edf565b9150614f0283614edf565b925082821015614f1557614f14614897565b5b828203905092915050565b60008160011c9050919050565b6000808291508390505b6001851115614f7757808604811115614f5357614f52614897565b5b6001851615614f625780820291505b8081029050614f7085614f20565b9450614f37565b94509492505050565b600082614f90576001905061504c565b81614f9e576000905061504c565b8160018114614fb45760028114614fbe57614fed565b600191505061504c565b60ff841115614fd057614fcf614897565b5b8360020a915084821115614fe757614fe6614897565b5b5061504c565b5060208310610133831016604e8410600b84101617156150225782820a90508381111561501d5761501c614897565b5b61504c565b61502f8484846001614f2d565b9250905081840481111561504657615045614897565b5b81810290505b9392505050565b600061505e826136de565b9150615069836136de565b92506150967fffffffffffffffffffffffffffffffffffffffffffffffffffffffffffffffff8484614f80565b905092915050565b60006150a9826136de565b91506150b4836136de565b9250817fffffffffffffffffffffffffffffffffffffffffffffffffffffffffffffffff04831182151516156150ed576150ec614897565b5b828202905092915050565b7f4552433732313a206d696e7420746f20746865207a65726f2061646472657373600082015250565b600061512e60208361362e565b9150615139826150f8565b602082019050919050565b6000602082019050818103600083015261515d81615121565b9050919050565b7f4552433732313a20746f6b656e20616c7265616479206d696e74656400000000600082015250565b600061519a601c8361362e565b91506151a582615164565b602082019050919050565b600060208201905081810360008301526151c98161518d565b9050919050565b60006151db826136de565b915060008214156151ef576151ee614897565b5b600182039050919050565b7f537472696e67733a20686578206c656e67746820696e73756666696369656e74600082015250565b600061523060208361362e565b915061523b826151fa565b602082019050919050565b6000602082019050818103600083015261525f81615223565b9050919050565b600081519050919050565b600082825260208201905092915050565b600061528d82615266565b6152978185615271565b93506152a781856020860161363f565b6152b081613672565b840191505092915050565b60006080820190506152d06000830187613773565b6152dd6020830186613773565b6152ea6040830185613809565b81810360608301526152fc8184615282565b905095945050505050565b60008151905061531681613594565b92915050565b6000602082840312156153325761533161355e565b5b600061534084828501615307565b91505092915050565b7f4552433732315061757361626c653a20746f6b656e207472616e73666572207760008201527f68696c6520706175736564000000000000000000000000000000000000000000602082015250565b60006153a5602b8361362e565b91506153b082615349565b604082019050919050565b600060208201905081810360008301526153d481615398565b9050919050565b7f4e487b7100000000000000000000000000000000000000000000000000000000600052603160045260246000fdfea2646970667358221220f1b7c993706f1e6c80bfd5e9677137f1fd887c000e7ab00d7e6bf6a1d296c67464736f6c63430008090033",
			"opcodes": "PUSH1 0x80 PUSH1 0x40 MSTORE CALLVALUE DUP1 ISZERO PUSH3 0x11 JUMPI PUSH1 0x0 DUP1 REVERT JUMPDEST POP PUSH1 0x40 MLOAD PUSH3 0x5D04 CODESIZE SUB DUP1 PUSH3 0x5D04 DUP4 CODECOPY DUP2 DUP2 ADD PUSH1 0x40 MSTORE DUP2 ADD SWAP1 PUSH3 0x37 SWAP2 SWAP1 PUSH3 0x796 JUMP JUMPDEST DUP3 DUP3 PUSH3 0x59 PUSH3 0x4D PUSH3 0x288 PUSH1 0x20 SHL PUSH1 0x20 SHR JUMP JUMPDEST PUSH3 0x290 PUSH1 0x20 SHL PUSH1 0x20 SHR JUMP JUMPDEST DUP2 PUSH1 0x2 SWAP1 DUP1 MLOAD SWAP1 PUSH1 0x20 ADD SWAP1 PUSH3 0x71 SWAP3 SWAP2 SWAP1 PUSH3 0x549 JUMP JUMPDEST POP DUP1 PUSH1 0x3 SWAP1 DUP1 MLOAD SWAP1 PUSH1 0x20 ADD SWAP1 PUSH3 0x8A SWAP3 SWAP2 SWAP1 PUSH3 0x549 JUMP JUMPDEST POP POP POP PUSH1 0x0 PUSH1 0xC PUSH1 0x0 PUSH2 0x100 EXP DUP2 SLOAD DUP2 PUSH1 0xFF MUL NOT AND SWAP1 DUP4 ISZERO ISZERO MUL OR SWAP1 SSTORE POP DUP1 PUSH1 0xD SWAP1 DUP1 MLOAD SWAP1 PUSH1 0x20 ADD SWAP1 PUSH3 0xC0 SWAP3 SWAP2 SWAP1 PUSH3 0x549 JUMP JUMPDEST POP PUSH3 0xF3 PUSH32 0xA49807205CE4D355092EF5A8A18F56E8913CF4A201FBE287825B095693C21775 DUP1 PUSH3 0x356 PUSH1 0x20 SHL PUSH1 0x20 SHR JUMP JUMPDEST PUSH3 0x145 PUSH32 0x9F2DF0FED2C77648DE5860A4CC508CD0818C85B8B8A1AB4CEEEF8D981C8956A6 PUSH32 0xA49807205CE4D355092EF5A8A18F56E8913CF4A201FBE287825B095693C21775 PUSH3 0x356 PUSH1 0x20 SHL PUSH1 0x20 SHR JUMP JUMPDEST PUSH3 0x197 PUSH32 0xE97B137254058BD94F28D2F3EB79E2D34074FFB488D042E3BC958E0A57D2FA22 PUSH32 0xA49807205CE4D355092EF5A8A18F56E8913CF4A201FBE287825B095693C21775 PUSH3 0x356 PUSH1 0x20 SHL PUSH1 0x20 SHR JUMP JUMPDEST PUSH3 0x1E9 PUSH32 0x65D7A28E3265B37A6474929F336521B332C1681B933F6CB9F3376673440D862A PUSH32 0xA49807205CE4D355092EF5A8A18F56E8913CF4A201FBE287825B095693C21775 PUSH3 0x356 PUSH1 0x20 SHL PUSH1 0x20 SHR JUMP JUMPDEST PUSH3 0x21B PUSH32 0xA49807205CE4D355092EF5A8A18F56E8913CF4A201FBE287825B095693C21775 CALLER PUSH3 0x3B9 PUSH1 0x20 SHL PUSH1 0x20 SHR JUMP JUMPDEST PUSH3 0x24D PUSH32 0x9F2DF0FED2C77648DE5860A4CC508CD0818C85B8B8A1AB4CEEEF8D981C8956A6 CALLER PUSH3 0x3B9 PUSH1 0x20 SHL PUSH1 0x20 SHR JUMP JUMPDEST PUSH3 0x27F PUSH32 0xE97B137254058BD94F28D2F3EB79E2D34074FFB488D042E3BC958E0A57D2FA22 CALLER PUSH3 0x3B9 PUSH1 0x20 SHL PUSH1 0x20 SHR JUMP JUMPDEST POP POP POP PUSH3 0x8B4 JUMP JUMPDEST PUSH1 0x0 CALLER SWAP1 POP SWAP1 JUMP JUMPDEST PUSH1 0x0 PUSH1 0x1 PUSH1 0x0 SWAP1 SLOAD SWAP1 PUSH2 0x100 EXP SWAP1 DIV PUSH20 0xFFFFFFFFFFFFFFFFFFFFFFFFFFFFFFFFFFFFFFFF AND SWAP1 POP DUP2 PUSH1 0x1 PUSH1 0x0 PUSH2 0x100 EXP DUP2 SLOAD DUP2 PUSH20 0xFFFFFFFFFFFFFFFFFFFFFFFFFFFFFFFFFFFFFFFF MUL NOT AND SWAP1 DUP4 PUSH20 0xFFFFFFFFFFFFFFFFFFFFFFFFFFFFFFFFFFFFFFFF AND MUL OR SWAP1 SSTORE POP DUP2 PUSH20 0xFFFFFFFFFFFFFFFFFFFFFFFFFFFFFFFFFFFFFFFF AND DUP2 PUSH20 0xFFFFFFFFFFFFFFFFFFFFFFFFFFFFFFFFFFFFFFFF AND PUSH32 0x8BE0079C531659141344CD1FD0A4F28419497F9722A3DAAFE3B4186F6B6457E0 PUSH1 0x40 MLOAD PUSH1 0x40 MLOAD DUP1 SWAP2 SUB SWAP1 LOG3 POP POP JUMP JUMPDEST PUSH1 0x0 PUSH3 0x369 DUP4 PUSH3 0x3CF PUSH1 0x20 SHL PUSH1 0x20 SHR JUMP JUMPDEST SWAP1 POP DUP2 PUSH1 0x0 DUP1 DUP6 DUP2 MSTORE PUSH1 0x20 ADD SWAP1 DUP2 MSTORE PUSH1 0x20 ADD PUSH1 0x0 KECCAK256 PUSH1 0x1 ADD DUP2 SWAP1 SSTORE POP DUP2 DUP2 DUP5 PUSH32 0xBD79B86FFE0AB8E8776151514217CD7CACD52C909F66475C3AF44E129F0B00FF PUSH1 0x40 MLOAD PUSH1 0x40 MLOAD DUP1 SWAP2 SUB SWAP1 LOG4 POP POP POP JUMP JUMPDEST PUSH3 0x3CB DUP3 DUP3 PUSH3 0x3EE PUSH1 0x20 SHL PUSH1 0x20 SHR JUMP JUMPDEST POP POP JUMP JUMPDEST PUSH1 0x0 DUP1 PUSH1 0x0 DUP4 DUP2 MSTORE PUSH1 0x20 ADD SWAP1 DUP2 MSTORE PUSH1 0x20 ADD PUSH1 0x0 KECCAK256 PUSH1 0x1 ADD SLOAD SWAP1 POP SWAP2 SWAP1 POP JUMP JUMPDEST PUSH3 0x400 DUP3 DUP3 PUSH3 0x4DF PUSH1 0x20 SHL PUSH1 0x20 SHR JUMP JUMPDEST PUSH3 0x4DB JUMPI PUSH1 0x1 PUSH1 0x0 DUP1 DUP5 DUP2 MSTORE PUSH1 0x20 ADD SWAP1 DUP2 MSTORE PUSH1 0x20 ADD PUSH1 0x0 KECCAK256 PUSH1 0x0 ADD PUSH1 0x0 DUP4 PUSH20 0xFFFFFFFFFFFFFFFFFFFFFFFFFFFFFFFFFFFFFFFF AND PUSH20 0xFFFFFFFFFFFFFFFFFFFFFFFFFFFFFFFFFFFFFFFF AND DUP2 MSTORE PUSH1 0x20 ADD SWAP1 DUP2 MSTORE PUSH1 0x20 ADD PUSH1 0x0 KECCAK256 PUSH1 0x0 PUSH2 0x100 EXP DUP2 SLOAD DUP2 PUSH1 0xFF MUL NOT AND SWAP1 DUP4 ISZERO ISZERO MUL OR SWAP1 SSTORE POP PUSH3 0x480 PUSH3 0x288 PUSH1 0x20 SHL PUSH1 0x20 SHR JUMP JUMPDEST PUSH20 0xFFFFFFFFFFFFFFFFFFFFFFFFFFFFFFFFFFFFFFFF AND DUP2 PUSH20 0xFFFFFFFFFFFFFFFFFFFFFFFFFFFFFFFFFFFFFFFF AND DUP4 PUSH32 0x2F8788117E7EFF1D82E926EC794901D17C78024A50270940304540A733656F0D PUSH1 0x40 MLOAD PUSH1 0x40 MLOAD DUP1 SWAP2 SUB SWAP1 LOG4 JUMPDEST POP POP JUMP JUMPDEST PUSH1 0x0 DUP1 PUSH1 0x0 DUP5 DUP2 MSTORE PUSH1 0x20 ADD SWAP1 DUP2 MSTORE PUSH1 0x20 ADD PUSH1 0x0 KECCAK256 PUSH1 0x0 ADD PUSH1 0x0 DUP4 PUSH20 0xFFFFFFFFFFFFFFFFFFFFFFFFFFFFFFFFFFFFFFFF AND PUSH20 0xFFFFFFFFFFFFFFFFFFFFFFFFFFFFFFFFFFFFFFFF AND DUP2 MSTORE PUSH1 0x20 ADD SWAP1 DUP2 MSTORE PUSH1 0x20 ADD PUSH1 0x0 KECCAK256 PUSH1 0x0 SWAP1 SLOAD SWAP1 PUSH2 0x100 EXP SWAP1 DIV PUSH1 0xFF AND SWAP1 POP SWAP3 SWAP2 POP POP JUMP JUMPDEST DUP3 DUP1 SLOAD PUSH3 0x557 SWAP1 PUSH3 0x87E JUMP JUMPDEST SWAP1 PUSH1 0x0 MSTORE PUSH1 0x20 PUSH1 0x0 KECCAK256 SWAP1 PUSH1 0x1F ADD PUSH1 0x20 SWAP1 DIV DUP2 ADD SWAP3 DUP3 PUSH3 0x57B JUMPI PUSH1 0x0 DUP6 SSTORE PUSH3 0x5C7 JUMP JUMPDEST DUP3 PUSH1 0x1F LT PUSH3 0x596 JUMPI DUP1 MLOAD PUSH1 0xFF NOT AND DUP4 DUP1 ADD OR DUP6 SSTORE PUSH3 0x5C7 JUMP JUMPDEST DUP3 DUP1 ADD PUSH1 0x1 ADD DUP6 SSTORE DUP3 ISZERO PUSH3 0x5C7 JUMPI SWAP2 DUP3 ADD JUMPDEST DUP3 DUP2 GT ISZERO PUSH3 0x5C6 JUMPI DUP3 MLOAD DUP3 SSTORE SWAP2 PUSH1 0x20 ADD SWAP2 SWAP1 PUSH1 0x1 ADD SWAP1 PUSH3 0x5A9 JUMP JUMPDEST JUMPDEST POP SWAP1 POP PUSH3 0x5D6 SWAP2 SWAP1 PUSH3 0x5DA JUMP JUMPDEST POP SWAP1 JUMP JUMPDEST JUMPDEST DUP1 DUP3 GT ISZERO PUSH3 0x5F5 JUMPI PUSH1 0x0 DUP2 PUSH1 0x0 SWAP1 SSTORE POP PUSH1 0x1 ADD PUSH3 0x5DB JUMP JUMPDEST POP SWAP1 JUMP JUMPDEST PUSH1 0x0 PUSH1 0x40 MLOAD SWAP1 POP SWAP1 JUMP JUMPDEST PUSH1 0x0 DUP1 REVERT JUMPDEST PUSH1 0x0 DUP1 REVERT JUMPDEST PUSH1 0x0 DUP1 REVERT JUMPDEST PUSH1 0x0 DUP1 REVERT JUMPDEST PUSH1 0x0 PUSH1 0x1F NOT PUSH1 0x1F DUP4 ADD AND SWAP1 POP SWAP2 SWAP1 POP JUMP JUMPDEST PUSH32 0x4E487B7100000000000000000000000000000000000000000000000000000000 PUSH1 0x0 MSTORE PUSH1 0x41 PUSH1 0x4 MSTORE PUSH1 0x24 PUSH1 0x0 REVERT JUMPDEST PUSH3 0x662 DUP3 PUSH3 0x617 JUMP JUMPDEST DUP2 ADD DUP2 DUP2 LT PUSH8 0xFFFFFFFFFFFFFFFF DUP3 GT OR ISZERO PUSH3 0x684 JUMPI PUSH3 0x683 PUSH3 0x628 JUMP JUMPDEST JUMPDEST DUP1 PUSH1 0x40 MSTORE POP POP POP JUMP JUMPDEST PUSH1 0x0 PUSH3 0x699 PUSH3 0x5F9 JUMP JUMPDEST SWAP1 POP PUSH3 0x6A7 DUP3 DUP3 PUSH3 0x657 JUMP JUMPDEST SWAP2 SWAP1 POP JUMP JUMPDEST PUSH1 0x0 PUSH8 0xFFFFFFFFFFFFFFFF DUP3 GT ISZERO PUSH3 0x6CA JUMPI PUSH3 0x6C9 PUSH3 0x628 JUMP JUMPDEST JUMPDEST PUSH3 0x6D5 DUP3 PUSH3 0x617 JUMP JUMPDEST SWAP1 POP PUSH1 0x20 DUP2 ADD SWAP1 POP SWAP2 SWAP1 POP JUMP JUMPDEST PUSH1 0x0 JUMPDEST DUP4 DUP2 LT ISZERO PUSH3 0x702 JUMPI DUP1 DUP3 ADD MLOAD DUP2 DUP5 ADD MSTORE PUSH1 0x20 DUP2 ADD SWAP1 POP PUSH3 0x6E5 JUMP JUMPDEST DUP4 DUP2 GT ISZERO PUSH3 0x712 JUMPI PUSH1 0x0 DUP5 DUP5 ADD MSTORE JUMPDEST POP POP POP POP JUMP JUMPDEST PUSH1 0x0 PUSH3 0x72F PUSH3 0x729 DUP5 PUSH3 0x6AC JUMP JUMPDEST PUSH3 0x68D JUMP JUMPDEST SWAP1 POP DUP3 DUP2 MSTORE PUSH1 0x20 DUP2 ADD DUP5 DUP5 DUP5 ADD GT ISZERO PUSH3 0x74E JUMPI PUSH3 0x74D PUSH3 0x612 JUMP JUMPDEST JUMPDEST PUSH3 0x75B DUP5 DUP3 DUP6 PUSH3 0x6E2 JUMP JUMPDEST POP SWAP4 SWAP3 POP POP POP JUMP JUMPDEST PUSH1 0x0 DUP3 PUSH1 0x1F DUP4 ADD SLT PUSH3 0x77B JUMPI PUSH3 0x77A PUSH3 0x60D JUMP JUMPDEST JUMPDEST DUP2 MLOAD PUSH3 0x78D DUP5 DUP3 PUSH1 0x20 DUP7 ADD PUSH3 0x718 JUMP JUMPDEST SWAP2 POP POP SWAP3 SWAP2 POP POP JUMP JUMPDEST PUSH1 0x0 DUP1 PUSH1 0x0 PUSH1 0x60 DUP5 DUP7 SUB SLT ISZERO PUSH3 0x7B2 JUMPI PUSH3 0x7B1 PUSH3 0x603 JUMP JUMPDEST JUMPDEST PUSH1 0x0 DUP5 ADD MLOAD PUSH8 0xFFFFFFFFFFFFFFFF DUP2 GT ISZERO PUSH3 0x7D3 JUMPI PUSH3 0x7D2 PUSH3 0x608 JUMP JUMPDEST JUMPDEST PUSH3 0x7E1 DUP7 DUP3 DUP8 ADD PUSH3 0x763 JUMP JUMPDEST SWAP4 POP POP PUSH1 0x20 DUP5 ADD MLOAD PUSH8 0xFFFFFFFFFFFFFFFF DUP2 GT ISZERO PUSH3 0x805 JUMPI PUSH3 0x804 PUSH3 0x608 JUMP JUMPDEST JUMPDEST PUSH3 0x813 DUP7 DUP3 DUP8 ADD PUSH3 0x763 JUMP JUMPDEST SWAP3 POP POP PUSH1 0x40 DUP5 ADD MLOAD PUSH8 0xFFFFFFFFFFFFFFFF DUP2 GT ISZERO PUSH3 0x837 JUMPI PUSH3 0x836 PUSH3 0x608 JUMP JUMPDEST JUMPDEST PUSH3 0x845 DUP7 DUP3 DUP8 ADD PUSH3 0x763 JUMP JUMPDEST SWAP2 POP POP SWAP3 POP SWAP3 POP SWAP3 JUMP JUMPDEST PUSH32 0x4E487B7100000000000000000000000000000000000000000000000000000000 PUSH1 0x0 MSTORE PUSH1 0x22 PUSH1 0x4 MSTORE PUSH1 0x24 PUSH1 0x0 REVERT JUMPDEST PUSH1 0x0 PUSH1 0x2 DUP3 DIV SWAP1 POP PUSH1 0x1 DUP3 AND DUP1 PUSH3 0x897 JUMPI PUSH1 0x7F DUP3 AND SWAP2 POP JUMPDEST PUSH1 0x20 DUP3 LT DUP2 EQ ISZERO PUSH3 0x8AE JUMPI PUSH3 0x8AD PUSH3 0x84F JUMP JUMPDEST JUMPDEST POP SWAP2 SWAP1 POP JUMP JUMPDEST PUSH2 0x5440 DUP1 PUSH3 0x8C4 PUSH1 0x0 CODECOPY PUSH1 0x0 RETURN INVALID PUSH1 0x80 PUSH1 0x40 MSTORE CALLVALUE DUP1 ISZERO PUSH2 0x10 JUMPI PUSH1 0x0 DUP1 REVERT JUMPDEST POP PUSH1 0x4 CALLDATASIZE LT PUSH2 0x248 JUMPI PUSH1 0x0 CALLDATALOAD PUSH1 0xE0 SHR DUP1 PUSH4 0x715018A6 GT PUSH2 0x13B JUMPI DUP1 PUSH4 0xA82F2A15 GT PUSH2 0xB8 JUMPI DUP1 PUSH4 0xD5391393 GT PUSH2 0x7C JUMPI DUP1 PUSH4 0xD5391393 EQ PUSH2 0x6FF JUMPI DUP1 PUSH4 0xD547741F EQ PUSH2 0x71D JUMPI DUP1 PUSH4 0xE63AB1E9 EQ PUSH2 0x739 JUMPI DUP1 PUSH4 0xE985E9C5 EQ PUSH2 0x757 JUMPI DUP1 PUSH4 0xF2FDE38B EQ PUSH2 0x787 JUMPI PUSH2 0x248 JUMP JUMPDEST DUP1 PUSH4 0xA82F2A15 EQ PUSH2 0x649 JUMPI DUP1 PUSH4 0xB88D4FDE EQ PUSH2 0x679 JUMPI DUP1 PUSH4 0xB930908F EQ PUSH2 0x695 JUMPI DUP1 PUSH4 0xC87B56DD EQ PUSH2 0x6B3 JUMPI DUP1 PUSH4 0xD5043C7D EQ PUSH2 0x6E3 JUMPI PUSH2 0x248 JUMP JUMPDEST DUP1 PUSH4 0x91D14854 GT PUSH2 0xFF JUMPI DUP1 PUSH4 0x91D14854 EQ PUSH2 0x5A5 JUMPI DUP1 PUSH4 0x94FFC3E5 EQ PUSH2 0x5D5 JUMPI DUP1 PUSH4 0x95D89B41 EQ PUSH2 0x5F1 JUMPI DUP1 PUSH4 0xA217FDDF EQ PUSH2 0x60F JUMPI DUP1 PUSH4 0xA22CB465 EQ PUSH2 0x62D JUMPI PUSH2 0x248 JUMP JUMPDEST DUP1 PUSH4 0x715018A6 EQ PUSH2 0x525 JUMPI DUP1 PUSH4 0x75B238FC EQ PUSH2 0x52F JUMPI DUP1 PUSH4 0x83638710 EQ PUSH2 0x54D JUMPI DUP1 PUSH4 0x8456CB59 EQ PUSH2 0x57D JUMPI DUP1 PUSH4 0x8DA5CB5B EQ PUSH2 0x587 JUMPI PUSH2 0x248 JUMP JUMPDEST DUP1 PUSH4 0x30176E13 GT PUSH2 0x1C9 JUMPI DUP1 PUSH4 0x4F6CCCE7 GT PUSH2 0x18D JUMPI DUP1 PUSH4 0x4F6CCCE7 EQ PUSH2 0x447 JUMPI DUP1 PUSH4 0x58273CCB EQ PUSH2 0x477 JUMPI DUP1 PUSH4 0x5C975ABB EQ PUSH2 0x4A7 JUMPI DUP1 PUSH4 0x6352211E EQ PUSH2 0x4C5 JUMPI DUP1 PUSH4 0x70A08231 EQ PUSH2 0x4F5 JUMPI PUSH2 0x248 JUMP JUMPDEST DUP1 PUSH4 0x30176E13 EQ PUSH2 0x3CD JUMPI DUP1 PUSH4 0x36568ABE EQ PUSH2 0x3E9 JUMPI DUP1 PUSH4 0x3F4BA83A EQ PUSH2 0x405 JUMPI DUP1 PUSH4 0x42842E0E EQ PUSH2 0x40F JUMPI DUP1 PUSH4 0x42966C68 EQ PUSH2 0x42B JUMPI PUSH2 0x248 JUMP JUMPDEST DUP1 PUSH4 0x18160DDD GT PUSH2 0x210 JUMPI DUP1 PUSH4 0x18160DDD EQ PUSH2 0x317 JUMPI DUP1 PUSH4 0x23B872DD EQ PUSH2 0x335 JUMPI DUP1 PUSH4 0x248A9CA3 EQ PUSH2 0x351 JUMPI DUP1 PUSH4 0x2F2FF15D EQ PUSH2 0x381 JUMPI DUP1 PUSH4 0x2F745C59 EQ PUSH2 0x39D JUMPI PUSH2 0x248 JUMP JUMPDEST DUP1 PUSH4 0x1FFC9A7 EQ PUSH2 0x24D JUMPI DUP1 PUSH4 0x6FDDE03 EQ PUSH2 0x27D JUMPI DUP1 PUSH4 0x81812FC EQ PUSH2 0x29B JUMPI DUP1 PUSH4 0x95EA7B3 EQ PUSH2 0x2CB JUMPI DUP1 PUSH4 0x13F667F4 EQ PUSH2 0x2E7 JUMPI JUMPDEST PUSH1 0x0 DUP1 REVERT JUMPDEST PUSH2 0x267 PUSH1 0x4 DUP1 CALLDATASIZE SUB DUP2 ADD SWAP1 PUSH2 0x262 SWAP2 SWAP1 PUSH2 0x35C0 JUMP JUMPDEST PUSH2 0x7A3 JUMP JUMPDEST PUSH1 0x40 MLOAD PUSH2 0x274 SWAP2 SWAP1 PUSH2 0x3608 JUMP JUMPDEST PUSH1 0x40 MLOAD DUP1 SWAP2 SUB SWAP1 RETURN JUMPDEST PUSH2 0x285 PUSH2 0x7B5 JUMP JUMPDEST PUSH1 0x40 MLOAD PUSH2 0x292 SWAP2 SWAP1 PUSH2 0x36BC JUMP JUMPDEST PUSH1 0x40 MLOAD DUP1 SWAP2 SUB SWAP1 RETURN JUMPDEST PUSH2 0x2B5 PUSH1 0x4 DUP1 CALLDATASIZE SUB DUP2 ADD SWAP1 PUSH2 0x2B0 SWAP2 SWAP1 PUSH2 0x3714 JUMP JUMPDEST PUSH2 0x847 JUMP JUMPDEST PUSH1 0x40 MLOAD PUSH2 0x2C2 SWAP2 SWAP1 PUSH2 0x3782 JUMP JUMPDEST PUSH1 0x40 MLOAD DUP1 SWAP2 SUB SWAP1 RETURN JUMPDEST PUSH2 0x2E5 PUSH1 0x4 DUP1 CALLDATASIZE SUB DUP2 ADD SWAP1 PUSH2 0x2E0 SWAP2 SWAP1 PUSH2 0x37C9 JUMP JUMPDEST PUSH2 0x8CC JUMP JUMPDEST STOP JUMPDEST PUSH2 0x301 PUSH1 0x4 DUP1 CALLDATASIZE SUB DUP2 ADD SWAP1 PUSH2 0x2FC SWAP2 SWAP1 PUSH2 0x3714 JUMP JUMPDEST PUSH2 0x9E4 JUMP JUMPDEST PUSH1 0x40 MLOAD PUSH2 0x30E SWAP2 SWAP1 PUSH2 0x3818 JUMP JUMPDEST PUSH1 0x40 MLOAD DUP1 SWAP2 SUB SWAP1 RETURN JUMPDEST PUSH2 0x31F PUSH2 0xA01 JUMP JUMPDEST PUSH1 0x40 MLOAD PUSH2 0x32C SWAP2 SWAP1 PUSH2 0x3818 JUMP JUMPDEST PUSH1 0x40 MLOAD DUP1 SWAP2 SUB SWAP1 RETURN JUMPDEST PUSH2 0x34F PUSH1 0x4 DUP1 CALLDATASIZE SUB DUP2 ADD SWAP1 PUSH2 0x34A SWAP2 SWAP1 PUSH2 0x3833 JUMP JUMPDEST PUSH2 0xA0E JUMP JUMPDEST STOP JUMPDEST PUSH2 0x36B PUSH1 0x4 DUP1 CALLDATASIZE SUB DUP2 ADD SWAP1 PUSH2 0x366 SWAP2 SWAP1 PUSH2 0x38BC JUMP JUMPDEST PUSH2 0xA6E JUMP JUMPDEST PUSH1 0x40 MLOAD PUSH2 0x378 SWAP2 SWAP1 PUSH2 0x38F8 JUMP JUMPDEST PUSH1 0x40 MLOAD DUP1 SWAP2 SUB SWAP1 RETURN JUMPDEST PUSH2 0x39B PUSH1 0x4 DUP1 CALLDATASIZE SUB DUP2 ADD SWAP1 PUSH2 0x396 SWAP2 SWAP1 PUSH2 0x3913 JUMP JUMPDEST PUSH2 0xA8D JUMP JUMPDEST STOP JUMPDEST PUSH2 0x3B7 PUSH1 0x4 DUP1 CALLDATASIZE SUB DUP2 ADD SWAP1 PUSH2 0x3B2 SWAP2 SWAP1 PUSH2 0x37C9 JUMP JUMPDEST PUSH2 0xAB6 JUMP JUMPDEST PUSH1 0x40 MLOAD PUSH2 0x3C4 SWAP2 SWAP1 PUSH2 0x3818 JUMP JUMPDEST PUSH1 0x40 MLOAD DUP1 SWAP2 SUB SWAP1 RETURN JUMPDEST PUSH2 0x3E7 PUSH1 0x4 DUP1 CALLDATASIZE SUB DUP2 ADD SWAP1 PUSH2 0x3E2 SWAP2 SWAP1 PUSH2 0x3A88 JUMP JUMPDEST PUSH2 0xB5B JUMP JUMPDEST STOP JUMPDEST PUSH2 0x403 PUSH1 0x4 DUP1 CALLDATASIZE SUB DUP2 ADD SWAP1 PUSH2 0x3FE SWAP2 SWAP1 PUSH2 0x3913 JUMP JUMPDEST PUSH2 0xBA8 JUMP JUMPDEST STOP JUMPDEST PUSH2 0x40D PUSH2 0xC2B JUMP JUMPDEST STOP JUMPDEST PUSH2 0x429 PUSH1 0x4 DUP1 CALLDATASIZE SUB DUP2 ADD SWAP1 PUSH2 0x424 SWAP2 SWAP1 PUSH2 0x3833 JUMP JUMPDEST PUSH2 0xC68 JUMP JUMPDEST STOP JUMPDEST PUSH2 0x445 PUSH1 0x4 DUP1 CALLDATASIZE SUB DUP2 ADD SWAP1 PUSH2 0x440 SWAP2 SWAP1 PUSH2 0x3714 JUMP JUMPDEST PUSH2 0xC88 JUMP JUMPDEST STOP JUMPDEST PUSH2 0x461 PUSH1 0x4 DUP1 CALLDATASIZE SUB DUP2 ADD SWAP1 PUSH2 0x45C SWAP2 SWAP1 PUSH2 0x3714 JUMP JUMPDEST PUSH2 0xCC7 JUMP JUMPDEST PUSH1 0x40 MLOAD PUSH2 0x46E SWAP2 SWAP1 PUSH2 0x3818 JUMP JUMPDEST PUSH1 0x40 MLOAD DUP1 SWAP2 SUB SWAP1 RETURN JUMPDEST PUSH2 0x491 PUSH1 0x4 DUP1 CALLDATASIZE SUB DUP2 ADD SWAP1 PUSH2 0x48C SWAP2 SWAP1 PUSH2 0x3AD1 JUMP JUMPDEST PUSH2 0xD38 JUMP JUMPDEST PUSH1 0x40 MLOAD PUSH2 0x49E SWAP2 SWAP1 PUSH2 0x36BC JUMP JUMPDEST PUSH1 0x40 MLOAD DUP1 SWAP2 SUB SWAP1 RETURN JUMPDEST PUSH2 0x4AF PUSH2 0xDFA JUMP JUMPDEST PUSH1 0x40 MLOAD PUSH2 0x4BC SWAP2 SWAP1 PUSH2 0x3608 JUMP JUMPDEST PUSH1 0x40 MLOAD DUP1 SWAP2 SUB SWAP1 RETURN JUMPDEST PUSH2 0x4DF PUSH1 0x4 DUP1 CALLDATASIZE SUB DUP2 ADD SWAP1 PUSH2 0x4DA SWAP2 SWAP1 PUSH2 0x3714 JUMP JUMPDEST PUSH2 0xE11 JUMP JUMPDEST PUSH1 0x40 MLOAD PUSH2 0x4EC SWAP2 SWAP1 PUSH2 0x3782 JUMP JUMPDEST PUSH1 0x40 MLOAD DUP1 SWAP2 SUB SWAP1 RETURN JUMPDEST PUSH2 0x50F PUSH1 0x4 DUP1 CALLDATASIZE SUB DUP2 ADD SWAP1 PUSH2 0x50A SWAP2 SWAP1 PUSH2 0x3B2D JUMP JUMPDEST PUSH2 0xEC3 JUMP JUMPDEST PUSH1 0x40 MLOAD PUSH2 0x51C SWAP2 SWAP1 PUSH2 0x3818 JUMP JUMPDEST PUSH1 0x40 MLOAD DUP1 SWAP2 SUB SWAP1 RETURN JUMPDEST PUSH2 0x52D PUSH2 0xF7B JUMP JUMPDEST STOP JUMPDEST PUSH2 0x537 PUSH2 0x1003 JUMP JUMPDEST PUSH1 0x40 MLOAD PUSH2 0x544 SWAP2 SWAP1 PUSH2 0x38F8 JUMP JUMPDEST PUSH1 0x40 MLOAD DUP1 SWAP2 SUB SWAP1 RETURN JUMPDEST PUSH2 0x567 PUSH1 0x4 DUP1 CALLDATASIZE SUB DUP2 ADD SWAP1 PUSH2 0x562 SWAP2 SWAP1 PUSH2 0x3714 JUMP JUMPDEST PUSH2 0x1027 JUMP JUMPDEST PUSH1 0x40 MLOAD PUSH2 0x574 SWAP2 SWAP1 PUSH2 0x3782 JUMP JUMPDEST PUSH1 0x40 MLOAD DUP1 SWAP2 SUB SWAP1 RETURN JUMPDEST PUSH2 0x585 PUSH2 0x1039 JUMP JUMPDEST STOP JUMPDEST PUSH2 0x58F PUSH2 0x1076 JUMP JUMPDEST PUSH1 0x40 MLOAD PUSH2 0x59C SWAP2 SWAP1 PUSH2 0x3782 JUMP JUMPDEST PUSH1 0x40 MLOAD DUP1 SWAP2 SUB SWAP1 RETURN JUMPDEST PUSH2 0x5BF PUSH1 0x4 DUP1 CALLDATASIZE SUB DUP2 ADD SWAP1 PUSH2 0x5BA SWAP2 SWAP1 PUSH2 0x3913 JUMP JUMPDEST PUSH2 0x10A0 JUMP JUMPDEST PUSH1 0x40 MLOAD PUSH2 0x5CC SWAP2 SWAP1 PUSH2 0x3608 JUMP JUMPDEST PUSH1 0x40 MLOAD DUP1 SWAP2 SUB SWAP1 RETURN JUMPDEST PUSH2 0x5EF PUSH1 0x4 DUP1 CALLDATASIZE SUB DUP2 ADD SWAP1 PUSH2 0x5EA SWAP2 SWAP1 PUSH2 0x3B5A JUMP JUMPDEST PUSH2 0x110A JUMP JUMPDEST STOP JUMPDEST PUSH2 0x5F9 PUSH2 0x114D JUMP JUMPDEST PUSH1 0x40 MLOAD PUSH2 0x606 SWAP2 SWAP1 PUSH2 0x36BC JUMP JUMPDEST PUSH1 0x40 MLOAD DUP1 SWAP2 SUB SWAP1 RETURN JUMPDEST PUSH2 0x617 PUSH2 0x11DF JUMP JUMPDEST PUSH1 0x40 MLOAD PUSH2 0x624 SWAP2 SWAP1 PUSH2 0x38F8 JUMP JUMPDEST PUSH1 0x40 MLOAD DUP1 SWAP2 SUB SWAP1 RETURN JUMPDEST PUSH2 0x647 PUSH1 0x4 DUP1 CALLDATASIZE SUB DUP2 ADD SWAP1 PUSH2 0x642 SWAP2 SWAP1 PUSH2 0x3C11 JUMP JUMPDEST PUSH2 0x11E6 JUMP JUMPDEST STOP JUMPDEST PUSH2 0x663 PUSH1 0x4 DUP1 CALLDATASIZE SUB DUP2 ADD SWAP1 PUSH2 0x65E SWAP2 SWAP1 PUSH2 0x3714 JUMP JUMPDEST PUSH2 0x1367 JUMP JUMPDEST PUSH1 0x40 MLOAD PUSH2 0x670 SWAP2 SWAP1 PUSH2 0x3D5D JUMP JUMPDEST PUSH1 0x40 MLOAD DUP1 SWAP2 SUB SWAP1 RETURN JUMPDEST PUSH2 0x693 PUSH1 0x4 DUP1 CALLDATASIZE SUB DUP2 ADD SWAP1 PUSH2 0x68E SWAP2 SWAP1 PUSH2 0x3E20 JUMP JUMPDEST PUSH2 0x1453 JUMP JUMPDEST STOP JUMPDEST PUSH2 0x69D PUSH2 0x14B5 JUMP JUMPDEST PUSH1 0x40 MLOAD PUSH2 0x6AA SWAP2 SWAP1 PUSH2 0x38F8 JUMP JUMPDEST PUSH1 0x40 MLOAD DUP1 SWAP2 SUB SWAP1 RETURN JUMPDEST PUSH2 0x6CD PUSH1 0x4 DUP1 CALLDATASIZE SUB DUP2 ADD SWAP1 PUSH2 0x6C8 SWAP2 SWAP1 PUSH2 0x3714 JUMP JUMPDEST PUSH2 0x14D9 JUMP JUMPDEST PUSH1 0x40 MLOAD PUSH2 0x6DA SWAP2 SWAP1 PUSH2 0x36BC JUMP JUMPDEST PUSH1 0x40 MLOAD DUP1 SWAP2 SUB SWAP1 RETURN JUMPDEST PUSH2 0x6FD PUSH1 0x4 DUP1 CALLDATASIZE SUB DUP2 ADD SWAP1 PUSH2 0x6F8 SWAP2 SWAP1 PUSH2 0x3F89 JUMP JUMPDEST PUSH2 0x1580 JUMP JUMPDEST STOP JUMPDEST PUSH2 0x707 PUSH2 0x1766 JUMP JUMPDEST PUSH1 0x40 MLOAD PUSH2 0x714 SWAP2 SWAP1 PUSH2 0x38F8 JUMP JUMPDEST PUSH1 0x40 MLOAD DUP1 SWAP2 SUB SWAP1 RETURN JUMPDEST PUSH2 0x737 PUSH1 0x4 DUP1 CALLDATASIZE SUB DUP2 ADD SWAP1 PUSH2 0x732 SWAP2 SWAP1 PUSH2 0x3913 JUMP JUMPDEST PUSH2 0x178A JUMP JUMPDEST STOP JUMPDEST PUSH2 0x741 PUSH2 0x17B3 JUMP JUMPDEST PUSH1 0x40 MLOAD PUSH2 0x74E SWAP2 SWAP1 PUSH2 0x38F8 JUMP JUMPDEST PUSH1 0x40 MLOAD DUP1 SWAP2 SUB SWAP1 RETURN JUMPDEST PUSH2 0x771 PUSH1 0x4 DUP1 CALLDATASIZE SUB DUP2 ADD SWAP1 PUSH2 0x76C SWAP2 SWAP1 PUSH2 0x3FF8 JUMP JUMPDEST PUSH2 0x17D7 JUMP JUMPDEST PUSH1 0x40 MLOAD PUSH2 0x77E SWAP2 SWAP1 PUSH2 0x3608 JUMP JUMPDEST PUSH1 0x40 MLOAD DUP1 SWAP2 SUB SWAP1 RETURN JUMPDEST PUSH2 0x7A1 PUSH1 0x4 DUP1 CALLDATASIZE SUB DUP2 ADD SWAP1 PUSH2 0x79C SWAP2 SWAP1 PUSH2 0x3B2D JUMP JUMPDEST PUSH2 0x186B JUMP JUMPDEST STOP JUMPDEST PUSH1 0x0 PUSH2 0x7AE DUP3 PUSH2 0x1963 JUMP JUMPDEST SWAP1 POP SWAP2 SWAP1 POP JUMP JUMPDEST PUSH1 0x60 PUSH1 0x2 DUP1 SLOAD PUSH2 0x7C4 SWAP1 PUSH2 0x4067 JUMP JUMPDEST DUP1 PUSH1 0x1F ADD PUSH1 0x20 DUP1 SWAP2 DIV MUL PUSH1 0x20 ADD PUSH1 0x40 MLOAD SWAP1 DUP2 ADD PUSH1 0x40 MSTORE DUP1 SWAP3 SWAP2 SWAP1 DUP2 DUP2 MSTORE PUSH1 0x20 ADD DUP3 DUP1 SLOAD PUSH2 0x7F0 SWAP1 PUSH2 0x4067 JUMP JUMPDEST DUP1 ISZERO PUSH2 0x83D JUMPI DUP1 PUSH1 0x1F LT PUSH2 0x812 JUMPI PUSH2 0x100 DUP1 DUP4 SLOAD DIV MUL DUP4 MSTORE SWAP2 PUSH1 0x20 ADD SWAP2 PUSH2 0x83D JUMP JUMPDEST DUP3 ADD SWAP2 SWAP1 PUSH1 0x0 MSTORE PUSH1 0x20 PUSH1 0x0 KECCAK256 SWAP1 JUMPDEST DUP2 SLOAD DUP2 MSTORE SWAP1 PUSH1 0x1 ADD SWAP1 PUSH1 0x20 ADD DUP1 DUP4 GT PUSH2 0x820 JUMPI DUP3 SWAP1 SUB PUSH1 0x1F AND DUP3 ADD SWAP2 JUMPDEST POP POP POP POP POP SWAP1 POP SWAP1 JUMP JUMPDEST PUSH1 0x0 PUSH2 0x852 DUP3 PUSH2 0x19DD JUMP JUMPDEST PUSH2 0x891 JUMPI PUSH1 0x40 MLOAD PUSH32 0x8C379A000000000000000000000000000000000000000000000000000000000 DUP2 MSTORE PUSH1 0x4 ADD PUSH2 0x888 SWAP1 PUSH2 0x410B JUMP JUMPDEST PUSH1 0x40 MLOAD DUP1 SWAP2 SUB SWAP1 REVERT JUMPDEST PUSH1 0x6 PUSH1 0x0 DUP4 DUP2 MSTORE PUSH1 0x20 ADD SWAP1 DUP2 MSTORE PUSH1 0x20 ADD PUSH1 0x0 KECCAK256 PUSH1 0x0 SWAP1 SLOAD SWAP1 PUSH2 0x100 EXP SWAP1 DIV PUSH20 0xFFFFFFFFFFFFFFFFFFFFFFFFFFFFFFFFFFFFFFFF AND SWAP1 POP SWAP2 SWAP1 POP JUMP JUMPDEST PUSH1 0x0 PUSH2 0x8D7 DUP3 PUSH2 0xE11 JUMP JUMPDEST SWAP1 POP DUP1 PUSH20 0xFFFFFFFFFFFFFFFFFFFFFFFFFFFFFFFFFFFFFFFF AND DUP4 PUSH20 0xFFFFFFFFFFFFFFFFFFFFFFFFFFFFFFFFFFFFFFFF AND EQ ISZERO PUSH2 0x948 JUMPI PUSH1 0x40 MLOAD PUSH32 0x8C379A000000000000000000000000000000000000000000000000000000000 DUP2 MSTORE PUSH1 0x4 ADD PUSH2 0x93F SWAP1 PUSH2 0x419D JUMP JUMPDEST PUSH1 0x40 MLOAD DUP1 SWAP2 SUB SWAP1 REVERT JUMPDEST DUP1 PUSH20 0xFFFFFFFFFFFFFFFFFFFFFFFFFFFFFFFFFFFFFFFF AND PUSH2 0x967 PUSH2 0x1A49 JUMP JUMPDEST PUSH20 0xFFFFFFFFFFFFFFFFFFFFFFFFFFFFFFFFFFFFFFFF AND EQ DUP1 PUSH2 0x996 JUMPI POP PUSH2 0x995 DUP2 PUSH2 0x990 PUSH2 0x1A49 JUMP JUMPDEST PUSH2 0x17D7 JUMP JUMPDEST JUMPDEST PUSH2 0x9D5 JUMPI PUSH1 0x40 MLOAD PUSH32 0x8C379A000000000000000000000000000000000000000000000000000000000 DUP2 MSTORE PUSH1 0x4 ADD PUSH2 0x9CC SWAP1 PUSH2 0x422F JUMP JUMPDEST PUSH1 0x40 MLOAD DUP1 SWAP2 SUB SWAP1 REVERT JUMPDEST PUSH2 0x9DF DUP4 DUP4 PUSH2 0x1A51 JUMP JUMPDEST POP POP POP JUMP JUMPDEST PUSH1 0x0 PUSH1 0x10 PUSH1 0x0 DUP4 DUP2 MSTORE PUSH1 0x20 ADD SWAP1 DUP2 MSTORE PUSH1 0x20 ADD PUSH1 0x0 KECCAK256 SLOAD SWAP1 POP SWAP2 SWAP1 POP JUMP JUMPDEST PUSH1 0x0 PUSH1 0xA DUP1 SLOAD SWAP1 POP SWAP1 POP SWAP1 JUMP JUMPDEST PUSH2 0xA1F PUSH2 0xA19 PUSH2 0x1A49 JUMP JUMPDEST DUP3 PUSH2 0x1B0A JUMP JUMPDEST PUSH2 0xA5E JUMPI PUSH1 0x40 MLOAD PUSH32 0x8C379A000000000000000000000000000000000000000000000000000000000 DUP2 MSTORE PUSH1 0x4 ADD PUSH2 0xA55 SWAP1 PUSH2 0x42C1 JUMP JUMPDEST PUSH1 0x40 MLOAD DUP1 SWAP2 SUB SWAP1 REVERT JUMPDEST PUSH2 0xA69 DUP4 DUP4 DUP4 PUSH2 0x1BE8 JUMP JUMPDEST POP POP POP JUMP JUMPDEST PUSH1 0x0 DUP1 PUSH1 0x0 DUP4 DUP2 MSTORE PUSH1 0x20 ADD SWAP1 DUP2 MSTORE PUSH1 0x20 ADD PUSH1 0x0 KECCAK256 PUSH1 0x1 ADD SLOAD SWAP1 POP SWAP2 SWAP1 POP JUMP JUMPDEST PUSH2 0xA96 DUP3 PUSH2 0xA6E JUMP JUMPDEST PUSH2 0xAA7 DUP2 PUSH2 0xAA2 PUSH2 0x1A49 JUMP JUMPDEST PUSH2 0x1E44 JUMP JUMPDEST PUSH2 0xAB1 DUP4 DUP4 PUSH2 0x1EE1 JUMP JUMPDEST POP POP POP JUMP JUMPDEST PUSH1 0x0 PUSH2 0xAC1 DUP4 PUSH2 0xEC3 JUMP JUMPDEST DUP3 LT PUSH2 0xB02 JUMPI PUSH1 0x40 MLOAD PUSH32 0x8C379A000000000000000000000000000000000000000000000000000000000 DUP2 MSTORE PUSH1 0x4 ADD PUSH2 0xAF9 SWAP1 PUSH2 0x4353 JUMP JUMPDEST PUSH1 0x40 MLOAD DUP1 SWAP2 SUB SWAP1 REVERT JUMPDEST PUSH1 0x8 PUSH1 0x0 DUP5 PUSH20 0xFFFFFFFFFFFFFFFFFFFFFFFFFFFFFFFFFFFFFFFF AND PUSH20 0xFFFFFFFFFFFFFFFFFFFFFFFFFFFFFFFFFFFFFFFF AND DUP2 MSTORE PUSH1 0x20 ADD SWAP1 DUP2 MSTORE PUSH1 0x20 ADD PUSH1 0x0 KECCAK256 PUSH1 0x0 DUP4 DUP2 MSTORE PUSH1 0x20 ADD SWAP1 DUP2 MSTORE PUSH1 0x20 ADD PUSH1 0x0 KECCAK256 SLOAD SWAP1 POP SWAP3 SWAP2 POP POP JUMP JUMPDEST PUSH32 0xA49807205CE4D355092EF5A8A18F56E8913CF4A201FBE287825B095693C21775 PUSH2 0xB8D DUP2 PUSH2 0xB88 PUSH2 0x1A49 JUMP JUMPDEST PUSH2 0x1E44 JUMP JUMPDEST DUP2 PUSH1 0xD SWAP1 DUP1 MLOAD SWAP1 PUSH1 0x20 ADD SWAP1 PUSH2 0xBA3 SWAP3 SWAP2 SWAP1 PUSH2 0x33ED JUMP JUMPDEST POP POP POP JUMP JUMPDEST PUSH2 0xBB0 PUSH2 0x1A49 JUMP JUMPDEST PUSH20 0xFFFFFFFFFFFFFFFFFFFFFFFFFFFFFFFFFFFFFFFF AND DUP2 PUSH20 0xFFFFFFFFFFFFFFFFFFFFFFFFFFFFFFFFFFFFFFFF AND EQ PUSH2 0xC1D JUMPI PUSH1 0x40 MLOAD PUSH32 0x8C379A000000000000000000000000000000000000000000000000000000000 DUP2 MSTORE PUSH1 0x4 ADD PUSH2 0xC14 SWAP1 PUSH2 0x43E5 JUMP JUMPDEST PUSH1 0x40 MLOAD DUP1 SWAP2 SUB SWAP1 REVERT JUMPDEST PUSH2 0xC27 DUP3 DUP3 PUSH2 0x1FC1 JUMP JUMPDEST POP POP JUMP JUMPDEST PUSH32 0x65D7A28E3265B37A6474929F336521B332C1681B933F6CB9F3376673440D862A PUSH2 0xC5D DUP2 PUSH2 0xC58 PUSH2 0x1A49 JUMP JUMPDEST PUSH2 0x1E44 JUMP JUMPDEST PUSH2 0xC65 PUSH2 0x20A2 JUMP JUMPDEST POP JUMP JUMPDEST PUSH2 0xC83 DUP4 DUP4 DUP4 PUSH1 0x40 MLOAD DUP1 PUSH1 0x20 ADD PUSH1 0x40 MSTORE DUP1 PUSH1 0x0 DUP2 MSTORE POP PUSH2 0x1453 JUMP JUMPDEST POP POP POP JUMP JUMPDEST PUSH32 0xE97B137254058BD94F28D2F3EB79E2D34074FFB488D042E3BC958E0A57D2FA22 PUSH2 0xCBA DUP2 PUSH2 0xCB5 PUSH2 0x1A49 JUMP JUMPDEST PUSH2 0x1E44 JUMP JUMPDEST PUSH2 0xCC3 DUP3 PUSH2 0x2144 JUMP JUMPDEST POP POP JUMP JUMPDEST PUSH1 0x0 PUSH2 0xCD1 PUSH2 0xA01 JUMP JUMPDEST DUP3 LT PUSH2 0xD12 JUMPI PUSH1 0x40 MLOAD PUSH32 0x8C379A000000000000000000000000000000000000000000000000000000000 DUP2 MSTORE PUSH1 0x4 ADD PUSH2 0xD09 SWAP1 PUSH2 0x4477 JUMP JUMPDEST PUSH1 0x40 MLOAD DUP1 SWAP2 SUB SWAP1 REVERT JUMPDEST PUSH1 0xA DUP3 DUP2 SLOAD DUP2 LT PUSH2 0xD26 JUMPI PUSH2 0xD25 PUSH2 0x4497 JUMP JUMPDEST JUMPDEST SWAP1 PUSH1 0x0 MSTORE PUSH1 0x20 PUSH1 0x0 KECCAK256 ADD SLOAD SWAP1 POP SWAP2 SWAP1 POP JUMP JUMPDEST PUSH1 0x60 PUSH1 0xE PUSH1 0x0 DUP5 DUP2 MSTORE PUSH1 0x20 ADD SWAP1 DUP2 MSTORE PUSH1 0x20 ADD PUSH1 0x0 KECCAK256 DUP3 PUSH1 0x40 MLOAD PUSH2 0xD5B SWAP2 SWAP1 PUSH2 0x4502 JUMP JUMPDEST SWAP1 DUP2 MSTORE PUSH1 0x20 ADD PUSH1 0x40 MLOAD DUP1 SWAP2 SUB SWAP1 KECCAK256 DUP1 SLOAD PUSH2 0xD74 SWAP1 PUSH2 0x4067 JUMP JUMPDEST DUP1 PUSH1 0x1F ADD PUSH1 0x20 DUP1 SWAP2 DIV MUL PUSH1 0x20 ADD PUSH1 0x40 MLOAD SWAP1 DUP2 ADD PUSH1 0x40 MSTORE DUP1 SWAP3 SWAP2 SWAP1 DUP2 DUP2 MSTORE PUSH1 0x20 ADD DUP3 DUP1 SLOAD PUSH2 0xDA0 SWAP1 PUSH2 0x4067 JUMP JUMPDEST DUP1 ISZERO PUSH2 0xDED JUMPI DUP1 PUSH1 0x1F LT PUSH2 0xDC2 JUMPI PUSH2 0x100 DUP1 DUP4 SLOAD DIV MUL DUP4 MSTORE SWAP2 PUSH1 0x20 ADD SWAP2 PUSH2 0xDED JUMP JUMPDEST DUP3 ADD SWAP2 SWAP1 PUSH1 0x0 MSTORE PUSH1 0x20 PUSH1 0x0 KECCAK256 SWAP1 JUMPDEST DUP2 SLOAD DUP2 MSTORE SWAP1 PUSH1 0x1 ADD SWAP1 PUSH1 0x20 ADD DUP1 DUP4 GT PUSH2 0xDD0 JUMPI DUP3 SWAP1 SUB PUSH1 0x1F AND DUP3 ADD SWAP2 JUMPDEST POP POP POP POP POP SWAP1 POP SWAP3 SWAP2 POP POP JUMP JUMPDEST PUSH1 0x0 PUSH1 0xC PUSH1 0x0 SWAP1 SLOAD SWAP1 PUSH2 0x100 EXP SWAP1 DIV PUSH1 0xFF AND SWAP1 POP SWAP1 JUMP JUMPDEST PUSH1 0x0 DUP1 PUSH1 0x4 PUSH1 0x0 DUP5 DUP2 MSTORE PUSH1 0x20 ADD SWAP1 DUP2 MSTORE PUSH1 0x20 ADD PUSH1 0x0 KECCAK256 PUSH1 0x0 SWAP1 SLOAD SWAP1 PUSH2 0x100 EXP SWAP1 DIV PUSH20 0xFFFFFFFFFFFFFFFFFFFFFFFFFFFFFFFFFFFFFFFF AND SWAP1 POP PUSH1 0x0 PUSH20 0xFFFFFFFFFFFFFFFFFFFFFFFFFFFFFFFFFFFFFFFF AND DUP2 PUSH20 0xFFFFFFFFFFFFFFFFFFFFFFFFFFFFFFFFFFFFFFFF AND EQ ISZERO PUSH2 0xEBA JUMPI PUSH1 0x40 MLOAD PUSH32 0x8C379A000000000000000000000000000000000000000000000000000000000 DUP2 MSTORE PUSH1 0x4 ADD PUSH2 0xEB1 SWAP1 PUSH2 0x458B JUMP JUMPDEST PUSH1 0x40 MLOAD DUP1 SWAP2 SUB SWAP1 REVERT JUMPDEST DUP1 SWAP2 POP POP SWAP2 SWAP1 POP JUMP JUMPDEST PUSH1 0x0 DUP1 PUSH20 0xFFFFFFFFFFFFFFFFFFFFFFFFFFFFFFFFFFFFFFFF AND DUP3 PUSH20 0xFFFFFFFFFFFFFFFFFFFFFFFFFFFFFFFFFFFFFFFF AND EQ ISZERO PUSH2 0xF34 JUMPI PUSH1 0x40 MLOAD PUSH32 0x8C379A000000000000000000000000000000000000000000000000000000000 DUP2 MSTORE PUSH1 0x4 ADD PUSH2 0xF2B SWAP1 PUSH2 0x461D JUMP JUMPDEST PUSH1 0x40 MLOAD DUP1 SWAP2 SUB SWAP1 REVERT JUMPDEST PUSH1 0x5 PUSH1 0x0 DUP4 PUSH20 0xFFFFFFFFFFFFFFFFFFFFFFFFFFFFFFFFFFFFFFFF AND PUSH20 0xFFFFFFFFFFFFFFFFFFFFFFFFFFFFFFFFFFFFFFFF AND DUP2 MSTORE PUSH1 0x20 ADD SWAP1 DUP2 MSTORE PUSH1 0x20 ADD PUSH1 0x0 KECCAK256 SLOAD SWAP1 POP SWAP2 SWAP1 POP JUMP JUMPDEST PUSH2 0xF83 PUSH2 0x1A49 JUMP JUMPDEST PUSH20 0xFFFFFFFFFFFFFFFFFFFFFFFFFFFFFFFFFFFFFFFF AND PUSH2 0xFA1 PUSH2 0x1076 JUMP JUMPDEST PUSH20 0xFFFFFFFFFFFFFFFFFFFFFFFFFFFFFFFFFFFFFFFF AND EQ PUSH2 0xFF7 JUMPI PUSH1 0x40 MLOAD PUSH32 0x8C379A000000000000000000000000000000000000000000000000000000000 DUP2 MSTORE PUSH1 0x4 ADD PUSH2 0xFEE SWAP1 PUSH2 0x4689 JUMP JUMPDEST PUSH1 0x40 MLOAD DUP1 SWAP2 SUB SWAP1 REVERT JUMPDEST PUSH2 0x1001 PUSH1 0x0 PUSH2 0x2255 JUMP JUMPDEST JUMP JUMPDEST PUSH32 0xA49807205CE4D355092EF5A8A18F56E8913CF4A201FBE287825B095693C21775 DUP2 JUMP JUMPDEST PUSH1 0x0 PUSH2 0x1032 DUP3 PUSH2 0xE11 JUMP JUMPDEST SWAP1 POP SWAP2 SWAP1 POP JUMP JUMPDEST PUSH32 0x65D7A28E3265B37A6474929F336521B332C1681B933F6CB9F3376673440D862A PUSH2 0x106B DUP2 PUSH2 0x1066 PUSH2 0x1A49 JUMP JUMPDEST PUSH2 0x1E44 JUMP JUMPDEST PUSH2 0x1073 PUSH2 0x231B JUMP JUMPDEST POP JUMP JUMPDEST PUSH1 0x0 PUSH1 0x1 PUSH1 0x0 SWAP1 SLOAD SWAP1 PUSH2 0x100 EXP SWAP1 DIV PUSH20 0xFFFFFFFFFFFFFFFFFFFFFFFFFFFFFFFFFFFFFFFF AND SWAP1 POP SWAP1 JUMP JUMPDEST PUSH1 0x0 DUP1 PUSH1 0x0 DUP5 DUP2 MSTORE PUSH1 0x20 ADD SWAP1 DUP2 MSTORE PUSH1 0x20 ADD PUSH1 0x0 KECCAK256 PUSH1 0x0 ADD PUSH1 0x0 DUP4 PUSH20 0xFFFFFFFFFFFFFFFFFFFFFFFFFFFFFFFFFFFFFFFF AND PUSH20 0xFFFFFFFFFFFFFFFFFFFFFFFFFFFFFFFFFFFFFFFF AND DUP2 MSTORE PUSH1 0x20 ADD SWAP1 DUP2 MSTORE PUSH1 0x20 ADD PUSH1 0x0 KECCAK256 PUSH1 0x0 SWAP1 SLOAD SWAP1 PUSH2 0x100 EXP SWAP1 DIV PUSH1 0xFF AND SWAP1 POP SWAP3 SWAP2 POP POP JUMP JUMPDEST PUSH32 0x9F2DF0FED2C77648DE5860A4CC508CD0818C85B8B8A1AB4CEEEF8D981C8956A6 PUSH2 0x113C DUP2 PUSH2 0x1137 PUSH2 0x1A49 JUMP JUMPDEST PUSH2 0x1E44 JUMP JUMPDEST PUSH2 0x1147 DUP5 DUP5 DUP5 PUSH2 0x23BE JUMP JUMPDEST POP POP POP POP JUMP JUMPDEST PUSH1 0x60 PUSH1 0x3 DUP1 SLOAD PUSH2 0x115C SWAP1 PUSH2 0x4067 JUMP JUMPDEST DUP1 PUSH1 0x1F ADD PUSH1 0x20 DUP1 SWAP2 DIV MUL PUSH1 0x20 ADD PUSH1 0x40 MLOAD SWAP1 DUP2 ADD PUSH1 0x40 MSTORE DUP1 SWAP3 SWAP2 SWAP1 DUP2 DUP2 MSTORE PUSH1 0x20 ADD DUP3 DUP1 SLOAD PUSH2 0x1188 SWAP1 PUSH2 0x4067 JUMP JUMPDEST DUP1 ISZERO PUSH2 0x11D5 JUMPI DUP1 PUSH1 0x1F LT PUSH2 0x11AA JUMPI PUSH2 0x100 DUP1 DUP4 SLOAD DIV MUL DUP4 MSTORE SWAP2 PUSH1 0x20 ADD SWAP2 PUSH2 0x11D5 JUMP JUMPDEST DUP3 ADD SWAP2 SWAP1 PUSH1 0x0 MSTORE PUSH1 0x20 PUSH1 0x0 KECCAK256 SWAP1 JUMPDEST DUP2 SLOAD DUP2 MSTORE SWAP1 PUSH1 0x1 ADD SWAP1 PUSH1 0x20 ADD DUP1 DUP4 GT PUSH2 0x11B8 JUMPI DUP3 SWAP1 SUB PUSH1 0x1F AND DUP3 ADD SWAP2 JUMPDEST POP POP POP POP POP SWAP1 POP SWAP1 JUMP JUMPDEST PUSH1 0x0 DUP1 SHL DUP2 JUMP JUMPDEST PUSH2 0x11EE PUSH2 0x1A49 JUMP JUMPDEST PUSH20 0xFFFFFFFFFFFFFFFFFFFFFFFFFFFFFFFFFFFFFFFF AND DUP3 PUSH20 0xFFFFFFFFFFFFFFFFFFFFFFFFFFFFFFFFFFFFFFFF AND EQ ISZERO PUSH2 0x125C JUMPI PUSH1 0x40 MLOAD PUSH32 0x8C379A000000000000000000000000000000000000000000000000000000000 DUP2 MSTORE PUSH1 0x4 ADD PUSH2 0x1253 SWAP1 PUSH2 0x46F5 JUMP JUMPDEST PUSH1 0x40 MLOAD DUP1 SWAP2 SUB SWAP1 REVERT JUMPDEST DUP1 PUSH1 0x7 PUSH1 0x0 PUSH2 0x1269 PUSH2 0x1A49 JUMP JUMPDEST PUSH20 0xFFFFFFFFFFFFFFFFFFFFFFFFFFFFFFFFFFFFFFFF AND PUSH20 0xFFFFFFFFFFFFFFFFFFFFFFFFFFFFFFFFFFFFFFFF AND DUP2 MSTORE PUSH1 0x20 ADD SWAP1 DUP2 MSTORE PUSH1 0x20 ADD PUSH1 0x0 KECCAK256 PUSH1 0x0 DUP5 PUSH20 0xFFFFFFFFFFFFFFFFFFFFFFFFFFFFFFFFFFFFFFFF AND PUSH20 0xFFFFFFFFFFFFFFFFFFFFFFFFFFFFFFFFFFFFFFFF AND DUP2 MSTORE PUSH1 0x20 ADD SWAP1 DUP2 MSTORE PUSH1 0x20 ADD PUSH1 0x0 KECCAK256 PUSH1 0x0 PUSH2 0x100 EXP DUP2 SLOAD DUP2 PUSH1 0xFF MUL NOT AND SWAP1 DUP4 ISZERO ISZERO MUL OR SWAP1 SSTORE POP DUP2 PUSH20 0xFFFFFFFFFFFFFFFFFFFFFFFFFFFFFFFFFFFFFFFF AND PUSH2 0x1316 PUSH2 0x1A49 JUMP JUMPDEST PUSH20 0xFFFFFFFFFFFFFFFFFFFFFFFFFFFFFFFFFFFFFFFF AND PUSH32 0x17307EAB39AB6107E8899845AD3D59BD9653F200F220920489CA2B5937696C31 DUP4 PUSH1 0x40 MLOAD PUSH2 0x135B SWAP2 SWAP1 PUSH2 0x3608 JUMP JUMPDEST PUSH1 0x40 MLOAD DUP1 SWAP2 SUB SWAP1 LOG3 POP POP JUMP JUMPDEST PUSH1 0x60 PUSH1 0xF PUSH1 0x0 DUP4 DUP2 MSTORE PUSH1 0x20 ADD SWAP1 DUP2 MSTORE PUSH1 0x20 ADD PUSH1 0x0 KECCAK256 DUP1 SLOAD DUP1 PUSH1 0x20 MUL PUSH1 0x20 ADD PUSH1 0x40 MLOAD SWAP1 DUP2 ADD PUSH1 0x40 MSTORE DUP1 SWAP3 SWAP2 SWAP1 DUP2 DUP2 MSTORE PUSH1 0x20 ADD PUSH1 0x0 SWAP1 JUMPDEST DUP3 DUP3 LT ISZERO PUSH2 0x1448 JUMPI DUP4 DUP3 SWAP1 PUSH1 0x0 MSTORE PUSH1 0x20 PUSH1 0x0 KECCAK256 ADD DUP1 SLOAD PUSH2 0x13BB SWAP1 PUSH2 0x4067 JUMP JUMPDEST DUP1 PUSH1 0x1F ADD PUSH1 0x20 DUP1 SWAP2 DIV MUL PUSH1 0x20 ADD PUSH1 0x40 MLOAD SWAP1 DUP2 ADD PUSH1 0x40 MSTORE DUP1 SWAP3 SWAP2 SWAP1 DUP2 DUP2 MSTORE PUSH1 0x20 ADD DUP3 DUP1 SLOAD PUSH2 0x13E7 SWAP1 PUSH2 0x4067 JUMP JUMPDEST DUP1 ISZERO PUSH2 0x1434 JUMPI DUP1 PUSH1 0x1F LT PUSH2 0x1409 JUMPI PUSH2 0x100 DUP1 DUP4 SLOAD DIV MUL DUP4 MSTORE SWAP2 PUSH1 0x20 ADD SWAP2 PUSH2 0x1434 JUMP JUMPDEST DUP3 ADD SWAP2 SWAP1 PUSH1 0x0 MSTORE PUSH1 0x20 PUSH1 0x0 KECCAK256 SWAP1 JUMPDEST DUP2 SLOAD DUP2 MSTORE SWAP1 PUSH1 0x1 ADD SWAP1 PUSH1 0x20 ADD DUP1 DUP4 GT PUSH2 0x1417 JUMPI DUP3 SWAP1 SUB PUSH1 0x1F AND DUP3 ADD SWAP2 JUMPDEST POP POP POP POP POP DUP2 MSTORE PUSH1 0x20 ADD SWAP1 PUSH1 0x1 ADD SWAP1 PUSH2 0x139C JUMP JUMPDEST POP POP POP POP SWAP1 POP SWAP2 SWAP1 POP JUMP JUMPDEST PUSH2 0x1464 PUSH2 0x145E PUSH2 0x1A49 JUMP JUMPDEST DUP4 PUSH2 0x1B0A JUMP JUMPDEST PUSH2 0x14A3 JUMPI PUSH1 0x40 MLOAD PUSH32 0x8C379A000000000000000000000000000000000000000000000000000000000 DUP2 MSTORE PUSH1 0x4 ADD PUSH2 0x149A SWAP1 PUSH2 0x42C1 JUMP JUMPDEST PUSH1 0x40 MLOAD DUP1 SWAP2 SUB SWAP1 REVERT JUMPDEST PUSH2 0x14AF DUP5 DUP5 DUP5 DUP5 PUSH2 0x248A JUMP JUMPDEST POP POP POP POP JUMP JUMPDEST PUSH32 0xE97B137254058BD94F28D2F3EB79E2D34074FFB488D042E3BC958E0A57D2FA22 DUP2 JUMP JUMPDEST PUSH1 0x60 PUSH2 0x14E4 DUP3 PUSH2 0x19DD JUMP JUMPDEST PUSH2 0x1523 JUMPI PUSH1 0x40 MLOAD PUSH32 0x8C379A000000000000000000000000000000000000000000000000000000000 DUP2 MSTORE PUSH1 0x4 ADD PUSH2 0x151A SWAP1 PUSH2 0x4787 JUMP JUMPDEST PUSH1 0x40 MLOAD DUP1 SWAP2 SUB SWAP1 REVERT JUMPDEST PUSH1 0x0 PUSH2 0x152D PUSH2 0x24E6 JUMP JUMPDEST SWAP1 POP PUSH1 0x0 DUP2 MLOAD GT PUSH2 0x154D JUMPI PUSH1 0x40 MLOAD DUP1 PUSH1 0x20 ADD PUSH1 0x40 MSTORE DUP1 PUSH1 0x0 DUP2 MSTORE POP PUSH2 0x1578 JUMP JUMPDEST DUP1 PUSH2 0x1557 DUP5 PUSH2 0x2578 JUMP JUMPDEST PUSH1 0x40 MLOAD PUSH1 0x20 ADD PUSH2 0x1568 SWAP3 SWAP2 SWAP1 PUSH2 0x47A7 JUMP JUMPDEST PUSH1 0x40 MLOAD PUSH1 0x20 DUP2 DUP4 SUB SUB DUP2 MSTORE SWAP1 PUSH1 0x40 MSTORE JUMPDEST SWAP2 POP POP SWAP2 SWAP1 POP JUMP JUMPDEST PUSH32 0x9F2DF0FED2C77648DE5860A4CC508CD0818C85B8B8A1AB4CEEEF8D981C8956A6 PUSH2 0x15B2 DUP2 PUSH2 0x15AD PUSH2 0x1A49 JUMP JUMPDEST PUSH2 0x1E44 JUMP JUMPDEST PUSH1 0x0 PUSH1 0x2 DUP4 MLOAD PUSH2 0x15C2 SWAP2 SWAP1 PUSH2 0x47FA JUMP JUMPDEST EQ PUSH2 0x1602 JUMPI PUSH1 0x40 MLOAD PUSH32 0x8C379A000000000000000000000000000000000000000000000000000000000 DUP2 MSTORE PUSH1 0x4 ADD PUSH2 0x15F9 SWAP1 PUSH2 0x4877 JUMP JUMPDEST PUSH1 0x40 MLOAD DUP1 SWAP2 SUB SWAP1 REVERT JUMPDEST PUSH1 0x1 PUSH1 0x10 PUSH1 0x0 DUP6 DUP2 MSTORE PUSH1 0x20 ADD SWAP1 DUP2 MSTORE PUSH1 0x20 ADD PUSH1 0x0 KECCAK256 PUSH1 0x0 DUP3 DUP3 SLOAD PUSH2 0x1626 SWAP2 SWAP1 PUSH2 0x48C6 JUMP JUMPDEST SWAP3 POP POP DUP2 SWAP1 SSTORE POP PUSH1 0x0 PUSH2 0x1638 DUP5 PUSH2 0x2578 JUMP JUMPDEST PUSH2 0x1654 PUSH1 0x10 PUSH1 0x0 DUP8 DUP2 MSTORE PUSH1 0x20 ADD SWAP1 DUP2 MSTORE PUSH1 0x20 ADD PUSH1 0x0 KECCAK256 SLOAD PUSH2 0x2578 JUMP JUMPDEST PUSH1 0x40 MLOAD PUSH1 0x20 ADD PUSH2 0x1665 SWAP3 SWAP2 SWAP1 PUSH2 0x47A7 JUMP JUMPDEST PUSH1 0x40 MLOAD PUSH1 0x20 DUP2 DUP4 SUB SUB DUP2 MSTORE SWAP1 PUSH1 0x40 MSTORE SWAP1 POP PUSH1 0x0 PUSH2 0x1681 DUP3 PUSH2 0x26D9 JUMP JUMPDEST SWAP1 POP PUSH2 0x168D DUP7 DUP3 PUSH2 0x27EC JUMP JUMPDEST DUP4 PUSH1 0xF PUSH1 0x0 DUP4 DUP2 MSTORE PUSH1 0x20 ADD SWAP1 DUP2 MSTORE PUSH1 0x20 ADD PUSH1 0x0 KECCAK256 SWAP1 DUP1 MLOAD SWAP1 PUSH1 0x20 ADD SWAP1 PUSH2 0x16B4 SWAP3 SWAP2 SWAP1 PUSH2 0x3473 JUMP JUMPDEST POP PUSH1 0x0 JUMPDEST DUP5 MLOAD DUP2 LT ISZERO PUSH2 0x1720 JUMPI PUSH2 0x170C DUP3 DUP7 DUP4 DUP2 MLOAD DUP2 LT PUSH2 0x16D8 JUMPI PUSH2 0x16D7 PUSH2 0x4497 JUMP JUMPDEST JUMPDEST PUSH1 0x20 MUL PUSH1 0x20 ADD ADD MLOAD DUP8 PUSH1 0x1 DUP6 PUSH2 0x16EE SWAP2 SWAP1 PUSH2 0x48C6 JUMP JUMPDEST DUP2 MLOAD DUP2 LT PUSH2 0x16FF JUMPI PUSH2 0x16FE PUSH2 0x4497 JUMP JUMPDEST JUMPDEST PUSH1 0x20 MUL PUSH1 0x20 ADD ADD MLOAD PUSH2 0x23BE JUMP JUMPDEST PUSH1 0x2 DUP2 PUSH2 0x1719 SWAP2 SWAP1 PUSH2 0x48C6 JUMP JUMPDEST SWAP1 POP PUSH2 0x16B8 JUMP JUMPDEST POP PUSH32 0x9E5C894249C05CAE65C2B006E96F45233D71C407CEB719E92406FFBD9587D91D DUP2 DUP8 DUP8 DUP8 PUSH1 0x40 MLOAD PUSH2 0x1756 SWAP5 SWAP4 SWAP3 SWAP2 SWAP1 PUSH2 0x491C JUMP JUMPDEST PUSH1 0x40 MLOAD DUP1 SWAP2 SUB SWAP1 LOG1 POP POP POP POP POP POP JUMP JUMPDEST PUSH32 0x9F2DF0FED2C77648DE5860A4CC508CD0818C85B8B8A1AB4CEEEF8D981C8956A6 DUP2 JUMP JUMPDEST PUSH2 0x1793 DUP3 PUSH2 0xA6E JUMP JUMPDEST PUSH2 0x17A4 DUP2 PUSH2 0x179F PUSH2 0x1A49 JUMP JUMPDEST PUSH2 0x1E44 JUMP JUMPDEST PUSH2 0x17AE DUP4 DUP4 PUSH2 0x1FC1 JUMP JUMPDEST POP POP POP JUMP JUMPDEST PUSH32 0x65D7A28E3265B37A6474929F336521B332C1681B933F6CB9F3376673440D862A DUP2 JUMP JUMPDEST PUSH1 0x0 PUSH1 0x7 PUSH1 0x0 DUP5 PUSH20 0xFFFFFFFFFFFFFFFFFFFFFFFFFFFFFFFFFFFFFFFF AND PUSH20 0xFFFFFFFFFFFFFFFFFFFFFFFFFFFFFFFFFFFFFFFF AND DUP2 MSTORE PUSH1 0x20 ADD SWAP1 DUP2 MSTORE PUSH1 0x20 ADD PUSH1 0x0 KECCAK256 PUSH1 0x0 DUP4 PUSH20 0xFFFFFFFFFFFFFFFFFFFFFFFFFFFFFFFFFFFFFFFF AND PUSH20 0xFFFFFFFFFFFFFFFFFFFFFFFFFFFFFFFFFFFFFFFF AND DUP2 MSTORE PUSH1 0x20 ADD SWAP1 DUP2 MSTORE PUSH1 0x20 ADD PUSH1 0x0 KECCAK256 PUSH1 0x0 SWAP1 SLOAD SWAP1 PUSH2 0x100 EXP SWAP1 DIV PUSH1 0xFF AND SWAP1 POP SWAP3 SWAP2 POP POP JUMP JUMPDEST PUSH2 0x1873 PUSH2 0x1A49 JUMP JUMPDEST PUSH20 0xFFFFFFFFFFFFFFFFFFFFFFFFFFFFFFFFFFFFFFFF AND PUSH2 0x1891 PUSH2 0x1076 JUMP JUMPDEST PUSH20 0xFFFFFFFFFFFFFFFFFFFFFFFFFFFFFFFFFFFFFFFF AND EQ PUSH2 0x18E7 JUMPI PUSH1 0x40 MLOAD PUSH32 0x8C379A000000000000000000000000000000000000000000000000000000000 DUP2 MSTORE PUSH1 0x4 ADD PUSH2 0x18DE SWAP1 PUSH2 0x4689 JUMP JUMPDEST PUSH1 0x40 MLOAD DUP1 SWAP2 SUB SWAP1 REVERT JUMPDEST PUSH1 0x0 PUSH20 0xFFFFFFFFFFFFFFFFFFFFFFFFFFFFFFFFFFFFFFFF AND DUP2 PUSH20 0xFFFFFFFFFFFFFFFFFFFFFFFFFFFFFFFFFFFFFFFF AND EQ ISZERO PUSH2 0x1957 JUMPI PUSH1 0x40 MLOAD PUSH32 0x8C379A000000000000000000000000000000000000000000000000000000000 DUP2 MSTORE PUSH1 0x4 ADD PUSH2 0x194E SWAP1 PUSH2 0x49DA JUMP JUMPDEST PUSH1 0x40 MLOAD DUP1 SWAP2 SUB SWAP1 REVERT JUMPDEST PUSH2 0x1960 DUP2 PUSH2 0x2255 JUMP JUMPDEST POP JUMP JUMPDEST PUSH1 0x0 PUSH32 0x780E9D6300000000000000000000000000000000000000000000000000000000 PUSH28 0xFFFFFFFFFFFFFFFFFFFFFFFFFFFFFFFFFFFFFFFFFFFFFFFFFFFFFFFF NOT AND DUP3 PUSH28 0xFFFFFFFFFFFFFFFFFFFFFFFFFFFFFFFFFFFFFFFFFFFFFFFFFFFFFFFF NOT AND EQ DUP1 PUSH2 0x19D6 JUMPI POP PUSH2 0x19D5 DUP3 PUSH2 0x29BA JUMP JUMPDEST JUMPDEST SWAP1 POP SWAP2 SWAP1 POP JUMP JUMPDEST PUSH1 0x0 DUP1 PUSH20 0xFFFFFFFFFFFFFFFFFFFFFFFFFFFFFFFFFFFFFFFF AND PUSH1 0x4 PUSH1 0x0 DUP5 DUP2 MSTORE PUSH1 0x20 ADD SWAP1 DUP2 MSTORE PUSH1 0x20 ADD PUSH1 0x0 KECCAK256 PUSH1 0x0 SWAP1 SLOAD SWAP1 PUSH2 0x100 EXP SWAP1 DIV PUSH20 0xFFFFFFFFFFFFFFFFFFFFFFFFFFFFFFFFFFFFFFFF AND PUSH20 0xFFFFFFFFFFFFFFFFFFFFFFFFFFFFFFFFFFFFFFFF AND EQ ISZERO SWAP1 POP SWAP2 SWAP1 POP JUMP JUMPDEST PUSH1 0x0 CALLER SWAP1 POP SWAP1 JUMP JUMPDEST DUP2 PUSH1 0x6 PUSH1 0x0 DUP4 DUP2 MSTORE PUSH1 0x20 ADD SWAP1 DUP2 MSTORE PUSH1 0x20 ADD PUSH1 0x0 KECCAK256 PUSH1 0x0 PUSH2 0x100 EXP DUP2 SLOAD DUP2 PUSH20 0xFFFFFFFFFFFFFFFFFFFFFFFFFFFFFFFFFFFFFFFF MUL NOT AND SWAP1 DUP4 PUSH20 0xFFFFFFFFFFFFFFFFFFFFFFFFFFFFFFFFFFFFFFFF AND MUL OR SWAP1 SSTORE POP DUP1 DUP3 PUSH20 0xFFFFFFFFFFFFFFFFFFFFFFFFFFFFFFFFFFFFFFFF AND PUSH2 0x1AC4 DUP4 PUSH2 0xE11 JUMP JUMPDEST PUSH20 0xFFFFFFFFFFFFFFFFFFFFFFFFFFFFFFFFFFFFFFFF AND PUSH32 0x8C5BE1E5EBEC7D5BD14F71427D1E84F3DD0314C0F7B2291E5B200AC8C7C3B925 PUSH1 0x40 MLOAD PUSH1 0x40 MLOAD DUP1 SWAP2 SUB SWAP1 LOG4 POP POP JUMP JUMPDEST PUSH1 0x0 PUSH2 0x1B15 DUP3 PUSH2 0x19DD JUMP JUMPDEST PUSH2 0x1B54 JUMPI PUSH1 0x40 MLOAD PUSH32 0x8C379A000000000000000000000000000000000000000000000000000000000 DUP2 MSTORE PUSH1 0x4 ADD PUSH2 0x1B4B SWAP1 PUSH2 0x4A6C JUMP JUMPDEST PUSH1 0x40 MLOAD DUP1 SWAP2 SUB SWAP1 REVERT JUMPDEST PUSH1 0x0 PUSH2 0x1B5F DUP4 PUSH2 0xE11 JUMP JUMPDEST SWAP1 POP DUP1 PUSH20 0xFFFFFFFFFFFFFFFFFFFFFFFFFFFFFFFFFFFFFFFF AND DUP5 PUSH20 0xFFFFFFFFFFFFFFFFFFFFFFFFFFFFFFFFFFFFFFFF AND EQ DUP1 PUSH2 0x1BCE JUMPI POP DUP4 PUSH20 0xFFFFFFFFFFFFFFFFFFFFFFFFFFFFFFFFFFFFFFFF AND PUSH2 0x1BB6 DUP5 PUSH2 0x847 JUMP JUMPDEST PUSH20 0xFFFFFFFFFFFFFFFFFFFFFFFFFFFFFFFFFFFFFFFF AND EQ JUMPDEST DUP1 PUSH2 0x1BDF JUMPI POP PUSH2 0x1BDE DUP2 DUP6 PUSH2 0x17D7 JUMP JUMPDEST JUMPDEST SWAP2 POP POP SWAP3 SWAP2 POP POP JUMP JUMPDEST DUP3 PUSH20 0xFFFFFFFFFFFFFFFFFFFFFFFFFFFFFFFFFFFFFFFF AND PUSH2 0x1C08 DUP3 PUSH2 0xE11 JUMP JUMPDEST PUSH20 0xFFFFFFFFFFFFFFFFFFFFFFFFFFFFFFFFFFFFFFFF AND EQ PUSH2 0x1C5E JUMPI PUSH1 0x40 MLOAD PUSH32 0x8C379A000000000000000000000000000000000000000000000000000000000 DUP2 MSTORE PUSH1 0x4 ADD PUSH2 0x1C55 SWAP1 PUSH2 0x4AFE JUMP JUMPDEST PUSH1 0x40 MLOAD DUP1 SWAP2 SUB SWAP1 REVERT JUMPDEST PUSH1 0x0 PUSH20 0xFFFFFFFFFFFFFFFFFFFFFFFFFFFFFFFFFFFFFFFF AND DUP3 PUSH20 0xFFFFFFFFFFFFFFFFFFFFFFFFFFFFFFFFFFFFFFFF AND EQ ISZERO PUSH2 0x1CCE JUMPI PUSH1 0x40 MLOAD PUSH32 0x8C379A000000000000000000000000000000000000000000000000000000000 DUP2 MSTORE PUSH1 0x4 ADD PUSH2 0x1CC5 SWAP1 PUSH2 0x4B90 JUMP JUMPDEST PUSH1 0x40 MLOAD DUP1 SWAP2 SUB SWAP1 REVERT JUMPDEST PUSH2 0x1CD9 DUP4 DUP4 DUP4 PUSH2 0x2A9C JUMP JUMPDEST PUSH2 0x1CE4 PUSH1 0x0 DUP3 PUSH2 0x1A51 JUMP JUMPDEST PUSH1 0x1 PUSH1 0x5 PUSH1 0x0 DUP6 PUSH20 0xFFFFFFFFFFFFFFFFFFFFFFFFFFFFFFFFFFFFFFFF AND PUSH20 0xFFFFFFFFFFFFFFFFFFFFFFFFFFFFFFFFFFFFFFFF AND DUP2 MSTORE PUSH1 0x20 ADD SWAP1 DUP2 MSTORE PUSH1 0x20 ADD PUSH1 0x0 KECCAK256 PUSH1 0x0 DUP3 DUP3 SLOAD PUSH2 0x1D34 SWAP2 SWAP1 PUSH2 0x4BB0 JUMP JUMPDEST SWAP3 POP POP DUP2 SWAP1 SSTORE POP PUSH1 0x1 PUSH1 0x5 PUSH1 0x0 DUP5 PUSH20 0xFFFFFFFFFFFFFFFFFFFFFFFFFFFFFFFFFFFFFFFF AND PUSH20 0xFFFFFFFFFFFFFFFFFFFFFFFFFFFFFFFFFFFFFFFF AND DUP2 MSTORE PUSH1 0x20 ADD SWAP1 DUP2 MSTORE PUSH1 0x20 ADD PUSH1 0x0 KECCAK256 PUSH1 0x0 DUP3 DUP3 SLOAD PUSH2 0x1D8B SWAP2 SWAP1 PUSH2 0x48C6 JUMP JUMPDEST SWAP3 POP POP DUP2 SWAP1 SSTORE POP DUP2 PUSH1 0x4 PUSH1 0x0 DUP4 DUP2 MSTORE PUSH1 0x20 ADD SWAP1 DUP2 MSTORE PUSH1 0x20 ADD PUSH1 0x0 KECCAK256 PUSH1 0x0 PUSH2 0x100 EXP DUP2 SLOAD DUP2 PUSH20 0xFFFFFFFFFFFFFFFFFFFFFFFFFFFFFFFFFFFFFFFF MUL NOT AND SWAP1 DUP4 PUSH20 0xFFFFFFFFFFFFFFFFFFFFFFFFFFFFFFFFFFFFFFFF AND MUL OR SWAP1 SSTORE POP DUP1 DUP3 PUSH20 0xFFFFFFFFFFFFFFFFFFFFFFFFFFFFFFFFFFFFFFFF AND DUP5 PUSH20 0xFFFFFFFFFFFFFFFFFFFFFFFFFFFFFFFFFFFFFFFF AND PUSH32 0xDDF252AD1BE2C89B69C2B068FC378DAA952BA7F163C4A11628F55A4DF523B3EF PUSH1 0x40 MLOAD PUSH1 0x40 MLOAD DUP1 SWAP2 SUB SWAP1 LOG4 POP POP POP JUMP JUMPDEST PUSH2 0x1E4E DUP3 DUP3 PUSH2 0x10A0 JUMP JUMPDEST PUSH2 0x1EDD JUMPI PUSH2 0x1E73 DUP2 PUSH20 0xFFFFFFFFFFFFFFFFFFFFFFFFFFFFFFFFFFFFFFFF AND PUSH1 0x14 PUSH2 0x2AAC JUMP JUMPDEST PUSH2 0x1E81 DUP4 PUSH1 0x0 SHR PUSH1 0x20 PUSH2 0x2AAC JUMP JUMPDEST PUSH1 0x40 MLOAD PUSH1 0x20 ADD PUSH2 0x1E92 SWAP3 SWAP2 SWAP1 PUSH2 0x4C7C JUMP JUMPDEST PUSH1 0x40 MLOAD PUSH1 0x20 DUP2 DUP4 SUB SUB DUP2 MSTORE SWAP1 PUSH1 0x40 MSTORE PUSH1 0x40 MLOAD PUSH32 0x8C379A000000000000000000000000000000000000000000000000000000000 DUP2 MSTORE PUSH1 0x4 ADD PUSH2 0x1ED4 SWAP2 SWAP1 PUSH2 0x36BC JUMP JUMPDEST PUSH1 0x40 MLOAD DUP1 SWAP2 SUB SWAP1 REVERT JUMPDEST POP POP JUMP JUMPDEST PUSH2 0x1EEB DUP3 DUP3 PUSH2 0x10A0 JUMP JUMPDEST PUSH2 0x1FBD JUMPI PUSH1 0x1 PUSH1 0x0 DUP1 DUP5 DUP2 MSTORE PUSH1 0x20 ADD SWAP1 DUP2 MSTORE PUSH1 0x20 ADD PUSH1 0x0 KECCAK256 PUSH1 0x0 ADD PUSH1 0x0 DUP4 PUSH20 0xFFFFFFFFFFFFFFFFFFFFFFFFFFFFFFFFFFFFFFFF AND PUSH20 0xFFFFFFFFFFFFFFFFFFFFFFFFFFFFFFFFFFFFFFFF AND DUP2 MSTORE PUSH1 0x20 ADD SWAP1 DUP2 MSTORE PUSH1 0x20 ADD PUSH1 0x0 KECCAK256 PUSH1 0x0 PUSH2 0x100 EXP DUP2 SLOAD DUP2 PUSH1 0xFF MUL NOT AND SWAP1 DUP4 ISZERO ISZERO MUL OR SWAP1 SSTORE POP PUSH2 0x1F62 PUSH2 0x1A49 JUMP JUMPDEST PUSH20 0xFFFFFFFFFFFFFFFFFFFFFFFFFFFFFFFFFFFFFFFF AND DUP2 PUSH20 0xFFFFFFFFFFFFFFFFFFFFFFFFFFFFFFFFFFFFFFFF AND DUP4 PUSH32 0x2F8788117E7EFF1D82E926EC794901D17C78024A50270940304540A733656F0D PUSH1 0x40 MLOAD PUSH1 0x40 MLOAD DUP1 SWAP2 SUB SWAP1 LOG4 JUMPDEST POP POP JUMP JUMPDEST PUSH2 0x1FCB DUP3 DUP3 PUSH2 0x10A0 JUMP JUMPDEST ISZERO PUSH2 0x209E JUMPI PUSH1 0x0 DUP1 PUSH1 0x0 DUP5 DUP2 MSTORE PUSH1 0x20 ADD SWAP1 DUP2 MSTORE PUSH1 0x20 ADD PUSH1 0x0 KECCAK256 PUSH1 0x0 ADD PUSH1 0x0 DUP4 PUSH20 0xFFFFFFFFFFFFFFFFFFFFFFFFFFFFFFFFFFFFFFFF AND PUSH20 0xFFFFFFFFFFFFFFFFFFFFFFFFFFFFFFFFFFFFFFFF AND DUP2 MSTORE PUSH1 0x20 ADD SWAP1 DUP2 MSTORE PUSH1 0x20 ADD PUSH1 0x0 KECCAK256 PUSH1 0x0 PUSH2 0x100 EXP DUP2 SLOAD DUP2 PUSH1 0xFF MUL NOT AND SWAP1 DUP4 ISZERO ISZERO MUL OR SWAP1 SSTORE POP PUSH2 0x2043 PUSH2 0x1A49 JUMP JUMPDEST PUSH20 0xFFFFFFFFFFFFFFFFFFFFFFFFFFFFFFFFFFFFFFFF AND DUP2 PUSH20 0xFFFFFFFFFFFFFFFFFFFFFFFFFFFFFFFFFFFFFFFF AND DUP4 PUSH32 0xF6391F5C32D9C69D2A47EA670B442974B53935D1EDC7FD64EB21E047A839171B PUSH1 0x40 MLOAD PUSH1 0x40 MLOAD DUP1 SWAP2 SUB SWAP1 LOG4 JUMPDEST POP POP JUMP JUMPDEST PUSH2 0x20AA PUSH2 0xDFA JUMP JUMPDEST PUSH2 0x20E9 JUMPI PUSH1 0x40 MLOAD PUSH32 0x8C379A000000000000000000000000000000000000000000000000000000000 DUP2 MSTORE PUSH1 0x4 ADD PUSH2 0x20E0 SWAP1 PUSH2 0x4D02 JUMP JUMPDEST PUSH1 0x40 MLOAD DUP1 SWAP2 SUB SWAP1 REVERT JUMPDEST PUSH1 0x0 PUSH1 0xC PUSH1 0x0 PUSH2 0x100 EXP DUP2 SLOAD DUP2 PUSH1 0xFF MUL NOT AND SWAP1 DUP4 ISZERO ISZERO MUL OR SWAP1 SSTORE POP PUSH32 0x5DB9EE0A495BF2E6FF9C91A7834C1BA4FDD244A5E8AA4E537BD38AEAE4B073AA PUSH2 0x212D PUSH2 0x1A49 JUMP JUMPDEST PUSH1 0x40 MLOAD PUSH2 0x213A SWAP2 SWAP1 PUSH2 0x3782 JUMP JUMPDEST PUSH1 0x40 MLOAD DUP1 SWAP2 SUB SWAP1 LOG1 JUMP JUMPDEST PUSH1 0x0 PUSH2 0x214F DUP3 PUSH2 0xE11 JUMP JUMPDEST SWAP1 POP PUSH2 0x215D DUP2 PUSH1 0x0 DUP5 PUSH2 0x2A9C JUMP JUMPDEST PUSH2 0x2168 PUSH1 0x0 DUP4 PUSH2 0x1A51 JUMP JUMPDEST PUSH1 0x1 PUSH1 0x5 PUSH1 0x0 DUP4 PUSH20 0xFFFFFFFFFFFFFFFFFFFFFFFFFFFFFFFFFFFFFFFF AND PUSH20 0xFFFFFFFFFFFFFFFFFFFFFFFFFFFFFFFFFFFFFFFF AND DUP2 MSTORE PUSH1 0x20 ADD SWAP1 DUP2 MSTORE PUSH1 0x20 ADD PUSH1 0x0 KECCAK256 PUSH1 0x0 DUP3 DUP3 SLOAD PUSH2 0x21B8 SWAP2 SWAP1 PUSH2 0x4BB0 JUMP JUMPDEST SWAP3 POP POP DUP2 SWAP1 SSTORE POP PUSH1 0x4 PUSH1 0x0 DUP4 DUP2 MSTORE PUSH1 0x20 ADD SWAP1 DUP2 MSTORE PUSH1 0x20 ADD PUSH1 0x0 KECCAK256 PUSH1 0x0 PUSH2 0x100 EXP DUP2 SLOAD SWAP1 PUSH20 0xFFFFFFFFFFFFFFFFFFFFFFFFFFFFFFFFFFFFFFFF MUL NOT AND SWAP1 SSTORE DUP2 PUSH1 0x0 PUSH20 0xFFFFFFFFFFFFFFFFFFFFFFFFFFFFFFFFFFFFFFFF AND DUP3 PUSH20 0xFFFFFFFFFFFFFFFFFFFFFFFFFFFFFFFFFFFFFFFF AND PUSH32 0xDDF252AD1BE2C89B69C2B068FC378DAA952BA7F163C4A11628F55A4DF523B3EF PUSH1 0x40 MLOAD PUSH1 0x40 MLOAD DUP1 SWAP2 SUB SWAP1 LOG4 POP POP JUMP JUMPDEST PUSH1 0x0 PUSH1 0x1 PUSH1 0x0 SWAP1 SLOAD SWAP1 PUSH2 0x100 EXP SWAP1 DIV PUSH20 0xFFFFFFFFFFFFFFFFFFFFFFFFFFFFFFFFFFFFFFFF AND SWAP1 POP DUP2 PUSH1 0x1 PUSH1 0x0 PUSH2 0x100 EXP DUP2 SLOAD DUP2 PUSH20 0xFFFFFFFFFFFFFFFFFFFFFFFFFFFFFFFFFFFFFFFF MUL NOT AND SWAP1 DUP4 PUSH20 0xFFFFFFFFFFFFFFFFFFFFFFFFFFFFFFFFFFFFFFFF AND MUL OR SWAP1 SSTORE POP DUP2 PUSH20 0xFFFFFFFFFFFFFFFFFFFFFFFFFFFFFFFFFFFFFFFF AND DUP2 PUSH20 0xFFFFFFFFFFFFFFFFFFFFFFFFFFFFFFFFFFFFFFFF AND PUSH32 0x8BE0079C531659141344CD1FD0A4F28419497F9722A3DAAFE3B4186F6B6457E0 PUSH1 0x40 MLOAD PUSH1 0x40 MLOAD DUP1 SWAP2 SUB SWAP1 LOG3 POP POP JUMP JUMPDEST PUSH2 0x2323 PUSH2 0xDFA JUMP JUMPDEST ISZERO PUSH2 0x2363 JUMPI PUSH1 0x40 MLOAD PUSH32 0x8C379A000000000000000000000000000000000000000000000000000000000 DUP2 MSTORE PUSH1 0x4 ADD PUSH2 0x235A SWAP1 PUSH2 0x4D6E JUMP JUMPDEST PUSH1 0x40 MLOAD DUP1 SWAP2 SUB SWAP1 REVERT JUMPDEST PUSH1 0x1 PUSH1 0xC PUSH1 0x0 PUSH2 0x100 EXP DUP2 SLOAD DUP2 PUSH1 0xFF MUL NOT AND SWAP1 DUP4 ISZERO ISZERO MUL OR SWAP1 SSTORE POP PUSH32 0x62E78CEA01BEE320CD4E420270B5EA74000D11B0C9F74754EBDBFC544B05A258 PUSH2 0x23A7 PUSH2 0x1A49 JUMP JUMPDEST PUSH1 0x40 MLOAD PUSH2 0x23B4 SWAP2 SWAP1 PUSH2 0x3782 JUMP JUMPDEST PUSH1 0x40 MLOAD DUP1 SWAP2 SUB SWAP1 LOG1 JUMP JUMPDEST PUSH2 0x23C7 DUP4 PUSH2 0x19DD JUMP JUMPDEST PUSH2 0x2406 JUMPI PUSH1 0x40 MLOAD PUSH32 0x8C379A000000000000000000000000000000000000000000000000000000000 DUP2 MSTORE PUSH1 0x4 ADD PUSH2 0x23FD SWAP1 PUSH2 0x4787 JUMP JUMPDEST PUSH1 0x40 MLOAD DUP1 SWAP2 SUB SWAP1 REVERT JUMPDEST DUP1 PUSH1 0xE PUSH1 0x0 DUP6 DUP2 MSTORE PUSH1 0x20 ADD SWAP1 DUP2 MSTORE PUSH1 0x20 ADD PUSH1 0x0 KECCAK256 DUP4 PUSH1 0x40 MLOAD PUSH2 0x2428 SWAP2 SWAP1 PUSH2 0x4502 JUMP JUMPDEST SWAP1 DUP2 MSTORE PUSH1 0x20 ADD PUSH1 0x40 MLOAD DUP1 SWAP2 SUB SWAP1 KECCAK256 SWAP1 DUP1 MLOAD SWAP1 PUSH1 0x20 ADD SWAP1 PUSH2 0x2449 SWAP3 SWAP2 SWAP1 PUSH2 0x33ED JUMP JUMPDEST POP PUSH32 0xF33E6C2830A520247E18ADB7A79E1BA0158D192DDB985FAE65FB8C4A1A209BFF DUP4 DUP4 DUP4 PUSH1 0x40 MLOAD PUSH2 0x247D SWAP4 SWAP3 SWAP2 SWAP1 PUSH2 0x4D8E JUMP JUMPDEST PUSH1 0x40 MLOAD DUP1 SWAP2 SUB SWAP1 LOG1 POP POP POP JUMP JUMPDEST PUSH2 0x2495 DUP5 DUP5 DUP5 PUSH2 0x1BE8 JUMP JUMPDEST PUSH2 0x24A1 DUP5 DUP5 DUP5 DUP5 PUSH2 0x2CE8 JUMP JUMPDEST PUSH2 0x24E0 JUMPI PUSH1 0x40 MLOAD PUSH32 0x8C379A000000000000000000000000000000000000000000000000000000000 DUP2 MSTORE PUSH1 0x4 ADD PUSH2 0x24D7 SWAP1 PUSH2 0x4E45 JUMP JUMPDEST PUSH1 0x40 MLOAD DUP1 SWAP2 SUB SWAP1 REVERT JUMPDEST POP POP POP POP JUMP JUMPDEST PUSH1 0x60 PUSH1 0xD DUP1 SLOAD PUSH2 0x24F5 SWAP1 PUSH2 0x4067 JUMP JUMPDEST DUP1 PUSH1 0x1F ADD PUSH1 0x20 DUP1 SWAP2 DIV MUL PUSH1 0x20 ADD PUSH1 0x40 MLOAD SWAP1 DUP2 ADD PUSH1 0x40 MSTORE DUP1 SWAP3 SWAP2 SWAP1 DUP2 DUP2 MSTORE PUSH1 0x20 ADD DUP3 DUP1 SLOAD PUSH2 0x2521 SWAP1 PUSH2 0x4067 JUMP JUMPDEST DUP1 ISZERO PUSH2 0x256E JUMPI DUP1 PUSH1 0x1F LT PUSH2 0x2543 JUMPI PUSH2 0x100 DUP1 DUP4 SLOAD DIV MUL DUP4 MSTORE SWAP2 PUSH1 0x20 ADD SWAP2 PUSH2 0x256E JUMP JUMPDEST DUP3 ADD SWAP2 SWAP1 PUSH1 0x0 MSTORE PUSH1 0x20 PUSH1 0x0 KECCAK256 SWAP1 JUMPDEST DUP2 SLOAD DUP2 MSTORE SWAP1 PUSH1 0x1 ADD SWAP1 PUSH1 0x20 ADD DUP1 DUP4 GT PUSH2 0x2551 JUMPI DUP3 SWAP1 SUB PUSH1 0x1F AND DUP3 ADD SWAP2 JUMPDEST POP POP POP POP POP SWAP1 POP SWAP1 JUMP JUMPDEST PUSH1 0x60 PUSH1 0x0 DUP3 EQ ISZERO PUSH2 0x25C0 JUMPI PUSH1 0x40 MLOAD DUP1 PUSH1 0x40 ADD PUSH1 0x40 MSTORE DUP1 PUSH1 0x1 DUP2 MSTORE PUSH1 0x20 ADD PUSH32 0x3000000000000000000000000000000000000000000000000000000000000000 DUP2 MSTORE POP SWAP1 POP PUSH2 0x26D4 JUMP JUMPDEST PUSH1 0x0 DUP3 SWAP1 POP PUSH1 0x0 JUMPDEST PUSH1 0x0 DUP3 EQ PUSH2 0x25F2 JUMPI DUP1 DUP1 PUSH2 0x25DB SWAP1 PUSH2 0x4E65 JUMP JUMPDEST SWAP2 POP POP PUSH1 0xA DUP3 PUSH2 0x25EB SWAP2 SWAP1 PUSH2 0x4EAE JUMP JUMPDEST SWAP2 POP PUSH2 0x25C8 JUMP JUMPDEST PUSH1 0x0 DUP2 PUSH8 0xFFFFFFFFFFFFFFFF DUP2 GT ISZERO PUSH2 0x260E JUMPI PUSH2 0x260D PUSH2 0x395D JUMP JUMPDEST JUMPDEST PUSH1 0x40 MLOAD SWAP1 DUP1 DUP3 MSTORE DUP1 PUSH1 0x1F ADD PUSH1 0x1F NOT AND PUSH1 0x20 ADD DUP3 ADD PUSH1 0x40 MSTORE DUP1 ISZERO PUSH2 0x2640 JUMPI DUP2 PUSH1 0x20 ADD PUSH1 0x1 DUP3 MUL DUP1 CALLDATASIZE DUP4 CALLDATACOPY DUP1 DUP3 ADD SWAP2 POP POP SWAP1 POP JUMPDEST POP SWAP1 POP JUMPDEST PUSH1 0x0 DUP6 EQ PUSH2 0x26CD JUMPI PUSH1 0x1 DUP3 PUSH2 0x2659 SWAP2 SWAP1 PUSH2 0x4BB0 JUMP JUMPDEST SWAP2 POP PUSH1 0xA DUP6 PUSH2 0x2668 SWAP2 SWAP1 PUSH2 0x47FA JUMP JUMPDEST PUSH1 0x30 PUSH2 0x2674 SWAP2 SWAP1 PUSH2 0x48C6 JUMP JUMPDEST PUSH1 0xF8 SHL DUP2 DUP4 DUP2 MLOAD DUP2 LT PUSH2 0x268A JUMPI PUSH2 0x2689 PUSH2 0x4497 JUMP JUMPDEST JUMPDEST PUSH1 0x20 ADD ADD SWAP1 PUSH31 0xFFFFFFFFFFFFFFFFFFFFFFFFFFFFFFFFFFFFFFFFFFFFFFFFFFFFFFFFFFFFFF NOT AND SWAP1 DUP2 PUSH1 0x0 BYTE SWAP1 MSTORE8 POP PUSH1 0xA DUP6 PUSH2 0x26C6 SWAP2 SWAP1 PUSH2 0x4EAE JUMP JUMPDEST SWAP5 POP PUSH2 0x2644 JUMP JUMPDEST DUP1 SWAP4 POP POP POP POP JUMPDEST SWAP2 SWAP1 POP JUMP JUMPDEST PUSH1 0x0 DUP1 PUSH1 0x0 SWAP1 POP JUMPDEST DUP3 MLOAD DUP2 LT ISZERO PUSH2 0x27E5 JUMPI PUSH1 0x0 PUSH1 0x30 DUP5 DUP4 DUP2 MLOAD DUP2 LT PUSH2 0x2701 JUMPI PUSH2 0x2700 PUSH2 0x4497 JUMP JUMPDEST JUMPDEST PUSH1 0x20 ADD ADD MLOAD PUSH1 0xF8 SHR PUSH1 0xF8 SHL PUSH1 0xF8 SHR PUSH2 0x2719 SWAP2 SWAP1 PUSH2 0x4EEC JUMP JUMPDEST PUSH1 0xFF AND LT DUP1 PUSH2 0x2757 JUMPI POP PUSH1 0x9 PUSH1 0x30 DUP5 DUP4 DUP2 MLOAD DUP2 LT PUSH2 0x273A JUMPI PUSH2 0x2739 PUSH2 0x4497 JUMP JUMPDEST JUMPDEST PUSH1 0x20 ADD ADD MLOAD PUSH1 0xF8 SHR PUSH1 0xF8 SHL PUSH1 0xF8 SHR PUSH2 0x2752 SWAP2 SWAP1 PUSH2 0x4EEC JUMP JUMPDEST PUSH1 0xFF AND GT JUMPDEST ISZERO PUSH2 0x2766 JUMPI PUSH1 0x0 SWAP2 POP POP PUSH2 0x27E7 JUMP JUMPDEST PUSH1 0x1 DUP2 DUP5 MLOAD PUSH2 0x2775 SWAP2 SWAP1 PUSH2 0x4BB0 JUMP JUMPDEST PUSH2 0x277F SWAP2 SWAP1 PUSH2 0x4BB0 JUMP JUMPDEST PUSH1 0xA PUSH2 0x278B SWAP2 SWAP1 PUSH2 0x5053 JUMP JUMPDEST PUSH1 0x30 DUP5 DUP4 DUP2 MLOAD DUP2 LT PUSH2 0x27A0 JUMPI PUSH2 0x279F PUSH2 0x4497 JUMP JUMPDEST JUMPDEST PUSH1 0x20 ADD ADD MLOAD PUSH1 0xF8 SHR PUSH1 0xF8 SHL PUSH1 0xF8 SHR PUSH2 0x27B8 SWAP2 SWAP1 PUSH2 0x4EEC JUMP JUMPDEST PUSH1 0xFF AND PUSH2 0x27C5 SWAP2 SWAP1 PUSH2 0x509E JUMP JUMPDEST DUP3 PUSH2 0x27D0 SWAP2 SWAP1 PUSH2 0x48C6 JUMP JUMPDEST SWAP2 POP DUP1 DUP1 PUSH2 0x27DD SWAP1 PUSH2 0x4E65 JUMP JUMPDEST SWAP2 POP POP PUSH2 0x26E1 JUMP JUMPDEST POP JUMPDEST SWAP2 SWAP1 POP JUMP JUMPDEST PUSH1 0x0 PUSH20 0xFFFFFFFFFFFFFFFFFFFFFFFFFFFFFFFFFFFFFFFF AND DUP3 PUSH20 0xFFFFFFFFFFFFFFFFFFFFFFFFFFFFFFFFFFFFFFFF AND EQ ISZERO PUSH2 0x285C JUMPI PUSH1 0x40 MLOAD PUSH32 0x8C379A000000000000000000000000000000000000000000000000000000000 DUP2 MSTORE PUSH1 0x4 ADD PUSH2 0x2853 SWAP1 PUSH2 0x5144 JUMP JUMPDEST PUSH1 0x40 MLOAD DUP1 SWAP2 SUB SWAP1 REVERT JUMPDEST PUSH2 0x2865 DUP2 PUSH2 0x19DD JUMP JUMPDEST ISZERO PUSH2 0x28A5 JUMPI PUSH1 0x40 MLOAD PUSH32 0x8C379A000000000000000000000000000000000000000000000000000000000 DUP2 MSTORE PUSH1 0x4 ADD PUSH2 0x289C SWAP1 PUSH2 0x51B0 JUMP JUMPDEST PUSH1 0x40 MLOAD DUP1 SWAP2 SUB SWAP1 REVERT JUMPDEST PUSH2 0x28B1 PUSH1 0x0 DUP4 DUP4 PUSH2 0x2A9C JUMP JUMPDEST PUSH1 0x1 PUSH1 0x5 PUSH1 0x0 DUP5 PUSH20 0xFFFFFFFFFFFFFFFFFFFFFFFFFFFFFFFFFFFFFFFF AND PUSH20 0xFFFFFFFFFFFFFFFFFFFFFFFFFFFFFFFFFFFFFFFF AND DUP2 MSTORE PUSH1 0x20 ADD SWAP1 DUP2 MSTORE PUSH1 0x20 ADD PUSH1 0x0 KECCAK256 PUSH1 0x0 DUP3 DUP3 SLOAD PUSH2 0x2901 SWAP2 SWAP1 PUSH2 0x48C6 JUMP JUMPDEST SWAP3 POP POP DUP2 SWAP1 SSTORE POP DUP2 PUSH1 0x4 PUSH1 0x0 DUP4 DUP2 MSTORE PUSH1 0x20 ADD SWAP1 DUP2 MSTORE PUSH1 0x20 ADD PUSH1 0x0 KECCAK256 PUSH1 0x0 PUSH2 0x100 EXP DUP2 SLOAD DUP2 PUSH20 0xFFFFFFFFFFFFFFFFFFFFFFFFFFFFFFFFFFFFFFFF MUL NOT AND SWAP1 DUP4 PUSH20 0xFFFFFFFFFFFFFFFFFFFFFFFFFFFFFFFFFFFFFFFF AND MUL OR SWAP1 SSTORE POP DUP1 DUP3 PUSH20 0xFFFFFFFFFFFFFFFFFFFFFFFFFFFFFFFFFFFFFFFF AND PUSH1 0x0 PUSH20 0xFFFFFFFFFFFFFFFFFFFFFFFFFFFFFFFFFFFFFFFF AND PUSH32 0xDDF252AD1BE2C89B69C2B068FC378DAA952BA7F163C4A11628F55A4DF523B3EF PUSH1 0x40 MLOAD PUSH1 0x40 MLOAD DUP1 SWAP2 SUB SWAP1 LOG4 POP POP JUMP JUMPDEST PUSH1 0x0 PUSH32 0x80AC58CD00000000000000000000000000000000000000000000000000000000 PUSH28 0xFFFFFFFFFFFFFFFFFFFFFFFFFFFFFFFFFFFFFFFFFFFFFFFFFFFFFFFF NOT AND DUP3 PUSH28 0xFFFFFFFFFFFFFFFFFFFFFFFFFFFFFFFFFFFFFFFFFFFFFFFFFFFFFFFF NOT AND EQ DUP1 PUSH2 0x2A85 JUMPI POP PUSH32 0x5B5E139F00000000000000000000000000000000000000000000000000000000 PUSH28 0xFFFFFFFFFFFFFFFFFFFFFFFFFFFFFFFFFFFFFFFFFFFFFFFFFFFFFFFF NOT AND DUP3 PUSH28 0xFFFFFFFFFFFFFFFFFFFFFFFFFFFFFFFFFFFFFFFFFFFFFFFFFFFFFFFF NOT AND EQ JUMPDEST DUP1 PUSH2 0x2A95 JUMPI POP PUSH2 0x2A94 DUP3 PUSH2 0x2E7F JUMP JUMPDEST JUMPDEST SWAP1 POP SWAP2 SWAP1 POP JUMP JUMPDEST PUSH2 0x2AA7 DUP4 DUP4 DUP4 PUSH2 0x2EF9 JUMP JUMPDEST POP POP POP JUMP JUMPDEST PUSH1 0x60 PUSH1 0x0 PUSH1 0x2 DUP4 PUSH1 0x2 PUSH2 0x2ABF SWAP2 SWAP1 PUSH2 0x509E JUMP JUMPDEST PUSH2 0x2AC9 SWAP2 SWAP1 PUSH2 0x48C6 JUMP JUMPDEST PUSH8 0xFFFFFFFFFFFFFFFF DUP2 GT ISZERO PUSH2 0x2AE2 JUMPI PUSH2 0x2AE1 PUSH2 0x395D JUMP JUMPDEST JUMPDEST PUSH1 0x40 MLOAD SWAP1 DUP1 DUP3 MSTORE DUP1 PUSH1 0x1F ADD PUSH1 0x1F NOT AND PUSH1 0x20 ADD DUP3 ADD PUSH1 0x40 MSTORE DUP1 ISZERO PUSH2 0x2B14 JUMPI DUP2 PUSH1 0x20 ADD PUSH1 0x1 DUP3 MUL DUP1 CALLDATASIZE DUP4 CALLDATACOPY DUP1 DUP3 ADD SWAP2 POP POP SWAP1 POP JUMPDEST POP SWAP1 POP PUSH32 0x3000000000000000000000000000000000000000000000000000000000000000 DUP2 PUSH1 0x0 DUP2 MLOAD DUP2 LT PUSH2 0x2B4C JUMPI PUSH2 0x2B4B PUSH2 0x4497 JUMP JUMPDEST JUMPDEST PUSH1 0x20 ADD ADD SWAP1 PUSH31 0xFFFFFFFFFFFFFFFFFFFFFFFFFFFFFFFFFFFFFFFFFFFFFFFFFFFFFFFFFFFFFF NOT AND SWAP1 DUP2 PUSH1 0x0 BYTE SWAP1 MSTORE8 POP PUSH32 0x7800000000000000000000000000000000000000000000000000000000000000 DUP2 PUSH1 0x1 DUP2 MLOAD DUP2 LT PUSH2 0x2BB0 JUMPI PUSH2 0x2BAF PUSH2 0x4497 JUMP JUMPDEST JUMPDEST PUSH1 0x20 ADD ADD SWAP1 PUSH31 0xFFFFFFFFFFFFFFFFFFFFFFFFFFFFFFFFFFFFFFFFFFFFFFFFFFFFFFFFFFFFFF NOT AND SWAP1 DUP2 PUSH1 0x0 BYTE SWAP1 MSTORE8 POP PUSH1 0x0 PUSH1 0x1 DUP5 PUSH1 0x2 PUSH2 0x2BF0 SWAP2 SWAP1 PUSH2 0x509E JUMP JUMPDEST PUSH2 0x2BFA SWAP2 SWAP1 PUSH2 0x48C6 JUMP JUMPDEST SWAP1 POP JUMPDEST PUSH1 0x1 DUP2 GT ISZERO PUSH2 0x2C9A JUMPI PUSH32 0x3031323334353637383961626364656600000000000000000000000000000000 PUSH1 0xF DUP7 AND PUSH1 0x10 DUP2 LT PUSH2 0x2C3C JUMPI PUSH2 0x2C3B PUSH2 0x4497 JUMP JUMPDEST JUMPDEST BYTE PUSH1 0xF8 SHL DUP3 DUP3 DUP2 MLOAD DUP2 LT PUSH2 0x2C53 JUMPI PUSH2 0x2C52 PUSH2 0x4497 JUMP JUMPDEST JUMPDEST PUSH1 0x20 ADD ADD SWAP1 PUSH31 0xFFFFFFFFFFFFFFFFFFFFFFFFFFFFFFFFFFFFFFFFFFFFFFFFFFFFFFFFFFFFFF NOT AND SWAP1 DUP2 PUSH1 0x0 BYTE SWAP1 MSTORE8 POP PUSH1 0x4 DUP6 SWAP1 SHR SWAP5 POP DUP1 PUSH2 0x2C93 SWAP1 PUSH2 0x51D0 JUMP JUMPDEST SWAP1 POP PUSH2 0x2BFD JUMP JUMPDEST POP PUSH1 0x0 DUP5 EQ PUSH2 0x2CDE JUMPI PUSH1 0x40 MLOAD PUSH32 0x8C379A000000000000000000000000000000000000000000000000000000000 DUP2 MSTORE PUSH1 0x4 ADD PUSH2 0x2CD5 SWAP1 PUSH2 0x5246 JUMP JUMPDEST PUSH1 0x40 MLOAD DUP1 SWAP2 SUB SWAP1 REVERT JUMPDEST DUP1 SWAP2 POP POP SWAP3 SWAP2 POP POP JUMP JUMPDEST PUSH1 0x0 PUSH2 0x2D09 DUP5 PUSH20 0xFFFFFFFFFFFFFFFFFFFFFFFFFFFFFFFFFFFFFFFF AND PUSH2 0x2F51 JUMP JUMPDEST ISZERO PUSH2 0x2E72 JUMPI DUP4 PUSH20 0xFFFFFFFFFFFFFFFFFFFFFFFFFFFFFFFFFFFFFFFF AND PUSH4 0x150B7A02 PUSH2 0x2D32 PUSH2 0x1A49 JUMP JUMPDEST DUP8 DUP7 DUP7 PUSH1 0x40 MLOAD DUP6 PUSH4 0xFFFFFFFF AND PUSH1 0xE0 SHL DUP2 MSTORE PUSH1 0x4 ADD PUSH2 0x2D54 SWAP5 SWAP4 SWAP3 SWAP2 SWAP1 PUSH2 0x52BB JUMP JUMPDEST PUSH1 0x20 PUSH1 0x40 MLOAD DUP1 DUP4 SUB DUP2 PUSH1 0x0 DUP8 DUP1 EXTCODESIZE ISZERO DUP1 ISZERO PUSH2 0x2D6E JUMPI PUSH1 0x0 DUP1 REVERT JUMPDEST POP GAS CALL SWAP3 POP POP POP DUP1 ISZERO PUSH2 0x2D9F JUMPI POP PUSH1 0x40 MLOAD RETURNDATASIZE PUSH1 0x1F NOT PUSH1 0x1F DUP3 ADD AND DUP3 ADD DUP1 PUSH1 0x40 MSTORE POP DUP2 ADD SWAP1 PUSH2 0x2D9C SWAP2 SWAP1 PUSH2 0x531C JUMP JUMPDEST PUSH1 0x1 JUMPDEST PUSH2 0x2E22 JUMPI RETURNDATASIZE DUP1 PUSH1 0x0 DUP2 EQ PUSH2 0x2DCF JUMPI PUSH1 0x40 MLOAD SWAP2 POP PUSH1 0x1F NOT PUSH1 0x3F RETURNDATASIZE ADD AND DUP3 ADD PUSH1 0x40 MSTORE RETURNDATASIZE DUP3 MSTORE RETURNDATASIZE PUSH1 0x0 PUSH1 0x20 DUP5 ADD RETURNDATACOPY PUSH2 0x2DD4 JUMP JUMPDEST PUSH1 0x60 SWAP2 POP JUMPDEST POP PUSH1 0x0 DUP2 MLOAD EQ ISZERO PUSH2 0x2E1A JUMPI PUSH1 0x40 MLOAD PUSH32 0x8C379A000000000000000000000000000000000000000000000000000000000 DUP2 MSTORE PUSH1 0x4 ADD PUSH2 0x2E11 SWAP1 PUSH2 0x4E45 JUMP JUMPDEST PUSH1 0x40 MLOAD DUP1 SWAP2 SUB SWAP1 REVERT JUMPDEST DUP1 MLOAD DUP2 PUSH1 0x20 ADD REVERT JUMPDEST PUSH4 0x150B7A02 PUSH1 0xE0 SHL PUSH28 0xFFFFFFFFFFFFFFFFFFFFFFFFFFFFFFFFFFFFFFFFFFFFFFFFFFFFFFFF NOT AND DUP2 PUSH28 0xFFFFFFFFFFFFFFFFFFFFFFFFFFFFFFFFFFFFFFFFFFFFFFFFFFFFFFFF NOT AND EQ SWAP2 POP POP PUSH2 0x2E77 JUMP JUMPDEST PUSH1 0x1 SWAP1 POP JUMPDEST SWAP5 SWAP4 POP POP POP POP JUMP JUMPDEST PUSH1 0x0 PUSH32 0x7965DB0B00000000000000000000000000000000000000000000000000000000 PUSH28 0xFFFFFFFFFFFFFFFFFFFFFFFFFFFFFFFFFFFFFFFFFFFFFFFFFFFFFFFF NOT AND DUP3 PUSH28 0xFFFFFFFFFFFFFFFFFFFFFFFFFFFFFFFFFFFFFFFFFFFFFFFFFFFFFFFF NOT AND EQ DUP1 PUSH2 0x2EF2 JUMPI POP PUSH2 0x2EF1 DUP3 PUSH2 0x2F64 JUMP JUMPDEST JUMPDEST SWAP1 POP SWAP2 SWAP1 POP JUMP JUMPDEST PUSH2 0x2F04 DUP4 DUP4 DUP4 PUSH2 0x2FCE JUMP JUMPDEST PUSH2 0x2F0C PUSH2 0xDFA JUMP JUMPDEST ISZERO PUSH2 0x2F4C JUMPI PUSH1 0x40 MLOAD PUSH32 0x8C379A000000000000000000000000000000000000000000000000000000000 DUP2 MSTORE PUSH1 0x4 ADD PUSH2 0x2F43 SWAP1 PUSH2 0x53BB JUMP JUMPDEST PUSH1 0x40 MLOAD DUP1 SWAP2 SUB SWAP1 REVERT JUMPDEST POP POP POP JUMP JUMPDEST PUSH1 0x0 DUP1 DUP3 EXTCODESIZE SWAP1 POP PUSH1 0x0 DUP2 GT SWAP2 POP POP SWAP2 SWAP1 POP JUMP JUMPDEST PUSH1 0x0 PUSH32 0x1FFC9A700000000000000000000000000000000000000000000000000000000 PUSH28 0xFFFFFFFFFFFFFFFFFFFFFFFFFFFFFFFFFFFFFFFFFFFFFFFFFFFFFFFF NOT AND DUP3 PUSH28 0xFFFFFFFFFFFFFFFFFFFFFFFFFFFFFFFFFFFFFFFFFFFFFFFFFFFFFFFF NOT AND EQ SWAP1 POP SWAP2 SWAP1 POP JUMP JUMPDEST PUSH2 0x2FD9 DUP4 DUP4 DUP4 PUSH2 0x30E2 JUMP JUMPDEST PUSH1 0x0 PUSH20 0xFFFFFFFFFFFFFFFFFFFFFFFFFFFFFFFFFFFFFFFF AND DUP4 PUSH20 0xFFFFFFFFFFFFFFFFFFFFFFFFFFFFFFFFFFFFFFFF AND EQ ISZERO PUSH2 0x301C JUMPI PUSH2 0x3017 DUP2 PUSH2 0x30E7 JUMP JUMPDEST PUSH2 0x305B JUMP JUMPDEST DUP2 PUSH20 0xFFFFFFFFFFFFFFFFFFFFFFFFFFFFFFFFFFFFFFFF AND DUP4 PUSH20 0xFFFFFFFFFFFFFFFFFFFFFFFFFFFFFFFFFFFFFFFF AND EQ PUSH2 0x305A JUMPI PUSH2 0x3059 DUP4 DUP3 PUSH2 0x3130 JUMP JUMPDEST JUMPDEST JUMPDEST PUSH1 0x0 PUSH20 0xFFFFFFFFFFFFFFFFFFFFFFFFFFFFFFFFFFFFFFFF AND DUP3 PUSH20 0xFFFFFFFFFFFFFFFFFFFFFFFFFFFFFFFFFFFFFFFF AND EQ ISZERO PUSH2 0x309E JUMPI PUSH2 0x3099 DUP2 PUSH2 0x329D JUMP JUMPDEST PUSH2 0x30DD JUMP JUMPDEST DUP3 PUSH20 0xFFFFFFFFFFFFFFFFFFFFFFFFFFFFFFFFFFFFFFFF AND DUP3 PUSH20 0xFFFFFFFFFFFFFFFFFFFFFFFFFFFFFFFFFFFFFFFF AND EQ PUSH2 0x30DC JUMPI PUSH2 0x30DB DUP3 DUP3 PUSH2 0x336E JUMP JUMPDEST JUMPDEST JUMPDEST POP POP POP JUMP JUMPDEST POP POP POP JUMP JUMPDEST PUSH1 0xA DUP1 SLOAD SWAP1 POP PUSH1 0xB PUSH1 0x0 DUP4 DUP2 MSTORE PUSH1 0x20 ADD SWAP1 DUP2 MSTORE PUSH1 0x20 ADD PUSH1 0x0 KECCAK256 DUP2 SWAP1 SSTORE POP PUSH1 0xA DUP2 SWAP1 DUP1 PUSH1 0x1 DUP2 SLOAD ADD DUP1 DUP3 SSTORE DUP1 SWAP2 POP POP PUSH1 0x1 SWAP1 SUB SWAP1 PUSH1 0x0 MSTORE PUSH1 0x20 PUSH1 0x0 KECCAK256 ADD PUSH1 0x0 SWAP1 SWAP2 SWAP1 SWAP2 SWAP1 SWAP2 POP SSTORE POP JUMP JUMPDEST PUSH1 0x0 PUSH1 0x1 PUSH2 0x313D DUP5 PUSH2 0xEC3 JUMP JUMPDEST PUSH2 0x3147 SWAP2 SWAP1 PUSH2 0x4BB0 JUMP JUMPDEST SWAP1 POP PUSH1 0x0 PUSH1 0x9 PUSH1 0x0 DUP5 DUP2 MSTORE PUSH1 0x20 ADD SWAP1 DUP2 MSTORE PUSH1 0x20 ADD PUSH1 0x0 KECCAK256 SLOAD SWAP1 POP DUP2 DUP2 EQ PUSH2 0x322C JUMPI PUSH1 0x0 PUSH1 0x8 PUSH1 0x0 DUP7 PUSH20 0xFFFFFFFFFFFFFFFFFFFFFFFFFFFFFFFFFFFFFFFF AND PUSH20 0xFFFFFFFFFFFFFFFFFFFFFFFFFFFFFFFFFFFFFFFF AND DUP2 MSTORE PUSH1 0x20 ADD SWAP1 DUP2 MSTORE PUSH1 0x20 ADD PUSH1 0x0 KECCAK256 PUSH1 0x0 DUP5 DUP2 MSTORE PUSH1 0x20 ADD SWAP1 DUP2 MSTORE PUSH1 0x20 ADD PUSH1 0x0 KECCAK256 SLOAD SWAP1 POP DUP1 PUSH1 0x8 PUSH1 0x0 DUP8 PUSH20 0xFFFFFFFFFFFFFFFFFFFFFFFFFFFFFFFFFFFFFFFF AND PUSH20 0xFFFFFFFFFFFFFFFFFFFFFFFFFFFFFFFFFFFFFFFF AND DUP2 MSTORE PUSH1 0x20 ADD SWAP1 DUP2 MSTORE PUSH1 0x20 ADD PUSH1 0x0 KECCAK256 PUSH1 0x0 DUP5 DUP2 MSTORE PUSH1 0x20 ADD SWAP1 DUP2 MSTORE PUSH1 0x20 ADD PUSH1 0x0 KECCAK256 DUP2 SWAP1 SSTORE POP DUP2 PUSH1 0x9 PUSH1 0x0 DUP4 DUP2 MSTORE PUSH1 0x20 ADD SWAP1 DUP2 MSTORE PUSH1 0x20 ADD PUSH1 0x0 KECCAK256 DUP2 SWAP1 SSTORE POP POP JUMPDEST PUSH1 0x9 PUSH1 0x0 DUP5 DUP2 MSTORE PUSH1 0x20 ADD SWAP1 DUP2 MSTORE PUSH1 0x20 ADD PUSH1 0x0 KECCAK256 PUSH1 0x0 SWAP1 SSTORE PUSH1 0x8 PUSH1 0x0 DUP6 PUSH20 0xFFFFFFFFFFFFFFFFFFFFFFFFFFFFFFFFFFFFFFFF AND PUSH20 0xFFFFFFFFFFFFFFFFFFFFFFFFFFFFFFFFFFFFFFFF AND DUP2 MSTORE PUSH1 0x20 ADD SWAP1 DUP2 MSTORE PUSH1 0x20 ADD PUSH1 0x0 KECCAK256 PUSH1 0x0 DUP4 DUP2 MSTORE PUSH1 0x20 ADD SWAP1 DUP2 MSTORE PUSH1 0x20 ADD PUSH1 0x0 KECCAK256 PUSH1 0x0 SWAP1 SSTORE POP POP POP POP JUMP JUMPDEST PUSH1 0x0 PUSH1 0x1 PUSH1 0xA DUP1 SLOAD SWAP1 POP PUSH2 0x32B1 SWAP2 SWAP1 PUSH2 0x4BB0 JUMP JUMPDEST SWAP1 POP PUSH1 0x0 PUSH1 0xB PUSH1 0x0 DUP5 DUP2 MSTORE PUSH1 0x20 ADD SWAP1 DUP2 MSTORE PUSH1 0x20 ADD PUSH1 0x0 KECCAK256 SLOAD SWAP1 POP PUSH1 0x0 PUSH1 0xA DUP4 DUP2 SLOAD DUP2 LT PUSH2 0x32E1 JUMPI PUSH2 0x32E0 PUSH2 0x4497 JUMP JUMPDEST JUMPDEST SWAP1 PUSH1 0x0 MSTORE PUSH1 0x20 PUSH1 0x0 KECCAK256 ADD SLOAD SWAP1 POP DUP1 PUSH1 0xA DUP4 DUP2 SLOAD DUP2 LT PUSH2 0x3303 JUMPI PUSH2 0x3302 PUSH2 0x4497 JUMP JUMPDEST JUMPDEST SWAP1 PUSH1 0x0 MSTORE PUSH1 0x20 PUSH1 0x0 KECCAK256 ADD DUP2 SWAP1 SSTORE POP DUP2 PUSH1 0xB PUSH1 0x0 DUP4 DUP2 MSTORE PUSH1 0x20 ADD SWAP1 DUP2 MSTORE PUSH1 0x20 ADD PUSH1 0x0 KECCAK256 DUP2 SWAP1 SSTORE POP PUSH1 0xB PUSH1 0x0 DUP6 DUP2 MSTORE PUSH1 0x20 ADD SWAP1 DUP2 MSTORE PUSH1 0x20 ADD PUSH1 0x0 KECCAK256 PUSH1 0x0 SWAP1 SSTORE PUSH1 0xA DUP1 SLOAD DUP1 PUSH2 0x3352 JUMPI PUSH2 0x3351 PUSH2 0x53DB JUMP JUMPDEST JUMPDEST PUSH1 0x1 SWAP1 SUB DUP2 DUP2 SWAP1 PUSH1 0x0 MSTORE PUSH1 0x20 PUSH1 0x0 KECCAK256 ADD PUSH1 0x0 SWAP1 SSTORE SWAP1 SSTORE POP POP POP POP JUMP JUMPDEST PUSH1 0x0 PUSH2 0x3379 DUP4 PUSH2 0xEC3 JUMP JUMPDEST SWAP1 POP DUP2 PUSH1 0x8 PUSH1 0x0 DUP6 PUSH20 0xFFFFFFFFFFFFFFFFFFFFFFFFFFFFFFFFFFFFFFFF AND PUSH20 0xFFFFFFFFFFFFFFFFFFFFFFFFFFFFFFFFFFFFFFFF AND DUP2 MSTORE PUSH1 0x20 ADD SWAP1 DUP2 MSTORE PUSH1 0x20 ADD PUSH1 0x0 KECCAK256 PUSH1 0x0 DUP4 DUP2 MSTORE PUSH1 0x20 ADD SWAP1 DUP2 MSTORE PUSH1 0x20 ADD PUSH1 0x0 KECCAK256 DUP2 SWAP1 SSTORE POP DUP1 PUSH1 0x9 PUSH1 0x0 DUP5 DUP2 MSTORE PUSH1 0x20 ADD SWAP1 DUP2 MSTORE PUSH1 0x20 ADD PUSH1 0x0 KECCAK256 DUP2 SWAP1 SSTORE POP POP POP POP JUMP JUMPDEST DUP3 DUP1 SLOAD PUSH2 0x33F9 SWAP1 PUSH2 0x4067 JUMP JUMPDEST SWAP1 PUSH1 0x0 MSTORE PUSH1 0x20 PUSH1 0x0 KECCAK256 SWAP1 PUSH1 0x1F ADD PUSH1 0x20 SWAP1 DIV DUP2 ADD SWAP3 DUP3 PUSH2 0x341B JUMPI PUSH1 0x0 DUP6 SSTORE PUSH2 0x3462 JUMP JUMPDEST DUP3 PUSH1 0x1F LT PUSH2 0x3434 JUMPI DUP1 MLOAD PUSH1 0xFF NOT AND DUP4 DUP1 ADD OR DUP6 SSTORE PUSH2 0x3462 JUMP JUMPDEST DUP3 DUP1 ADD PUSH1 0x1 ADD DUP6 SSTORE DUP3 ISZERO PUSH2 0x3462 JUMPI SWAP2 DUP3 ADD JUMPDEST DUP3 DUP2 GT ISZERO PUSH2 0x3461 JUMPI DUP3 MLOAD DUP3 SSTORE SWAP2 PUSH1 0x20 ADD SWAP2 SWAP1 PUSH1 0x1 ADD SWAP1 PUSH2 0x3446 JUMP JUMPDEST JUMPDEST POP SWAP1 POP PUSH2 0x346F SWAP2 SWAP1 PUSH2 0x34D3 JUMP JUMPDEST POP SWAP1 JUMP JUMPDEST DUP3 DUP1 SLOAD DUP3 DUP3 SSTORE SWAP1 PUSH1 0x0 MSTORE PUSH1 0x20 PUSH1 0x0 KECCAK256 SWAP1 DUP2 ADD SWAP3 DUP3 ISZERO PUSH2 0x34C2 JUMPI SWAP2 PUSH1 0x20 MUL DUP3 ADD JUMPDEST DUP3 DUP2 GT ISZERO PUSH2 0x34C1 JUMPI DUP3 MLOAD DUP3 SWAP1 DUP1 MLOAD SWAP1 PUSH1 0x20 ADD SWAP1 PUSH2 0x34B1 SWAP3 SWAP2 SWAP1 PUSH2 0x33ED JUMP JUMPDEST POP SWAP2 PUSH1 0x20 ADD SWAP2 SWAP1 PUSH1 0x1 ADD SWAP1 PUSH2 0x3493 JUMP JUMPDEST JUMPDEST POP SWAP1 POP PUSH2 0x34CF SWAP2 SWAP1 PUSH2 0x34F0 JUMP JUMPDEST POP SWAP1 JUMP JUMPDEST JUMPDEST DUP1 DUP3 GT ISZERO PUSH2 0x34EC JUMPI PUSH1 0x0 DUP2 PUSH1 0x0 SWAP1 SSTORE POP PUSH1 0x1 ADD PUSH2 0x34D4 JUMP JUMPDEST POP SWAP1 JUMP JUMPDEST JUMPDEST DUP1 DUP3 GT ISZERO PUSH2 0x3510 JUMPI PUSH1 0x0 DUP2 DUP2 PUSH2 0x3507 SWAP2 SWAP1 PUSH2 0x3514 JUMP JUMPDEST POP PUSH1 0x1 ADD PUSH2 0x34F1 JUMP JUMPDEST POP SWAP1 JUMP JUMPDEST POP DUP1 SLOAD PUSH2 0x3520 SWAP1 PUSH2 0x4067 JUMP JUMPDEST PUSH1 0x0 DUP3 SSTORE DUP1 PUSH1 0x1F LT PUSH2 0x3532 JUMPI POP PUSH2 0x3551 JUMP JUMPDEST PUSH1 0x1F ADD PUSH1 0x20 SWAP1 DIV SWAP1 PUSH1 0x0 MSTORE PUSH1 0x20 PUSH1 0x0 KECCAK256 SWAP1 DUP2 ADD SWAP1 PUSH2 0x3550 SWAP2 SWAP1 PUSH2 0x34D3 JUMP JUMPDEST JUMPDEST POP JUMP JUMPDEST PUSH1 0x0 PUSH1 0x40 MLOAD SWAP1 POP SWAP1 JUMP JUMPDEST PUSH1 0x0 DUP1 REVERT JUMPDEST PUSH1 0x0 DUP1 REVERT JUMPDEST PUSH1 0x0 PUSH32 0xFFFFFFFF00000000000000000000000000000000000000000000000000000000 DUP3 AND SWAP1 POP SWAP2 SWAP1 POP JUMP JUMPDEST PUSH2 0x359D DUP2 PUSH2 0x3568 JUMP JUMPDEST DUP2 EQ PUSH2 0x35A8 JUMPI PUSH1 0x0 DUP1 REVERT JUMPDEST POP JUMP JUMPDEST PUSH1 0x0 DUP2 CALLDATALOAD SWAP1 POP PUSH2 0x35BA DUP2 PUSH2 0x3594 JUMP JUMPDEST SWAP3 SWAP2 POP POP JUMP JUMPDEST PUSH1 0x0 PUSH1 0x20 DUP3 DUP5 SUB SLT ISZERO PUSH2 0x35D6 JUMPI PUSH2 0x35D5 PUSH2 0x355E JUMP JUMPDEST JUMPDEST PUSH1 0x0 PUSH2 0x35E4 DUP5 DUP3 DUP6 ADD PUSH2 0x35AB JUMP JUMPDEST SWAP2 POP POP SWAP3 SWAP2 POP POP JUMP JUMPDEST PUSH1 0x0 DUP2 ISZERO ISZERO SWAP1 POP SWAP2 SWAP1 POP JUMP JUMPDEST PUSH2 0x3602 DUP2 PUSH2 0x35ED JUMP JUMPDEST DUP3 MSTORE POP POP JUMP JUMPDEST PUSH1 0x0 PUSH1 0x20 DUP3 ADD SWAP1 POP PUSH2 0x361D PUSH1 0x0 DUP4 ADD DUP5 PUSH2 0x35F9 JUMP JUMPDEST SWAP3 SWAP2 POP POP JUMP JUMPDEST PUSH1 0x0 DUP2 MLOAD SWAP1 POP SWAP2 SWAP1 POP JUMP JUMPDEST PUSH1 0x0 DUP3 DUP3 MSTORE PUSH1 0x20 DUP3 ADD SWAP1 POP SWAP3 SWAP2 POP POP JUMP JUMPDEST PUSH1 0x0 JUMPDEST DUP4 DUP2 LT ISZERO PUSH2 0x365D JUMPI DUP1 DUP3 ADD MLOAD DUP2 DUP5 ADD MSTORE PUSH1 0x20 DUP2 ADD SWAP1 POP PUSH2 0x3642 JUMP JUMPDEST DUP4 DUP2 GT ISZERO PUSH2 0x366C JUMPI PUSH1 0x0 DUP5 DUP5 ADD MSTORE JUMPDEST POP POP POP POP JUMP JUMPDEST PUSH1 0x0 PUSH1 0x1F NOT PUSH1 0x1F DUP4 ADD AND SWAP1 POP SWAP2 SWAP1 POP JUMP JUMPDEST PUSH1 0x0 PUSH2 0x368E DUP3 PUSH2 0x3623 JUMP JUMPDEST PUSH2 0x3698 DUP2 DUP6 PUSH2 0x362E JUMP JUMPDEST SWAP4 POP PUSH2 0x36A8 DUP2 DUP6 PUSH1 0x20 DUP7 ADD PUSH2 0x363F JUMP JUMPDEST PUSH2 0x36B1 DUP2 PUSH2 0x3672 JUMP JUMPDEST DUP5 ADD SWAP2 POP POP SWAP3 SWAP2 POP POP JUMP JUMPDEST PUSH1 0x0 PUSH1 0x20 DUP3 ADD SWAP1 POP DUP2 DUP2 SUB PUSH1 0x0 DUP4 ADD MSTORE PUSH2 0x36D6 DUP2 DUP5 PUSH2 0x3683 JUMP JUMPDEST SWAP1 POP SWAP3 SWAP2 POP POP JUMP JUMPDEST PUSH1 0x0 DUP2 SWAP1 POP SWAP2 SWAP1 POP JUMP JUMPDEST PUSH2 0x36F1 DUP2 PUSH2 0x36DE JUMP JUMPDEST DUP2 EQ PUSH2 0x36FC JUMPI PUSH1 0x0 DUP1 REVERT JUMPDEST POP JUMP JUMPDEST PUSH1 0x0 DUP2 CALLDATALOAD SWAP1 POP PUSH2 0x370E DUP2 PUSH2 0x36E8 JUMP JUMPDEST SWAP3 SWAP2 POP POP JUMP JUMPDEST PUSH1 0x0 PUSH1 0x20 DUP3 DUP5 SUB SLT ISZERO PUSH2 0x372A JUMPI PUSH2 0x3729 PUSH2 0x355E JUMP JUMPDEST JUMPDEST PUSH1 0x0 PUSH2 0x3738 DUP5 DUP3 DUP6 ADD PUSH2 0x36FF JUMP JUMPDEST SWAP2 POP POP SWAP3 SWAP2 POP POP JUMP JUMPDEST PUSH1 0x0 PUSH20 0xFFFFFFFFFFFFFFFFFFFFFFFFFFFFFFFFFFFFFFFF DUP3 AND SWAP1 POP SWAP2 SWAP1 POP JUMP JUMPDEST PUSH1 0x0 PUSH2 0x376C DUP3 PUSH2 0x3741 JUMP JUMPDEST SWAP1 POP SWAP2 SWAP1 POP JUMP JUMPDEST PUSH2 0x377C DUP2 PUSH2 0x3761 JUMP JUMPDEST DUP3 MSTORE POP POP JUMP JUMPDEST PUSH1 0x0 PUSH1 0x20 DUP3 ADD SWAP1 POP PUSH2 0x3797 PUSH1 0x0 DUP4 ADD DUP5 PUSH2 0x3773 JUMP JUMPDEST SWAP3 SWAP2 POP POP JUMP JUMPDEST PUSH2 0x37A6 DUP2 PUSH2 0x3761 JUMP JUMPDEST DUP2 EQ PUSH2 0x37B1 JUMPI PUSH1 0x0 DUP1 REVERT JUMPDEST POP JUMP JUMPDEST PUSH1 0x0 DUP2 CALLDATALOAD SWAP1 POP PUSH2 0x37C3 DUP2 PUSH2 0x379D JUMP JUMPDEST SWAP3 SWAP2 POP POP JUMP JUMPDEST PUSH1 0x0 DUP1 PUSH1 0x40 DUP4 DUP6 SUB SLT ISZERO PUSH2 0x37E0 JUMPI PUSH2 0x37DF PUSH2 0x355E JUMP JUMPDEST JUMPDEST PUSH1 0x0 PUSH2 0x37EE DUP6 DUP3 DUP7 ADD PUSH2 0x37B4 JUMP JUMPDEST SWAP3 POP POP PUSH1 0x20 PUSH2 0x37FF DUP6 DUP3 DUP7 ADD PUSH2 0x36FF JUMP JUMPDEST SWAP2 POP POP SWAP3 POP SWAP3 SWAP1 POP JUMP JUMPDEST PUSH2 0x3812 DUP2 PUSH2 0x36DE JUMP JUMPDEST DUP3 MSTORE POP POP JUMP JUMPDEST PUSH1 0x0 PUSH1 0x20 DUP3 ADD SWAP1 POP PUSH2 0x382D PUSH1 0x0 DUP4 ADD DUP5 PUSH2 0x3809 JUMP JUMPDEST SWAP3 SWAP2 POP POP JUMP JUMPDEST PUSH1 0x0 DUP1 PUSH1 0x0 PUSH1 0x60 DUP5 DUP7 SUB SLT ISZERO PUSH2 0x384C JUMPI PUSH2 0x384B PUSH2 0x355E JUMP JUMPDEST JUMPDEST PUSH1 0x0 PUSH2 0x385A DUP7 DUP3 DUP8 ADD PUSH2 0x37B4 JUMP JUMPDEST SWAP4 POP POP PUSH1 0x20 PUSH2 0x386B DUP7 DUP3 DUP8 ADD PUSH2 0x37B4 JUMP JUMPDEST SWAP3 POP POP PUSH1 0x40 PUSH2 0x387C DUP7 DUP3 DUP8 ADD PUSH2 0x36FF JUMP JUMPDEST SWAP2 POP POP SWAP3 POP SWAP3 POP SWAP3 JUMP JUMPDEST PUSH1 0x0 DUP2 SWAP1 POP SWAP2 SWAP1 POP JUMP JUMPDEST PUSH2 0x3899 DUP2 PUSH2 0x3886 JUMP JUMPDEST DUP2 EQ PUSH2 0x38A4 JUMPI PUSH1 0x0 DUP1 REVERT JUMPDEST POP JUMP JUMPDEST PUSH1 0x0 DUP2 CALLDATALOAD SWAP1 POP PUSH2 0x38B6 DUP2 PUSH2 0x3890 JUMP JUMPDEST SWAP3 SWAP2 POP POP JUMP JUMPDEST PUSH1 0x0 PUSH1 0x20 DUP3 DUP5 SUB SLT ISZERO PUSH2 0x38D2 JUMPI PUSH2 0x38D1 PUSH2 0x355E JUMP JUMPDEST JUMPDEST PUSH1 0x0 PUSH2 0x38E0 DUP5 DUP3 DUP6 ADD PUSH2 0x38A7 JUMP JUMPDEST SWAP2 POP POP SWAP3 SWAP2 POP POP JUMP JUMPDEST PUSH2 0x38F2 DUP2 PUSH2 0x3886 JUMP JUMPDEST DUP3 MSTORE POP POP JUMP JUMPDEST PUSH1 0x0 PUSH1 0x20 DUP3 ADD SWAP1 POP PUSH2 0x390D PUSH1 0x0 DUP4 ADD DUP5 PUSH2 0x38E9 JUMP JUMPDEST SWAP3 SWAP2 POP POP JUMP JUMPDEST PUSH1 0x0 DUP1 PUSH1 0x40 DUP4 DUP6 SUB SLT ISZERO PUSH2 0x392A JUMPI PUSH2 0x3929 PUSH2 0x355E JUMP JUMPDEST JUMPDEST PUSH1 0x0 PUSH2 0x3938 DUP6 DUP3 DUP7 ADD PUSH2 0x38A7 JUMP JUMPDEST SWAP3 POP POP PUSH1 0x20 PUSH2 0x3949 DUP6 DUP3 DUP7 ADD PUSH2 0x37B4 JUMP JUMPDEST SWAP2 POP POP SWAP3 POP SWAP3 SWAP1 POP JUMP JUMPDEST PUSH1 0x0 DUP1 REVERT JUMPDEST PUSH1 0x0 DUP1 REVERT JUMPDEST PUSH32 0x4E487B7100000000000000000000000000000000000000000000000000000000 PUSH1 0x0 MSTORE PUSH1 0x41 PUSH1 0x4 MSTORE PUSH1 0x24 PUSH1 0x0 REVERT JUMPDEST PUSH2 0x3995 DUP3 PUSH2 0x3672 JUMP JUMPDEST DUP2 ADD DUP2 DUP2 LT PUSH8 0xFFFFFFFFFFFFFFFF DUP3 GT OR ISZERO PUSH2 0x39B4 JUMPI PUSH2 0x39B3 PUSH2 0x395D JUMP JUMPDEST JUMPDEST DUP1 PUSH1 0x40 MSTORE POP POP POP JUMP JUMPDEST PUSH1 0x0 PUSH2 0x39C7 PUSH2 0x3554 JUMP JUMPDEST SWAP1 POP PUSH2 0x39D3 DUP3 DUP3 PUSH2 0x398C JUMP JUMPDEST SWAP2 SWAP1 POP JUMP JUMPDEST PUSH1 0x0 PUSH8 0xFFFFFFFFFFFFFFFF DUP3 GT ISZERO PUSH2 0x39F3 JUMPI PUSH2 0x39F2 PUSH2 0x395D JUMP JUMPDEST JUMPDEST PUSH2 0x39FC DUP3 PUSH2 0x3672 JUMP JUMPDEST SWAP1 POP PUSH1 0x20 DUP2 ADD SWAP1 POP SWAP2 SWAP1 POP JUMP JUMPDEST DUP3 DUP2 DUP4 CALLDATACOPY PUSH1 0x0 DUP4 DUP4 ADD MSTORE POP POP POP JUMP JUMPDEST PUSH1 0x0 PUSH2 0x3A2B PUSH2 0x3A26 DUP5 PUSH2 0x39D8 JUMP JUMPDEST PUSH2 0x39BD JUMP JUMPDEST SWAP1 POP DUP3 DUP2 MSTORE PUSH1 0x20 DUP2 ADD DUP5 DUP5 DUP5 ADD GT ISZERO PUSH2 0x3A47 JUMPI PUSH2 0x3A46 PUSH2 0x3958 JUMP JUMPDEST JUMPDEST PUSH2 0x3A52 DUP5 DUP3 DUP6 PUSH2 0x3A09 JUMP JUMPDEST POP SWAP4 SWAP3 POP POP POP JUMP JUMPDEST PUSH1 0x0 DUP3 PUSH1 0x1F DUP4 ADD SLT PUSH2 0x3A6F JUMPI PUSH2 0x3A6E PUSH2 0x3953 JUMP JUMPDEST JUMPDEST DUP2 CALLDATALOAD PUSH2 0x3A7F DUP5 DUP3 PUSH1 0x20 DUP7 ADD PUSH2 0x3A18 JUMP JUMPDEST SWAP2 POP POP SWAP3 SWAP2 POP POP JUMP JUMPDEST PUSH1 0x0 PUSH1 0x20 DUP3 DUP5 SUB SLT ISZERO PUSH2 0x3A9E JUMPI PUSH2 0x3A9D PUSH2 0x355E JUMP JUMPDEST JUMPDEST PUSH1 0x0 DUP3 ADD CALLDATALOAD PUSH8 0xFFFFFFFFFFFFFFFF DUP2 GT ISZERO PUSH2 0x3ABC JUMPI PUSH2 0x3ABB PUSH2 0x3563 JUMP JUMPDEST JUMPDEST PUSH2 0x3AC8 DUP5 DUP3 DUP6 ADD PUSH2 0x3A5A JUMP JUMPDEST SWAP2 POP POP SWAP3 SWAP2 POP POP JUMP JUMPDEST PUSH1 0x0 DUP1 PUSH1 0x40 DUP4 DUP6 SUB SLT ISZERO PUSH2 0x3AE8 JUMPI PUSH2 0x3AE7 PUSH2 0x355E JUMP JUMPDEST JUMPDEST PUSH1 0x0 PUSH2 0x3AF6 DUP6 DUP3 DUP7 ADD PUSH2 0x36FF JUMP JUMPDEST SWAP3 POP POP PUSH1 0x20 DUP4 ADD CALLDATALOAD PUSH8 0xFFFFFFFFFFFFFFFF DUP2 GT ISZERO PUSH2 0x3B17 JUMPI PUSH2 0x3B16 PUSH2 0x3563 JUMP JUMPDEST JUMPDEST PUSH2 0x3B23 DUP6 DUP3 DUP7 ADD PUSH2 0x3A5A JUMP JUMPDEST SWAP2 POP POP SWAP3 POP SWAP3 SWAP1 POP JUMP JUMPDEST PUSH1 0x0 PUSH1 0x20 DUP3 DUP5 SUB SLT ISZERO PUSH2 0x3B43 JUMPI PUSH2 0x3B42 PUSH2 0x355E JUMP JUMPDEST JUMPDEST PUSH1 0x0 PUSH2 0x3B51 DUP5 DUP3 DUP6 ADD PUSH2 0x37B4 JUMP JUMPDEST SWAP2 POP POP SWAP3 SWAP2 POP POP JUMP JUMPDEST PUSH1 0x0 DUP1 PUSH1 0x0 PUSH1 0x60 DUP5 DUP7 SUB SLT ISZERO PUSH2 0x3B73 JUMPI PUSH2 0x3B72 PUSH2 0x355E JUMP JUMPDEST JUMPDEST PUSH1 0x0 PUSH2 0x3B81 DUP7 DUP3 DUP8 ADD PUSH2 0x36FF JUMP JUMPDEST SWAP4 POP POP PUSH1 0x20 DUP5 ADD CALLDATALOAD PUSH8 0xFFFFFFFFFFFFFFFF DUP2 GT ISZERO PUSH2 0x3BA2 JUMPI PUSH2 0x3BA1 PUSH2 0x3563 JUMP JUMPDEST JUMPDEST PUSH2 0x3BAE DUP7 DUP3 DUP8 ADD PUSH2 0x3A5A JUMP JUMPDEST SWAP3 POP POP PUSH1 0x40 DUP5 ADD CALLDATALOAD PUSH8 0xFFFFFFFFFFFFFFFF DUP2 GT ISZERO PUSH2 0x3BCF JUMPI PUSH2 0x3BCE PUSH2 0x3563 JUMP JUMPDEST JUMPDEST PUSH2 0x3BDB DUP7 DUP3 DUP8 ADD PUSH2 0x3A5A JUMP JUMPDEST SWAP2 POP POP SWAP3 POP SWAP3 POP SWAP3 JUMP JUMPDEST PUSH2 0x3BEE DUP2 PUSH2 0x35ED JUMP JUMPDEST DUP2 EQ PUSH2 0x3BF9 JUMPI PUSH1 0x0 DUP1 REVERT JUMPDEST POP JUMP JUMPDEST PUSH1 0x0 DUP2 CALLDATALOAD SWAP1 POP PUSH2 0x3C0B DUP2 PUSH2 0x3BE5 JUMP JUMPDEST SWAP3 SWAP2 POP POP JUMP JUMPDEST PUSH1 0x0 DUP1 PUSH1 0x40 DUP4 DUP6 SUB SLT ISZERO PUSH2 0x3C28 JUMPI PUSH2 0x3C27 PUSH2 0x355E JUMP JUMPDEST JUMPDEST PUSH1 0x0 PUSH2 0x3C36 DUP6 DUP3 DUP7 ADD PUSH2 0x37B4 JUMP JUMPDEST SWAP3 POP POP PUSH1 0x20 PUSH2 0x3C47 DUP6 DUP3 DUP7 ADD PUSH2 0x3BFC JUMP JUMPDEST SWAP2 POP POP SWAP3 POP SWAP3 SWAP1 POP JUMP JUMPDEST PUSH1 0x0 DUP2 MLOAD SWAP1 POP SWAP2 SWAP1 POP JUMP JUMPDEST PUSH1 0x0 DUP3 DUP3 MSTORE PUSH1 0x20 DUP3 ADD SWAP1 POP SWAP3 SWAP2 POP POP JUMP JUMPDEST PUSH1 0x0 DUP2 SWAP1 POP PUSH1 0x20 DUP3 ADD SWAP1 POP SWAP2 SWAP1 POP JUMP JUMPDEST PUSH1 0x0 DUP3 DUP3 MSTORE PUSH1 0x20 DUP3 ADD SWAP1 POP SWAP3 SWAP2 POP POP JUMP JUMPDEST PUSH1 0x0 PUSH2 0x3C99 DUP3 PUSH2 0x3623 JUMP JUMPDEST PUSH2 0x3CA3 DUP2 DUP6 PUSH2 0x3C7D JUMP JUMPDEST SWAP4 POP PUSH2 0x3CB3 DUP2 DUP6 PUSH1 0x20 DUP7 ADD PUSH2 0x363F JUMP JUMPDEST PUSH2 0x3CBC DUP2 PUSH2 0x3672 JUMP JUMPDEST DUP5 ADD SWAP2 POP POP SWAP3 SWAP2 POP POP JUMP JUMPDEST PUSH1 0x0 PUSH2 0x3CD3 DUP4 DUP4 PUSH2 0x3C8E JUMP JUMPDEST SWAP1 POP SWAP3 SWAP2 POP POP JUMP JUMPDEST PUSH1 0x0 PUSH1 0x20 DUP3 ADD SWAP1 POP SWAP2 SWAP1 POP JUMP JUMPDEST PUSH1 0x0 PUSH2 0x3CF3 DUP3 PUSH2 0x3C51 JUMP JUMPDEST PUSH2 0x3CFD DUP2 DUP6 PUSH2 0x3C5C JUMP JUMPDEST SWAP4 POP DUP4 PUSH1 0x20 DUP3 MUL DUP6 ADD PUSH2 0x3D0F DUP6 PUSH2 0x3C6D JUMP JUMPDEST DUP1 PUSH1 0x0 JUMPDEST DUP6 DUP2 LT ISZERO PUSH2 0x3D4B JUMPI DUP5 DUP5 SUB DUP10 MSTORE DUP2 MLOAD PUSH2 0x3D2C DUP6 DUP3 PUSH2 0x3CC7 JUMP JUMPDEST SWAP5 POP PUSH2 0x3D37 DUP4 PUSH2 0x3CDB JUMP JUMPDEST SWAP3 POP PUSH1 0x20 DUP11 ADD SWAP10 POP POP PUSH1 0x1 DUP2 ADD SWAP1 POP PUSH2 0x3D13 JUMP JUMPDEST POP DUP3 SWAP8 POP DUP8 SWAP6 POP POP POP POP POP POP SWAP3 SWAP2 POP POP JUMP JUMPDEST PUSH1 0x0 PUSH1 0x20 DUP3 ADD SWAP1 POP DUP2 DUP2 SUB PUSH1 0x0 DUP4 ADD MSTORE PUSH2 0x3D77 DUP2 DUP5 PUSH2 0x3CE8 JUMP JUMPDEST SWAP1 POP SWAP3 SWAP2 POP POP JUMP JUMPDEST PUSH1 0x0 PUSH8 0xFFFFFFFFFFFFFFFF DUP3 GT ISZERO PUSH2 0x3D9A JUMPI PUSH2 0x3D99 PUSH2 0x395D JUMP JUMPDEST JUMPDEST PUSH2 0x3DA3 DUP3 PUSH2 0x3672 JUMP JUMPDEST SWAP1 POP PUSH1 0x20 DUP2 ADD SWAP1 POP SWAP2 SWAP1 POP JUMP JUMPDEST PUSH1 0x0 PUSH2 0x3DC3 PUSH2 0x3DBE DUP5 PUSH2 0x3D7F JUMP JUMPDEST PUSH2 0x39BD JUMP JUMPDEST SWAP1 POP DUP3 DUP2 MSTORE PUSH1 0x20 DUP2 ADD DUP5 DUP5 DUP5 ADD GT ISZERO PUSH2 0x3DDF JUMPI PUSH2 0x3DDE PUSH2 0x3958 JUMP JUMPDEST JUMPDEST PUSH2 0x3DEA DUP5 DUP3 DUP6 PUSH2 0x3A09 JUMP JUMPDEST POP SWAP4 SWAP3 POP POP POP JUMP JUMPDEST PUSH1 0x0 DUP3 PUSH1 0x1F DUP4 ADD SLT PUSH2 0x3E07 JUMPI PUSH2 0x3E06 PUSH2 0x3953 JUMP JUMPDEST JUMPDEST DUP2 CALLDATALOAD PUSH2 0x3E17 DUP5 DUP3 PUSH1 0x20 DUP7 ADD PUSH2 0x3DB0 JUMP JUMPDEST SWAP2 POP POP SWAP3 SWAP2 POP POP JUMP JUMPDEST PUSH1 0x0 DUP1 PUSH1 0x0 DUP1 PUSH1 0x80 DUP6 DUP8 SUB SLT ISZERO PUSH2 0x3E3A JUMPI PUSH2 0x3E39 PUSH2 0x355E JUMP JUMPDEST JUMPDEST PUSH1 0x0 PUSH2 0x3E48 DUP8 DUP3 DUP9 ADD PUSH2 0x37B4 JUMP JUMPDEST SWAP5 POP POP PUSH1 0x20 PUSH2 0x3E59 DUP8 DUP3 DUP9 ADD PUSH2 0x37B4 JUMP JUMPDEST SWAP4 POP POP PUSH1 0x40 PUSH2 0x3E6A DUP8 DUP3 DUP9 ADD PUSH2 0x36FF JUMP JUMPDEST SWAP3 POP POP PUSH1 0x60 DUP6 ADD CALLDATALOAD PUSH8 0xFFFFFFFFFFFFFFFF DUP2 GT ISZERO PUSH2 0x3E8B JUMPI PUSH2 0x3E8A PUSH2 0x3563 JUMP JUMPDEST JUMPDEST PUSH2 0x3E97 DUP8 DUP3 DUP9 ADD PUSH2 0x3DF2 JUMP JUMPDEST SWAP2 POP POP SWAP3 SWAP6 SWAP2 SWAP5 POP SWAP3 POP JUMP JUMPDEST PUSH1 0x0 PUSH8 0xFFFFFFFFFFFFFFFF DUP3 GT ISZERO PUSH2 0x3EBE JUMPI PUSH2 0x3EBD PUSH2 0x395D JUMP JUMPDEST JUMPDEST PUSH1 0x20 DUP3 MUL SWAP1 POP PUSH1 0x20 DUP2 ADD SWAP1 POP SWAP2 SWAP1 POP JUMP JUMPDEST PUSH1 0x0 DUP1 REVERT JUMPDEST PUSH1 0x0 PUSH2 0x3EE7 PUSH2 0x3EE2 DUP5 PUSH2 0x3EA3 JUMP JUMPDEST PUSH2 0x39BD JUMP JUMPDEST SWAP1 POP DUP1 DUP4 DUP3 MSTORE PUSH1 0x20 DUP3 ADD SWAP1 POP PUSH1 0x20 DUP5 MUL DUP4 ADD DUP6 DUP2 GT ISZERO PUSH2 0x3F0A JUMPI PUSH2 0x3F09 PUSH2 0x3ECF JUMP JUMPDEST JUMPDEST DUP4 JUMPDEST DUP2 DUP2 LT ISZERO PUSH2 0x3F51 JUMPI DUP1 CALLDATALOAD PUSH8 0xFFFFFFFFFFFFFFFF DUP2 GT ISZERO PUSH2 0x3F2F JUMPI PUSH2 0x3F2E PUSH2 0x3953 JUMP JUMPDEST JUMPDEST DUP1 DUP7 ADD PUSH2 0x3F3C DUP10 DUP3 PUSH2 0x3A5A JUMP JUMPDEST DUP6 MSTORE PUSH1 0x20 DUP6 ADD SWAP5 POP POP POP PUSH1 0x20 DUP2 ADD SWAP1 POP PUSH2 0x3F0C JUMP JUMPDEST POP POP POP SWAP4 SWAP3 POP POP POP JUMP JUMPDEST PUSH1 0x0 DUP3 PUSH1 0x1F DUP4 ADD SLT PUSH2 0x3F70 JUMPI PUSH2 0x3F6F PUSH2 0x3953 JUMP JUMPDEST JUMPDEST DUP2 CALLDATALOAD PUSH2 0x3F80 DUP5 DUP3 PUSH1 0x20 DUP7 ADD PUSH2 0x3ED4 JUMP JUMPDEST SWAP2 POP POP SWAP3 SWAP2 POP POP JUMP JUMPDEST PUSH1 0x0 DUP1 PUSH1 0x0 PUSH1 0x60 DUP5 DUP7 SUB SLT ISZERO PUSH2 0x3FA2 JUMPI PUSH2 0x3FA1 PUSH2 0x355E JUMP JUMPDEST JUMPDEST PUSH1 0x0 PUSH2 0x3FB0 DUP7 DUP3 DUP8 ADD PUSH2 0x37B4 JUMP JUMPDEST SWAP4 POP POP PUSH1 0x20 PUSH2 0x3FC1 DUP7 DUP3 DUP8 ADD PUSH2 0x36FF JUMP JUMPDEST SWAP3 POP POP PUSH1 0x40 DUP5 ADD CALLDATALOAD PUSH8 0xFFFFFFFFFFFFFFFF DUP2 GT ISZERO PUSH2 0x3FE2 JUMPI PUSH2 0x3FE1 PUSH2 0x3563 JUMP JUMPDEST JUMPDEST PUSH2 0x3FEE DUP7 DUP3 DUP8 ADD PUSH2 0x3F5B JUMP JUMPDEST SWAP2 POP POP SWAP3 POP SWAP3 POP SWAP3 JUMP JUMPDEST PUSH1 0x0 DUP1 PUSH1 0x40 DUP4 DUP6 SUB SLT ISZERO PUSH2 0x400F JUMPI PUSH2 0x400E PUSH2 0x355E JUMP JUMPDEST JUMPDEST PUSH1 0x0 PUSH2 0x401D DUP6 DUP3 DUP7 ADD PUSH2 0x37B4 JUMP JUMPDEST SWAP3 POP POP PUSH1 0x20 PUSH2 0x402E DUP6 DUP3 DUP7 ADD PUSH2 0x37B4 JUMP JUMPDEST SWAP2 POP POP SWAP3 POP SWAP3 SWAP1 POP JUMP JUMPDEST PUSH32 0x4E487B7100000000000000000000000000000000000000000000000000000000 PUSH1 0x0 MSTORE PUSH1 0x22 PUSH1 0x4 MSTORE PUSH1 0x24 PUSH1 0x0 REVERT JUMPDEST PUSH1 0x0 PUSH1 0x2 DUP3 DIV SWAP1 POP PUSH1 0x1 DUP3 AND DUP1 PUSH2 0x407F JUMPI PUSH1 0x7F DUP3 AND SWAP2 POP JUMPDEST PUSH1 0x20 DUP3 LT DUP2 EQ ISZERO PUSH2 0x4093 JUMPI PUSH2 0x4092 PUSH2 0x4038 JUMP JUMPDEST JUMPDEST POP SWAP2 SWAP1 POP JUMP JUMPDEST PUSH32 0x4552433732313A20617070726F76656420717565727920666F72206E6F6E6578 PUSH1 0x0 DUP3 ADD MSTORE PUSH32 0x697374656E7420746F6B656E0000000000000000000000000000000000000000 PUSH1 0x20 DUP3 ADD MSTORE POP JUMP JUMPDEST PUSH1 0x0 PUSH2 0x40F5 PUSH1 0x2C DUP4 PUSH2 0x362E JUMP JUMPDEST SWAP2 POP PUSH2 0x4100 DUP3 PUSH2 0x4099 JUMP JUMPDEST PUSH1 0x40 DUP3 ADD SWAP1 POP SWAP2 SWAP1 POP JUMP JUMPDEST PUSH1 0x0 PUSH1 0x20 DUP3 ADD SWAP1 POP DUP2 DUP2 SUB PUSH1 0x0 DUP4 ADD MSTORE PUSH2 0x4124 DUP2 PUSH2 0x40E8 JUMP JUMPDEST SWAP1 POP SWAP2 SWAP1 POP JUMP JUMPDEST PUSH32 0x4552433732313A20617070726F76616C20746F2063757272656E74206F776E65 PUSH1 0x0 DUP3 ADD MSTORE PUSH32 0x7200000000000000000000000000000000000000000000000000000000000000 PUSH1 0x20 DUP3 ADD MSTORE POP JUMP JUMPDEST PUSH1 0x0 PUSH2 0x4187 PUSH1 0x21 DUP4 PUSH2 0x362E JUMP JUMPDEST SWAP2 POP PUSH2 0x4192 DUP3 PUSH2 0x412B JUMP JUMPDEST PUSH1 0x40 DUP3 ADD SWAP1 POP SWAP2 SWAP1 POP JUMP JUMPDEST PUSH1 0x0 PUSH1 0x20 DUP3 ADD SWAP1 POP DUP2 DUP2 SUB PUSH1 0x0 DUP4 ADD MSTORE PUSH2 0x41B6 DUP2 PUSH2 0x417A JUMP JUMPDEST SWAP1 POP SWAP2 SWAP1 POP JUMP JUMPDEST PUSH32 0x4552433732313A20617070726F76652063616C6C6572206973206E6F74206F77 PUSH1 0x0 DUP3 ADD MSTORE PUSH32 0x6E6572206E6F7220617070726F76656420666F7220616C6C0000000000000000 PUSH1 0x20 DUP3 ADD MSTORE POP JUMP JUMPDEST PUSH1 0x0 PUSH2 0x4219 PUSH1 0x38 DUP4 PUSH2 0x362E JUMP JUMPDEST SWAP2 POP PUSH2 0x4224 DUP3 PUSH2 0x41BD JUMP JUMPDEST PUSH1 0x40 DUP3 ADD SWAP1 POP SWAP2 SWAP1 POP JUMP JUMPDEST PUSH1 0x0 PUSH1 0x20 DUP3 ADD SWAP1 POP DUP2 DUP2 SUB PUSH1 0x0 DUP4 ADD MSTORE PUSH2 0x4248 DUP2 PUSH2 0x420C JUMP JUMPDEST SWAP1 POP SWAP2 SWAP1 POP JUMP JUMPDEST PUSH32 0x4552433732313A207472616E736665722063616C6C6572206973206E6F74206F PUSH1 0x0 DUP3 ADD MSTORE PUSH32 0x776E6572206E6F7220617070726F766564000000000000000000000000000000 PUSH1 0x20 DUP3 ADD MSTORE POP JUMP JUMPDEST PUSH1 0x0 PUSH2 0x42AB PUSH1 0x31 DUP4 PUSH2 0x362E JUMP JUMPDEST SWAP2 POP PUSH2 0x42B6 DUP3 PUSH2 0x424F JUMP JUMPDEST PUSH1 0x40 DUP3 ADD SWAP1 POP SWAP2 SWAP1 POP JUMP JUMPDEST PUSH1 0x0 PUSH1 0x20 DUP3 ADD SWAP1 POP DUP2 DUP2 SUB PUSH1 0x0 DUP4 ADD MSTORE PUSH2 0x42DA DUP2 PUSH2 0x429E JUMP JUMPDEST SWAP1 POP SWAP2 SWAP1 POP JUMP JUMPDEST PUSH32 0x455243373231456E756D657261626C653A206F776E657220696E646578206F75 PUSH1 0x0 DUP3 ADD MSTORE PUSH32 0x74206F6620626F756E6473000000000000000000000000000000000000000000 PUSH1 0x20 DUP3 ADD MSTORE POP JUMP JUMPDEST PUSH1 0x0 PUSH2 0x433D PUSH1 0x2B DUP4 PUSH2 0x362E JUMP JUMPDEST SWAP2 POP PUSH2 0x4348 DUP3 PUSH2 0x42E1 JUMP JUMPDEST PUSH1 0x40 DUP3 ADD SWAP1 POP SWAP2 SWAP1 POP JUMP JUMPDEST PUSH1 0x0 PUSH1 0x20 DUP3 ADD SWAP1 POP DUP2 DUP2 SUB PUSH1 0x0 DUP4 ADD MSTORE PUSH2 0x436C DUP2 PUSH2 0x4330 JUMP JUMPDEST SWAP1 POP SWAP2 SWAP1 POP JUMP JUMPDEST PUSH32 0x416363657373436F6E74726F6C3A2063616E206F6E6C792072656E6F756E6365 PUSH1 0x0 DUP3 ADD MSTORE PUSH32 0x20726F6C657320666F722073656C660000000000000000000000000000000000 PUSH1 0x20 DUP3 ADD MSTORE POP JUMP JUMPDEST PUSH1 0x0 PUSH2 0x43CF PUSH1 0x2F DUP4 PUSH2 0x362E JUMP JUMPDEST SWAP2 POP PUSH2 0x43DA DUP3 PUSH2 0x4373 JUMP JUMPDEST PUSH1 0x40 DUP3 ADD SWAP1 POP SWAP2 SWAP1 POP JUMP JUMPDEST PUSH1 0x0 PUSH1 0x20 DUP3 ADD SWAP1 POP DUP2 DUP2 SUB PUSH1 0x0 DUP4 ADD MSTORE PUSH2 0x43FE DUP2 PUSH2 0x43C2 JUMP JUMPDEST SWAP1 POP SWAP2 SWAP1 POP JUMP JUMPDEST PUSH32 0x455243373231456E756D657261626C653A20676C6F62616C20696E646578206F PUSH1 0x0 DUP3 ADD MSTORE PUSH32 0x7574206F6620626F756E64730000000000000000000000000000000000000000 PUSH1 0x20 DUP3 ADD MSTORE POP JUMP JUMPDEST PUSH1 0x0 PUSH2 0x4461 PUSH1 0x2C DUP4 PUSH2 0x362E JUMP JUMPDEST SWAP2 POP PUSH2 0x446C DUP3 PUSH2 0x4405 JUMP JUMPDEST PUSH1 0x40 DUP3 ADD SWAP1 POP SWAP2 SWAP1 POP JUMP JUMPDEST PUSH1 0x0 PUSH1 0x20 DUP3 ADD SWAP1 POP DUP2 DUP2 SUB PUSH1 0x0 DUP4 ADD MSTORE PUSH2 0x4490 DUP2 PUSH2 0x4454 JUMP JUMPDEST SWAP1 POP SWAP2 SWAP1 POP JUMP JUMPDEST PUSH32 0x4E487B7100000000000000000000000000000000000000000000000000000000 PUSH1 0x0 MSTORE PUSH1 0x32 PUSH1 0x4 MSTORE PUSH1 0x24 PUSH1 0x0 REVERT JUMPDEST PUSH1 0x0 DUP2 SWAP1 POP SWAP3 SWAP2 POP POP JUMP JUMPDEST PUSH1 0x0 PUSH2 0x44DC DUP3 PUSH2 0x3623 JUMP JUMPDEST PUSH2 0x44E6 DUP2 DUP6 PUSH2 0x44C6 JUMP JUMPDEST SWAP4 POP PUSH2 0x44F6 DUP2 DUP6 PUSH1 0x20 DUP7 ADD PUSH2 0x363F JUMP JUMPDEST DUP1 DUP5 ADD SWAP2 POP POP SWAP3 SWAP2 POP POP JUMP JUMPDEST PUSH1 0x0 PUSH2 0x450E DUP3 DUP5 PUSH2 0x44D1 JUMP JUMPDEST SWAP2 POP DUP2 SWAP1 POP SWAP3 SWAP2 POP POP JUMP JUMPDEST PUSH32 0x4552433732313A206F776E657220717565727920666F72206E6F6E6578697374 PUSH1 0x0 DUP3 ADD MSTORE PUSH32 0x656E7420746F6B656E0000000000000000000000000000000000000000000000 PUSH1 0x20 DUP3 ADD MSTORE POP JUMP JUMPDEST PUSH1 0x0 PUSH2 0x4575 PUSH1 0x29 DUP4 PUSH2 0x362E JUMP JUMPDEST SWAP2 POP PUSH2 0x4580 DUP3 PUSH2 0x4519 JUMP JUMPDEST PUSH1 0x40 DUP3 ADD SWAP1 POP SWAP2 SWAP1 POP JUMP JUMPDEST PUSH1 0x0 PUSH1 0x20 DUP3 ADD SWAP1 POP DUP2 DUP2 SUB PUSH1 0x0 DUP4 ADD MSTORE PUSH2 0x45A4 DUP2 PUSH2 0x4568 JUMP JUMPDEST SWAP1 POP SWAP2 SWAP1 POP JUMP JUMPDEST PUSH32 0x4552433732313A2062616C616E636520717565727920666F7220746865207A65 PUSH1 0x0 DUP3 ADD MSTORE PUSH32 0x726F206164647265737300000000000000000000000000000000000000000000 PUSH1 0x20 DUP3 ADD MSTORE POP JUMP JUMPDEST PUSH1 0x0 PUSH2 0x4607 PUSH1 0x2A DUP4 PUSH2 0x362E JUMP JUMPDEST SWAP2 POP PUSH2 0x4612 DUP3 PUSH2 0x45AB JUMP JUMPDEST PUSH1 0x40 DUP3 ADD SWAP1 POP SWAP2 SWAP1 POP JUMP JUMPDEST PUSH1 0x0 PUSH1 0x20 DUP3 ADD SWAP1 POP DUP2 DUP2 SUB PUSH1 0x0 DUP4 ADD MSTORE PUSH2 0x4636 DUP2 PUSH2 0x45FA JUMP JUMPDEST SWAP1 POP SWAP2 SWAP1 POP JUMP JUMPDEST PUSH32 0x4F776E61626C653A2063616C6C6572206973206E6F7420746865206F776E6572 PUSH1 0x0 DUP3 ADD MSTORE POP JUMP JUMPDEST PUSH1 0x0 PUSH2 0x4673 PUSH1 0x20 DUP4 PUSH2 0x362E JUMP JUMPDEST SWAP2 POP PUSH2 0x467E DUP3 PUSH2 0x463D JUMP JUMPDEST PUSH1 0x20 DUP3 ADD SWAP1 POP SWAP2 SWAP1 POP JUMP JUMPDEST PUSH1 0x0 PUSH1 0x20 DUP3 ADD SWAP1 POP DUP2 DUP2 SUB PUSH1 0x0 DUP4 ADD MSTORE PUSH2 0x46A2 DUP2 PUSH2 0x4666 JUMP JUMPDEST SWAP1 POP SWAP2 SWAP1 POP JUMP JUMPDEST PUSH32 0x4552433732313A20617070726F766520746F2063616C6C657200000000000000 PUSH1 0x0 DUP3 ADD MSTORE POP JUMP JUMPDEST PUSH1 0x0 PUSH2 0x46DF PUSH1 0x19 DUP4 PUSH2 0x362E JUMP JUMPDEST SWAP2 POP PUSH2 0x46EA DUP3 PUSH2 0x46A9 JUMP JUMPDEST PUSH1 0x20 DUP3 ADD SWAP1 POP SWAP2 SWAP1 POP JUMP JUMPDEST PUSH1 0x0 PUSH1 0x20 DUP3 ADD SWAP1 POP DUP2 DUP2 SUB PUSH1 0x0 DUP4 ADD MSTORE PUSH2 0x470E DUP2 PUSH2 0x46D2 JUMP JUMPDEST SWAP1 POP SWAP2 SWAP1 POP JUMP JUMPDEST PUSH32 0x4552433732314D657461646174613A2055524920717565727920666F72206E6F PUSH1 0x0 DUP3 ADD MSTORE PUSH32 0x6E6578697374656E7420746F6B656E0000000000000000000000000000000000 PUSH1 0x20 DUP3 ADD MSTORE POP JUMP JUMPDEST PUSH1 0x0 PUSH2 0x4771 PUSH1 0x2F DUP4 PUSH2 0x362E JUMP JUMPDEST SWAP2 POP PUSH2 0x477C DUP3 PUSH2 0x4715 JUMP JUMPDEST PUSH1 0x40 DUP3 ADD SWAP1 POP SWAP2 SWAP1 POP JUMP JUMPDEST PUSH1 0x0 PUSH1 0x20 DUP3 ADD SWAP1 POP DUP2 DUP2 SUB PUSH1 0x0 DUP4 ADD MSTORE PUSH2 0x47A0 DUP2 PUSH2 0x4764 JUMP JUMPDEST SWAP1 POP SWAP2 SWAP1 POP JUMP JUMPDEST PUSH1 0x0 PUSH2 0x47B3 DUP3 DUP6 PUSH2 0x44D1 JUMP JUMPDEST SWAP2 POP PUSH2 0x47BF DUP3 DUP5 PUSH2 0x44D1 JUMP JUMPDEST SWAP2 POP DUP2 SWAP1 POP SWAP4 SWAP3 POP POP POP JUMP JUMPDEST PUSH32 0x4E487B7100000000000000000000000000000000000000000000000000000000 PUSH1 0x0 MSTORE PUSH1 0x12 PUSH1 0x4 MSTORE PUSH1 0x24 PUSH1 0x0 REVERT JUMPDEST PUSH1 0x0 PUSH2 0x4805 DUP3 PUSH2 0x36DE JUMP JUMPDEST SWAP2 POP PUSH2 0x4810 DUP4 PUSH2 0x36DE JUMP JUMPDEST SWAP3 POP DUP3 PUSH2 0x4820 JUMPI PUSH2 0x481F PUSH2 0x47CB JUMP JUMPDEST JUMPDEST DUP3 DUP3 MOD SWAP1 POP SWAP3 SWAP2 POP POP JUMP JUMPDEST PUSH32 0x706172616D73206973206B65797C76616C756520737472756374757265000000 PUSH1 0x0 DUP3 ADD MSTORE POP JUMP JUMPDEST PUSH1 0x0 PUSH2 0x4861 PUSH1 0x1D DUP4 PUSH2 0x362E JUMP JUMPDEST SWAP2 POP PUSH2 0x486C DUP3 PUSH2 0x482B JUMP JUMPDEST PUSH1 0x20 DUP3 ADD SWAP1 POP SWAP2 SWAP1 POP JUMP JUMPDEST PUSH1 0x0 PUSH1 0x20 DUP3 ADD SWAP1 POP DUP2 DUP2 SUB PUSH1 0x0 DUP4 ADD MSTORE PUSH2 0x4890 DUP2 PUSH2 0x4854 JUMP JUMPDEST SWAP1 POP SWAP2 SWAP1 POP JUMP JUMPDEST PUSH32 0x4E487B7100000000000000000000000000000000000000000000000000000000 PUSH1 0x0 MSTORE PUSH1 0x11 PUSH1 0x4 MSTORE PUSH1 0x24 PUSH1 0x0 REVERT JUMPDEST PUSH1 0x0 PUSH2 0x48D1 DUP3 PUSH2 0x36DE JUMP JUMPDEST SWAP2 POP PUSH2 0x48DC DUP4 PUSH2 0x36DE JUMP JUMPDEST SWAP3 POP DUP3 PUSH32 0xFFFFFFFFFFFFFFFFFFFFFFFFFFFFFFFFFFFFFFFFFFFFFFFFFFFFFFFFFFFFFFFF SUB DUP3 GT ISZERO PUSH2 0x4911 JUMPI PUSH2 0x4910 PUSH2 0x4897 JUMP JUMPDEST JUMPDEST DUP3 DUP3 ADD SWAP1 POP SWAP3 SWAP2 POP POP JUMP JUMPDEST PUSH1 0x0 PUSH1 0x80 DUP3 ADD SWAP1 POP PUSH2 0x4931 PUSH1 0x0 DUP4 ADD DUP8 PUSH2 0x3809 JUMP JUMPDEST PUSH2 0x493E PUSH1 0x20 DUP4 ADD DUP7 PUSH2 0x3773 JUMP JUMPDEST PUSH2 0x494B PUSH1 0x40 DUP4 ADD DUP6 PUSH2 0x3809 JUMP JUMPDEST DUP2 DUP2 SUB PUSH1 0x60 DUP4 ADD MSTORE PUSH2 0x495D DUP2 DUP5 PUSH2 0x3CE8 JUMP JUMPDEST SWAP1 POP SWAP6 SWAP5 POP POP POP POP POP JUMP JUMPDEST PUSH32 0x4F776E61626C653A206E6577206F776E657220697320746865207A65726F2061 PUSH1 0x0 DUP3 ADD MSTORE PUSH32 0x6464726573730000000000000000000000000000000000000000000000000000 PUSH1 0x20 DUP3 ADD MSTORE POP JUMP JUMPDEST PUSH1 0x0 PUSH2 0x49C4 PUSH1 0x26 DUP4 PUSH2 0x362E JUMP JUMPDEST SWAP2 POP PUSH2 0x49CF DUP3 PUSH2 0x4968 JUMP JUMPDEST PUSH1 0x40 DUP3 ADD SWAP1 POP SWAP2 SWAP1 POP JUMP JUMPDEST PUSH1 0x0 PUSH1 0x20 DUP3 ADD SWAP1 POP DUP2 DUP2 SUB PUSH1 0x0 DUP4 ADD MSTORE PUSH2 0x49F3 DUP2 PUSH2 0x49B7 JUMP JUMPDEST SWAP1 POP SWAP2 SWAP1 POP JUMP JUMPDEST PUSH32 0x4552433732313A206F70657261746F7220717565727920666F72206E6F6E6578 PUSH1 0x0 DUP3 ADD MSTORE PUSH32 0x697374656E7420746F6B656E0000000000000000000000000000000000000000 PUSH1 0x20 DUP3 ADD MSTORE POP JUMP JUMPDEST PUSH1 0x0 PUSH2 0x4A56 PUSH1 0x2C DUP4 PUSH2 0x362E JUMP JUMPDEST SWAP2 POP PUSH2 0x4A61 DUP3 PUSH2 0x49FA JUMP JUMPDEST PUSH1 0x40 DUP3 ADD SWAP1 POP SWAP2 SWAP1 POP JUMP JUMPDEST PUSH1 0x0 PUSH1 0x20 DUP3 ADD SWAP1 POP DUP2 DUP2 SUB PUSH1 0x0 DUP4 ADD MSTORE PUSH2 0x4A85 DUP2 PUSH2 0x4A49 JUMP JUMPDEST SWAP1 POP SWAP2 SWAP1 POP JUMP JUMPDEST PUSH32 0x4552433732313A207472616E73666572206F6620746F6B656E20746861742069 PUSH1 0x0 DUP3 ADD MSTORE PUSH32 0x73206E6F74206F776E0000000000000000000000000000000000000000000000 PUSH1 0x20 DUP3 ADD MSTORE POP JUMP JUMPDEST PUSH1 0x0 PUSH2 0x4AE8 PUSH1 0x29 DUP4 PUSH2 0x362E JUMP JUMPDEST SWAP2 POP PUSH2 0x4AF3 DUP3 PUSH2 0x4A8C JUMP JUMPDEST PUSH1 0x40 DUP3 ADD SWAP1 POP SWAP2 SWAP1 POP JUMP JUMPDEST PUSH1 0x0 PUSH1 0x20 DUP3 ADD SWAP1 POP DUP2 DUP2 SUB PUSH1 0x0 DUP4 ADD MSTORE PUSH2 0x4B17 DUP2 PUSH2 0x4ADB JUMP JUMPDEST SWAP1 POP SWAP2 SWAP1 POP JUMP JUMPDEST PUSH32 0x4552433732313A207472616E7366657220746F20746865207A65726F20616464 PUSH1 0x0 DUP3 ADD MSTORE PUSH32 0x7265737300000000000000000000000000000000000000000000000000000000 PUSH1 0x20 DUP3 ADD MSTORE POP JUMP JUMPDEST PUSH1 0x0 PUSH2 0x4B7A PUSH1 0x24 DUP4 PUSH2 0x362E JUMP JUMPDEST SWAP2 POP PUSH2 0x4B85 DUP3 PUSH2 0x4B1E JUMP JUMPDEST PUSH1 0x40 DUP3 ADD SWAP1 POP SWAP2 SWAP1 POP JUMP JUMPDEST PUSH1 0x0 PUSH1 0x20 DUP3 ADD SWAP1 POP DUP2 DUP2 SUB PUSH1 0x0 DUP4 ADD MSTORE PUSH2 0x4BA9 DUP2 PUSH2 0x4B6D JUMP JUMPDEST SWAP1 POP SWAP2 SWAP1 POP JUMP JUMPDEST PUSH1 0x0 PUSH2 0x4BBB DUP3 PUSH2 0x36DE JUMP JUMPDEST SWAP2 POP PUSH2 0x4BC6 DUP4 PUSH2 0x36DE JUMP JUMPDEST SWAP3 POP DUP3 DUP3 LT ISZERO PUSH2 0x4BD9 JUMPI PUSH2 0x4BD8 PUSH2 0x4897 JUMP JUMPDEST JUMPDEST DUP3 DUP3 SUB SWAP1 POP SWAP3 SWAP2 POP POP JUMP JUMPDEST PUSH32 0x416363657373436F6E74726F6C3A206163636F756E7420000000000000000000 PUSH1 0x0 DUP3 ADD MSTORE POP JUMP JUMPDEST PUSH1 0x0 PUSH2 0x4C1A PUSH1 0x17 DUP4 PUSH2 0x44C6 JUMP JUMPDEST SWAP2 POP PUSH2 0x4C25 DUP3 PUSH2 0x4BE4 JUMP JUMPDEST PUSH1 0x17 DUP3 ADD SWAP1 POP SWAP2 SWAP1 POP JUMP JUMPDEST PUSH32 0x206973206D697373696E6720726F6C6520000000000000000000000000000000 PUSH1 0x0 DUP3 ADD MSTORE POP JUMP JUMPDEST PUSH1 0x0 PUSH2 0x4C66 PUSH1 0x11 DUP4 PUSH2 0x44C6 JUMP JUMPDEST SWAP2 POP PUSH2 0x4C71 DUP3 PUSH2 0x4C30 JUMP JUMPDEST PUSH1 0x11 DUP3 ADD SWAP1 POP SWAP2 SWAP1 POP JUMP JUMPDEST PUSH1 0x0 PUSH2 0x4C87 DUP3 PUSH2 0x4C0D JUMP JUMPDEST SWAP2 POP PUSH2 0x4C93 DUP3 DUP6 PUSH2 0x44D1 JUMP JUMPDEST SWAP2 POP PUSH2 0x4C9E DUP3 PUSH2 0x4C59 JUMP JUMPDEST SWAP2 POP PUSH2 0x4CAA DUP3 DUP5 PUSH2 0x44D1 JUMP JUMPDEST SWAP2 POP DUP2 SWAP1 POP SWAP4 SWAP3 POP POP POP JUMP JUMPDEST PUSH32 0x5061757361626C653A206E6F7420706175736564000000000000000000000000 PUSH1 0x0 DUP3 ADD MSTORE POP JUMP JUMPDEST PUSH1 0x0 PUSH2 0x4CEC PUSH1 0x14 DUP4 PUSH2 0x362E JUMP JUMPDEST SWAP2 POP PUSH2 0x4CF7 DUP3 PUSH2 0x4CB6 JUMP JUMPDEST PUSH1 0x20 DUP3 ADD SWAP1 POP SWAP2 SWAP1 POP JUMP JUMPDEST PUSH1 0x0 PUSH1 0x20 DUP3 ADD SWAP1 POP DUP2 DUP2 SUB PUSH1 0x0 DUP4 ADD MSTORE PUSH2 0x4D1B DUP2 PUSH2 0x4CDF JUMP JUMPDEST SWAP1 POP SWAP2 SWAP1 POP JUMP JUMPDEST PUSH32 0x5061757361626C653A2070617573656400000000000000000000000000000000 PUSH1 0x0 DUP3 ADD MSTORE POP JUMP JUMPDEST PUSH1 0x0 PUSH2 0x4D58 PUSH1 0x10 DUP4 PUSH2 0x362E JUMP JUMPDEST SWAP2 POP PUSH2 0x4D63 DUP3 PUSH2 0x4D22 JUMP JUMPDEST PUSH1 0x20 DUP3 ADD SWAP1 POP SWAP2 SWAP1 POP JUMP JUMPDEST PUSH1 0x0 PUSH1 0x20 DUP3 ADD SWAP1 POP DUP2 DUP2 SUB PUSH1 0x0 DUP4 ADD MSTORE PUSH2 0x4D87 DUP2 PUSH2 0x4D4B JUMP JUMPDEST SWAP1 POP SWAP2 SWAP1 POP JUMP JUMPDEST PUSH1 0x0 PUSH1 0x60 DUP3 ADD SWAP1 POP PUSH2 0x4DA3 PUSH1 0x0 DUP4 ADD DUP7 PUSH2 0x3809 JUMP JUMPDEST DUP2 DUP2 SUB PUSH1 0x20 DUP4 ADD MSTORE PUSH2 0x4DB5 DUP2 DUP6 PUSH2 0x3683 JUMP JUMPDEST SWAP1 POP DUP2 DUP2 SUB PUSH1 0x40 DUP4 ADD MSTORE PUSH2 0x4DC9 DUP2 DUP5 PUSH2 0x3683 JUMP JUMPDEST SWAP1 POP SWAP5 SWAP4 POP POP POP POP JUMP JUMPDEST PUSH32 0x4552433732313A207472616E7366657220746F206E6F6E204552433732315265 PUSH1 0x0 DUP3 ADD MSTORE PUSH32 0x63656976657220696D706C656D656E7465720000000000000000000000000000 PUSH1 0x20 DUP3 ADD MSTORE POP JUMP JUMPDEST PUSH1 0x0 PUSH2 0x4E2F PUSH1 0x32 DUP4 PUSH2 0x362E JUMP JUMPDEST SWAP2 POP PUSH2 0x4E3A DUP3 PUSH2 0x4DD3 JUMP JUMPDEST PUSH1 0x40 DUP3 ADD SWAP1 POP SWAP2 SWAP1 POP JUMP JUMPDEST PUSH1 0x0 PUSH1 0x20 DUP3 ADD SWAP1 POP DUP2 DUP2 SUB PUSH1 0x0 DUP4 ADD MSTORE PUSH2 0x4E5E DUP2 PUSH2 0x4E22 JUMP JUMPDEST SWAP1 POP SWAP2 SWAP1 POP JUMP JUMPDEST PUSH1 0x0 PUSH2 0x4E70 DUP3 PUSH2 0x36DE JUMP JUMPDEST SWAP2 POP PUSH32 0xFFFFFFFFFFFFFFFFFFFFFFFFFFFFFFFFFFFFFFFFFFFFFFFFFFFFFFFFFFFFFFFF DUP3 EQ ISZERO PUSH2 0x4EA3 JUMPI PUSH2 0x4EA2 PUSH2 0x4897 JUMP JUMPDEST JUMPDEST PUSH1 0x1 DUP3 ADD SWAP1 POP SWAP2 SWAP1 POP JUMP JUMPDEST PUSH1 0x0 PUSH2 0x4EB9 DUP3 PUSH2 0x36DE JUMP JUMPDEST SWAP2 POP PUSH2 0x4EC4 DUP4 PUSH2 0x36DE JUMP JUMPDEST SWAP3 POP DUP3 PUSH2 0x4ED4 JUMPI PUSH2 0x4ED3 PUSH2 0x47CB JUMP JUMPDEST JUMPDEST DUP3 DUP3 DIV SWAP1 POP SWAP3 SWAP2 POP POP JUMP JUMPDEST PUSH1 0x0 PUSH1 0xFF DUP3 AND SWAP1 POP SWAP2 SWAP1 POP JUMP JUMPDEST PUSH1 0x0 PUSH2 0x4EF7 DUP3 PUSH2 0x4EDF JUMP JUMPDEST SWAP2 POP PUSH2 0x4F02 DUP4 PUSH2 0x4EDF JUMP JUMPDEST SWAP3 POP DUP3 DUP3 LT ISZERO PUSH2 0x4F15 JUMPI PUSH2 0x4F14 PUSH2 0x4897 JUMP JUMPDEST JUMPDEST DUP3 DUP3 SUB SWAP1 POP SWAP3 SWAP2 POP POP JUMP JUMPDEST PUSH1 0x0 DUP2 PUSH1 0x1 SHR SWAP1 POP SWAP2 SWAP1 POP JUMP JUMPDEST PUSH1 0x0 DUP1 DUP3 SWAP2 POP DUP4 SWAP1 POP JUMPDEST PUSH1 0x1 DUP6 GT ISZERO PUSH2 0x4F77 JUMPI DUP1 DUP7 DIV DUP2 GT ISZERO PUSH2 0x4F53 JUMPI PUSH2 0x4F52 PUSH2 0x4897 JUMP JUMPDEST JUMPDEST PUSH1 0x1 DUP6 AND ISZERO PUSH2 0x4F62 JUMPI DUP1 DUP3 MUL SWAP2 POP JUMPDEST DUP1 DUP2 MUL SWAP1 POP PUSH2 0x4F70 DUP6 PUSH2 0x4F20 JUMP JUMPDEST SWAP5 POP PUSH2 0x4F37 JUMP JUMPDEST SWAP5 POP SWAP5 SWAP3 POP POP POP JUMP JUMPDEST PUSH1 0x0 DUP3 PUSH2 0x4F90 JUMPI PUSH1 0x1 SWAP1 POP PUSH2 0x504C JUMP JUMPDEST DUP2 PUSH2 0x4F9E JUMPI PUSH1 0x0 SWAP1 POP PUSH2 0x504C JUMP JUMPDEST DUP2 PUSH1 0x1 DUP2 EQ PUSH2 0x4FB4 JUMPI PUSH1 0x2 DUP2 EQ PUSH2 0x4FBE JUMPI PUSH2 0x4FED JUMP JUMPDEST PUSH1 0x1 SWAP2 POP POP PUSH2 0x504C JUMP JUMPDEST PUSH1 0xFF DUP5 GT ISZERO PUSH2 0x4FD0 JUMPI PUSH2 0x4FCF PUSH2 0x4897 JUMP JUMPDEST JUMPDEST DUP4 PUSH1 0x2 EXP SWAP2 POP DUP5 DUP3 GT ISZERO PUSH2 0x4FE7 JUMPI PUSH2 0x4FE6 PUSH2 0x4897 JUMP JUMPDEST JUMPDEST POP PUSH2 0x504C JUMP JUMPDEST POP PUSH1 0x20 DUP4 LT PUSH2 0x133 DUP4 LT AND PUSH1 0x4E DUP5 LT PUSH1 0xB DUP5 LT AND OR ISZERO PUSH2 0x5022 JUMPI DUP3 DUP3 EXP SWAP1 POP DUP4 DUP2 GT ISZERO PUSH2 0x501D JUMPI PUSH2 0x501C PUSH2 0x4897 JUMP JUMPDEST JUMPDEST PUSH2 0x504C JUMP JUMPDEST PUSH2 0x502F DUP5 DUP5 DUP5 PUSH1 0x1 PUSH2 0x4F2D JUMP JUMPDEST SWAP3 POP SWAP1 POP DUP2 DUP5 DIV DUP2 GT ISZERO PUSH2 0x5046 JUMPI PUSH2 0x5045 PUSH2 0x4897 JUMP JUMPDEST JUMPDEST DUP2 DUP2 MUL SWAP1 POP JUMPDEST SWAP4 SWAP3 POP POP POP JUMP JUMPDEST PUSH1 0x0 PUSH2 0x505E DUP3 PUSH2 0x36DE JUMP JUMPDEST SWAP2 POP PUSH2 0x5069 DUP4 PUSH2 0x36DE JUMP JUMPDEST SWAP3 POP PUSH2 0x5096 PUSH32 0xFFFFFFFFFFFFFFFFFFFFFFFFFFFFFFFFFFFFFFFFFFFFFFFFFFFFFFFFFFFFFFFF DUP5 DUP5 PUSH2 0x4F80 JUMP JUMPDEST SWAP1 POP SWAP3 SWAP2 POP POP JUMP JUMPDEST PUSH1 0x0 PUSH2 0x50A9 DUP3 PUSH2 0x36DE JUMP JUMPDEST SWAP2 POP PUSH2 0x50B4 DUP4 PUSH2 0x36DE JUMP JUMPDEST SWAP3 POP DUP2 PUSH32 0xFFFFFFFFFFFFFFFFFFFFFFFFFFFFFFFFFFFFFFFFFFFFFFFFFFFFFFFFFFFFFFFF DIV DUP4 GT DUP3 ISZERO ISZERO AND ISZERO PUSH2 0x50ED JUMPI PUSH2 0x50EC PUSH2 0x4897 JUMP JUMPDEST JUMPDEST DUP3 DUP3 MUL SWAP1 POP SWAP3 SWAP2 POP POP JUMP JUMPDEST PUSH32 0x4552433732313A206D696E7420746F20746865207A65726F2061646472657373 PUSH1 0x0 DUP3 ADD MSTORE POP JUMP JUMPDEST PUSH1 0x0 PUSH2 0x512E PUSH1 0x20 DUP4 PUSH2 0x362E JUMP JUMPDEST SWAP2 POP PUSH2 0x5139 DUP3 PUSH2 0x50F8 JUMP JUMPDEST PUSH1 0x20 DUP3 ADD SWAP1 POP SWAP2 SWAP1 POP JUMP JUMPDEST PUSH1 0x0 PUSH1 0x20 DUP3 ADD SWAP1 POP DUP2 DUP2 SUB PUSH1 0x0 DUP4 ADD MSTORE PUSH2 0x515D DUP2 PUSH2 0x5121 JUMP JUMPDEST SWAP1 POP SWAP2 SWAP1 POP JUMP JUMPDEST PUSH32 0x4552433732313A20746F6B656E20616C7265616479206D696E74656400000000 PUSH1 0x0 DUP3 ADD MSTORE POP JUMP JUMPDEST PUSH1 0x0 PUSH2 0x519A PUSH1 0x1C DUP4 PUSH2 0x362E JUMP JUMPDEST SWAP2 POP PUSH2 0x51A5 DUP3 PUSH2 0x5164 JUMP JUMPDEST PUSH1 0x20 DUP3 ADD SWAP1 POP SWAP2 SWAP1 POP JUMP JUMPDEST PUSH1 0x0 PUSH1 0x20 DUP3 ADD SWAP1 POP DUP2 DUP2 SUB PUSH1 0x0 DUP4 ADD MSTORE PUSH2 0x51C9 DUP2 PUSH2 0x518D JUMP JUMPDEST SWAP1 POP SWAP2 SWAP1 POP JUMP JUMPDEST PUSH1 0x0 PUSH2 0x51DB DUP3 PUSH2 0x36DE JUMP JUMPDEST SWAP2 POP PUSH1 0x0 DUP3 EQ ISZERO PUSH2 0x51EF JUMPI PUSH2 0x51EE PUSH2 0x4897 JUMP JUMPDEST JUMPDEST PUSH1 0x1 DUP3 SUB SWAP1 POP SWAP2 SWAP1 POP JUMP JUMPDEST PUSH32 0x537472696E67733A20686578206C656E67746820696E73756666696369656E74 PUSH1 0x0 DUP3 ADD MSTORE POP JUMP JUMPDEST PUSH1 0x0 PUSH2 0x5230 PUSH1 0x20 DUP4 PUSH2 0x362E JUMP JUMPDEST SWAP2 POP PUSH2 0x523B DUP3 PUSH2 0x51FA JUMP JUMPDEST PUSH1 0x20 DUP3 ADD SWAP1 POP SWAP2 SWAP1 POP JUMP JUMPDEST PUSH1 0x0 PUSH1 0x20 DUP3 ADD SWAP1 POP DUP2 DUP2 SUB PUSH1 0x0 DUP4 ADD MSTORE PUSH2 0x525F DUP2 PUSH2 0x5223 JUMP JUMPDEST SWAP1 POP SWAP2 SWAP1 POP JUMP JUMPDEST PUSH1 0x0 DUP2 MLOAD SWAP1 POP SWAP2 SWAP1 POP JUMP JUMPDEST PUSH1 0x0 DUP3 DUP3 MSTORE PUSH1 0x20 DUP3 ADD SWAP1 POP SWAP3 SWAP2 POP POP JUMP JUMPDEST PUSH1 0x0 PUSH2 0x528D DUP3 PUSH2 0x5266 JUMP JUMPDEST PUSH2 0x5297 DUP2 DUP6 PUSH2 0x5271 JUMP JUMPDEST SWAP4 POP PUSH2 0x52A7 DUP2 DUP6 PUSH1 0x20 DUP7 ADD PUSH2 0x363F JUMP JUMPDEST PUSH2 0x52B0 DUP2 PUSH2 0x3672 JUMP JUMPDEST DUP5 ADD SWAP2 POP POP SWAP3 SWAP2 POP POP JUMP JUMPDEST PUSH1 0x0 PUSH1 0x80 DUP3 ADD SWAP1 POP PUSH2 0x52D0 PUSH1 0x0 DUP4 ADD DUP8 PUSH2 0x3773 JUMP JUMPDEST PUSH2 0x52DD PUSH1 0x20 DUP4 ADD DUP7 PUSH2 0x3773 JUMP JUMPDEST PUSH2 0x52EA PUSH1 0x40 DUP4 ADD DUP6 PUSH2 0x3809 JUMP JUMPDEST DUP2 DUP2 SUB PUSH1 0x60 DUP4 ADD MSTORE PUSH2 0x52FC DUP2 DUP5 PUSH2 0x5282 JUMP JUMPDEST SWAP1 POP SWAP6 SWAP5 POP POP POP POP POP JUMP JUMPDEST PUSH1 0x0 DUP2 MLOAD SWAP1 POP PUSH2 0x5316 DUP2 PUSH2 0x3594 JUMP JUMPDEST SWAP3 SWAP2 POP POP JUMP JUMPDEST PUSH1 0x0 PUSH1 0x20 DUP3 DUP5 SUB SLT ISZERO PUSH2 0x5332 JUMPI PUSH2 0x5331 PUSH2 0x355E JUMP JUMPDEST JUMPDEST PUSH1 0x0 PUSH2 0x5340 DUP5 DUP3 DUP6 ADD PUSH2 0x5307 JUMP JUMPDEST SWAP2 POP POP SWAP3 SWAP2 POP POP JUMP JUMPDEST PUSH32 0x4552433732315061757361626C653A20746F6B656E207472616E736665722077 PUSH1 0x0 DUP3 ADD MSTORE PUSH32 0x68696C6520706175736564000000000000000000000000000000000000000000 PUSH1 0x20 DUP3 ADD MSTORE POP JUMP JUMPDEST PUSH1 0x0 PUSH2 0x53A5 PUSH1 0x2B DUP4 PUSH2 0x362E JUMP JUMPDEST SWAP2 POP PUSH2 0x53B0 DUP3 PUSH2 0x5349 JUMP JUMPDEST PUSH1 0x40 DUP3 ADD SWAP1 POP SWAP2 SWAP1 POP JUMP JUMPDEST PUSH1 0x0 PUSH1 0x20 DUP3 ADD SWAP1 POP DUP2 DUP2 SUB PUSH1 0x0 DUP4 ADD MSTORE PUSH2 0x53D4 DUP2 PUSH2 0x5398 JUMP JUMPDEST SWAP1 POP SWAP2 SWAP1 POP JUMP JUMPDEST PUSH32 0x4E487B7100000000000000000000000000000000000000000000000000000000 PUSH1 0x0 MSTORE PUSH1 0x31 PUSH1 0x4 MSTORE PUSH1 0x24 PUSH1 0x0 REVERT INVALID LOG2 PUSH5 0x6970667358 0x22 SLT KECCAK256 CALL 0xB7 0xC9 SWAP4 PUSH17 0x6F1E6C80BFD5E9677137F1FD887C000E7A 0xB0 0xD PUSH31 0x6BF6A1D296C67464736F6C6343000809003300000000000000000000000000 "
		},
		"gasEstimates": {
			"creation": {
				"codeDepositCost": "4313600",
				"executionCost": "infinite",
				"totalCost": "infinite"
			},
			"external": {
				"ADMIN_ROLE()": "397",
				"BURN_ROLE()": "418",
				"DEFAULT_ADMIN_ROLE()": "446",
				"MINTER_ROLE()": "373",
				"PAUSER_ROLE()": "417",
				"approve(address,uint256)": "infinite",
				"balanceOf(address)": "3012",
				"burn(uint256)": "infinite",
				"getApproved(uint256)": "5251",
				"getListParamsByTokenId(uint256)": "infinite",
				"getOwnerOf(uint256)": "3088",
				"getRoleAdmin(bytes32)": "infinite",
				"getTableParamByTokenId(uint256,string)": "infinite",
				"getTypeOfSupply(uint256)": "infinite",
				"grantRole(bytes32,address)": "infinite",
				"hasRole(bytes32,address)": "3185",
				"isApprovedForAll(address,address)": "infinite",
				"name()": "infinite",
				"owner()": "2656",
				"ownerOf(uint256)": "3088",
				"pause()": "infinite",
				"paused()": "2568",
				"renounceOwnership()": "30420",
				"renounceRole(bytes32,address)": "infinite",
				"revokeRole(bytes32,address)": "infinite",
				"safeMintFromMap(address,uint256,string[])": "infinite",
				"safeTransferFrom(address,address,uint256)": "infinite",
				"safeTransferFrom(address,address,uint256,bytes)": "infinite",
				"setApprovalForAll(address,bool)": "infinite",
				"setBaseTokenURI(string)": "infinite",
				"setTableParam(uint256,string,string)": "infinite",
				"supportsInterface(bytes4)": "1041",
				"symbol()": "infinite",
				"tokenByIndex(uint256)": "infinite",
				"tokenOfOwnerByIndex(address,uint256)": "infinite",
				"tokenURI(uint256)": "infinite",
				"totalSupply()": "2491",
				"transferFrom(address,address,uint256)": "infinite",
				"transferOwnership(address)": "30855",
				"unpause()": "infinite"
			},
			"internal": {
				"_baseURI()": "infinite",
				"_beforeTokenTransfer(address,address,uint256)": "infinite",
				"_setTableParam(uint256,string memory,string memory)": "infinite",
				"_string2Uint(string memory)": "infinite"
			}
		},
		"methodIdentifiers": {
			"ADMIN_ROLE()": "75b238fc",
			"BURN_ROLE()": "b930908f",
			"DEFAULT_ADMIN_ROLE()": "a217fddf",
			"MINTER_ROLE()": "d5391393",
			"PAUSER_ROLE()": "e63ab1e9",
			"approve(address,uint256)": "095ea7b3",
			"balanceOf(address)": "70a08231",
			"burn(uint256)": "42966c68",
			"getApproved(uint256)": "081812fc",
			"getListParamsByTokenId(uint256)": "a82f2a15",
			"getOwnerOf(uint256)": "83638710",
			"getRoleAdmin(bytes32)": "248a9ca3",
			"getTableParamByTokenId(uint256,string)": "58273ccb",
			"getTypeOfSupply(uint256)": "13f667f4",
			"grantRole(bytes32,address)": "2f2ff15d",
			"hasRole(bytes32,address)": "91d14854",
			"isApprovedForAll(address,address)": "e985e9c5",
			"name()": "06fdde03",
			"owner()": "8da5cb5b",
			"ownerOf(uint256)": "6352211e",
			"pause()": "8456cb59",
			"paused()": "5c975abb",
			"renounceOwnership()": "715018a6",
			"renounceRole(bytes32,address)": "36568abe",
			"revokeRole(bytes32,address)": "d547741f",
			"safeMintFromMap(address,uint256,string[])": "d5043c7d",
			"safeTransferFrom(address,address,uint256)": "42842e0e",
			"safeTransferFrom(address,address,uint256,bytes)": "b88d4fde",
			"setApprovalForAll(address,bool)": "a22cb465",
			"setBaseTokenURI(string)": "30176e13",
			"setTableParam(uint256,string,string)": "94ffc3e5",
			"supportsInterface(bytes4)": "01ffc9a7",
			"symbol()": "95d89b41",
			"tokenByIndex(uint256)": "4f6ccce7",
			"tokenOfOwnerByIndex(address,uint256)": "2f745c59",
			"tokenURI(uint256)": "c87b56dd",
			"totalSupply()": "18160ddd",
			"transferFrom(address,address,uint256)": "23b872dd",
			"transferOwnership(address)": "f2fde38b",
			"unpause()": "3f4ba83a"
		}
	},
	"abi": [
		{
			"inputs": [
				{
					"internalType": "string",
					"name": "name",
					"type": "string"
				},
				{
					"internalType": "string",
					"name": "symbol",
					"type": "string"
				},
				{
					"internalType": "string",
					"name": "baseTokenURI",
					"type": "string"
				}
			],
			"stateMutability": "nonpayable",
			"type": "constructor"
		},
		{
			"anonymous": false,
			"inputs": [
				{
					"indexed": true,
					"internalType": "address",
					"name": "owner",
					"type": "address"
				},
				{
					"indexed": true,
					"internalType": "address",
					"name": "approved",
					"type": "address"
				},
				{
					"indexed": true,
					"internalType": "uint256",
					"name": "tokenId",
					"type": "uint256"
				}
			],
			"name": "Approval",
			"type": "event"
		},
		{
			"anonymous": false,
			"inputs": [
				{
					"indexed": true,
					"internalType": "address",
					"name": "owner",
					"type": "address"
				},
				{
					"indexed": true,
					"internalType": "address",
					"name": "operator",
					"type": "address"
				},
				{
					"indexed": false,
					"internalType": "bool",
					"name": "approved",
					"type": "bool"
				}
			],
			"name": "ApprovalForAll",
			"type": "event"
		},
		{
			"anonymous": false,
			"inputs": [
				{
					"indexed": false,
					"internalType": "uint256",
					"name": "nft",
					"type": "uint256"
				},
				{
					"indexed": false,
					"internalType": "address",
					"name": "owner",
					"type": "address"
				},
				{
					"indexed": false,
					"internalType": "uint256",
					"name": "tokenType",
					"type": "uint256"
				},
				{
					"indexed": false,
					"internalType": "string[]",
					"name": "params",
					"type": "string[]"
				}
			],
			"name": "NFTGenerated",
			"type": "event"
		},
		{
			"anonymous": false,
			"inputs": [
				{
					"indexed": true,
					"internalType": "address",
					"name": "previousOwner",
					"type": "address"
				},
				{
					"indexed": true,
					"internalType": "address",
					"name": "newOwner",
					"type": "address"
				}
			],
			"name": "OwnershipTransferred",
			"type": "event"
		},
		{
			"anonymous": false,
			"inputs": [
				{
					"indexed": false,
					"internalType": "address",
					"name": "account",
					"type": "address"
				}
			],
			"name": "Paused",
			"type": "event"
		},
		{
			"anonymous": false,
			"inputs": [
				{
					"indexed": true,
					"internalType": "bytes32",
					"name": "role",
					"type": "bytes32"
				},
				{
					"indexed": true,
					"internalType": "bytes32",
					"name": "previousAdminRole",
					"type": "bytes32"
				},
				{
					"indexed": true,
					"internalType": "bytes32",
					"name": "newAdminRole",
					"type": "bytes32"
				}
			],
			"name": "RoleAdminChanged",
			"type": "event"
		},
		{
			"anonymous": false,
			"inputs": [
				{
					"indexed": true,
					"internalType": "bytes32",
					"name": "role",
					"type": "bytes32"
				},
				{
					"indexed": true,
					"internalType": "address",
					"name": "account",
					"type": "address"
				},
				{
					"indexed": true,
					"internalType": "address",
					"name": "sender",
					"type": "address"
				}
			],
			"name": "RoleGranted",
			"type": "event"
		},
		{
			"anonymous": false,
			"inputs": [
				{
					"indexed": true,
					"internalType": "bytes32",
					"name": "role",
					"type": "bytes32"
				},
				{
					"indexed": true,
					"internalType": "address",
					"name": "account",
					"type": "address"
				},
				{
					"indexed": true,
					"internalType": "address",
					"name": "sender",
					"type": "address"
				}
			],
			"name": "RoleRevoked",
			"type": "event"
		},
		{
			"anonymous": false,
			"inputs": [
				{
					"indexed": true,
					"internalType": "address",
					"name": "from",
					"type": "address"
				},
				{
					"indexed": true,
					"internalType": "address",
					"name": "to",
					"type": "address"
				},
				{
					"indexed": true,
					"internalType": "uint256",
					"name": "tokenId",
					"type": "uint256"
				}
			],
			"name": "Transfer",
			"type": "event"
		},
		{
			"anonymous": false,
			"inputs": [
				{
					"indexed": false,
					"internalType": "address",
					"name": "account",
					"type": "address"
				}
			],
			"name": "Unpaused",
			"type": "event"
		},
		{
			"anonymous": false,
			"inputs": [
				{
					"indexed": false,
					"internalType": "uint256",
					"name": "tokenId",
					"type": "uint256"
				},
				{
					"indexed": false,
					"internalType": "string",
					"name": "key",
					"type": "string"
				},
				{
					"indexed": false,
					"internalType": "string",
					"name": "value",
					"type": "string"
				}
			],
			"name": "UpdateTableParams",
			"type": "event"
		},
		{
			"inputs": [],
			"name": "ADMIN_ROLE",
			"outputs": [
				{
					"internalType": "bytes32",
					"name": "",
					"type": "bytes32"
				}
			],
			"stateMutability": "view",
			"type": "function"
		},
		{
			"inputs": [],
			"name": "BURN_ROLE",
			"outputs": [
				{
					"internalType": "bytes32",
					"name": "",
					"type": "bytes32"
				}
			],
			"stateMutability": "view",
			"type": "function"
		},
		{
			"inputs": [],
			"name": "DEFAULT_ADMIN_ROLE",
			"outputs": [
				{
					"internalType": "bytes32",
					"name": "",
					"type": "bytes32"
				}
			],
			"stateMutability": "view",
			"type": "function"
		},
		{
			"inputs": [],
			"name": "MINTER_ROLE",
			"outputs": [
				{
					"internalType": "bytes32",
					"name": "",
					"type": "bytes32"
				}
			],
			"stateMutability": "view",
			"type": "function"
		},
		{
			"inputs": [],
			"name": "PAUSER_ROLE",
			"outputs": [
				{
					"internalType": "bytes32",
					"name": "",
					"type": "bytes32"
				}
			],
			"stateMutability": "view",
			"type": "function"
		},
		{
			"inputs": [
				{
					"internalType": "address",
					"name": "to",
					"type": "address"
				},
				{
					"internalType": "uint256",
					"name": "tokenId",
					"type": "uint256"
				}
			],
			"name": "approve",
			"outputs": [],
			"stateMutability": "nonpayable",
			"type": "function"
		},
		{
			"inputs": [
				{
					"internalType": "address",
					"name": "owner",
					"type": "address"
				}
			],
			"name": "balanceOf",
			"outputs": [
				{
					"internalType": "uint256",
					"name": "",
					"type": "uint256"
				}
			],
			"stateMutability": "view",
			"type": "function"
		},
		{
			"inputs": [
				{
					"internalType": "uint256",
					"name": "tokenId",
					"type": "uint256"
				}
			],
			"name": "burn",
			"outputs": [],
			"stateMutability": "nonpayable",
			"type": "function"
		},
		{
			"inputs": [
				{
					"internalType": "uint256",
					"name": "tokenId",
					"type": "uint256"
				}
			],
			"name": "getApproved",
			"outputs": [
				{
					"internalType": "address",
					"name": "",
					"type": "address"
				}
			],
			"stateMutability": "view",
			"type": "function"
		},
		{
			"inputs": [
				{
					"internalType": "uint256",
					"name": "tokenId",
					"type": "uint256"
				}
			],
			"name": "getListParamsByTokenId",
			"outputs": [
				{
					"internalType": "string[]",
					"name": "",
					"type": "string[]"
				}
			],
			"stateMutability": "view",
			"type": "function"
		},
		{
			"inputs": [
				{
					"internalType": "uint256",
					"name": "_id",
					"type": "uint256"
				}
			],
			"name": "getOwnerOf",
			"outputs": [
				{
					"internalType": "address",
					"name": "",
					"type": "address"
				}
			],
			"stateMutability": "view",
			"type": "function"
		},
		{
			"inputs": [
				{
					"internalType": "bytes32",
					"name": "role",
					"type": "bytes32"
				}
			],
			"name": "getRoleAdmin",
			"outputs": [
				{
					"internalType": "bytes32",
					"name": "",
					"type": "bytes32"
				}
			],
			"stateMutability": "view",
			"type": "function"
		},
		{
			"inputs": [
				{
					"internalType": "uint256",
					"name": "tokenId",
					"type": "uint256"
				},
				{
					"internalType": "string",
					"name": "key",
					"type": "string"
				}
			],
			"name": "getTableParamByTokenId",
			"outputs": [
				{
					"internalType": "string",
					"name": "",
					"type": "string"
				}
			],
			"stateMutability": "view",
			"type": "function"
		},
		{
			"inputs": [
				{
					"internalType": "uint256",
					"name": "tokenType",
					"type": "uint256"
				}
			],
			"name": "getTypeOfSupply",
			"outputs": [
				{
					"internalType": "uint256",
					"name": "",
					"type": "uint256"
				}
			],
			"stateMutability": "view",
			"type": "function"
		},
		{
			"inputs": [
				{
					"internalType": "bytes32",
					"name": "role",
					"type": "bytes32"
				},
				{
					"internalType": "address",
					"name": "account",
					"type": "address"
				}
			],
			"name": "grantRole",
			"outputs": [],
			"stateMutability": "nonpayable",
			"type": "function"
		},
		{
			"inputs": [
				{
					"internalType": "bytes32",
					"name": "role",
					"type": "bytes32"
				},
				{
					"internalType": "address",
					"name": "account",
					"type": "address"
				}
			],
			"name": "hasRole",
			"outputs": [
				{
					"internalType": "bool",
					"name": "",
					"type": "bool"
				}
			],
			"stateMutability": "view",
			"type": "function"
		},
		{
			"inputs": [
				{
					"internalType": "address",
					"name": "owner",
					"type": "address"
				},
				{
					"internalType": "address",
					"name": "operator",
					"type": "address"
				}
			],
			"name": "isApprovedForAll",
			"outputs": [
				{
					"internalType": "bool",
					"name": "",
					"type": "bool"
				}
			],
			"stateMutability": "view",
			"type": "function"
		},
		{
			"inputs": [],
			"name": "name",
			"outputs": [
				{
					"internalType": "string",
					"name": "",
					"type": "string"
				}
			],
			"stateMutability": "view",
			"type": "function"
		},
		{
			"inputs": [],
			"name": "owner",
			"outputs": [
				{
					"internalType": "address",
					"name": "",
					"type": "address"
				}
			],
			"stateMutability": "view",
			"type": "function"
		},
		{
			"inputs": [
				{
					"internalType": "uint256",
					"name": "tokenId",
					"type": "uint256"
				}
			],
			"name": "ownerOf",
			"outputs": [
				{
					"internalType": "address",
					"name": "",
					"type": "address"
				}
			],
			"stateMutability": "view",
			"type": "function"
		},
		{
			"inputs": [],
			"name": "pause",
			"outputs": [],
			"stateMutability": "nonpayable",
			"type": "function"
		},
		{
			"inputs": [],
			"name": "paused",
			"outputs": [
				{
					"internalType": "bool",
					"name": "",
					"type": "bool"
				}
			],
			"stateMutability": "view",
			"type": "function"
		},
		{
			"inputs": [],
			"name": "renounceOwnership",
			"outputs": [],
			"stateMutability": "nonpayable",
			"type": "function"
		},
		{
			"inputs": [
				{
					"internalType": "bytes32",
					"name": "role",
					"type": "bytes32"
				},
				{
					"internalType": "address",
					"name": "account",
					"type": "address"
				}
			],
			"name": "renounceRole",
			"outputs": [],
			"stateMutability": "nonpayable",
			"type": "function"
		},
		{
			"inputs": [
				{
					"internalType": "bytes32",
					"name": "role",
					"type": "bytes32"
				},
				{
					"internalType": "address",
					"name": "account",
					"type": "address"
				}
			],
			"name": "revokeRole",
			"outputs": [],
			"stateMutability": "nonpayable",
			"type": "function"
		},
		{
			"inputs": [
				{
					"internalType": "address",
					"name": "to",
					"type": "address"
				},
				{
					"internalType": "uint256",
					"name": "tokenType",
					"type": "uint256"
				},
				{
					"internalType": "string[]",
					"name": "params",
					"type": "string[]"
				}
			],
			"name": "safeMintFromMap",
			"outputs": [],
			"stateMutability": "nonpayable",
			"type": "function"
		},
		{
			"inputs": [
				{
					"internalType": "address",
					"name": "from",
					"type": "address"
				},
				{
					"internalType": "address",
					"name": "to",
					"type": "address"
				},
				{
					"internalType": "uint256",
					"name": "tokenId",
					"type": "uint256"
				}
			],
			"name": "safeTransferFrom",
			"outputs": [],
			"stateMutability": "nonpayable",
			"type": "function"
		},
		{
			"inputs": [
				{
					"internalType": "address",
					"name": "from",
					"type": "address"
				},
				{
					"internalType": "address",
					"name": "to",
					"type": "address"
				},
				{
					"internalType": "uint256",
					"name": "tokenId",
					"type": "uint256"
				},
				{
					"internalType": "bytes",
					"name": "_data",
					"type": "bytes"
				}
			],
			"name": "safeTransferFrom",
			"outputs": [],
			"stateMutability": "nonpayable",
			"type": "function"
		},
		{
			"inputs": [
				{
					"internalType": "address",
					"name": "operator",
					"type": "address"
				},
				{
					"internalType": "bool",
					"name": "approved",
					"type": "bool"
				}
			],
			"name": "setApprovalForAll",
			"outputs": [],
			"stateMutability": "nonpayable",
			"type": "function"
		},
		{
			"inputs": [
				{
					"internalType": "string",
					"name": "_uri",
					"type": "string"
				}
			],
			"name": "setBaseTokenURI",
			"outputs": [],
			"stateMutability": "nonpayable",
			"type": "function"
		},
		{
			"inputs": [
				{
					"internalType": "uint256",
					"name": "tokenId",
					"type": "uint256"
				},
				{
					"internalType": "string",
					"name": "key",
					"type": "string"
				},
				{
					"internalType": "string",
					"name": "value",
					"type": "string"
				}
			],
			"name": "setTableParam",
			"outputs": [],
			"stateMutability": "nonpayable",
			"type": "function"
		},
		{
			"inputs": [
				{
					"internalType": "bytes4",
					"name": "interfaceId",
					"type": "bytes4"
				}
			],
			"name": "supportsInterface",
			"outputs": [
				{
					"internalType": "bool",
					"name": "",
					"type": "bool"
				}
			],
			"stateMutability": "view",
			"type": "function"
		},
		{
			"inputs": [],
			"name": "symbol",
			"outputs": [
				{
					"internalType": "string",
					"name": "",
					"type": "string"
				}
			],
			"stateMutability": "view",
			"type": "function"
		},
		{
			"inputs": [
				{
					"internalType": "uint256",
					"name": "index",
					"type": "uint256"
				}
			],
			"name": "tokenByIndex",
			"outputs": [
				{
					"internalType": "uint256",
					"name": "",
					"type": "uint256"
				}
			],
			"stateMutability": "view",
			"type": "function"
		},
		{
			"inputs": [
				{
					"internalType": "address",
					"name": "owner",
					"type": "address"
				},
				{
					"internalType": "uint256",
					"name": "index",
					"type": "uint256"
				}
			],
			"name": "tokenOfOwnerByIndex",
			"outputs": [
				{
					"internalType": "uint256",
					"name": "",
					"type": "uint256"
				}
			],
			"stateMutability": "view",
			"type": "function"
		},
		{
			"inputs": [
				{
					"internalType": "uint256",
					"name": "tokenId",
					"type": "uint256"
				}
			],
			"name": "tokenURI",
			"outputs": [
				{
					"internalType": "string",
					"name": "",
					"type": "string"
				}
			],
			"stateMutability": "view",
			"type": "function"
		},
		{
			"inputs": [],
			"name": "totalSupply",
			"outputs": [
				{
					"internalType": "uint256",
					"name": "",
					"type": "uint256"
				}
			],
			"stateMutability": "view",
			"type": "function"
		},
		{
			"inputs": [
				{
					"internalType": "address",
					"name": "from",
					"type": "address"
				},
				{
					"internalType": "address",
					"name": "to",
					"type": "address"
				},
				{
					"internalType": "uint256",
					"name": "tokenId",
					"type": "uint256"
				}
			],
			"name": "transferFrom",
			"outputs": [],
			"stateMutability": "nonpayable",
			"type": "function"
		},
		{
			"inputs": [
				{
					"internalType": "address",
					"name": "newOwner",
					"type": "address"
				}
			],
			"name": "transferOwnership",
			"outputs": [],
			"stateMutability": "nonpayable",
			"type": "function"
		},
		{
			"inputs": [],
			"name": "unpause",
			"outputs": [],
			"stateMutability": "nonpayable",
			"type": "function"
		}
	]
}