{
	"data": {
		"bytecode": {
			"linkReferences": {},
			"object": "6080604052600c6000806101000a81548167ffffffffffffffff021916908367ffffffffffffffff1602179055506064600155600a6002556063600355601560045534801561004d57600080fd5b50610a9c8061005d6000396000f3fe608060405234801561001057600080fd5b50600436106100a95760003560e01c806350e3254e1161007157806350e3254e1461017a57806362c5b4c8146101985780637b8e1d92146101c85780638d8b1b88146101e6578063a6f3340514610216578063bcca04f814610246576100a9565b8063046d30c7146100ae578063202a3483146100de57806327752894146100fc57806343759a571461011a5780634deace7b1461014a575b600080fd5b6100c860048036038101906100c391906106ba565b610264565b6040516100d59190610822565b60405180910390f35b6100e66102ad565b6040516100f39190610822565b60405180910390f35b6101046102c2565b6040516101119190610822565b60405180910390f35b610134600480360381019061012f9190610727565b6102c8565b6040516101419190610822565b60405180910390f35b610164600480360381019061015f91906106e7565b61048f565b6040516101719190610822565b60405180910390f35b6101826104b3565b60405161018f9190610822565b60405180910390f35b6101b260048036038101906101ad91906106e7565b610539565b6040516101bf9190610822565b60405180910390f35b6101d06105c6565b6040516101dd9190610822565b60405180910390f35b61020060048036038101906101fb91906106e7565b6105cc565b60405161020d9190610822565b60405180910390f35b610230600480360381019061022b91906106ba565b6105e0565b60405161023d9190610822565b60405180910390f35b61024e61069c565b60405161025b9190610807565b60405180910390f35b60008044428460405160200161027c939291906107ca565b6040516020818303038152906040528051906020012060001c90506103e8816102a591906109bb565b915050919050565b60006102bd60035460045461048f565b905090565b60035481565b6000806102d483610264565b9050600385141561034c5760038414156102f2576003915050610488565b60028414806103015750600184145b15610324576101f481101561031a576003915050610488565b6002915050610488565b60028414806103335750600184145b15610342576002915050610488565b6000915050610488565b600285148061035b5750600185145b156103f8576003841415610387576101f481101561037d576003915050610488565b6002915050610488565b60028414806103965750600184145b156103cc5760fa8110156103ae576003915050610488565b6102ee8110156103c2576002915050610488565b6000915050610488565b60008414156103f3576101f48110156103e9576002915050610488565b6000915050610488565b610486565b600085141561045e57600284141561041457600a915050610488565b60028414806104235750600184145b15610446576101f481101561043c576002915050610488565b6000915050610488565b6000841415610459576000915050610488565b610485565b60008054906101000a900467ffffffffffffffff1667ffffffffffffffff16915050610488565b5b505b9392505050565b60008061049c8484610539565b90506104a7816105e0565b90508091505092915050565b6000804260016104c3919061083d565b6040516020016104d391906107af565b6040516020818303038152906040528051906020012060001c905060004260166104fd919061083d565b60405160200161050d91906107af565b6040516020818303038152906040528051906020012060001c9050610532828261048f565b9250505090565b6000806000905060005b607f81116105bb576000600360028361055c91906108c4565b87901c1690506000600360028461057391906108c4565b87901c16905060006105868383866102c8565b905060028461059591906108c4565b81901b856105a3919061083d565b945050505080806105b390610968565b915050610543565b508091505092915050565b60045481565b60006105d8838361048f565b905092915050565b60008082905060006105f143610264565b9050600a81101561062557806001901b821691506002548161061391906108c4565b6001901b821791508192505050610697565b60026001546106349190610893565b81101561064e57806001901b821691508192505050610697565b600260015461065d9190610893565b6103e861066a919061091e565b81111561069157806103e861067f919061091e565b6001901b821791508192505050610697565b81925050505b919050565b60006001905090565b6000813590506106b481610a4f565b92915050565b6000602082840312156106d0576106cf610a4a565b5b60006106de848285016106a5565b91505092915050565b600080604083850312156106fe576106fd610a4a565b5b600061070c858286016106a5565b925050602061071d858286016106a5565b9150509250929050565b6000806000606084860312156107405761073f610a4a565b5b600061074e868287016106a5565b935050602061075f868287016106a5565b9250506040610770868287016106a5565b9150509250925092565b61078381610952565b82525050565b6107928161095e565b82525050565b6107a96107a48261095e565b6109b1565b82525050565b60006107bb8284610798565b60208201915081905092915050565b60006107d68286610798565b6020820191506107e68285610798565b6020820191506107f68284610798565b602082019150819050949350505050565b600060208201905061081c600083018461077a565b92915050565b60006020820190506108376000830184610789565b92915050565b60006108488261095e565b91506108538361095e565b9250827fffffffffffffffffffffffffffffffffffffffffffffffffffffffffffffffff03821115610888576108876109ec565b5b828201905092915050565b600061089e8261095e565b91506108a98361095e565b9250826108b9576108b8610a1b565b5b828204905092915050565b60006108cf8261095e565b91506108da8361095e565b9250817fffffffffffffffffffffffffffffffffffffffffffffffffffffffffffffffff0483118215151615610913576109126109ec565b5b828202905092915050565b60006109298261095e565b91506109348361095e565b925082821015610947576109466109ec565b5b828203905092915050565b60008115159050919050565b6000819050919050565b60006109738261095e565b91507fffffffffffffffffffffffffffffffffffffffffffffffffffffffffffffffff8214156109a6576109a56109ec565b5b600182019050919050565b6000819050919050565b60006109c68261095e565b91506109d18361095e565b9250826109e1576109e0610a1b565b5b828206905092915050565b7f4e487b7100000000000000000000000000000000000000000000000000000000600052601160045260246000fd5b7f4e487b7100000000000000000000000000000000000000000000000000000000600052601260045260246000fd5b600080fd5b610a588161095e565b8114610a6357600080fd5b5056fea26469706673582212201d05bc30a86c39901aff9961243ef8bec510ff92a8373029988425099b3a6ae564736f6c63430008070033",
			"opcodes": "PUSH1 0x80 PUSH1 0x40 MSTORE PUSH1 0xC PUSH1 0x0 DUP1 PUSH2 0x100 EXP DUP2 SLOAD DUP2 PUSH8 0xFFFFFFFFFFFFFFFF MUL NOT AND SWAP1 DUP4 PUSH8 0xFFFFFFFFFFFFFFFF AND MUL OR SWAP1 SSTORE POP PUSH1 0x64 PUSH1 0x1 SSTORE PUSH1 0xA PUSH1 0x2 SSTORE PUSH1 0x63 PUSH1 0x3 SSTORE PUSH1 0x15 PUSH1 0x4 SSTORE CALLVALUE DUP1 ISZERO PUSH2 0x4D JUMPI PUSH1 0x0 DUP1 REVERT JUMPDEST POP PUSH2 0xA9C DUP1 PUSH2 0x5D PUSH1 0x0 CODECOPY PUSH1 0x0 RETURN INVALID PUSH1 0x80 PUSH1 0x40 MSTORE CALLVALUE DUP1 ISZERO PUSH2 0x10 JUMPI PUSH1 0x0 DUP1 REVERT JUMPDEST POP PUSH1 0x4 CALLDATASIZE LT PUSH2 0xA9 JUMPI PUSH1 0x0 CALLDATALOAD PUSH1 0xE0 SHR DUP1 PUSH4 0x50E3254E GT PUSH2 0x71 JUMPI DUP1 PUSH4 0x50E3254E EQ PUSH2 0x17A JUMPI DUP1 PUSH4 0x62C5B4C8 EQ PUSH2 0x198 JUMPI DUP1 PUSH4 0x7B8E1D92 EQ PUSH2 0x1C8 JUMPI DUP1 PUSH4 0x8D8B1B88 EQ PUSH2 0x1E6 JUMPI DUP1 PUSH4 0xA6F33405 EQ PUSH2 0x216 JUMPI DUP1 PUSH4 0xBCCA04F8 EQ PUSH2 0x246 JUMPI PUSH2 0xA9 JUMP JUMPDEST DUP1 PUSH4 0x46D30C7 EQ PUSH2 0xAE JUMPI DUP1 PUSH4 0x202A3483 EQ PUSH2 0xDE JUMPI DUP1 PUSH4 0x27752894 EQ PUSH2 0xFC JUMPI DUP1 PUSH4 0x43759A57 EQ PUSH2 0x11A JUMPI DUP1 PUSH4 0x4DEACE7B EQ PUSH2 0x14A JUMPI JUMPDEST PUSH1 0x0 DUP1 REVERT JUMPDEST PUSH2 0xC8 PUSH1 0x4 DUP1 CALLDATASIZE SUB DUP2 ADD SWAP1 PUSH2 0xC3 SWAP2 SWAP1 PUSH2 0x6BA JUMP JUMPDEST PUSH2 0x264 JUMP JUMPDEST PUSH1 0x40 MLOAD PUSH2 0xD5 SWAP2 SWAP1 PUSH2 0x822 JUMP JUMPDEST PUSH1 0x40 MLOAD DUP1 SWAP2 SUB SWAP1 RETURN JUMPDEST PUSH2 0xE6 PUSH2 0x2AD JUMP JUMPDEST PUSH1 0x40 MLOAD PUSH2 0xF3 SWAP2 SWAP1 PUSH2 0x822 JUMP JUMPDEST PUSH1 0x40 MLOAD DUP1 SWAP2 SUB SWAP1 RETURN JUMPDEST PUSH2 0x104 PUSH2 0x2C2 JUMP JUMPDEST PUSH1 0x40 MLOAD PUSH2 0x111 SWAP2 SWAP1 PUSH2 0x822 JUMP JUMPDEST PUSH1 0x40 MLOAD DUP1 SWAP2 SUB SWAP1 RETURN JUMPDEST PUSH2 0x134 PUSH1 0x4 DUP1 CALLDATASIZE SUB DUP2 ADD SWAP1 PUSH2 0x12F SWAP2 SWAP1 PUSH2 0x727 JUMP JUMPDEST PUSH2 0x2C8 JUMP JUMPDEST PUSH1 0x40 MLOAD PUSH2 0x141 SWAP2 SWAP1 PUSH2 0x822 JUMP JUMPDEST PUSH1 0x40 MLOAD DUP1 SWAP2 SUB SWAP1 RETURN JUMPDEST PUSH2 0x164 PUSH1 0x4 DUP1 CALLDATASIZE SUB DUP2 ADD SWAP1 PUSH2 0x15F SWAP2 SWAP1 PUSH2 0x6E7 JUMP JUMPDEST PUSH2 0x48F JUMP JUMPDEST PUSH1 0x40 MLOAD PUSH2 0x171 SWAP2 SWAP1 PUSH2 0x822 JUMP JUMPDEST PUSH1 0x40 MLOAD DUP1 SWAP2 SUB SWAP1 RETURN JUMPDEST PUSH2 0x182 PUSH2 0x4B3 JUMP JUMPDEST PUSH1 0x40 MLOAD PUSH2 0x18F SWAP2 SWAP1 PUSH2 0x822 JUMP JUMPDEST PUSH1 0x40 MLOAD DUP1 SWAP2 SUB SWAP1 RETURN JUMPDEST PUSH2 0x1B2 PUSH1 0x4 DUP1 CALLDATASIZE SUB DUP2 ADD SWAP1 PUSH2 0x1AD SWAP2 SWAP1 PUSH2 0x6E7 JUMP JUMPDEST PUSH2 0x539 JUMP JUMPDEST PUSH1 0x40 MLOAD PUSH2 0x1BF SWAP2 SWAP1 PUSH2 0x822 JUMP JUMPDEST PUSH1 0x40 MLOAD DUP1 SWAP2 SUB SWAP1 RETURN JUMPDEST PUSH2 0x1D0 PUSH2 0x5C6 JUMP JUMPDEST PUSH1 0x40 MLOAD PUSH2 0x1DD SWAP2 SWAP1 PUSH2 0x822 JUMP JUMPDEST PUSH1 0x40 MLOAD DUP1 SWAP2 SUB SWAP1 RETURN JUMPDEST PUSH2 0x200 PUSH1 0x4 DUP1 CALLDATASIZE SUB DUP2 ADD SWAP1 PUSH2 0x1FB SWAP2 SWAP1 PUSH2 0x6E7 JUMP JUMPDEST PUSH2 0x5CC JUMP JUMPDEST PUSH1 0x40 MLOAD PUSH2 0x20D SWAP2 SWAP1 PUSH2 0x822 JUMP JUMPDEST PUSH1 0x40 MLOAD DUP1 SWAP2 SUB SWAP1 RETURN JUMPDEST PUSH2 0x230 PUSH1 0x4 DUP1 CALLDATASIZE SUB DUP2 ADD SWAP1 PUSH2 0x22B SWAP2 SWAP1 PUSH2 0x6BA JUMP JUMPDEST PUSH2 0x5E0 JUMP JUMPDEST PUSH1 0x40 MLOAD PUSH2 0x23D SWAP2 SWAP1 PUSH2 0x822 JUMP JUMPDEST PUSH1 0x40 MLOAD DUP1 SWAP2 SUB SWAP1 RETURN JUMPDEST PUSH2 0x24E PUSH2 0x69C JUMP JUMPDEST PUSH1 0x40 MLOAD PUSH2 0x25B SWAP2 SWAP1 PUSH2 0x807 JUMP JUMPDEST PUSH1 0x40 MLOAD DUP1 SWAP2 SUB SWAP1 RETURN JUMPDEST PUSH1 0x0 DUP1 DIFFICULTY TIMESTAMP DUP5 PUSH1 0x40 MLOAD PUSH1 0x20 ADD PUSH2 0x27C SWAP4 SWAP3 SWAP2 SWAP1 PUSH2 0x7CA JUMP JUMPDEST PUSH1 0x40 MLOAD PUSH1 0x20 DUP2 DUP4 SUB SUB DUP2 MSTORE SWAP1 PUSH1 0x40 MSTORE DUP1 MLOAD SWAP1 PUSH1 0x20 ADD KECCAK256 PUSH1 0x0 SHR SWAP1 POP PUSH2 0x3E8 DUP2 PUSH2 0x2A5 SWAP2 SWAP1 PUSH2 0x9BB JUMP JUMPDEST SWAP2 POP POP SWAP2 SWAP1 POP JUMP JUMPDEST PUSH1 0x0 PUSH2 0x2BD PUSH1 0x3 SLOAD PUSH1 0x4 SLOAD PUSH2 0x48F JUMP JUMPDEST SWAP1 POP SWAP1 JUMP JUMPDEST PUSH1 0x3 SLOAD DUP2 JUMP JUMPDEST PUSH1 0x0 DUP1 PUSH2 0x2D4 DUP4 PUSH2 0x264 JUMP JUMPDEST SWAP1 POP PUSH1 0x3 DUP6 EQ ISZERO PUSH2 0x34C JUMPI PUSH1 0x3 DUP5 EQ ISZERO PUSH2 0x2F2 JUMPI PUSH1 0x3 SWAP2 POP POP PUSH2 0x488 JUMP JUMPDEST PUSH1 0x2 DUP5 EQ DUP1 PUSH2 0x301 JUMPI POP PUSH1 0x1 DUP5 EQ JUMPDEST ISZERO PUSH2 0x324 JUMPI PUSH2 0x1F4 DUP2 LT ISZERO PUSH2 0x31A JUMPI PUSH1 0x3 SWAP2 POP POP PUSH2 0x488 JUMP JUMPDEST PUSH1 0x2 SWAP2 POP POP PUSH2 0x488 JUMP JUMPDEST PUSH1 0x2 DUP5 EQ DUP1 PUSH2 0x333 JUMPI POP PUSH1 0x1 DUP5 EQ JUMPDEST ISZERO PUSH2 0x342 JUMPI PUSH1 0x2 SWAP2 POP POP PUSH2 0x488 JUMP JUMPDEST PUSH1 0x0 SWAP2 POP POP PUSH2 0x488 JUMP JUMPDEST PUSH1 0x2 DUP6 EQ DUP1 PUSH2 0x35B JUMPI POP PUSH1 0x1 DUP6 EQ JUMPDEST ISZERO PUSH2 0x3F8 JUMPI PUSH1 0x3 DUP5 EQ ISZERO PUSH2 0x387 JUMPI PUSH2 0x1F4 DUP2 LT ISZERO PUSH2 0x37D JUMPI PUSH1 0x3 SWAP2 POP POP PUSH2 0x488 JUMP JUMPDEST PUSH1 0x2 SWAP2 POP POP PUSH2 0x488 JUMP JUMPDEST PUSH1 0x2 DUP5 EQ DUP1 PUSH2 0x396 JUMPI POP PUSH1 0x1 DUP5 EQ JUMPDEST ISZERO PUSH2 0x3CC JUMPI PUSH1 0xFA DUP2 LT ISZERO PUSH2 0x3AE JUMPI PUSH1 0x3 SWAP2 POP POP PUSH2 0x488 JUMP JUMPDEST PUSH2 0x2EE DUP2 LT ISZERO PUSH2 0x3C2 JUMPI PUSH1 0x2 SWAP2 POP POP PUSH2 0x488 JUMP JUMPDEST PUSH1 0x0 SWAP2 POP POP PUSH2 0x488 JUMP JUMPDEST PUSH1 0x0 DUP5 EQ ISZERO PUSH2 0x3F3 JUMPI PUSH2 0x1F4 DUP2 LT ISZERO PUSH2 0x3E9 JUMPI PUSH1 0x2 SWAP2 POP POP PUSH2 0x488 JUMP JUMPDEST PUSH1 0x0 SWAP2 POP POP PUSH2 0x488 JUMP JUMPDEST PUSH2 0x486 JUMP JUMPDEST PUSH1 0x0 DUP6 EQ ISZERO PUSH2 0x45E JUMPI PUSH1 0x2 DUP5 EQ ISZERO PUSH2 0x414 JUMPI PUSH1 0xA SWAP2 POP POP PUSH2 0x488 JUMP JUMPDEST PUSH1 0x2 DUP5 EQ DUP1 PUSH2 0x423 JUMPI POP PUSH1 0x1 DUP5 EQ JUMPDEST ISZERO PUSH2 0x446 JUMPI PUSH2 0x1F4 DUP2 LT ISZERO PUSH2 0x43C JUMPI PUSH1 0x2 SWAP2 POP POP PUSH2 0x488 JUMP JUMPDEST PUSH1 0x0 SWAP2 POP POP PUSH2 0x488 JUMP JUMPDEST PUSH1 0x0 DUP5 EQ ISZERO PUSH2 0x459 JUMPI PUSH1 0x0 SWAP2 POP POP PUSH2 0x488 JUMP JUMPDEST PUSH2 0x485 JUMP JUMPDEST PUSH1 0x0 DUP1 SLOAD SWAP1 PUSH2 0x100 EXP SWAP1 DIV PUSH8 0xFFFFFFFFFFFFFFFF AND PUSH8 0xFFFFFFFFFFFFFFFF AND SWAP2 POP POP PUSH2 0x488 JUMP JUMPDEST JUMPDEST POP JUMPDEST SWAP4 SWAP3 POP POP POP JUMP JUMPDEST PUSH1 0x0 DUP1 PUSH2 0x49C DUP5 DUP5 PUSH2 0x539 JUMP JUMPDEST SWAP1 POP PUSH2 0x4A7 DUP2 PUSH2 0x5E0 JUMP JUMPDEST SWAP1 POP DUP1 SWAP2 POP POP SWAP3 SWAP2 POP POP JUMP JUMPDEST PUSH1 0x0 DUP1 TIMESTAMP PUSH1 0x1 PUSH2 0x4C3 SWAP2 SWAP1 PUSH2 0x83D JUMP JUMPDEST PUSH1 0x40 MLOAD PUSH1 0x20 ADD PUSH2 0x4D3 SWAP2 SWAP1 PUSH2 0x7AF JUMP JUMPDEST PUSH1 0x40 MLOAD PUSH1 0x20 DUP2 DUP4 SUB SUB DUP2 MSTORE SWAP1 PUSH1 0x40 MSTORE DUP1 MLOAD SWAP1 PUSH1 0x20 ADD KECCAK256 PUSH1 0x0 SHR SWAP1 POP PUSH1 0x0 TIMESTAMP PUSH1 0x16 PUSH2 0x4FD SWAP2 SWAP1 PUSH2 0x83D JUMP JUMPDEST PUSH1 0x40 MLOAD PUSH1 0x20 ADD PUSH2 0x50D SWAP2 SWAP1 PUSH2 0x7AF JUMP JUMPDEST PUSH1 0x40 MLOAD PUSH1 0x20 DUP2 DUP4 SUB SUB DUP2 MSTORE SWAP1 PUSH1 0x40 MSTORE DUP1 MLOAD SWAP1 PUSH1 0x20 ADD KECCAK256 PUSH1 0x0 SHR SWAP1 POP PUSH2 0x532 DUP3 DUP3 PUSH2 0x48F JUMP JUMPDEST SWAP3 POP POP POP SWAP1 JUMP JUMPDEST PUSH1 0x0 DUP1 PUSH1 0x0 SWAP1 POP PUSH1 0x0 JUMPDEST PUSH1 0x7F DUP2 GT PUSH2 0x5BB JUMPI PUSH1 0x0 PUSH1 0x3 PUSH1 0x2 DUP4 PUSH2 0x55C SWAP2 SWAP1 PUSH2 0x8C4 JUMP JUMPDEST DUP8 SWAP1 SHR AND SWAP1 POP PUSH1 0x0 PUSH1 0x3 PUSH1 0x2 DUP5 PUSH2 0x573 SWAP2 SWAP1 PUSH2 0x8C4 JUMP JUMPDEST DUP8 SWAP1 SHR AND SWAP1 POP PUSH1 0x0 PUSH2 0x586 DUP4 DUP4 DUP7 PUSH2 0x2C8 JUMP JUMPDEST SWAP1 POP PUSH1 0x2 DUP5 PUSH2 0x595 SWAP2 SWAP1 PUSH2 0x8C4 JUMP JUMPDEST DUP2 SWAP1 SHL DUP6 PUSH2 0x5A3 SWAP2 SWAP1 PUSH2 0x83D JUMP JUMPDEST SWAP5 POP POP POP POP DUP1 DUP1 PUSH2 0x5B3 SWAP1 PUSH2 0x968 JUMP JUMPDEST SWAP2 POP POP PUSH2 0x543 JUMP JUMPDEST POP DUP1 SWAP2 POP POP SWAP3 SWAP2 POP POP JUMP JUMPDEST PUSH1 0x4 SLOAD DUP2 JUMP JUMPDEST PUSH1 0x0 PUSH2 0x5D8 DUP4 DUP4 PUSH2 0x48F JUMP JUMPDEST SWAP1 POP SWAP3 SWAP2 POP POP JUMP JUMPDEST PUSH1 0x0 DUP1 DUP3 SWAP1 POP PUSH1 0x0 PUSH2 0x5F1 NUMBER PUSH2 0x264 JUMP JUMPDEST SWAP1 POP PUSH1 0xA DUP2 LT ISZERO PUSH2 0x625 JUMPI DUP1 PUSH1 0x1 SWAP1 SHL DUP3 AND SWAP2 POP PUSH1 0x2 SLOAD DUP2 PUSH2 0x613 SWAP2 SWAP1 PUSH2 0x8C4 JUMP JUMPDEST PUSH1 0x1 SWAP1 SHL DUP3 OR SWAP2 POP DUP2 SWAP3 POP POP POP PUSH2 0x697 JUMP JUMPDEST PUSH1 0x2 PUSH1 0x1 SLOAD PUSH2 0x634 SWAP2 SWAP1 PUSH2 0x893 JUMP JUMPDEST DUP2 LT ISZERO PUSH2 0x64E JUMPI DUP1 PUSH1 0x1 SWAP1 SHL DUP3 AND SWAP2 POP DUP2 SWAP3 POP POP POP PUSH2 0x697 JUMP JUMPDEST PUSH1 0x2 PUSH1 0x1 SLOAD PUSH2 0x65D SWAP2 SWAP1 PUSH2 0x893 JUMP JUMPDEST PUSH2 0x3E8 PUSH2 0x66A SWAP2 SWAP1 PUSH2 0x91E JUMP JUMPDEST DUP2 GT ISZERO PUSH2 0x691 JUMPI DUP1 PUSH2 0x3E8 PUSH2 0x67F SWAP2 SWAP1 PUSH2 0x91E JUMP JUMPDEST PUSH1 0x1 SWAP1 SHL DUP3 OR SWAP2 POP DUP2 SWAP3 POP POP POP PUSH2 0x697 JUMP JUMPDEST DUP2 SWAP3 POP POP POP JUMPDEST SWAP2 SWAP1 POP JUMP JUMPDEST PUSH1 0x0 PUSH1 0x1 SWAP1 POP SWAP1 JUMP JUMPDEST PUSH1 0x0 DUP2 CALLDATALOAD SWAP1 POP PUSH2 0x6B4 DUP2 PUSH2 0xA4F JUMP JUMPDEST SWAP3 SWAP2 POP POP JUMP JUMPDEST PUSH1 0x0 PUSH1 0x20 DUP3 DUP5 SUB SLT ISZERO PUSH2 0x6D0 JUMPI PUSH2 0x6CF PUSH2 0xA4A JUMP JUMPDEST JUMPDEST PUSH1 0x0 PUSH2 0x6DE DUP5 DUP3 DUP6 ADD PUSH2 0x6A5 JUMP JUMPDEST SWAP2 POP POP SWAP3 SWAP2 POP POP JUMP JUMPDEST PUSH1 0x0 DUP1 PUSH1 0x40 DUP4 DUP6 SUB SLT ISZERO PUSH2 0x6FE JUMPI PUSH2 0x6FD PUSH2 0xA4A JUMP JUMPDEST JUMPDEST PUSH1 0x0 PUSH2 0x70C DUP6 DUP3 DUP7 ADD PUSH2 0x6A5 JUMP JUMPDEST SWAP3 POP POP PUSH1 0x20 PUSH2 0x71D DUP6 DUP3 DUP7 ADD PUSH2 0x6A5 JUMP JUMPDEST SWAP2 POP POP SWAP3 POP SWAP3 SWAP1 POP JUMP JUMPDEST PUSH1 0x0 DUP1 PUSH1 0x0 PUSH1 0x60 DUP5 DUP7 SUB SLT ISZERO PUSH2 0x740 JUMPI PUSH2 0x73F PUSH2 0xA4A JUMP JUMPDEST JUMPDEST PUSH1 0x0 PUSH2 0x74E DUP7 DUP3 DUP8 ADD PUSH2 0x6A5 JUMP JUMPDEST SWAP4 POP POP PUSH1 0x20 PUSH2 0x75F DUP7 DUP3 DUP8 ADD PUSH2 0x6A5 JUMP JUMPDEST SWAP3 POP POP PUSH1 0x40 PUSH2 0x770 DUP7 DUP3 DUP8 ADD PUSH2 0x6A5 JUMP JUMPDEST SWAP2 POP POP SWAP3 POP SWAP3 POP SWAP3 JUMP JUMPDEST PUSH2 0x783 DUP2 PUSH2 0x952 JUMP JUMPDEST DUP3 MSTORE POP POP JUMP JUMPDEST PUSH2 0x792 DUP2 PUSH2 0x95E JUMP JUMPDEST DUP3 MSTORE POP POP JUMP JUMPDEST PUSH2 0x7A9 PUSH2 0x7A4 DUP3 PUSH2 0x95E JUMP JUMPDEST PUSH2 0x9B1 JUMP JUMPDEST DUP3 MSTORE POP POP JUMP JUMPDEST PUSH1 0x0 PUSH2 0x7BB DUP3 DUP5 PUSH2 0x798 JUMP JUMPDEST PUSH1 0x20 DUP3 ADD SWAP2 POP DUP2 SWAP1 POP SWAP3 SWAP2 POP POP JUMP JUMPDEST PUSH1 0x0 PUSH2 0x7D6 DUP3 DUP7 PUSH2 0x798 JUMP JUMPDEST PUSH1 0x20 DUP3 ADD SWAP2 POP PUSH2 0x7E6 DUP3 DUP6 PUSH2 0x798 JUMP JUMPDEST PUSH1 0x20 DUP3 ADD SWAP2 POP PUSH2 0x7F6 DUP3 DUP5 PUSH2 0x798 JUMP JUMPDEST PUSH1 0x20 DUP3 ADD SWAP2 POP DUP2 SWAP1 POP SWAP5 SWAP4 POP POP POP POP JUMP JUMPDEST PUSH1 0x0 PUSH1 0x20 DUP3 ADD SWAP1 POP PUSH2 0x81C PUSH1 0x0 DUP4 ADD DUP5 PUSH2 0x77A JUMP JUMPDEST SWAP3 SWAP2 POP POP JUMP JUMPDEST PUSH1 0x0 PUSH1 0x20 DUP3 ADD SWAP1 POP PUSH2 0x837 PUSH1 0x0 DUP4 ADD DUP5 PUSH2 0x789 JUMP JUMPDEST SWAP3 SWAP2 POP POP JUMP JUMPDEST PUSH1 0x0 PUSH2 0x848 DUP3 PUSH2 0x95E JUMP JUMPDEST SWAP2 POP PUSH2 0x853 DUP4 PUSH2 0x95E JUMP JUMPDEST SWAP3 POP DUP3 PUSH32 0xFFFFFFFFFFFFFFFFFFFFFFFFFFFFFFFFFFFFFFFFFFFFFFFFFFFFFFFFFFFFFFFF SUB DUP3 GT ISZERO PUSH2 0x888 JUMPI PUSH2 0x887 PUSH2 0x9EC JUMP JUMPDEST JUMPDEST DUP3 DUP3 ADD SWAP1 POP SWAP3 SWAP2 POP POP JUMP JUMPDEST PUSH1 0x0 PUSH2 0x89E DUP3 PUSH2 0x95E JUMP JUMPDEST SWAP2 POP PUSH2 0x8A9 DUP4 PUSH2 0x95E JUMP JUMPDEST SWAP3 POP DUP3 PUSH2 0x8B9 JUMPI PUSH2 0x8B8 PUSH2 0xA1B JUMP JUMPDEST JUMPDEST DUP3 DUP3 DIV SWAP1 POP SWAP3 SWAP2 POP POP JUMP JUMPDEST PUSH1 0x0 PUSH2 0x8CF DUP3 PUSH2 0x95E JUMP JUMPDEST SWAP2 POP PUSH2 0x8DA DUP4 PUSH2 0x95E JUMP JUMPDEST SWAP3 POP DUP2 PUSH32 0xFFFFFFFFFFFFFFFFFFFFFFFFFFFFFFFFFFFFFFFFFFFFFFFFFFFFFFFFFFFFFFFF DIV DUP4 GT DUP3 ISZERO ISZERO AND ISZERO PUSH2 0x913 JUMPI PUSH2 0x912 PUSH2 0x9EC JUMP JUMPDEST JUMPDEST DUP3 DUP3 MUL SWAP1 POP SWAP3 SWAP2 POP POP JUMP JUMPDEST PUSH1 0x0 PUSH2 0x929 DUP3 PUSH2 0x95E JUMP JUMPDEST SWAP2 POP PUSH2 0x934 DUP4 PUSH2 0x95E JUMP JUMPDEST SWAP3 POP DUP3 DUP3 LT ISZERO PUSH2 0x947 JUMPI PUSH2 0x946 PUSH2 0x9EC JUMP JUMPDEST JUMPDEST DUP3 DUP3 SUB SWAP1 POP SWAP3 SWAP2 POP POP JUMP JUMPDEST PUSH1 0x0 DUP2 ISZERO ISZERO SWAP1 POP SWAP2 SWAP1 POP JUMP JUMPDEST PUSH1 0x0 DUP2 SWAP1 POP SWAP2 SWAP1 POP JUMP JUMPDEST PUSH1 0x0 PUSH2 0x973 DUP3 PUSH2 0x95E JUMP JUMPDEST SWAP2 POP PUSH32 0xFFFFFFFFFFFFFFFFFFFFFFFFFFFFFFFFFFFFFFFFFFFFFFFFFFFFFFFFFFFFFFFF DUP3 EQ ISZERO PUSH2 0x9A6 JUMPI PUSH2 0x9A5 PUSH2 0x9EC JUMP JUMPDEST JUMPDEST PUSH1 0x1 DUP3 ADD SWAP1 POP SWAP2 SWAP1 POP JUMP JUMPDEST PUSH1 0x0 DUP2 SWAP1 POP SWAP2 SWAP1 POP JUMP JUMPDEST PUSH1 0x0 PUSH2 0x9C6 DUP3 PUSH2 0x95E JUMP JUMPDEST SWAP2 POP PUSH2 0x9D1 DUP4 PUSH2 0x95E JUMP JUMPDEST SWAP3 POP DUP3 PUSH2 0x9E1 JUMPI PUSH2 0x9E0 PUSH2 0xA1B JUMP JUMPDEST JUMPDEST DUP3 DUP3 MOD SWAP1 POP SWAP3 SWAP2 POP POP JUMP JUMPDEST PUSH32 0x4E487B7100000000000000000000000000000000000000000000000000000000 PUSH1 0x0 MSTORE PUSH1 0x11 PUSH1 0x4 MSTORE PUSH1 0x24 PUSH1 0x0 REVERT JUMPDEST PUSH32 0x4E487B7100000000000000000000000000000000000000000000000000000000 PUSH1 0x0 MSTORE PUSH1 0x12 PUSH1 0x4 MSTORE PUSH1 0x24 PUSH1 0x0 REVERT JUMPDEST PUSH1 0x0 DUP1 REVERT JUMPDEST PUSH2 0xA58 DUP2 PUSH2 0x95E JUMP JUMPDEST DUP2 EQ PUSH2 0xA63 JUMPI PUSH1 0x0 DUP1 REVERT JUMPDEST POP JUMP INVALID LOG2 PUSH5 0x6970667358 0x22 SLT KECCAK256 SAR SDIV 0xBC ADDRESS 0xA8 PUSH13 0x39901AFF9961243EF8BEC510FF SWAP3 0xA8 CALLDATACOPY ADDRESS 0x29 SWAP9 DUP5 0x25 MULMOD SWAP12 GASPRICE PUSH11 0xE564736F6C634300080700 CALLER "
		},
		"gasEstimates": {
			"creation": {
				"codeDepositCost": "543200",
				"executionCost": "113266",
				"totalCost": "656466"
			},
			"external": {
				"_mix(uint256,uint256)": "infinite",
				"_mix_tool(uint256,uint256,uint256)": "infinite",
				"_mutate(uint256)": "infinite",
				"_random(uint256)": "infinite",
				"isGeneConsole()": "453",
				"mixGene1()": "2474",
				"mixGene2()": "2473",
				"mixGenes(uint256,uint256)": "infinite",
				"randMix()": "infinite",
				"reproduce(uint256,uint256)": "infinite",
				"testReproduce()": "infinite"
			}
		},
		"methodIdentifiers": {
			"_mix(uint256,uint256)": "62c5b4c8",
			"_mix_tool(uint256,uint256,uint256)": "43759a57",
			"_mutate(uint256)": "a6f33405",
			"_random(uint256)": "046d30c7",
			"isGeneConsole()": "bcca04f8",
			"mixGene1()": "27752894",
			"mixGene2()": "7b8e1d92",
			"mixGenes(uint256,uint256)": "8d8b1b88",
			"randMix()": "50e3254e",
			"reproduce(uint256,uint256)": "4deace7b",
			"testReproduce()": "202a3483"
		}
	},
	"abi": [
		{
			"inputs": [
				{
					"internalType": "uint256",
					"name": "g1",
					"type": "uint256"
				},
				{
					"internalType": "uint256",
					"name": "g2",
					"type": "uint256"
				}
			],
			"name": "_mix",
			"outputs": [
				{
					"internalType": "uint256",
					"name": "",
					"type": "uint256"
				}
			],
			"stateMutability": "view",
			"type": "function"
		},
		{
			"inputs": [
				{
					"internalType": "uint256",
					"name": "gene1",
					"type": "uint256"
				},
				{
					"internalType": "uint256",
					"name": "gene2",
					"type": "uint256"
				},
				{
					"internalType": "uint256",
					"name": "_refactor",
					"type": "uint256"
				}
			],
			"name": "_mix_tool",
			"outputs": [
				{
					"internalType": "uint256",
					"name": "",
					"type": "uint256"
				}
			],
			"stateMutability": "view",
			"type": "function"
		},
		{
			"inputs": [
				{
					"internalType": "uint256",
					"name": "g1",
					"type": "uint256"
				}
			],
			"name": "_mutate",
			"outputs": [
				{
					"internalType": "uint256",
					"name": "",
					"type": "uint256"
				}
			],
			"stateMutability": "view",
			"type": "function"
		},
		{
			"inputs": [
				{
					"internalType": "uint256",
					"name": "_refactor",
					"type": "uint256"
				}
			],
			"name": "_random",
			"outputs": [
				{
					"internalType": "uint256",
					"name": "",
					"type": "uint256"
				}
			],
			"stateMutability": "view",
			"type": "function"
		},
		{
			"inputs": [],
			"name": "isGeneConsole",
			"outputs": [
				{
					"internalType": "bool",
					"name": "",
					"type": "bool"
				}
			],
			"stateMutability": "pure",
			"type": "function"
		},
		{
			"inputs": [],
			"name": "mixGene1",
			"outputs": [
				{
					"internalType": "uint256",
					"name": "",
					"type": "uint256"
				}
			],
			"stateMutability": "view",
			"type": "function"
		},
		{
			"inputs": [],
			"name": "mixGene2",
			"outputs": [
				{
					"internalType": "uint256",
					"name": "",
					"type": "uint256"
				}
			],
			"stateMutability": "view",
			"type": "function"
		},
		{
			"inputs": [
				{
					"internalType": "uint256",
					"name": "genes1",
					"type": "uint256"
				},
				{
					"internalType": "uint256",
					"name": "genes2",
					"type": "uint256"
				}
			],
			"name": "mixGenes",
			"outputs": [
				{
					"internalType": "uint256",
					"name": "",
					"type": "uint256"
				}
			],
			"stateMutability": "view",
			"type": "function"
		},
		{
			"inputs": [],
			"name": "randMix",
			"outputs": [
				{
					"internalType": "uint256",
					"name": "",
					"type": "uint256"
				}
			],
			"stateMutability": "view",
			"type": "function"
		},
		{
			"inputs": [
				{
					"internalType": "uint256",
					"name": "momGene",
					"type": "uint256"
				},
				{
					"internalType": "uint256",
					"name": "dadGene",
					"type": "uint256"
				}
			],
			"name": "reproduce",
			"outputs": [
				{
					"internalType": "uint256",
					"name": "",
					"type": "uint256"
				}
			],
			"stateMutability": "view",
			"type": "function"
		},
		{
			"inputs": [],
			"name": "testReproduce",
			"outputs": [
				{
					"internalType": "uint256",
					"name": "",
					"type": "uint256"
				}
			],
			"stateMutability": "view",
			"type": "function"
		}
	]
}