{
	"data": {
		"bytecode": {
			"linkReferences": {},
			"object": "608060405234801561001057600080fd5b506104a6806100206000396000f3fe608060405234801561001057600080fd5b506004361061004c5760003560e01c80630d34762914610051578063150b7a021461006f57806354a532671461009f57806383b5ff8b146100bd575b600080fd5b6100596100db565b6040516100669190610284565b60405180910390f35b610089600480360381019061008491906101b9565b6100ff565b6040516100969190610269565b60405180910390f35b6100a7610113565b6040516100b4919061029f565b60405180910390f35b6100c5610119565b6040516100d2919061029f565b60405180910390f35b60008054906101000a900473ffffffffffffffffffffffffffffffffffffffff1681565b600063150b7a0260e01b9050949350505050565b60025481565b60015481565b600061013261012d846102df565b6102ba565b90508281526020810184848401111561014e5761014d610422565b5b6101598482856103ae565b509392505050565b60008135905061017081610442565b92915050565b600082601f83011261018b5761018a61041d565b5b813561019b84826020860161011f565b91505092915050565b6000813590506101b381610459565b92915050565b600080600080608085870312156101d3576101d261042c565b5b60006101e187828801610161565b94505060206101f287828801610161565b9350506040610203878288016101a4565b925050606085013567ffffffffffffffff81111561022457610223610427565b5b61023087828801610176565b91505092959194509250565b61024581610322565b82525050565b61025481610378565b82525050565b6102638161036e565b82525050565b600060208201905061027e600083018461023c565b92915050565b6000602082019050610299600083018461024b565b92915050565b60006020820190506102b4600083018461025a565b92915050565b60006102c46102d5565b90506102d082826103bd565b919050565b6000604051905090565b600067ffffffffffffffff8211156102fa576102f96103ee565b5b61030382610431565b9050602081019050919050565b600061031b8261034e565b9050919050565b60007fffffffff0000000000000000000000000000000000000000000000000000000082169050919050565b600073ffffffffffffffffffffffffffffffffffffffff82169050919050565b6000819050919050565b60006103838261038a565b9050919050565b60006103958261039c565b9050919050565b60006103a78261034e565b9050919050565b82818337600083830152505050565b6103c682610431565b810181811067ffffffffffffffff821117156103e5576103e46103ee565b5b80604052505050565b7f4e487b7100000000000000000000000000000000000000000000000000000000600052604160045260246000fd5b600080fd5b600080fd5b600080fd5b600080fd5b6000601f19601f8301169050919050565b61044b81610310565b811461045657600080fd5b50565b6104628161036e565b811461046d57600080fd5b5056fea26469706673582212209f78da6048f583969d2659a2d49b3bde0efa4615d78729f5bd61ce3e477bed2164736f6c63430008070033",
			"opcodes": "PUSH1 0x80 PUSH1 0x40 MSTORE CALLVALUE DUP1 ISZERO PUSH2 0x10 JUMPI PUSH1 0x0 DUP1 REVERT JUMPDEST POP PUSH2 0x4A6 DUP1 PUSH2 0x20 PUSH1 0x0 CODECOPY PUSH1 0x0 RETURN INVALID PUSH1 0x80 PUSH1 0x40 MSTORE CALLVALUE DUP1 ISZERO PUSH2 0x10 JUMPI PUSH1 0x0 DUP1 REVERT JUMPDEST POP PUSH1 0x4 CALLDATASIZE LT PUSH2 0x4C JUMPI PUSH1 0x0 CALLDATALOAD PUSH1 0xE0 SHR DUP1 PUSH4 0xD347629 EQ PUSH2 0x51 JUMPI DUP1 PUSH4 0x150B7A02 EQ PUSH2 0x6F JUMPI DUP1 PUSH4 0x54A53267 EQ PUSH2 0x9F JUMPI DUP1 PUSH4 0x83B5FF8B EQ PUSH2 0xBD JUMPI JUMPDEST PUSH1 0x0 DUP1 REVERT JUMPDEST PUSH2 0x59 PUSH2 0xDB JUMP JUMPDEST PUSH1 0x40 MLOAD PUSH2 0x66 SWAP2 SWAP1 PUSH2 0x284 JUMP JUMPDEST PUSH1 0x40 MLOAD DUP1 SWAP2 SUB SWAP1 RETURN JUMPDEST PUSH2 0x89 PUSH1 0x4 DUP1 CALLDATASIZE SUB DUP2 ADD SWAP1 PUSH2 0x84 SWAP2 SWAP1 PUSH2 0x1B9 JUMP JUMPDEST PUSH2 0xFF JUMP JUMPDEST PUSH1 0x40 MLOAD PUSH2 0x96 SWAP2 SWAP1 PUSH2 0x269 JUMP JUMPDEST PUSH1 0x40 MLOAD DUP1 SWAP2 SUB SWAP1 RETURN JUMPDEST PUSH2 0xA7 PUSH2 0x113 JUMP JUMPDEST PUSH1 0x40 MLOAD PUSH2 0xB4 SWAP2 SWAP1 PUSH2 0x29F JUMP JUMPDEST PUSH1 0x40 MLOAD DUP1 SWAP2 SUB SWAP1 RETURN JUMPDEST PUSH2 0xC5 PUSH2 0x119 JUMP JUMPDEST PUSH1 0x40 MLOAD PUSH2 0xD2 SWAP2 SWAP1 PUSH2 0x29F JUMP JUMPDEST PUSH1 0x40 MLOAD DUP1 SWAP2 SUB SWAP1 RETURN JUMPDEST PUSH1 0x0 DUP1 SLOAD SWAP1 PUSH2 0x100 EXP SWAP1 DIV PUSH20 0xFFFFFFFFFFFFFFFFFFFFFFFFFFFFFFFFFFFFFFFF AND DUP2 JUMP JUMPDEST PUSH1 0x0 PUSH4 0x150B7A02 PUSH1 0xE0 SHL SWAP1 POP SWAP5 SWAP4 POP POP POP POP JUMP JUMPDEST PUSH1 0x2 SLOAD DUP2 JUMP JUMPDEST PUSH1 0x1 SLOAD DUP2 JUMP JUMPDEST PUSH1 0x0 PUSH2 0x132 PUSH2 0x12D DUP5 PUSH2 0x2DF JUMP JUMPDEST PUSH2 0x2BA JUMP JUMPDEST SWAP1 POP DUP3 DUP2 MSTORE PUSH1 0x20 DUP2 ADD DUP5 DUP5 DUP5 ADD GT ISZERO PUSH2 0x14E JUMPI PUSH2 0x14D PUSH2 0x422 JUMP JUMPDEST JUMPDEST PUSH2 0x159 DUP5 DUP3 DUP6 PUSH2 0x3AE JUMP JUMPDEST POP SWAP4 SWAP3 POP POP POP JUMP JUMPDEST PUSH1 0x0 DUP2 CALLDATALOAD SWAP1 POP PUSH2 0x170 DUP2 PUSH2 0x442 JUMP JUMPDEST SWAP3 SWAP2 POP POP JUMP JUMPDEST PUSH1 0x0 DUP3 PUSH1 0x1F DUP4 ADD SLT PUSH2 0x18B JUMPI PUSH2 0x18A PUSH2 0x41D JUMP JUMPDEST JUMPDEST DUP2 CALLDATALOAD PUSH2 0x19B DUP5 DUP3 PUSH1 0x20 DUP7 ADD PUSH2 0x11F JUMP JUMPDEST SWAP2 POP POP SWAP3 SWAP2 POP POP JUMP JUMPDEST PUSH1 0x0 DUP2 CALLDATALOAD SWAP1 POP PUSH2 0x1B3 DUP2 PUSH2 0x459 JUMP JUMPDEST SWAP3 SWAP2 POP POP JUMP JUMPDEST PUSH1 0x0 DUP1 PUSH1 0x0 DUP1 PUSH1 0x80 DUP6 DUP8 SUB SLT ISZERO PUSH2 0x1D3 JUMPI PUSH2 0x1D2 PUSH2 0x42C JUMP JUMPDEST JUMPDEST PUSH1 0x0 PUSH2 0x1E1 DUP8 DUP3 DUP9 ADD PUSH2 0x161 JUMP JUMPDEST SWAP5 POP POP PUSH1 0x20 PUSH2 0x1F2 DUP8 DUP3 DUP9 ADD PUSH2 0x161 JUMP JUMPDEST SWAP4 POP POP PUSH1 0x40 PUSH2 0x203 DUP8 DUP3 DUP9 ADD PUSH2 0x1A4 JUMP JUMPDEST SWAP3 POP POP PUSH1 0x60 DUP6 ADD CALLDATALOAD PUSH8 0xFFFFFFFFFFFFFFFF DUP2 GT ISZERO PUSH2 0x224 JUMPI PUSH2 0x223 PUSH2 0x427 JUMP JUMPDEST JUMPDEST PUSH2 0x230 DUP8 DUP3 DUP9 ADD PUSH2 0x176 JUMP JUMPDEST SWAP2 POP POP SWAP3 SWAP6 SWAP2 SWAP5 POP SWAP3 POP JUMP JUMPDEST PUSH2 0x245 DUP2 PUSH2 0x322 JUMP JUMPDEST DUP3 MSTORE POP POP JUMP JUMPDEST PUSH2 0x254 DUP2 PUSH2 0x378 JUMP JUMPDEST DUP3 MSTORE POP POP JUMP JUMPDEST PUSH2 0x263 DUP2 PUSH2 0x36E JUMP JUMPDEST DUP3 MSTORE POP POP JUMP JUMPDEST PUSH1 0x0 PUSH1 0x20 DUP3 ADD SWAP1 POP PUSH2 0x27E PUSH1 0x0 DUP4 ADD DUP5 PUSH2 0x23C JUMP JUMPDEST SWAP3 SWAP2 POP POP JUMP JUMPDEST PUSH1 0x0 PUSH1 0x20 DUP3 ADD SWAP1 POP PUSH2 0x299 PUSH1 0x0 DUP4 ADD DUP5 PUSH2 0x24B JUMP JUMPDEST SWAP3 SWAP2 POP POP JUMP JUMPDEST PUSH1 0x0 PUSH1 0x20 DUP3 ADD SWAP1 POP PUSH2 0x2B4 PUSH1 0x0 DUP4 ADD DUP5 PUSH2 0x25A JUMP JUMPDEST SWAP3 SWAP2 POP POP JUMP JUMPDEST PUSH1 0x0 PUSH2 0x2C4 PUSH2 0x2D5 JUMP JUMPDEST SWAP1 POP PUSH2 0x2D0 DUP3 DUP3 PUSH2 0x3BD JUMP JUMPDEST SWAP2 SWAP1 POP JUMP JUMPDEST PUSH1 0x0 PUSH1 0x40 MLOAD SWAP1 POP SWAP1 JUMP JUMPDEST PUSH1 0x0 PUSH8 0xFFFFFFFFFFFFFFFF DUP3 GT ISZERO PUSH2 0x2FA JUMPI PUSH2 0x2F9 PUSH2 0x3EE JUMP JUMPDEST JUMPDEST PUSH2 0x303 DUP3 PUSH2 0x431 JUMP JUMPDEST SWAP1 POP PUSH1 0x20 DUP2 ADD SWAP1 POP SWAP2 SWAP1 POP JUMP JUMPDEST PUSH1 0x0 PUSH2 0x31B DUP3 PUSH2 0x34E JUMP JUMPDEST SWAP1 POP SWAP2 SWAP1 POP JUMP JUMPDEST PUSH1 0x0 PUSH32 0xFFFFFFFF00000000000000000000000000000000000000000000000000000000 DUP3 AND SWAP1 POP SWAP2 SWAP1 POP JUMP JUMPDEST PUSH1 0x0 PUSH20 0xFFFFFFFFFFFFFFFFFFFFFFFFFFFFFFFFFFFFFFFF DUP3 AND SWAP1 POP SWAP2 SWAP1 POP JUMP JUMPDEST PUSH1 0x0 DUP2 SWAP1 POP SWAP2 SWAP1 POP JUMP JUMPDEST PUSH1 0x0 PUSH2 0x383 DUP3 PUSH2 0x38A JUMP JUMPDEST SWAP1 POP SWAP2 SWAP1 POP JUMP JUMPDEST PUSH1 0x0 PUSH2 0x395 DUP3 PUSH2 0x39C JUMP JUMPDEST SWAP1 POP SWAP2 SWAP1 POP JUMP JUMPDEST PUSH1 0x0 PUSH2 0x3A7 DUP3 PUSH2 0x34E JUMP JUMPDEST SWAP1 POP SWAP2 SWAP1 POP JUMP JUMPDEST DUP3 DUP2 DUP4 CALLDATACOPY PUSH1 0x0 DUP4 DUP4 ADD MSTORE POP POP POP JUMP JUMPDEST PUSH2 0x3C6 DUP3 PUSH2 0x431 JUMP JUMPDEST DUP2 ADD DUP2 DUP2 LT PUSH8 0xFFFFFFFFFFFFFFFF DUP3 GT OR ISZERO PUSH2 0x3E5 JUMPI PUSH2 0x3E4 PUSH2 0x3EE JUMP JUMPDEST JUMPDEST DUP1 PUSH1 0x40 MSTORE POP POP POP JUMP JUMPDEST PUSH32 0x4E487B7100000000000000000000000000000000000000000000000000000000 PUSH1 0x0 MSTORE PUSH1 0x41 PUSH1 0x4 MSTORE PUSH1 0x24 PUSH1 0x0 REVERT JUMPDEST PUSH1 0x0 DUP1 REVERT JUMPDEST PUSH1 0x0 DUP1 REVERT JUMPDEST PUSH1 0x0 DUP1 REVERT JUMPDEST PUSH1 0x0 DUP1 REVERT JUMPDEST PUSH1 0x0 PUSH1 0x1F NOT PUSH1 0x1F DUP4 ADD AND SWAP1 POP SWAP2 SWAP1 POP JUMP JUMPDEST PUSH2 0x44B DUP2 PUSH2 0x310 JUMP JUMPDEST DUP2 EQ PUSH2 0x456 JUMPI PUSH1 0x0 DUP1 REVERT JUMPDEST POP JUMP JUMPDEST PUSH2 0x462 DUP2 PUSH2 0x36E JUMP JUMPDEST DUP2 EQ PUSH2 0x46D JUMPI PUSH1 0x0 DUP1 REVERT JUMPDEST POP JUMP INVALID LOG2 PUSH5 0x6970667358 0x22 SLT KECCAK256 SWAP16 PUSH25 0xDA6048F583969D2659A2D49B3BDE0EFA4615D78729F5BD61CE RETURNDATACOPY SELFBALANCE PUSH28 0xED2164736F6C63430008070033000000000000000000000000000000 "
		},
		"gasEstimates": {
			"creation": {
				"codeDepositCost": "238000",
				"executionCost": "281",
				"totalCost": "238281"
			},
			"external": {
				"costNumber()": "2451",
				"onERC721Received(address,address,uint256,bytes)": "infinite",
				"ownerCut()": "2473",
				"semiFungibleContract()": "2575"
			},
			"internal": {
				"_addSale(uint256,struct MarketBase.Sale memory)": "infinite",
				"_bidSale(uint256,uint256)": "infinite",
				"_cancelSale(uint256,address)": "infinite",
				"_computeCurrentPrice(uint256,uint256,uint256,uint256)": "infinite",
				"_computeCut(uint256)": "infinite",
				"_currentPrice(struct MarketBase.Sale storage pointer)": "infinite",
				"_escrow(address,uint256)": "infinite",
				"_isOnSale(struct MarketBase.Sale storage pointer)": "infinite",
				"_owns(address,uint256)": "infinite",
				"_removeSale(uint256)": "infinite",
				"_transfer(address,uint256)": "infinite"
			}
		},
		"methodIdentifiers": {
			"costNumber()": "54a53267",
			"onERC721Received(address,address,uint256,bytes)": "150b7a02",
			"ownerCut()": "83b5ff8b",
			"semiFungibleContract()": "0d347629"
		}
	},
	"abi": [
		{
			"anonymous": false,
			"inputs": [
				{
					"indexed": true,
					"internalType": "uint256",
					"name": "tokenId",
					"type": "uint256"
				},
				{
					"indexed": true,
					"internalType": "uint256",
					"name": "currentPrice",
					"type": "uint256"
				},
				{
					"indexed": true,
					"internalType": "address",
					"name": "currentBidder",
					"type": "address"
				}
			],
			"name": "BidSuccessful",
			"type": "event"
		},
		{
			"anonymous": false,
			"inputs": [
				{
					"indexed": true,
					"internalType": "uint256",
					"name": "coins",
					"type": "uint256"
				}
			],
			"name": "ExtractCoinEvent",
			"type": "event"
		},
		{
			"anonymous": false,
			"inputs": [
				{
					"indexed": true,
					"internalType": "uint256",
					"name": "tokenId",
					"type": "uint256"
				},
				{
					"indexed": false,
					"internalType": "address",
					"name": "seller",
					"type": "address"
				}
			],
			"name": "SaleCancelled",
			"type": "event"
		},
		{
			"anonymous": false,
			"inputs": [
				{
					"indexed": true,
					"internalType": "uint256",
					"name": "tokenId",
					"type": "uint256"
				},
				{
					"indexed": true,
					"internalType": "uint256",
					"name": "startingPrice",
					"type": "uint256"
				},
				{
					"indexed": false,
					"internalType": "uint256",
					"name": "endingPrice",
					"type": "uint256"
				},
				{
					"indexed": true,
					"internalType": "uint256",
					"name": "duration",
					"type": "uint256"
				},
				{
					"indexed": false,
					"internalType": "uint256",
					"name": "timestamp",
					"type": "uint256"
				},
				{
					"indexed": false,
					"internalType": "address",
					"name": "seller",
					"type": "address"
				}
			],
			"name": "SaleCreated",
			"type": "event"
		},
		{
			"anonymous": false,
			"inputs": [
				{
					"indexed": true,
					"internalType": "uint256",
					"name": "tokenId",
					"type": "uint256"
				},
				{
					"indexed": true,
					"internalType": "uint256",
					"name": "finalPrice",
					"type": "uint256"
				},
				{
					"indexed": true,
					"internalType": "address",
					"name": "buyer",
					"type": "address"
				}
			],
			"name": "SaleSuccessful",
			"type": "event"
		},
		{
			"inputs": [],
			"name": "costNumber",
			"outputs": [
				{
					"internalType": "uint256",
					"name": "",
					"type": "uint256"
				}
			],
			"stateMutability": "view",
			"type": "function"
		},
		{
			"inputs": [
				{
					"internalType": "address",
					"name": "",
					"type": "address"
				},
				{
					"internalType": "address",
					"name": "",
					"type": "address"
				},
				{
					"internalType": "uint256",
					"name": "",
					"type": "uint256"
				},
				{
					"internalType": "bytes",
					"name": "",
					"type": "bytes"
				}
			],
			"name": "onERC721Received",
			"outputs": [
				{
					"internalType": "bytes4",
					"name": "",
					"type": "bytes4"
				}
			],
			"stateMutability": "nonpayable",
			"type": "function"
		},
		{
			"inputs": [],
			"name": "ownerCut",
			"outputs": [
				{
					"internalType": "uint256",
					"name": "",
					"type": "uint256"
				}
			],
			"stateMutability": "view",
			"type": "function"
		},
		{
			"inputs": [],
			"name": "semiFungibleContract",
			"outputs": [
				{
					"internalType": "contract IERC721",
					"name": "",
					"type": "address"
				}
			],
			"stateMutability": "view",
			"type": "function"
		}
	]
}